{
	"contracts/practice/problems/modifiersProblem.sol": {
		"RestrictedCount": {
			"abi": [
				{
					"inputs": [],
					"stateMutability": "nonpayable",
					"type": "constructor"
				},
				{
					"inputs": [
						{
							"internalType": "int256",
							"name": "value",
							"type": "int256"
						}
					],
					"name": "add",
					"outputs": [],
					"stateMutability": "nonpayable",
					"type": "function"
				},
				{
					"inputs": [],
					"name": "getCount",
					"outputs": [
						{
							"internalType": "int256",
							"name": "value",
							"type": "int256"
						}
					],
					"stateMutability": "view",
					"type": "function"
				},
				{
					"inputs": [
						{
							"internalType": "int256",
							"name": "value",
							"type": "int256"
						}
					],
					"name": "subtract",
					"outputs": [],
					"stateMutability": "nonpayable",
					"type": "function"
				}
			],
			"devdoc": {
				"kind": "dev",
				"methods": {},
				"version": 1
			},
			"evm": {
				"assembly": "    /* \"contracts/practice/problems/modifiersProblem.sol\":139:1227  contract RestrictedCount {... */\n  mstore(0x40, 0x80)\n    /* \"contracts/practice/problems/modifiersProblem.sol\":209:260  constructor() {... */\n  callvalue\n  dup1\n  iszero\n  tag_1\n  jumpi\n  0x00\n  dup1\n  revert\ntag_1:\n  pop\n    /* \"contracts/practice/problems/modifiersProblem.sol\":242:252  msg.sender */\n  caller\n    /* \"contracts/practice/problems/modifiersProblem.sol\":234:239  owner */\n  0x00\n  dup1\n    /* \"contracts/practice/problems/modifiersProblem.sol\":234:252  owner = msg.sender */\n  0x0100\n  exp\n  dup2\n  sload\n  dup2\n  0xffffffffffffffffffffffffffffffffffffffff\n  mul\n  not\n  and\n  swap1\n  dup4\n  0xffffffffffffffffffffffffffffffffffffffff\n  and\n  mul\n  or\n  swap1\n  sstore\n  pop\n    /* \"contracts/practice/problems/modifiersProblem.sol\":139:1227  contract RestrictedCount {... */\n  dataSize(sub_0)\n  dup1\n  dataOffset(sub_0)\n  0x00\n  codecopy\n  0x00\n  return\nstop\n\nsub_0: assembly {\n        /* \"contracts/practice/problems/modifiersProblem.sol\":139:1227  contract RestrictedCount {... */\n      mstore(0x40, 0x80)\n      callvalue\n      dup1\n      iszero\n      tag_1\n      jumpi\n      0x00\n      dup1\n      revert\n    tag_1:\n      pop\n      jumpi(tag_2, lt(calldatasize, 0x04))\n      shr(0xe0, calldataload(0x00))\n      dup1\n      0x87db03b7\n      eq\n      tag_3\n      jumpi\n      dup1\n      0xa87d942c\n      eq\n      tag_4\n      jumpi\n      dup1\n      0xae0f6166\n      eq\n      tag_5\n      jumpi\n    tag_2:\n      0x00\n      dup1\n      revert\n        /* \"contracts/practice/problems/modifiersProblem.sol\":974:1061  function add(int value) public isOwner maxCount(value){... */\n    tag_3:\n      tag_6\n      0x04\n      dup1\n      calldatasize\n      sub\n      dup2\n      add\n      swap1\n      tag_7\n      swap2\n      swap1\n      tag_8\n      jump\t// in\n    tag_7:\n      tag_9\n      jump\t// in\n    tag_6:\n      stop\n        /* \"contracts/practice/problems/modifiersProblem.sol\":834:915  function getCount() public view returns(int value){... */\n    tag_4:\n      tag_10\n      tag_11\n      jump\t// in\n    tag_10:\n      mload(0x40)\n      tag_12\n      swap2\n      swap1\n      tag_13\n      jump\t// in\n    tag_12:\n      mload(0x40)\n      dup1\n      swap2\n      sub\n      swap1\n      return\n        /* \"contracts/practice/problems/modifiersProblem.sol\":1130:1222  function subtract(int value) public isOwner minCount(value){... */\n    tag_5:\n      tag_14\n      0x04\n      dup1\n      calldatasize\n      sub\n      dup2\n      add\n      swap1\n      tag_15\n      swap2\n      swap1\n      tag_8\n      jump\t// in\n    tag_15:\n      tag_16\n      jump\t// in\n    tag_14:\n      stop\n        /* \"contracts/practice/problems/modifiersProblem.sol\":974:1061  function add(int value) public isOwner maxCount(value){... */\n    tag_9:\n        /* \"contracts/practice/problems/modifiersProblem.sol\":358:363  owner */\n      0x00\n      dup1\n      sload\n      swap1\n      0x0100\n      exp\n      swap1\n      div\n      0xffffffffffffffffffffffffffffffffffffffff\n      and\n        /* \"contracts/practice/problems/modifiersProblem.sol\":344:363  msg.sender == owner */\n      0xffffffffffffffffffffffffffffffffffffffff\n      and\n        /* \"contracts/practice/problems/modifiersProblem.sol\":344:354  msg.sender */\n      caller\n        /* \"contracts/practice/problems/modifiersProblem.sol\":344:363  msg.sender == owner */\n      0xffffffffffffffffffffffffffffffffffffffff\n      and\n      eq\n        /* \"contracts/practice/problems/modifiersProblem.sol\":336:405  require(msg.sender == owner, \"You are not a owner of this function.\") */\n      tag_18\n      jumpi\n      mload(0x40)\n      0x08c379a000000000000000000000000000000000000000000000000000000000\n      dup2\n      mstore\n      0x04\n      add\n      tag_19\n      swap1\n      tag_20\n      jump\t// in\n    tag_19:\n      mload(0x40)\n      dup1\n      swap2\n      sub\n      swap1\n      revert\n    tag_18:\n        /* \"contracts/practice/problems/modifiersProblem.sol\":1022:1027  value */\n      dup1\n        /* \"contracts/practice/problems/modifiersProblem.sol\":549:552  100 */\n      0x64\n        /* \"contracts/practice/problems/modifiersProblem.sol\":540:545  value */\n      dup2\n        /* \"contracts/practice/problems/modifiersProblem.sol\":534:539  count */\n      sload(0x01)\n        /* \"contracts/practice/problems/modifiersProblem.sol\":534:545  count+value */\n      tag_22\n      swap2\n      swap1\n      tag_23\n      jump\t// in\n    tag_22:\n        /* \"contracts/practice/problems/modifiersProblem.sol\":534:552  count+value <= 100 */\n      sgt\n      iszero\n        /* \"contracts/practice/problems/modifiersProblem.sol\":526:584  require(count+value <= 100 ,  \"Count is greater than 100\") */\n      tag_24\n      jumpi\n      mload(0x40)\n      0x08c379a000000000000000000000000000000000000000000000000000000000\n      dup2\n      mstore\n      0x04\n      add\n      tag_25\n      swap1\n      tag_26\n      jump\t// in\n    tag_25:\n      mload(0x40)\n      dup1\n      swap2\n      sub\n      swap1\n      revert\n    tag_24:\n        /* \"contracts/practice/problems/modifiersProblem.sol\":1048:1053  value */\n      dup2\n        /* \"contracts/practice/problems/modifiersProblem.sol\":1039:1044  count */\n      0x01\n      0x00\n        /* \"contracts/practice/problems/modifiersProblem.sol\":1039:1053  count += value */\n      dup3\n      dup3\n      sload\n      tag_28\n      swap2\n      swap1\n      tag_23\n      jump\t// in\n    tag_28:\n      swap3\n      pop\n      pop\n      dup2\n      swap1\n      sstore\n      pop\n        /* \"contracts/practice/problems/modifiersProblem.sol\":416:417  _ */\n      pop\n        /* \"contracts/practice/problems/modifiersProblem.sol\":974:1061  function add(int value) public isOwner maxCount(value){... */\n      pop\n      jump\t// out\n        /* \"contracts/practice/problems/modifiersProblem.sol\":834:915  function getCount() public view returns(int value){... */\n    tag_11:\n        /* \"contracts/practice/problems/modifiersProblem.sol\":874:883  int value */\n      0x00\n        /* \"contracts/practice/problems/modifiersProblem.sol\":902:907  count */\n      sload(0x01)\n        /* \"contracts/practice/problems/modifiersProblem.sol\":895:907  return count */\n      swap1\n      pop\n        /* \"contracts/practice/problems/modifiersProblem.sol\":834:915  function getCount() public view returns(int value){... */\n      swap1\n      jump\t// out\n        /* \"contracts/practice/problems/modifiersProblem.sol\":1130:1222  function subtract(int value) public isOwner minCount(value){... */\n    tag_16:\n        /* \"contracts/practice/problems/modifiersProblem.sol\":358:363  owner */\n      0x00\n      dup1\n      sload\n      swap1\n      0x0100\n      exp\n      swap1\n      div\n      0xffffffffffffffffffffffffffffffffffffffff\n      and\n        /* \"contracts/practice/problems/modifiersProblem.sol\":344:363  msg.sender == owner */\n      0xffffffffffffffffffffffffffffffffffffffff\n      and\n        /* \"contracts/practice/problems/modifiersProblem.sol\":344:354  msg.sender */\n      caller\n        /* \"contracts/practice/problems/modifiersProblem.sol\":344:363  msg.sender == owner */\n      0xffffffffffffffffffffffffffffffffffffffff\n      and\n      eq\n        /* \"contracts/practice/problems/modifiersProblem.sol\":336:405  require(msg.sender == owner, \"You are not a owner of this function.\") */\n      tag_31\n      jumpi\n      mload(0x40)\n      0x08c379a000000000000000000000000000000000000000000000000000000000\n      dup2\n      mstore\n      0x04\n      add\n      tag_32\n      swap1\n      tag_20\n      jump\t// in\n    tag_32:\n      mload(0x40)\n      dup1\n      swap2\n      sub\n      swap1\n      revert\n    tag_31:\n        /* \"contracts/practice/problems/modifiersProblem.sol\":1183:1188  value */\n      dup1\n        /* \"contracts/practice/problems/modifiersProblem.sol\":730:734  -100 */\n      0xffffffffffffffffffffffffffffffffffffffffffffffffffffffffffffff9c\n        /* \"contracts/practice/problems/modifiersProblem.sol\":721:726  value */\n      dup2\n        /* \"contracts/practice/problems/modifiersProblem.sol\":715:720  count */\n      sload(0x01)\n        /* \"contracts/practice/problems/modifiersProblem.sol\":715:726  count-value */\n      tag_34\n      swap2\n      swap1\n      tag_35\n      jump\t// in\n    tag_34:\n        /* \"contracts/practice/problems/modifiersProblem.sol\":715:734  count-value >= -100 */\n      slt\n      iszero\n        /* \"contracts/practice/problems/modifiersProblem.sol\":707:764  require(count-value >= -100 ,  \"Count is less than -100\") */\n      tag_36\n      jumpi\n      mload(0x40)\n      0x08c379a000000000000000000000000000000000000000000000000000000000\n      dup2\n      mstore\n      0x04\n      add\n      tag_37\n      swap1\n      tag_38\n      jump\t// in\n    tag_37:\n      mload(0x40)\n      dup1\n      swap2\n      sub\n      swap1\n      revert\n    tag_36:\n        /* \"contracts/practice/problems/modifiersProblem.sol\":1209:1214  value */\n      dup2\n        /* \"contracts/practice/problems/modifiersProblem.sol\":1200:1205  count */\n      0x01\n      0x00\n        /* \"contracts/practice/problems/modifiersProblem.sol\":1200:1214  count -= value */\n      dup3\n      dup3\n      sload\n      tag_40\n      swap2\n      swap1\n      tag_35\n      jump\t// in\n    tag_40:\n      swap3\n      pop\n      pop\n      dup2\n      swap1\n      sstore\n      pop\n        /* \"contracts/practice/problems/modifiersProblem.sol\":416:417  _ */\n      pop\n        /* \"contracts/practice/problems/modifiersProblem.sol\":1130:1222  function subtract(int value) public isOwner minCount(value){... */\n      pop\n      jump\t// out\n        /* \"#utility.yul\":88:205   */\n    tag_42:\n        /* \"#utility.yul\":197:198   */\n      0x00\n        /* \"#utility.yul\":194:195   */\n      dup1\n        /* \"#utility.yul\":187:199   */\n      revert\n        /* \"#utility.yul\":334:410   */\n    tag_44:\n        /* \"#utility.yul\":370:377   */\n      0x00\n        /* \"#utility.yul\":399:404   */\n      dup2\n        /* \"#utility.yul\":388:404   */\n      swap1\n      pop\n        /* \"#utility.yul\":334:410   */\n      swap2\n      swap1\n      pop\n      jump\t// out\n        /* \"#utility.yul\":416:536   */\n    tag_45:\n        /* \"#utility.yul\":488:511   */\n      tag_62\n        /* \"#utility.yul\":505:510   */\n      dup2\n        /* \"#utility.yul\":488:511   */\n      tag_44\n      jump\t// in\n    tag_62:\n        /* \"#utility.yul\":481:486   */\n      dup2\n        /* \"#utility.yul\":478:512   */\n      eq\n        /* \"#utility.yul\":468:530   */\n      tag_63\n      jumpi\n        /* \"#utility.yul\":526:527   */\n      0x00\n        /* \"#utility.yul\":523:524   */\n      dup1\n        /* \"#utility.yul\":516:528   */\n      revert\n        /* \"#utility.yul\":468:530   */\n    tag_63:\n        /* \"#utility.yul\":416:536   */\n      pop\n      jump\t// out\n        /* \"#utility.yul\":542:679   */\n    tag_46:\n        /* \"#utility.yul\":587:592   */\n      0x00\n        /* \"#utility.yul\":625:631   */\n      dup2\n        /* \"#utility.yul\":612:632   */\n      calldataload\n        /* \"#utility.yul\":603:632   */\n      swap1\n      pop\n        /* \"#utility.yul\":641:673   */\n      tag_65\n        /* \"#utility.yul\":667:672   */\n      dup2\n        /* \"#utility.yul\":641:673   */\n      tag_45\n      jump\t// in\n    tag_65:\n        /* \"#utility.yul\":542:679   */\n      swap3\n      swap2\n      pop\n      pop\n      jump\t// out\n        /* \"#utility.yul\":685:1012   */\n    tag_8:\n        /* \"#utility.yul\":743:749   */\n      0x00\n        /* \"#utility.yul\":792:794   */\n      0x20\n        /* \"#utility.yul\":780:789   */\n      dup3\n        /* \"#utility.yul\":771:778   */\n      dup5\n        /* \"#utility.yul\":767:790   */\n      sub\n        /* \"#utility.yul\":763:795   */\n      slt\n        /* \"#utility.yul\":760:879   */\n      iszero\n      tag_67\n      jumpi\n        /* \"#utility.yul\":798:877   */\n      tag_68\n      tag_42\n      jump\t// in\n    tag_68:\n        /* \"#utility.yul\":760:879   */\n    tag_67:\n        /* \"#utility.yul\":918:919   */\n      0x00\n        /* \"#utility.yul\":943:995   */\n      tag_69\n        /* \"#utility.yul\":987:994   */\n      dup5\n        /* \"#utility.yul\":978:984   */\n      dup3\n        /* \"#utility.yul\":967:976   */\n      dup6\n        /* \"#utility.yul\":963:985   */\n      add\n        /* \"#utility.yul\":943:995   */\n      tag_46\n      jump\t// in\n    tag_69:\n        /* \"#utility.yul\":933:995   */\n      swap2\n      pop\n        /* \"#utility.yul\":889:1005   */\n      pop\n        /* \"#utility.yul\":685:1012   */\n      swap3\n      swap2\n      pop\n      pop\n      jump\t// out\n        /* \"#utility.yul\":1018:1133   */\n    tag_47:\n        /* \"#utility.yul\":1103:1126   */\n      tag_71\n        /* \"#utility.yul\":1120:1125   */\n      dup2\n        /* \"#utility.yul\":1103:1126   */\n      tag_44\n      jump\t// in\n    tag_71:\n        /* \"#utility.yul\":1098:1101   */\n      dup3\n        /* \"#utility.yul\":1091:1127   */\n      mstore\n        /* \"#utility.yul\":1018:1133   */\n      pop\n      pop\n      jump\t// out\n        /* \"#utility.yul\":1139:1357   */\n    tag_13:\n        /* \"#utility.yul\":1230:1234   */\n      0x00\n        /* \"#utility.yul\":1268:1270   */\n      0x20\n        /* \"#utility.yul\":1257:1266   */\n      dup3\n        /* \"#utility.yul\":1253:1271   */\n      add\n        /* \"#utility.yul\":1245:1271   */\n      swap1\n      pop\n        /* \"#utility.yul\":1281:1350   */\n      tag_73\n        /* \"#utility.yul\":1347:1348   */\n      0x00\n        /* \"#utility.yul\":1336:1345   */\n      dup4\n        /* \"#utility.yul\":1332:1349   */\n      add\n        /* \"#utility.yul\":1323:1329   */\n      dup5\n        /* \"#utility.yul\":1281:1350   */\n      tag_47\n      jump\t// in\n    tag_73:\n        /* \"#utility.yul\":1139:1357   */\n      swap3\n      swap2\n      pop\n      pop\n      jump\t// out\n        /* \"#utility.yul\":1363:1532   */\n    tag_48:\n        /* \"#utility.yul\":1447:1458   */\n      0x00\n        /* \"#utility.yul\":1481:1487   */\n      dup3\n        /* \"#utility.yul\":1476:1479   */\n      dup3\n        /* \"#utility.yul\":1469:1488   */\n      mstore\n        /* \"#utility.yul\":1521:1525   */\n      0x20\n        /* \"#utility.yul\":1516:1519   */\n      dup3\n        /* \"#utility.yul\":1512:1526   */\n      add\n        /* \"#utility.yul\":1497:1526   */\n      swap1\n      pop\n        /* \"#utility.yul\":1363:1532   */\n      swap3\n      swap2\n      pop\n      pop\n      jump\t// out\n        /* \"#utility.yul\":1538:1762   */\n    tag_49:\n        /* \"#utility.yul\":1678:1712   */\n      0x596f7520617265206e6f742061206f776e6572206f6620746869732066756e63\n        /* \"#utility.yul\":1674:1675   */\n      0x00\n        /* \"#utility.yul\":1666:1672   */\n      dup3\n        /* \"#utility.yul\":1662:1676   */\n      add\n        /* \"#utility.yul\":1655:1713   */\n      mstore\n        /* \"#utility.yul\":1747:1754   */\n      0x74696f6e2e000000000000000000000000000000000000000000000000000000\n        /* \"#utility.yul\":1742:1744   */\n      0x20\n        /* \"#utility.yul\":1734:1740   */\n      dup3\n        /* \"#utility.yul\":1730:1745   */\n      add\n        /* \"#utility.yul\":1723:1755   */\n      mstore\n        /* \"#utility.yul\":1538:1762   */\n      pop\n      jump\t// out\n        /* \"#utility.yul\":1768:2134   */\n    tag_50:\n        /* \"#utility.yul\":1910:1913   */\n      0x00\n        /* \"#utility.yul\":1931:1998   */\n      tag_77\n        /* \"#utility.yul\":1995:1997   */\n      0x25\n        /* \"#utility.yul\":1990:1993   */\n      dup4\n        /* \"#utility.yul\":1931:1998   */\n      tag_48\n      jump\t// in\n    tag_77:\n        /* \"#utility.yul\":1924:1998   */\n      swap2\n      pop\n        /* \"#utility.yul\":2007:2100   */\n      tag_78\n        /* \"#utility.yul\":2096:2099   */\n      dup3\n        /* \"#utility.yul\":2007:2100   */\n      tag_49\n      jump\t// in\n    tag_78:\n        /* \"#utility.yul\":2125:2127   */\n      0x40\n        /* \"#utility.yul\":2120:2123   */\n      dup3\n        /* \"#utility.yul\":2116:2128   */\n      add\n        /* \"#utility.yul\":2109:2128   */\n      swap1\n      pop\n        /* \"#utility.yul\":1768:2134   */\n      swap2\n      swap1\n      pop\n      jump\t// out\n        /* \"#utility.yul\":2140:2559   */\n    tag_20:\n        /* \"#utility.yul\":2306:2310   */\n      0x00\n        /* \"#utility.yul\":2344:2346   */\n      0x20\n        /* \"#utility.yul\":2333:2342   */\n      dup3\n        /* \"#utility.yul\":2329:2347   */\n      add\n        /* \"#utility.yul\":2321:2347   */\n      swap1\n      pop\n        /* \"#utility.yul\":2393:2402   */\n      dup2\n        /* \"#utility.yul\":2387:2391   */\n      dup2\n        /* \"#utility.yul\":2383:2403   */\n      sub\n        /* \"#utility.yul\":2379:2380   */\n      0x00\n        /* \"#utility.yul\":2368:2377   */\n      dup4\n        /* \"#utility.yul\":2364:2381   */\n      add\n        /* \"#utility.yul\":2357:2404   */\n      mstore\n        /* \"#utility.yul\":2421:2552   */\n      tag_80\n        /* \"#utility.yul\":2547:2551   */\n      dup2\n        /* \"#utility.yul\":2421:2552   */\n      tag_50\n      jump\t// in\n    tag_80:\n        /* \"#utility.yul\":2413:2552   */\n      swap1\n      pop\n        /* \"#utility.yul\":2140:2559   */\n      swap2\n      swap1\n      pop\n      jump\t// out\n        /* \"#utility.yul\":2565:2745   */\n    tag_51:\n        /* \"#utility.yul\":2613:2690   */\n      0x4e487b7100000000000000000000000000000000000000000000000000000000\n        /* \"#utility.yul\":2610:2611   */\n      0x00\n        /* \"#utility.yul\":2603:2691   */\n      mstore\n        /* \"#utility.yul\":2710:2714   */\n      0x11\n        /* \"#utility.yul\":2707:2708   */\n      0x04\n        /* \"#utility.yul\":2700:2715   */\n      mstore\n        /* \"#utility.yul\":2734:2738   */\n      0x24\n        /* \"#utility.yul\":2731:2732   */\n      0x00\n        /* \"#utility.yul\":2724:2739   */\n      revert\n        /* \"#utility.yul\":2751:3126   */\n    tag_23:\n        /* \"#utility.yul\":2790:2793   */\n      0x00\n        /* \"#utility.yul\":2809:2828   */\n      tag_83\n        /* \"#utility.yul\":2826:2827   */\n      dup3\n        /* \"#utility.yul\":2809:2828   */\n      tag_44\n      jump\t// in\n    tag_83:\n        /* \"#utility.yul\":2804:2828   */\n      swap2\n      pop\n        /* \"#utility.yul\":2842:2861   */\n      tag_84\n        /* \"#utility.yul\":2859:2860   */\n      dup4\n        /* \"#utility.yul\":2842:2861   */\n      tag_44\n      jump\t// in\n    tag_84:\n        /* \"#utility.yul\":2837:2861   */\n      swap3\n      pop\n        /* \"#utility.yul\":2884:2885   */\n      dup3\n        /* \"#utility.yul\":2881:2882   */\n      dup3\n        /* \"#utility.yul\":2877:2886   */\n      add\n        /* \"#utility.yul\":2870:2886   */\n      swap1\n      pop\n        /* \"#utility.yul\":3082:3083   */\n      dup3\n        /* \"#utility.yul\":3077:3080   */\n      dup2\n        /* \"#utility.yul\":3073:3084   */\n      slt\n        /* \"#utility.yul\":3066:3085   */\n      iszero\n        /* \"#utility.yul\":3062:3063   */\n      0x00\n        /* \"#utility.yul\":3059:3060   */\n      dup4\n        /* \"#utility.yul\":3055:3064   */\n      slt\n        /* \"#utility.yul\":3051:3086   */\n      and\n        /* \"#utility.yul\":3034:3035   */\n      dup4\n        /* \"#utility.yul\":3029:3032   */\n      dup3\n        /* \"#utility.yul\":3025:3036   */\n      slt\n        /* \"#utility.yul\":3020:3021   */\n      0x00\n        /* \"#utility.yul\":3017:3018   */\n      dup5\n        /* \"#utility.yul\":3013:3022   */\n      slt\n        /* \"#utility.yul\":3006:3023   */\n      iszero\n        /* \"#utility.yul\":3002:3037   */\n      and\n        /* \"#utility.yul\":2986:3096   */\n      or\n        /* \"#utility.yul\":2983:3119   */\n      iszero\n      tag_85\n      jumpi\n        /* \"#utility.yul\":3099:3117   */\n      tag_86\n      tag_51\n      jump\t// in\n    tag_86:\n        /* \"#utility.yul\":2983:3119   */\n    tag_85:\n        /* \"#utility.yul\":2751:3126   */\n      swap3\n      swap2\n      pop\n      pop\n      jump\t// out\n        /* \"#utility.yul\":3132:3307   */\n    tag_52:\n        /* \"#utility.yul\":3272:3299   */\n      0x436f756e742069732067726561746572207468616e2031303000000000000000\n        /* \"#utility.yul\":3268:3269   */\n      0x00\n        /* \"#utility.yul\":3260:3266   */\n      dup3\n        /* \"#utility.yul\":3256:3270   */\n      add\n        /* \"#utility.yul\":3249:3300   */\n      mstore\n        /* \"#utility.yul\":3132:3307   */\n      pop\n      jump\t// out\n        /* \"#utility.yul\":3313:3679   */\n    tag_53:\n        /* \"#utility.yul\":3455:3458   */\n      0x00\n        /* \"#utility.yul\":3476:3543   */\n      tag_89\n        /* \"#utility.yul\":3540:3542   */\n      0x19\n        /* \"#utility.yul\":3535:3538   */\n      dup4\n        /* \"#utility.yul\":3476:3543   */\n      tag_48\n      jump\t// in\n    tag_89:\n        /* \"#utility.yul\":3469:3543   */\n      swap2\n      pop\n        /* \"#utility.yul\":3552:3645   */\n      tag_90\n        /* \"#utility.yul\":3641:3644   */\n      dup3\n        /* \"#utility.yul\":3552:3645   */\n      tag_52\n      jump\t// in\n    tag_90:\n        /* \"#utility.yul\":3670:3672   */\n      0x20\n        /* \"#utility.yul\":3665:3668   */\n      dup3\n        /* \"#utility.yul\":3661:3673   */\n      add\n        /* \"#utility.yul\":3654:3673   */\n      swap1\n      pop\n        /* \"#utility.yul\":3313:3679   */\n      swap2\n      swap1\n      pop\n      jump\t// out\n        /* \"#utility.yul\":3685:4104   */\n    tag_26:\n        /* \"#utility.yul\":3851:3855   */\n      0x00\n        /* \"#utility.yul\":3889:3891   */\n      0x20\n        /* \"#utility.yul\":3878:3887   */\n      dup3\n        /* \"#utility.yul\":3874:3892   */\n      add\n        /* \"#utility.yul\":3866:3892   */\n      swap1\n      pop\n        /* \"#utility.yul\":3938:3947   */\n      dup2\n        /* \"#utility.yul\":3932:3936   */\n      dup2\n        /* \"#utility.yul\":3928:3948   */\n      sub\n        /* \"#utility.yul\":3924:3925   */\n      0x00\n        /* \"#utility.yul\":3913:3922   */\n      dup4\n        /* \"#utility.yul\":3909:3926   */\n      add\n        /* \"#utility.yul\":3902:3949   */\n      mstore\n        /* \"#utility.yul\":3966:4097   */\n      tag_92\n        /* \"#utility.yul\":4092:4096   */\n      dup2\n        /* \"#utility.yul\":3966:4097   */\n      tag_53\n      jump\t// in\n    tag_92:\n        /* \"#utility.yul\":3958:4097   */\n      swap1\n      pop\n        /* \"#utility.yul\":3685:4104   */\n      swap2\n      swap1\n      pop\n      jump\t// out\n        /* \"#utility.yul\":4110:4482   */\n    tag_35:\n        /* \"#utility.yul\":4149:4153   */\n      0x00\n        /* \"#utility.yul\":4169:4188   */\n      tag_94\n        /* \"#utility.yul\":4186:4187   */\n      dup3\n        /* \"#utility.yul\":4169:4188   */\n      tag_44\n      jump\t// in\n    tag_94:\n        /* \"#utility.yul\":4164:4188   */\n      swap2\n      pop\n        /* \"#utility.yul\":4202:4221   */\n      tag_95\n        /* \"#utility.yul\":4219:4220   */\n      dup4\n        /* \"#utility.yul\":4202:4221   */\n      tag_44\n      jump\t// in\n    tag_95:\n        /* \"#utility.yul\":4197:4221   */\n      swap3\n      pop\n        /* \"#utility.yul\":4245:4246   */\n      dup3\n        /* \"#utility.yul\":4242:4243   */\n      dup3\n        /* \"#utility.yul\":4238:4247   */\n      sub\n        /* \"#utility.yul\":4230:4247   */\n      swap1\n      pop\n        /* \"#utility.yul\":4439:4440   */\n      dup2\n        /* \"#utility.yul\":4433:4437   */\n      dup2\n        /* \"#utility.yul\":4429:4441   */\n      slt\n        /* \"#utility.yul\":4425:4426   */\n      0x00\n        /* \"#utility.yul\":4422:4423   */\n      dup5\n        /* \"#utility.yul\":4418:4427   */\n      slt\n        /* \"#utility.yul\":4414:4442   */\n      and\n        /* \"#utility.yul\":4397:4398   */\n      dup3\n        /* \"#utility.yul\":4391:4395   */\n      dup3\n        /* \"#utility.yul\":4387:4399   */\n      sgt\n        /* \"#utility.yul\":4382:4383   */\n      0x00\n        /* \"#utility.yul\":4379:4380   */\n      dup6\n        /* \"#utility.yul\":4375:4384   */\n      slt\n        /* \"#utility.yul\":4368:4385   */\n      iszero\n        /* \"#utility.yul\":4364:4400   */\n      and\n        /* \"#utility.yul\":4348:4452   */\n      or\n        /* \"#utility.yul\":4345:4475   */\n      iszero\n      tag_96\n      jumpi\n        /* \"#utility.yul\":4455:4473   */\n      tag_97\n      tag_51\n      jump\t// in\n    tag_97:\n        /* \"#utility.yul\":4345:4475   */\n    tag_96:\n        /* \"#utility.yul\":4110:4482   */\n      swap3\n      swap2\n      pop\n      pop\n      jump\t// out\n        /* \"#utility.yul\":4488:4661   */\n    tag_54:\n        /* \"#utility.yul\":4628:4653   */\n      0x436f756e74206973206c657373207468616e202d313030000000000000000000\n        /* \"#utility.yul\":4624:4625   */\n      0x00\n        /* \"#utility.yul\":4616:4622   */\n      dup3\n        /* \"#utility.yul\":4612:4626   */\n      add\n        /* \"#utility.yul\":4605:4654   */\n      mstore\n        /* \"#utility.yul\":4488:4661   */\n      pop\n      jump\t// out\n        /* \"#utility.yul\":4667:5033   */\n    tag_55:\n        /* \"#utility.yul\":4809:4812   */\n      0x00\n        /* \"#utility.yul\":4830:4897   */\n      tag_100\n        /* \"#utility.yul\":4894:4896   */\n      0x17\n        /* \"#utility.yul\":4889:4892   */\n      dup4\n        /* \"#utility.yul\":4830:4897   */\n      tag_48\n      jump\t// in\n    tag_100:\n        /* \"#utility.yul\":4823:4897   */\n      swap2\n      pop\n        /* \"#utility.yul\":4906:4999   */\n      tag_101\n        /* \"#utility.yul\":4995:4998   */\n      dup3\n        /* \"#utility.yul\":4906:4999   */\n      tag_54\n      jump\t// in\n    tag_101:\n        /* \"#utility.yul\":5024:5026   */\n      0x20\n        /* \"#utility.yul\":5019:5022   */\n      dup3\n        /* \"#utility.yul\":5015:5027   */\n      add\n        /* \"#utility.yul\":5008:5027   */\n      swap1\n      pop\n        /* \"#utility.yul\":4667:5033   */\n      swap2\n      swap1\n      pop\n      jump\t// out\n        /* \"#utility.yul\":5039:5458   */\n    tag_38:\n        /* \"#utility.yul\":5205:5209   */\n      0x00\n        /* \"#utility.yul\":5243:5245   */\n      0x20\n        /* \"#utility.yul\":5232:5241   */\n      dup3\n        /* \"#utility.yul\":5228:5246   */\n      add\n        /* \"#utility.yul\":5220:5246   */\n      swap1\n      pop\n        /* \"#utility.yul\":5292:5301   */\n      dup2\n        /* \"#utility.yul\":5286:5290   */\n      dup2\n        /* \"#utility.yul\":5282:5302   */\n      sub\n        /* \"#utility.yul\":5278:5279   */\n      0x00\n        /* \"#utility.yul\":5267:5276   */\n      dup4\n        /* \"#utility.yul\":5263:5280   */\n      add\n        /* \"#utility.yul\":5256:5303   */\n      mstore\n        /* \"#utility.yul\":5320:5451   */\n      tag_103\n        /* \"#utility.yul\":5446:5450   */\n      dup2\n        /* \"#utility.yul\":5320:5451   */\n      tag_55\n      jump\t// in\n    tag_103:\n        /* \"#utility.yul\":5312:5451   */\n      swap1\n      pop\n        /* \"#utility.yul\":5039:5458   */\n      swap2\n      swap1\n      pop\n      jump\t// out\n\n    auxdata: 0xa2646970667358221220e949b0e48a9ba2a0fb098812566b57f6d70d30e1871328ca4e40f48154b9104664736f6c63430008120033\n}\n",
				"bytecode": {
					"linkReferences": {},
					"object": "608060405234801561001057600080fd5b50336000806101000a81548173ffffffffffffffffffffffffffffffffffffffff021916908373ffffffffffffffffffffffffffffffffffffffff1602179055506105b8806100606000396000f3fe608060405234801561001057600080fd5b50600436106100415760003560e01c806387db03b714610046578063a87d942c14610062578063ae0f616614610080575b600080fd5b610060600480360381019061005b91906102fa565b61009c565b005b61006a610199565b6040516100779190610336565b60405180910390f35b61009a600480360381019061009591906102fa565b6101a3565b005b60008054906101000a900473ffffffffffffffffffffffffffffffffffffffff1673ffffffffffffffffffffffffffffffffffffffff163373ffffffffffffffffffffffffffffffffffffffff161461012a576040517f08c379a0000000000000000000000000000000000000000000000000000000008152600401610121906103d4565b60405180910390fd5b8060648160015461013b9190610423565b131561017c576040517f08c379a0000000000000000000000000000000000000000000000000000000008152600401610173906104b3565b60405180910390fd5b816001600082825461018e9190610423565b925050819055505050565b6000600154905090565b60008054906101000a900473ffffffffffffffffffffffffffffffffffffffff1673ffffffffffffffffffffffffffffffffffffffff163373ffffffffffffffffffffffffffffffffffffffff1614610231576040517f08c379a0000000000000000000000000000000000000000000000000000000008152600401610228906103d4565b60405180910390fd5b807fffffffffffffffffffffffffffffffffffffffffffffffffffffffffffffff9c8160015461026191906104d3565b12156102a2576040517f08c379a000000000000000000000000000000000000000000000000000000000815260040161029990610562565b60405180910390fd5b81600160008282546102b491906104d3565b925050819055505050565b600080fd5b6000819050919050565b6102d7816102c4565b81146102e257600080fd5b50565b6000813590506102f4816102ce565b92915050565b6000602082840312156103105761030f6102bf565b5b600061031e848285016102e5565b91505092915050565b610330816102c4565b82525050565b600060208201905061034b6000830184610327565b92915050565b600082825260208201905092915050565b7f596f7520617265206e6f742061206f776e6572206f6620746869732066756e6360008201527f74696f6e2e000000000000000000000000000000000000000000000000000000602082015250565b60006103be602583610351565b91506103c982610362565b604082019050919050565b600060208201905081810360008301526103ed816103b1565b9050919050565b7f4e487b7100000000000000000000000000000000000000000000000000000000600052601160045260246000fd5b600061042e826102c4565b9150610439836102c4565b925082820190508281121560008312168382126000841215161715610461576104606103f4565b5b92915050565b7f436f756e742069732067726561746572207468616e2031303000000000000000600082015250565b600061049d601983610351565b91506104a882610467565b602082019050919050565b600060208201905081810360008301526104cc81610490565b9050919050565b60006104de826102c4565b91506104e9836102c4565b92508282039050818112600084121682821360008512151617156105105761050f6103f4565b5b92915050565b7f436f756e74206973206c657373207468616e202d313030000000000000000000600082015250565b600061054c601783610351565b915061055782610516565b602082019050919050565b6000602082019050818103600083015261057b8161053f565b905091905056fea2646970667358221220e949b0e48a9ba2a0fb098812566b57f6d70d30e1871328ca4e40f48154b9104664736f6c63430008120033",
					"opcodes": "PUSH1 0x80 PUSH1 0x40 MSTORE CALLVALUE DUP1 ISZERO PUSH2 0x10 JUMPI PUSH1 0x0 DUP1 REVERT JUMPDEST POP CALLER PUSH1 0x0 DUP1 PUSH2 0x100 EXP DUP2 SLOAD DUP2 PUSH20 0xFFFFFFFFFFFFFFFFFFFFFFFFFFFFFFFFFFFFFFFF MUL NOT AND SWAP1 DUP4 PUSH20 0xFFFFFFFFFFFFFFFFFFFFFFFFFFFFFFFFFFFFFFFF AND MUL OR SWAP1 SSTORE POP PUSH2 0x5B8 DUP1 PUSH2 0x60 PUSH1 0x0 CODECOPY PUSH1 0x0 RETURN INVALID PUSH1 0x80 PUSH1 0x40 MSTORE CALLVALUE DUP1 ISZERO PUSH2 0x10 JUMPI PUSH1 0x0 DUP1 REVERT JUMPDEST POP PUSH1 0x4 CALLDATASIZE LT PUSH2 0x41 JUMPI PUSH1 0x0 CALLDATALOAD PUSH1 0xE0 SHR DUP1 PUSH4 0x87DB03B7 EQ PUSH2 0x46 JUMPI DUP1 PUSH4 0xA87D942C EQ PUSH2 0x62 JUMPI DUP1 PUSH4 0xAE0F6166 EQ PUSH2 0x80 JUMPI JUMPDEST PUSH1 0x0 DUP1 REVERT JUMPDEST PUSH2 0x60 PUSH1 0x4 DUP1 CALLDATASIZE SUB DUP2 ADD SWAP1 PUSH2 0x5B SWAP2 SWAP1 PUSH2 0x2FA JUMP JUMPDEST PUSH2 0x9C JUMP JUMPDEST STOP JUMPDEST PUSH2 0x6A PUSH2 0x199 JUMP JUMPDEST PUSH1 0x40 MLOAD PUSH2 0x77 SWAP2 SWAP1 PUSH2 0x336 JUMP JUMPDEST PUSH1 0x40 MLOAD DUP1 SWAP2 SUB SWAP1 RETURN JUMPDEST PUSH2 0x9A PUSH1 0x4 DUP1 CALLDATASIZE SUB DUP2 ADD SWAP1 PUSH2 0x95 SWAP2 SWAP1 PUSH2 0x2FA JUMP JUMPDEST PUSH2 0x1A3 JUMP JUMPDEST STOP JUMPDEST PUSH1 0x0 DUP1 SLOAD SWAP1 PUSH2 0x100 EXP SWAP1 DIV PUSH20 0xFFFFFFFFFFFFFFFFFFFFFFFFFFFFFFFFFFFFFFFF AND PUSH20 0xFFFFFFFFFFFFFFFFFFFFFFFFFFFFFFFFFFFFFFFF AND CALLER PUSH20 0xFFFFFFFFFFFFFFFFFFFFFFFFFFFFFFFFFFFFFFFF AND EQ PUSH2 0x12A JUMPI PUSH1 0x40 MLOAD PUSH32 0x8C379A000000000000000000000000000000000000000000000000000000000 DUP2 MSTORE PUSH1 0x4 ADD PUSH2 0x121 SWAP1 PUSH2 0x3D4 JUMP JUMPDEST PUSH1 0x40 MLOAD DUP1 SWAP2 SUB SWAP1 REVERT JUMPDEST DUP1 PUSH1 0x64 DUP2 PUSH1 0x1 SLOAD PUSH2 0x13B SWAP2 SWAP1 PUSH2 0x423 JUMP JUMPDEST SGT ISZERO PUSH2 0x17C JUMPI PUSH1 0x40 MLOAD PUSH32 0x8C379A000000000000000000000000000000000000000000000000000000000 DUP2 MSTORE PUSH1 0x4 ADD PUSH2 0x173 SWAP1 PUSH2 0x4B3 JUMP JUMPDEST PUSH1 0x40 MLOAD DUP1 SWAP2 SUB SWAP1 REVERT JUMPDEST DUP2 PUSH1 0x1 PUSH1 0x0 DUP3 DUP3 SLOAD PUSH2 0x18E SWAP2 SWAP1 PUSH2 0x423 JUMP JUMPDEST SWAP3 POP POP DUP2 SWAP1 SSTORE POP POP POP JUMP JUMPDEST PUSH1 0x0 PUSH1 0x1 SLOAD SWAP1 POP SWAP1 JUMP JUMPDEST PUSH1 0x0 DUP1 SLOAD SWAP1 PUSH2 0x100 EXP SWAP1 DIV PUSH20 0xFFFFFFFFFFFFFFFFFFFFFFFFFFFFFFFFFFFFFFFF AND PUSH20 0xFFFFFFFFFFFFFFFFFFFFFFFFFFFFFFFFFFFFFFFF AND CALLER PUSH20 0xFFFFFFFFFFFFFFFFFFFFFFFFFFFFFFFFFFFFFFFF AND EQ PUSH2 0x231 JUMPI PUSH1 0x40 MLOAD PUSH32 0x8C379A000000000000000000000000000000000000000000000000000000000 DUP2 MSTORE PUSH1 0x4 ADD PUSH2 0x228 SWAP1 PUSH2 0x3D4 JUMP JUMPDEST PUSH1 0x40 MLOAD DUP1 SWAP2 SUB SWAP1 REVERT JUMPDEST DUP1 PUSH32 0xFFFFFFFFFFFFFFFFFFFFFFFFFFFFFFFFFFFFFFFFFFFFFFFFFFFFFFFFFFFFFF9C DUP2 PUSH1 0x1 SLOAD PUSH2 0x261 SWAP2 SWAP1 PUSH2 0x4D3 JUMP JUMPDEST SLT ISZERO PUSH2 0x2A2 JUMPI PUSH1 0x40 MLOAD PUSH32 0x8C379A000000000000000000000000000000000000000000000000000000000 DUP2 MSTORE PUSH1 0x4 ADD PUSH2 0x299 SWAP1 PUSH2 0x562 JUMP JUMPDEST PUSH1 0x40 MLOAD DUP1 SWAP2 SUB SWAP1 REVERT JUMPDEST DUP2 PUSH1 0x1 PUSH1 0x0 DUP3 DUP3 SLOAD PUSH2 0x2B4 SWAP2 SWAP1 PUSH2 0x4D3 JUMP JUMPDEST SWAP3 POP POP DUP2 SWAP1 SSTORE POP POP POP JUMP JUMPDEST PUSH1 0x0 DUP1 REVERT JUMPDEST PUSH1 0x0 DUP2 SWAP1 POP SWAP2 SWAP1 POP JUMP JUMPDEST PUSH2 0x2D7 DUP2 PUSH2 0x2C4 JUMP JUMPDEST DUP2 EQ PUSH2 0x2E2 JUMPI PUSH1 0x0 DUP1 REVERT JUMPDEST POP JUMP JUMPDEST PUSH1 0x0 DUP2 CALLDATALOAD SWAP1 POP PUSH2 0x2F4 DUP2 PUSH2 0x2CE JUMP JUMPDEST SWAP3 SWAP2 POP POP JUMP JUMPDEST PUSH1 0x0 PUSH1 0x20 DUP3 DUP5 SUB SLT ISZERO PUSH2 0x310 JUMPI PUSH2 0x30F PUSH2 0x2BF JUMP JUMPDEST JUMPDEST PUSH1 0x0 PUSH2 0x31E DUP5 DUP3 DUP6 ADD PUSH2 0x2E5 JUMP JUMPDEST SWAP2 POP POP SWAP3 SWAP2 POP POP JUMP JUMPDEST PUSH2 0x330 DUP2 PUSH2 0x2C4 JUMP JUMPDEST DUP3 MSTORE POP POP JUMP JUMPDEST PUSH1 0x0 PUSH1 0x20 DUP3 ADD SWAP1 POP PUSH2 0x34B PUSH1 0x0 DUP4 ADD DUP5 PUSH2 0x327 JUMP JUMPDEST SWAP3 SWAP2 POP POP JUMP JUMPDEST PUSH1 0x0 DUP3 DUP3 MSTORE PUSH1 0x20 DUP3 ADD SWAP1 POP SWAP3 SWAP2 POP POP JUMP JUMPDEST PUSH32 0x596F7520617265206E6F742061206F776E6572206F6620746869732066756E63 PUSH1 0x0 DUP3 ADD MSTORE PUSH32 0x74696F6E2E000000000000000000000000000000000000000000000000000000 PUSH1 0x20 DUP3 ADD MSTORE POP JUMP JUMPDEST PUSH1 0x0 PUSH2 0x3BE PUSH1 0x25 DUP4 PUSH2 0x351 JUMP JUMPDEST SWAP2 POP PUSH2 0x3C9 DUP3 PUSH2 0x362 JUMP JUMPDEST PUSH1 0x40 DUP3 ADD SWAP1 POP SWAP2 SWAP1 POP JUMP JUMPDEST PUSH1 0x0 PUSH1 0x20 DUP3 ADD SWAP1 POP DUP2 DUP2 SUB PUSH1 0x0 DUP4 ADD MSTORE PUSH2 0x3ED DUP2 PUSH2 0x3B1 JUMP JUMPDEST SWAP1 POP SWAP2 SWAP1 POP JUMP JUMPDEST PUSH32 0x4E487B7100000000000000000000000000000000000000000000000000000000 PUSH1 0x0 MSTORE PUSH1 0x11 PUSH1 0x4 MSTORE PUSH1 0x24 PUSH1 0x0 REVERT JUMPDEST PUSH1 0x0 PUSH2 0x42E DUP3 PUSH2 0x2C4 JUMP JUMPDEST SWAP2 POP PUSH2 0x439 DUP4 PUSH2 0x2C4 JUMP JUMPDEST SWAP3 POP DUP3 DUP3 ADD SWAP1 POP DUP3 DUP2 SLT ISZERO PUSH1 0x0 DUP4 SLT AND DUP4 DUP3 SLT PUSH1 0x0 DUP5 SLT ISZERO AND OR ISZERO PUSH2 0x461 JUMPI PUSH2 0x460 PUSH2 0x3F4 JUMP JUMPDEST JUMPDEST SWAP3 SWAP2 POP POP JUMP JUMPDEST PUSH32 0x436F756E742069732067726561746572207468616E2031303000000000000000 PUSH1 0x0 DUP3 ADD MSTORE POP JUMP JUMPDEST PUSH1 0x0 PUSH2 0x49D PUSH1 0x19 DUP4 PUSH2 0x351 JUMP JUMPDEST SWAP2 POP PUSH2 0x4A8 DUP3 PUSH2 0x467 JUMP JUMPDEST PUSH1 0x20 DUP3 ADD SWAP1 POP SWAP2 SWAP1 POP JUMP JUMPDEST PUSH1 0x0 PUSH1 0x20 DUP3 ADD SWAP1 POP DUP2 DUP2 SUB PUSH1 0x0 DUP4 ADD MSTORE PUSH2 0x4CC DUP2 PUSH2 0x490 JUMP JUMPDEST SWAP1 POP SWAP2 SWAP1 POP JUMP JUMPDEST PUSH1 0x0 PUSH2 0x4DE DUP3 PUSH2 0x2C4 JUMP JUMPDEST SWAP2 POP PUSH2 0x4E9 DUP4 PUSH2 0x2C4 JUMP JUMPDEST SWAP3 POP DUP3 DUP3 SUB SWAP1 POP DUP2 DUP2 SLT PUSH1 0x0 DUP5 SLT AND DUP3 DUP3 SGT PUSH1 0x0 DUP6 SLT ISZERO AND OR ISZERO PUSH2 0x510 JUMPI PUSH2 0x50F PUSH2 0x3F4 JUMP JUMPDEST JUMPDEST SWAP3 SWAP2 POP POP JUMP JUMPDEST PUSH32 0x436F756E74206973206C657373207468616E202D313030000000000000000000 PUSH1 0x0 DUP3 ADD MSTORE POP JUMP JUMPDEST PUSH1 0x0 PUSH2 0x54C PUSH1 0x17 DUP4 PUSH2 0x351 JUMP JUMPDEST SWAP2 POP PUSH2 0x557 DUP3 PUSH2 0x516 JUMP JUMPDEST PUSH1 0x20 DUP3 ADD SWAP1 POP SWAP2 SWAP1 POP JUMP JUMPDEST PUSH1 0x0 PUSH1 0x20 DUP3 ADD SWAP1 POP DUP2 DUP2 SUB PUSH1 0x0 DUP4 ADD MSTORE PUSH2 0x57B DUP2 PUSH2 0x53F JUMP JUMPDEST SWAP1 POP SWAP2 SWAP1 POP JUMP INVALID LOG2 PUSH5 0x6970667358 0x22 SLT KECCAK256 0xE9 0x49 0xB0 0xE4 DUP11 SWAP12 LOG2 LOG0 0xFB MULMOD DUP9 SLT JUMP PUSH12 0x57F6D70D30E1871328CA4E40 DELEGATECALL DUP2 SLOAD 0xB9 LT CHAINID PUSH5 0x736F6C6343 STOP ADDMOD SLT STOP CALLER "
				},
				"gasEstimates": {
					"creation": {
						"codeDepositCost": "292800",
						"executionCost": "24597",
						"totalCost": "317397"
					},
					"external": {
						"add(int256)": "infinite",
						"getCount()": "2437",
						"subtract(int256)": "infinite"
					}
				},
				"methodIdentifiers": {
					"add(int256)": "87db03b7",
					"getCount()": "a87d942c",
					"subtract(int256)": "ae0f6166"
				}
			},
			"storageLayout": {
				"storage": [
					{
						"astId": 3,
						"contract": "contracts/practice/problems/modifiersProblem.sol:RestrictedCount",
						"label": "owner",
						"offset": 0,
						"slot": "0",
						"type": "t_address"
					},
					{
						"astId": 5,
						"contract": "contracts/practice/problems/modifiersProblem.sol:RestrictedCount",
						"label": "count",
						"offset": 0,
						"slot": "1",
						"type": "t_int256"
					}
				],
				"types": {
					"t_address": {
						"encoding": "inplace",
						"label": "address",
						"numberOfBytes": "20"
					},
					"t_int256": {
						"encoding": "inplace",
						"label": "int256",
						"numberOfBytes": "32"
					}
				}
			},
			"userdoc": {
				"kind": "user",
				"methods": {},
				"version": 1
			}
		}
	}
}