{
	"contracts/practice/problems/EnumProblem.sol": {
		"FancyShirts": {
			"abi": [
				{
					"inputs": [
						{
							"internalType": "enum FancyShirts.Size",
							"name": "size",
							"type": "uint8"
						},
						{
							"internalType": "enum FancyShirts.Color",
							"name": "color",
							"type": "uint8"
						}
					],
					"name": "buyShirt",
					"outputs": [],
					"stateMutability": "payable",
					"type": "function"
				},
				{
					"inputs": [],
					"name": "colors",
					"outputs": [
						{
							"internalType": "enum FancyShirts.Color",
							"name": "",
							"type": "uint8"
						}
					],
					"stateMutability": "view",
					"type": "function"
				},
				{
					"inputs": [
						{
							"internalType": "enum FancyShirts.Size",
							"name": "size",
							"type": "uint8"
						},
						{
							"internalType": "enum FancyShirts.Color",
							"name": "color",
							"type": "uint8"
						}
					],
					"name": "getShirtPrice",
					"outputs": [
						{
							"internalType": "uint256",
							"name": "",
							"type": "uint256"
						}
					],
					"stateMutability": "view",
					"type": "function"
				},
				{
					"inputs": [
						{
							"internalType": "enum FancyShirts.Size",
							"name": "size",
							"type": "uint8"
						},
						{
							"internalType": "enum FancyShirts.Color",
							"name": "color",
							"type": "uint8"
						}
					],
					"name": "getShirts",
					"outputs": [
						{
							"internalType": "uint256",
							"name": "",
							"type": "uint256"
						}
					],
					"stateMutability": "view",
					"type": "function"
				},
				{
					"inputs": [],
					"name": "sizes",
					"outputs": [
						{
							"internalType": "enum FancyShirts.Size",
							"name": "",
							"type": "uint8"
						}
					],
					"stateMutability": "view",
					"type": "function"
				}
			],
			"devdoc": {
				"kind": "dev",
				"methods": {},
				"version": 1
			},
			"evm": {
				"assembly": "    /* \"contracts/practice/problems/EnumProblem.sol\":37:1530  contract FancyShirts {... */\n  mstore(0x40, 0x80)\n  callvalue\n  dup1\n  iszero\n  tag_1\n  jumpi\n  0x00\n  dup1\n  revert\ntag_1:\n  pop\n  dataSize(sub_0)\n  dup1\n  dataOffset(sub_0)\n  0x00\n  codecopy\n  0x00\n  return\nstop\n\nsub_0: assembly {\n        /* \"contracts/practice/problems/EnumProblem.sol\":37:1530  contract FancyShirts {... */\n      mstore(0x40, 0x80)\n      jumpi(tag_1, lt(calldatasize, 0x04))\n      shr(0xe0, calldataload(0x00))\n      dup1\n      0x6aa283a5\n      eq\n      tag_2\n      jumpi\n      dup1\n      0x71cc64b4\n      eq\n      tag_3\n      jumpi\n      dup1\n      0xb97461d3\n      eq\n      tag_4\n      jumpi\n      dup1\n      0xe4da41a7\n      eq\n      tag_5\n      jumpi\n      dup1\n      0xf8e58024\n      eq\n      tag_6\n      jumpi\n    tag_1:\n      0x00\n      dup1\n      revert\n        /* \"contracts/practice/problems/EnumProblem.sol\":1045:1190  function buyShirt(Size size, Color color) external payable checkPrice(size, color) {... */\n    tag_2:\n      tag_7\n      0x04\n      dup1\n      calldatasize\n      sub\n      dup2\n      add\n      swap1\n      tag_8\n      swap2\n      swap1\n      tag_9\n      jump\t// in\n    tag_8:\n      tag_10\n      jump\t// in\n    tag_7:\n      stop\n        /* \"contracts/practice/problems/EnumProblem.sol\":1198:1527  function getShirts(Size size, Color color) public view returns (uint){... */\n    tag_3:\n      callvalue\n      dup1\n      iszero\n      tag_11\n      jumpi\n      0x00\n      dup1\n      revert\n    tag_11:\n      pop\n      tag_12\n      0x04\n      dup1\n      calldatasize\n      sub\n      dup2\n      add\n      swap1\n      tag_13\n      swap2\n      swap1\n      tag_9\n      jump\t// in\n    tag_13:\n      tag_14\n      jump\t// in\n    tag_12:\n      mload(0x40)\n      tag_15\n      swap2\n      swap1\n      tag_16\n      jump\t// in\n    tag_15:\n      mload(0x40)\n      dup1\n      swap2\n      sub\n      swap1\n      return\n        /* \"contracts/practice/problems/EnumProblem.sol\":589:1037  function getShirtPrice(Size size, Color color) public view returns(uint){... */\n    tag_4:\n      callvalue\n      dup1\n      iszero\n      tag_17\n      jumpi\n      0x00\n      dup1\n      revert\n    tag_17:\n      pop\n      tag_18\n      0x04\n      dup1\n      calldatasize\n      sub\n      dup2\n      add\n      swap1\n      tag_19\n      swap2\n      swap1\n      tag_9\n      jump\t// in\n    tag_19:\n      tag_20\n      jump\t// in\n    tag_18:\n      mload(0x40)\n      tag_21\n      swap2\n      swap1\n      tag_16\n      jump\t// in\n    tag_21:\n      mload(0x40)\n      dup1\n      swap2\n      sub\n      swap1\n      return\n        /* \"contracts/practice/problems/EnumProblem.sol\":210:227  Size public sizes */\n    tag_5:\n      callvalue\n      dup1\n      iszero\n      tag_22\n      jumpi\n      0x00\n      dup1\n      revert\n    tag_22:\n      pop\n      tag_23\n      tag_24\n      jump\t// in\n    tag_23:\n      mload(0x40)\n      tag_25\n      swap2\n      swap1\n      tag_26\n      jump\t// in\n    tag_25:\n      mload(0x40)\n      dup1\n      swap2\n      sub\n      swap1\n      return\n        /* \"contracts/practice/problems/EnumProblem.sol\":234:253  Color public colors */\n    tag_6:\n      callvalue\n      dup1\n      iszero\n      tag_27\n      jumpi\n      0x00\n      dup1\n      revert\n    tag_27:\n      pop\n      tag_28\n      tag_29\n      jump\t// in\n    tag_28:\n      mload(0x40)\n      tag_30\n      swap2\n      swap1\n      tag_31\n      jump\t// in\n    tag_30:\n      mload(0x40)\n      dup1\n      swap2\n      sub\n      swap1\n      return\n        /* \"contracts/practice/problems/EnumProblem.sol\":1045:1190  function buyShirt(Size size, Color color) external payable checkPrice(size, color) {... */\n    tag_10:\n        /* \"contracts/practice/problems/EnumProblem.sol\":1115:1119  size */\n      dup2\n        /* \"contracts/practice/problems/EnumProblem.sol\":1121:1126  color */\n      dup2\n        /* \"contracts/practice/problems/EnumProblem.sol\":430:439  uint cost */\n      0x00\n        /* \"contracts/practice/problems/EnumProblem.sol\":442:468  getShirtPrice(size, color) */\n      tag_33\n        /* \"contracts/practice/problems/EnumProblem.sol\":456:460  size */\n      dup4\n        /* \"contracts/practice/problems/EnumProblem.sol\":462:467  color */\n      dup4\n        /* \"contracts/practice/problems/EnumProblem.sol\":442:455  getShirtPrice */\n      tag_20\n        /* \"contracts/practice/problems/EnumProblem.sol\":442:468  getShirtPrice(size, color) */\n      jump\t// in\n    tag_33:\n        /* \"contracts/practice/problems/EnumProblem.sol\":430:468  uint cost = getShirtPrice(size, color) */\n      swap1\n      pop\n        /* \"contracts/practice/problems/EnumProblem.sol\":502:506  cost */\n      dup1\n        /* \"contracts/practice/problems/EnumProblem.sol\":489:498  msg.value */\n      callvalue\n        /* \"contracts/practice/problems/EnumProblem.sol\":489:506  msg.value == cost */\n      eq\n        /* \"contracts/practice/problems/EnumProblem.sol\":481:561  require(msg.value == cost, \"Please pay the exact amount to make this purchase.\") */\n      tag_34\n      jumpi\n      mload(0x40)\n      0x08c379a000000000000000000000000000000000000000000000000000000000\n      dup2\n      mstore\n      0x04\n      add\n      tag_35\n      swap1\n      tag_36\n      jump\t// in\n    tag_35:\n      mload(0x40)\n      dup1\n      swap2\n      sub\n      swap1\n      revert\n    tag_34:\n        /* \"contracts/practice/problems/EnumProblem.sol\":1139:1145  shirts */\n      0x01\n        /* \"contracts/practice/problems/EnumProblem.sol\":1139:1157  shirts[msg.sender] */\n      0x00\n        /* \"contracts/practice/problems/EnumProblem.sol\":1146:1156  msg.sender */\n      caller\n        /* \"contracts/practice/problems/EnumProblem.sol\":1139:1157  shirts[msg.sender] */\n      0xffffffffffffffffffffffffffffffffffffffff\n      and\n      0xffffffffffffffffffffffffffffffffffffffff\n      and\n      dup2\n      mstore\n      0x20\n      add\n      swap1\n      dup2\n      mstore\n      0x20\n      add\n      0x00\n      keccak256\n        /* \"contracts/practice/problems/EnumProblem.sol\":1163:1181  Shirt(size, color) */\n      mload(0x40)\n      dup1\n      0x40\n      add\n      0x40\n      mstore\n      dup1\n        /* \"contracts/practice/problems/EnumProblem.sol\":1169:1173  size */\n      dup8\n        /* \"contracts/practice/problems/EnumProblem.sol\":1163:1181  Shirt(size, color) */\n      0x02\n      dup2\n      gt\n      iszero\n      tag_38\n      jumpi\n      tag_39\n      tag_40\n      jump\t// in\n    tag_39:\n    tag_38:\n      dup2\n      mstore\n      0x20\n      add\n        /* \"contracts/practice/problems/EnumProblem.sol\":1175:1180  color */\n      dup7\n        /* \"contracts/practice/problems/EnumProblem.sol\":1163:1181  Shirt(size, color) */\n      0x02\n      dup2\n      gt\n      iszero\n      tag_41\n      jumpi\n      tag_42\n      tag_40\n      jump\t// in\n    tag_42:\n    tag_41:\n      dup2\n      mstore\n      pop\n        /* \"contracts/practice/problems/EnumProblem.sol\":1139:1182  shirts[msg.sender].push(Shirt(size, color)) */\n      swap1\n      dup1\n      0x01\n      dup2\n      sload\n      add\n      dup1\n      dup3\n      sstore\n      dup1\n      swap2\n      pop\n      pop\n      0x01\n      swap1\n      sub\n      swap1\n      0x00\n      mstore\n      keccak256(0x00, 0x20)\n      add\n      0x00\n      swap1\n      swap2\n      swap1\n      swap2\n      swap1\n      swap2\n      pop\n      0x00\n      dup3\n      add\n      mload\n      dup2\n      0x00\n      add\n      exp(0x0100, 0x00)\n      dup2\n      sload\n      dup2\n      0xff\n      mul\n      not\n      and\n      swap1\n      dup4\n      0x02\n      dup2\n      gt\n      iszero\n      tag_44\n      jumpi\n      tag_45\n      tag_40\n      jump\t// in\n    tag_45:\n    tag_44:\n      mul\n      or\n      swap1\n      sstore\n      pop\n      0x20\n      dup3\n      add\n      mload\n      dup2\n      0x00\n      add\n      exp(0x0100, 0x01)\n      dup2\n      sload\n      dup2\n      0xff\n      mul\n      not\n      and\n      swap1\n      dup4\n      0x02\n      dup2\n      gt\n      iszero\n      tag_46\n      jumpi\n      tag_47\n      tag_40\n      jump\t// in\n    tag_47:\n    tag_46:\n      mul\n      or\n      swap1\n      sstore\n      pop\n      pop\n      pop\n        /* \"contracts/practice/problems/EnumProblem.sol\":419:581  {... */\n      pop\n        /* \"contracts/practice/problems/EnumProblem.sol\":1045:1190  function buyShirt(Size size, Color color) external payable checkPrice(size, color) {... */\n      pop\n      pop\n      pop\n      pop\n      jump\t// out\n        /* \"contracts/practice/problems/EnumProblem.sol\":1198:1527  function getShirts(Size size, Color color) public view returns (uint){... */\n    tag_14:\n        /* \"contracts/practice/problems/EnumProblem.sol\":1262:1266  uint */\n      0x00\n        /* \"contracts/practice/problems/EnumProblem.sol\":1278:1288  uint count */\n      dup1\n        /* \"contracts/practice/problems/EnumProblem.sol\":1304:1310  uint i */\n      0x00\n        /* \"contracts/practice/problems/EnumProblem.sol\":1299:1497  for (uint i = 0; i < shirts[msg.sender].length; i++){... */\n    tag_49:\n        /* \"contracts/practice/problems/EnumProblem.sol\":1320:1326  shirts */\n      0x01\n        /* \"contracts/practice/problems/EnumProblem.sol\":1320:1338  shirts[msg.sender] */\n      0x00\n        /* \"contracts/practice/problems/EnumProblem.sol\":1327:1337  msg.sender */\n      caller\n        /* \"contracts/practice/problems/EnumProblem.sol\":1320:1338  shirts[msg.sender] */\n      0xffffffffffffffffffffffffffffffffffffffff\n      and\n      0xffffffffffffffffffffffffffffffffffffffff\n      and\n      dup2\n      mstore\n      0x20\n      add\n      swap1\n      dup2\n      mstore\n      0x20\n      add\n      0x00\n      keccak256\n        /* \"contracts/practice/problems/EnumProblem.sol\":1320:1345  shirts[msg.sender].length */\n      dup1\n      sload\n      swap1\n      pop\n        /* \"contracts/practice/problems/EnumProblem.sol\":1316:1317  i */\n      dup2\n        /* \"contracts/practice/problems/EnumProblem.sol\":1316:1345  i < shirts[msg.sender].length */\n      lt\n        /* \"contracts/practice/problems/EnumProblem.sol\":1299:1497  for (uint i = 0; i < shirts[msg.sender].length; i++){... */\n      iszero\n      tag_50\n      jumpi\n        /* \"contracts/practice/problems/EnumProblem.sol\":1399:1403  size */\n      dup5\n        /* \"contracts/practice/problems/EnumProblem.sol\":1369:1403  shirts[msg.sender][i].size == size */\n      0x02\n      dup2\n      gt\n      iszero\n      tag_52\n      jumpi\n      tag_53\n      tag_40\n      jump\t// in\n    tag_53:\n    tag_52:\n        /* \"contracts/practice/problems/EnumProblem.sol\":1369:1375  shirts */\n      0x01\n        /* \"contracts/practice/problems/EnumProblem.sol\":1369:1387  shirts[msg.sender] */\n      0x00\n        /* \"contracts/practice/problems/EnumProblem.sol\":1376:1386  msg.sender */\n      caller\n        /* \"contracts/practice/problems/EnumProblem.sol\":1369:1387  shirts[msg.sender] */\n      0xffffffffffffffffffffffffffffffffffffffff\n      and\n      0xffffffffffffffffffffffffffffffffffffffff\n      and\n      dup2\n      mstore\n      0x20\n      add\n      swap1\n      dup2\n      mstore\n      0x20\n      add\n      0x00\n      keccak256\n        /* \"contracts/practice/problems/EnumProblem.sol\":1388:1389  i */\n      dup3\n        /* \"contracts/practice/problems/EnumProblem.sol\":1369:1390  shirts[msg.sender][i] */\n      dup2\n      sload\n      dup2\n      lt\n      tag_54\n      jumpi\n      tag_55\n      tag_56\n      jump\t// in\n    tag_55:\n    tag_54:\n      swap1\n      0x00\n      mstore\n      keccak256(0x00, 0x20)\n      add\n        /* \"contracts/practice/problems/EnumProblem.sol\":1369:1395  shirts[msg.sender][i].size */\n      0x00\n      add\n      0x00\n      swap1\n      sload\n      swap1\n      0x0100\n      exp\n      swap1\n      div\n      0xff\n      and\n        /* \"contracts/practice/problems/EnumProblem.sol\":1369:1403  shirts[msg.sender][i].size == size */\n      0x02\n      dup2\n      gt\n      iszero\n      tag_58\n      jumpi\n      tag_59\n      tag_40\n      jump\t// in\n    tag_59:\n    tag_58:\n      eq\n        /* \"contracts/practice/problems/EnumProblem.sol\":1369:1443  shirts[msg.sender][i].size == size && shirts[msg.sender][i].color == color */\n      dup1\n      iszero\n      tag_60\n      jumpi\n      pop\n        /* \"contracts/practice/problems/EnumProblem.sol\":1438:1443  color */\n      dup4\n        /* \"contracts/practice/problems/EnumProblem.sol\":1407:1443  shirts[msg.sender][i].color == color */\n      0x02\n      dup2\n      gt\n      iszero\n      tag_61\n      jumpi\n      tag_62\n      tag_40\n      jump\t// in\n    tag_62:\n    tag_61:\n        /* \"contracts/practice/problems/EnumProblem.sol\":1407:1413  shirts */\n      0x01\n        /* \"contracts/practice/problems/EnumProblem.sol\":1407:1425  shirts[msg.sender] */\n      0x00\n        /* \"contracts/practice/problems/EnumProblem.sol\":1414:1424  msg.sender */\n      caller\n        /* \"contracts/practice/problems/EnumProblem.sol\":1407:1425  shirts[msg.sender] */\n      0xffffffffffffffffffffffffffffffffffffffff\n      and\n      0xffffffffffffffffffffffffffffffffffffffff\n      and\n      dup2\n      mstore\n      0x20\n      add\n      swap1\n      dup2\n      mstore\n      0x20\n      add\n      0x00\n      keccak256\n        /* \"contracts/practice/problems/EnumProblem.sol\":1426:1427  i */\n      dup3\n        /* \"contracts/practice/problems/EnumProblem.sol\":1407:1428  shirts[msg.sender][i] */\n      dup2\n      sload\n      dup2\n      lt\n      tag_63\n      jumpi\n      tag_64\n      tag_56\n      jump\t// in\n    tag_64:\n    tag_63:\n      swap1\n      0x00\n      mstore\n      keccak256(0x00, 0x20)\n      add\n        /* \"contracts/practice/problems/EnumProblem.sol\":1407:1434  shirts[msg.sender][i].color */\n      0x00\n      add\n      0x01\n      swap1\n      sload\n      swap1\n      0x0100\n      exp\n      swap1\n      div\n      0xff\n      and\n        /* \"contracts/practice/problems/EnumProblem.sol\":1407:1443  shirts[msg.sender][i].color == color */\n      0x02\n      dup2\n      gt\n      iszero\n      tag_66\n      jumpi\n      tag_67\n      tag_40\n      jump\t// in\n    tag_67:\n    tag_66:\n      eq\n        /* \"contracts/practice/problems/EnumProblem.sol\":1369:1443  shirts[msg.sender][i].size == size && shirts[msg.sender][i].color == color */\n    tag_60:\n        /* \"contracts/practice/problems/EnumProblem.sol\":1366:1486  if(shirts[msg.sender][i].size == size && shirts[msg.sender][i].color == color){... */\n      iszero\n      tag_68\n      jumpi\n        /* \"contracts/practice/problems/EnumProblem.sol\":1463:1470  count++ */\n      dup2\n      dup1\n      tag_69\n      swap1\n      tag_70\n      jump\t// in\n    tag_69:\n      swap3\n      pop\n      pop\n        /* \"contracts/practice/problems/EnumProblem.sol\":1366:1486  if(shirts[msg.sender][i].size == size && shirts[msg.sender][i].color == color){... */\n    tag_68:\n        /* \"contracts/practice/problems/EnumProblem.sol\":1347:1350  i++ */\n      dup1\n      dup1\n      tag_71\n      swap1\n      tag_70\n      jump\t// in\n    tag_71:\n      swap2\n      pop\n      pop\n        /* \"contracts/practice/problems/EnumProblem.sol\":1299:1497  for (uint i = 0; i < shirts[msg.sender].length; i++){... */\n      jump(tag_49)\n    tag_50:\n      pop\n        /* \"contracts/practice/problems/EnumProblem.sol\":1514:1519  count */\n      dup1\n        /* \"contracts/practice/problems/EnumProblem.sol\":1507:1519  return count */\n      swap2\n      pop\n      pop\n        /* \"contracts/practice/problems/EnumProblem.sol\":1198:1527  function getShirts(Size size, Color color) public view returns (uint){... */\n      swap3\n      swap2\n      pop\n      pop\n      jump\t// out\n        /* \"contracts/practice/problems/EnumProblem.sol\":589:1037  function getShirtPrice(Size size, Color color) public view returns(uint){... */\n    tag_20:\n        /* \"contracts/practice/problems/EnumProblem.sol\":656:660  uint */\n      0x00\n        /* \"contracts/practice/problems/EnumProblem.sol\":672:681  uint cost */\n      dup1\n        /* \"contracts/practice/problems/EnumProblem.sol\":703:713  Size.Small */\n      0x00\n        /* \"contracts/practice/problems/EnumProblem.sol\":695:713  size == Size.Small */\n      0x02\n      dup2\n      gt\n      iszero\n      tag_73\n      jumpi\n      tag_74\n      tag_40\n      jump\t// in\n    tag_74:\n    tag_73:\n        /* \"contracts/practice/problems/EnumProblem.sol\":695:699  size */\n      dup5\n        /* \"contracts/practice/problems/EnumProblem.sol\":695:713  size == Size.Small */\n      0x02\n      dup2\n      gt\n      iszero\n      tag_75\n      jumpi\n      tag_76\n      tag_40\n      jump\t// in\n    tag_76:\n    tag_75:\n      sub\n        /* \"contracts/practice/problems/EnumProblem.sol\":692:909  if(size == Size.Small){... */\n      tag_77\n      jumpi\n        /* \"contracts/practice/problems/EnumProblem.sol\":736:742  10 wei */\n      0x0a\n        /* \"contracts/practice/problems/EnumProblem.sol\":729:742  cost = 10 wei */\n      swap1\n      pop\n        /* \"contracts/practice/problems/EnumProblem.sol\":692:909  if(size == Size.Small){... */\n      jump(tag_78)\n    tag_77:\n        /* \"contracts/practice/problems/EnumProblem.sol\":780:791  Size.Medium */\n      0x01\n        /* \"contracts/practice/problems/EnumProblem.sol\":772:791  size == Size.Medium */\n      0x02\n      dup2\n      gt\n      iszero\n      tag_79\n      jumpi\n      tag_80\n      tag_40\n      jump\t// in\n    tag_80:\n    tag_79:\n        /* \"contracts/practice/problems/EnumProblem.sol\":772:776  size */\n      dup5\n        /* \"contracts/practice/problems/EnumProblem.sol\":772:791  size == Size.Medium */\n      0x02\n      dup2\n      gt\n      iszero\n      tag_81\n      jumpi\n      tag_82\n      tag_40\n      jump\t// in\n    tag_82:\n    tag_81:\n      sub\n        /* \"contracts/practice/problems/EnumProblem.sol\":769:909  if(size == Size.Medium){... */\n      tag_83\n      jumpi\n        /* \"contracts/practice/problems/EnumProblem.sol\":814:820  15 wei */\n      0x0f\n        /* \"contracts/practice/problems/EnumProblem.sol\":807:820  cost = 15 wei */\n      swap1\n      pop\n        /* \"contracts/practice/problems/EnumProblem.sol\":769:909  if(size == Size.Medium){... */\n      jump(tag_84)\n    tag_83:\n        /* \"contracts/practice/problems/EnumProblem.sol\":858:868  Size.Large */\n      0x02\n        /* \"contracts/practice/problems/EnumProblem.sol\":850:868  size == Size.Large */\n      dup1\n      dup2\n      gt\n      iszero\n      tag_85\n      jumpi\n      tag_86\n      tag_40\n      jump\t// in\n    tag_86:\n    tag_85:\n        /* \"contracts/practice/problems/EnumProblem.sol\":850:854  size */\n      dup5\n        /* \"contracts/practice/problems/EnumProblem.sol\":850:868  size == Size.Large */\n      0x02\n      dup2\n      gt\n      iszero\n      tag_87\n      jumpi\n      tag_88\n      tag_40\n      jump\t// in\n    tag_88:\n    tag_87:\n      sub\n        /* \"contracts/practice/problems/EnumProblem.sol\":847:909  if(size == Size.Large){... */\n      tag_89\n      jumpi\n        /* \"contracts/practice/problems/EnumProblem.sol\":891:897  20 wei */\n      0x14\n        /* \"contracts/practice/problems/EnumProblem.sol\":884:897  cost = 20 wei */\n      swap1\n      pop\n        /* \"contracts/practice/problems/EnumProblem.sol\":847:909  if(size == Size.Large){... */\n    tag_89:\n        /* \"contracts/practice/problems/EnumProblem.sol\":769:909  if(size == Size.Medium){... */\n    tag_84:\n        /* \"contracts/practice/problems/EnumProblem.sol\":692:909  if(size == Size.Small){... */\n    tag_78:\n        /* \"contracts/practice/problems/EnumProblem.sol\":933:944  Color.Green */\n      0x01\n        /* \"contracts/practice/problems/EnumProblem.sol\":924:944  color == Color.Green */\n      0x02\n      dup2\n      gt\n      iszero\n      tag_90\n      jumpi\n      tag_91\n      tag_40\n      jump\t// in\n    tag_91:\n    tag_90:\n        /* \"contracts/practice/problems/EnumProblem.sol\":924:929  color */\n      dup4\n        /* \"contracts/practice/problems/EnumProblem.sol\":924:944  color == Color.Green */\n      0x02\n      dup2\n      gt\n      iszero\n      tag_92\n      jumpi\n      tag_93\n      tag_40\n      jump\t// in\n    tag_93:\n    tag_92:\n      eq\n        /* \"contracts/practice/problems/EnumProblem.sol\":924:967  color == Color.Green || color == Color.Blue */\n      dup1\n      tag_94\n      jumpi\n      pop\n        /* \"contracts/practice/problems/EnumProblem.sol\":957:967  Color.Blue */\n      0x02\n        /* \"contracts/practice/problems/EnumProblem.sol\":948:967  color == Color.Blue */\n      dup1\n      dup2\n      gt\n      iszero\n      tag_95\n      jumpi\n      tag_96\n      tag_40\n      jump\t// in\n    tag_96:\n    tag_95:\n        /* \"contracts/practice/problems/EnumProblem.sol\":948:953  color */\n      dup4\n        /* \"contracts/practice/problems/EnumProblem.sol\":948:967  color == Color.Blue */\n      0x02\n      dup2\n      gt\n      iszero\n      tag_97\n      jumpi\n      tag_98\n      tag_40\n      jump\t// in\n    tag_98:\n    tag_97:\n      eq\n        /* \"contracts/practice/problems/EnumProblem.sol\":924:967  color == Color.Green || color == Color.Blue */\n    tag_94:\n        /* \"contracts/practice/problems/EnumProblem.sol\":921:1008  if(color == Color.Green || color == Color.Blue){... */\n      iszero\n      tag_99\n      jumpi\n        /* \"contracts/practice/problems/EnumProblem.sol\":991:996  5 wei */\n      0x05\n        /* \"contracts/practice/problems/EnumProblem.sol\":983:996  cost += 5 wei */\n      dup2\n      tag_100\n      swap2\n      swap1\n      tag_101\n      jump\t// in\n    tag_100:\n      swap1\n      pop\n        /* \"contracts/practice/problems/EnumProblem.sol\":921:1008  if(color == Color.Green || color == Color.Blue){... */\n    tag_99:\n        /* \"contracts/practice/problems/EnumProblem.sol\":1025:1029  cost */\n      dup1\n        /* \"contracts/practice/problems/EnumProblem.sol\":1018:1029  return cost */\n      swap2\n      pop\n      pop\n        /* \"contracts/practice/problems/EnumProblem.sol\":589:1037  function getShirtPrice(Size size, Color color) public view returns(uint){... */\n      swap3\n      swap2\n      pop\n      pop\n      jump\t// out\n        /* \"contracts/practice/problems/EnumProblem.sol\":210:227  Size public sizes */\n    tag_24:\n      0x00\n      dup1\n      sload\n      swap1\n      0x0100\n      exp\n      swap1\n      div\n      0xff\n      and\n      dup2\n      jump\t// out\n        /* \"contracts/practice/problems/EnumProblem.sol\":234:253  Color public colors */\n    tag_29:\n      0x00\n      0x01\n      swap1\n      sload\n      swap1\n      0x0100\n      exp\n      swap1\n      div\n      0xff\n      and\n      dup2\n      jump\t// out\n        /* \"#utility.yul\":88:205   */\n    tag_103:\n        /* \"#utility.yul\":197:198   */\n      0x00\n        /* \"#utility.yul\":194:195   */\n      dup1\n        /* \"#utility.yul\":187:199   */\n      revert\n        /* \"#utility.yul\":334:439   */\n    tag_105:\n        /* \"#utility.yul\":413:414   */\n      0x03\n        /* \"#utility.yul\":406:411   */\n      dup2\n        /* \"#utility.yul\":403:415   */\n      lt\n        /* \"#utility.yul\":393:433   */\n      tag_128\n      jumpi\n        /* \"#utility.yul\":429:430   */\n      0x00\n        /* \"#utility.yul\":426:427   */\n      dup1\n        /* \"#utility.yul\":419:431   */\n      revert\n        /* \"#utility.yul\":393:433   */\n    tag_128:\n        /* \"#utility.yul\":334:439   */\n      pop\n      jump\t// out\n        /* \"#utility.yul\":445:596   */\n    tag_106:\n        /* \"#utility.yul\":497:502   */\n      0x00\n        /* \"#utility.yul\":535:541   */\n      dup2\n        /* \"#utility.yul\":522:542   */\n      calldataload\n        /* \"#utility.yul\":513:542   */\n      swap1\n      pop\n        /* \"#utility.yul\":551:590   */\n      tag_130\n        /* \"#utility.yul\":584:589   */\n      dup2\n        /* \"#utility.yul\":551:590   */\n      tag_105\n      jump\t// in\n    tag_130:\n        /* \"#utility.yul\":445:596   */\n      swap3\n      swap2\n      pop\n      pop\n      jump\t// out\n        /* \"#utility.yul\":602:708   */\n    tag_107:\n        /* \"#utility.yul\":682:683   */\n      0x03\n        /* \"#utility.yul\":675:680   */\n      dup2\n        /* \"#utility.yul\":672:684   */\n      lt\n        /* \"#utility.yul\":662:702   */\n      tag_132\n      jumpi\n        /* \"#utility.yul\":698:699   */\n      0x00\n        /* \"#utility.yul\":695:696   */\n      dup1\n        /* \"#utility.yul\":688:700   */\n      revert\n        /* \"#utility.yul\":662:702   */\n    tag_132:\n        /* \"#utility.yul\":602:708   */\n      pop\n      jump\t// out\n        /* \"#utility.yul\":714:867   */\n    tag_108:\n        /* \"#utility.yul\":767:772   */\n      0x00\n        /* \"#utility.yul\":805:811   */\n      dup2\n        /* \"#utility.yul\":792:812   */\n      calldataload\n        /* \"#utility.yul\":783:812   */\n      swap1\n      pop\n        /* \"#utility.yul\":821:861   */\n      tag_134\n        /* \"#utility.yul\":855:860   */\n      dup2\n        /* \"#utility.yul\":821:861   */\n      tag_107\n      jump\t// in\n    tag_134:\n        /* \"#utility.yul\":714:867   */\n      swap3\n      swap2\n      pop\n      pop\n      jump\t// out\n        /* \"#utility.yul\":873:1373   */\n    tag_9:\n        /* \"#utility.yul\":954:960   */\n      0x00\n        /* \"#utility.yul\":962:968   */\n      dup1\n        /* \"#utility.yul\":1011:1013   */\n      0x40\n        /* \"#utility.yul\":999:1008   */\n      dup4\n        /* \"#utility.yul\":990:997   */\n      dup6\n        /* \"#utility.yul\":986:1009   */\n      sub\n        /* \"#utility.yul\":982:1014   */\n      slt\n        /* \"#utility.yul\":979:1098   */\n      iszero\n      tag_136\n      jumpi\n        /* \"#utility.yul\":1017:1096   */\n      tag_137\n      tag_103\n      jump\t// in\n    tag_137:\n        /* \"#utility.yul\":979:1098   */\n    tag_136:\n        /* \"#utility.yul\":1137:1138   */\n      0x00\n        /* \"#utility.yul\":1162:1221   */\n      tag_138\n        /* \"#utility.yul\":1213:1220   */\n      dup6\n        /* \"#utility.yul\":1204:1210   */\n      dup3\n        /* \"#utility.yul\":1193:1202   */\n      dup7\n        /* \"#utility.yul\":1189:1211   */\n      add\n        /* \"#utility.yul\":1162:1221   */\n      tag_106\n      jump\t// in\n    tag_138:\n        /* \"#utility.yul\":1152:1221   */\n      swap3\n      pop\n        /* \"#utility.yul\":1108:1231   */\n      pop\n        /* \"#utility.yul\":1270:1272   */\n      0x20\n        /* \"#utility.yul\":1296:1356   */\n      tag_139\n        /* \"#utility.yul\":1348:1355   */\n      dup6\n        /* \"#utility.yul\":1339:1345   */\n      dup3\n        /* \"#utility.yul\":1328:1337   */\n      dup7\n        /* \"#utility.yul\":1324:1346   */\n      add\n        /* \"#utility.yul\":1296:1356   */\n      tag_108\n      jump\t// in\n    tag_139:\n        /* \"#utility.yul\":1286:1356   */\n      swap2\n      pop\n        /* \"#utility.yul\":1241:1366   */\n      pop\n        /* \"#utility.yul\":873:1373   */\n      swap3\n      pop\n      swap3\n      swap1\n      pop\n      jump\t// out\n        /* \"#utility.yul\":1379:1456   */\n    tag_109:\n        /* \"#utility.yul\":1416:1423   */\n      0x00\n        /* \"#utility.yul\":1445:1450   */\n      dup2\n        /* \"#utility.yul\":1434:1450   */\n      swap1\n      pop\n        /* \"#utility.yul\":1379:1456   */\n      swap2\n      swap1\n      pop\n      jump\t// out\n        /* \"#utility.yul\":1462:1580   */\n    tag_110:\n        /* \"#utility.yul\":1549:1573   */\n      tag_142\n        /* \"#utility.yul\":1567:1572   */\n      dup2\n        /* \"#utility.yul\":1549:1573   */\n      tag_109\n      jump\t// in\n    tag_142:\n        /* \"#utility.yul\":1544:1547   */\n      dup3\n        /* \"#utility.yul\":1537:1574   */\n      mstore\n        /* \"#utility.yul\":1462:1580   */\n      pop\n      pop\n      jump\t// out\n        /* \"#utility.yul\":1586:1808   */\n    tag_16:\n        /* \"#utility.yul\":1679:1683   */\n      0x00\n        /* \"#utility.yul\":1717:1719   */\n      0x20\n        /* \"#utility.yul\":1706:1715   */\n      dup3\n        /* \"#utility.yul\":1702:1720   */\n      add\n        /* \"#utility.yul\":1694:1720   */\n      swap1\n      pop\n        /* \"#utility.yul\":1730:1801   */\n      tag_144\n        /* \"#utility.yul\":1798:1799   */\n      0x00\n        /* \"#utility.yul\":1787:1796   */\n      dup4\n        /* \"#utility.yul\":1783:1800   */\n      add\n        /* \"#utility.yul\":1774:1780   */\n      dup5\n        /* \"#utility.yul\":1730:1801   */\n      tag_110\n      jump\t// in\n    tag_144:\n        /* \"#utility.yul\":1586:1808   */\n      swap3\n      swap2\n      pop\n      pop\n      jump\t// out\n        /* \"#utility.yul\":1814:1994   */\n    tag_40:\n        /* \"#utility.yul\":1862:1939   */\n      0x4e487b7100000000000000000000000000000000000000000000000000000000\n        /* \"#utility.yul\":1859:1860   */\n      0x00\n        /* \"#utility.yul\":1852:1940   */\n      mstore\n        /* \"#utility.yul\":1959:1963   */\n      0x21\n        /* \"#utility.yul\":1956:1957   */\n      0x04\n        /* \"#utility.yul\":1949:1964   */\n      mstore\n        /* \"#utility.yul\":1983:1987   */\n      0x24\n        /* \"#utility.yul\":1980:1981   */\n      0x00\n        /* \"#utility.yul\":1973:1988   */\n      revert\n        /* \"#utility.yul\":2000:2111   */\n    tag_111:\n        /* \"#utility.yul\":2079:2080   */\n      0x03\n        /* \"#utility.yul\":2072:2077   */\n      dup2\n        /* \"#utility.yul\":2069:2081   */\n      lt\n        /* \"#utility.yul\":2059:2105   */\n      tag_147\n      jumpi\n        /* \"#utility.yul\":2085:2103   */\n      tag_148\n      tag_40\n      jump\t// in\n    tag_148:\n        /* \"#utility.yul\":2059:2105   */\n    tag_147:\n        /* \"#utility.yul\":2000:2111   */\n      pop\n      jump\t// out\n        /* \"#utility.yul\":2117:2240   */\n    tag_112:\n        /* \"#utility.yul\":2160:2167   */\n      0x00\n        /* \"#utility.yul\":2189:2194   */\n      dup2\n        /* \"#utility.yul\":2178:2194   */\n      swap1\n      pop\n        /* \"#utility.yul\":2195:2234   */\n      tag_150\n        /* \"#utility.yul\":2228:2233   */\n      dup3\n        /* \"#utility.yul\":2195:2234   */\n      tag_111\n      jump\t// in\n    tag_150:\n        /* \"#utility.yul\":2117:2240   */\n      swap2\n      swap1\n      pop\n      jump\t// out\n        /* \"#utility.yul\":2246:2369   */\n    tag_113:\n        /* \"#utility.yul\":2300:2309   */\n      0x00\n        /* \"#utility.yul\":2333:2363   */\n      tag_152\n        /* \"#utility.yul\":2357:2362   */\n      dup3\n        /* \"#utility.yul\":2333:2363   */\n      tag_112\n      jump\t// in\n    tag_152:\n        /* \"#utility.yul\":2320:2363   */\n      swap1\n      pop\n        /* \"#utility.yul\":2246:2369   */\n      swap2\n      swap1\n      pop\n      jump\t// out\n        /* \"#utility.yul\":2375:2514   */\n    tag_114:\n        /* \"#utility.yul\":2466:2507   */\n      tag_154\n        /* \"#utility.yul\":2501:2506   */\n      dup2\n        /* \"#utility.yul\":2466:2507   */\n      tag_113\n      jump\t// in\n    tag_154:\n        /* \"#utility.yul\":2461:2464   */\n      dup3\n        /* \"#utility.yul\":2454:2508   */\n      mstore\n        /* \"#utility.yul\":2375:2514   */\n      pop\n      pop\n      jump\t// out\n        /* \"#utility.yul\":2520:2750   */\n    tag_26:\n        /* \"#utility.yul\":2617:2621   */\n      0x00\n        /* \"#utility.yul\":2655:2657   */\n      0x20\n        /* \"#utility.yul\":2644:2653   */\n      dup3\n        /* \"#utility.yul\":2640:2658   */\n      add\n        /* \"#utility.yul\":2632:2658   */\n      swap1\n      pop\n        /* \"#utility.yul\":2668:2743   */\n      tag_156\n        /* \"#utility.yul\":2740:2741   */\n      0x00\n        /* \"#utility.yul\":2729:2738   */\n      dup4\n        /* \"#utility.yul\":2725:2742   */\n      add\n        /* \"#utility.yul\":2716:2722   */\n      dup5\n        /* \"#utility.yul\":2668:2743   */\n      tag_114\n      jump\t// in\n    tag_156:\n        /* \"#utility.yul\":2520:2750   */\n      swap3\n      swap2\n      pop\n      pop\n      jump\t// out\n        /* \"#utility.yul\":2756:2868   */\n    tag_115:\n        /* \"#utility.yul\":2836:2837   */\n      0x03\n        /* \"#utility.yul\":2829:2834   */\n      dup2\n        /* \"#utility.yul\":2826:2838   */\n      lt\n        /* \"#utility.yul\":2816:2862   */\n      tag_158\n      jumpi\n        /* \"#utility.yul\":2842:2860   */\n      tag_159\n      tag_40\n      jump\t// in\n    tag_159:\n        /* \"#utility.yul\":2816:2862   */\n    tag_158:\n        /* \"#utility.yul\":2756:2868   */\n      pop\n      jump\t// out\n        /* \"#utility.yul\":2874:2999   */\n    tag_116:\n        /* \"#utility.yul\":2918:2925   */\n      0x00\n        /* \"#utility.yul\":2947:2952   */\n      dup2\n        /* \"#utility.yul\":2936:2952   */\n      swap1\n      pop\n        /* \"#utility.yul\":2953:2993   */\n      tag_161\n        /* \"#utility.yul\":2987:2992   */\n      dup3\n        /* \"#utility.yul\":2953:2993   */\n      tag_115\n      jump\t// in\n    tag_161:\n        /* \"#utility.yul\":2874:2999   */\n      swap2\n      swap1\n      pop\n      jump\t// out\n        /* \"#utility.yul\":3005:3130   */\n    tag_117:\n        /* \"#utility.yul\":3060:3069   */\n      0x00\n        /* \"#utility.yul\":3093:3124   */\n      tag_163\n        /* \"#utility.yul\":3118:3123   */\n      dup3\n        /* \"#utility.yul\":3093:3124   */\n      tag_116\n      jump\t// in\n    tag_163:\n        /* \"#utility.yul\":3080:3124   */\n      swap1\n      pop\n        /* \"#utility.yul\":3005:3130   */\n      swap2\n      swap1\n      pop\n      jump\t// out\n        /* \"#utility.yul\":3136:3277   */\n    tag_118:\n        /* \"#utility.yul\":3228:3270   */\n      tag_165\n        /* \"#utility.yul\":3264:3269   */\n      dup2\n        /* \"#utility.yul\":3228:3270   */\n      tag_117\n      jump\t// in\n    tag_165:\n        /* \"#utility.yul\":3223:3226   */\n      dup3\n        /* \"#utility.yul\":3216:3271   */\n      mstore\n        /* \"#utility.yul\":3136:3277   */\n      pop\n      pop\n      jump\t// out\n        /* \"#utility.yul\":3283:3515   */\n    tag_31:\n        /* \"#utility.yul\":3381:3385   */\n      0x00\n        /* \"#utility.yul\":3419:3421   */\n      0x20\n        /* \"#utility.yul\":3408:3417   */\n      dup3\n        /* \"#utility.yul\":3404:3422   */\n      add\n        /* \"#utility.yul\":3396:3422   */\n      swap1\n      pop\n        /* \"#utility.yul\":3432:3508   */\n      tag_167\n        /* \"#utility.yul\":3505:3506   */\n      0x00\n        /* \"#utility.yul\":3494:3503   */\n      dup4\n        /* \"#utility.yul\":3490:3507   */\n      add\n        /* \"#utility.yul\":3481:3487   */\n      dup5\n        /* \"#utility.yul\":3432:3508   */\n      tag_118\n      jump\t// in\n    tag_167:\n        /* \"#utility.yul\":3283:3515   */\n      swap3\n      swap2\n      pop\n      pop\n      jump\t// out\n        /* \"#utility.yul\":3521:3690   */\n    tag_119:\n        /* \"#utility.yul\":3605:3616   */\n      0x00\n        /* \"#utility.yul\":3639:3645   */\n      dup3\n        /* \"#utility.yul\":3634:3637   */\n      dup3\n        /* \"#utility.yul\":3627:3646   */\n      mstore\n        /* \"#utility.yul\":3679:3683   */\n      0x20\n        /* \"#utility.yul\":3674:3677   */\n      dup3\n        /* \"#utility.yul\":3670:3684   */\n      add\n        /* \"#utility.yul\":3655:3684   */\n      swap1\n      pop\n        /* \"#utility.yul\":3521:3690   */\n      swap3\n      swap2\n      pop\n      pop\n      jump\t// out\n        /* \"#utility.yul\":3696:3933   */\n    tag_120:\n        /* \"#utility.yul\":3836:3870   */\n      0x506c65617365207061792074686520657861637420616d6f756e7420746f206d\n        /* \"#utility.yul\":3832:3833   */\n      0x00\n        /* \"#utility.yul\":3824:3830   */\n      dup3\n        /* \"#utility.yul\":3820:3834   */\n      add\n        /* \"#utility.yul\":3813:3871   */\n      mstore\n        /* \"#utility.yul\":3905:3925   */\n      0x616b6520746869732070757263686173652e0000000000000000000000000000\n        /* \"#utility.yul\":3900:3902   */\n      0x20\n        /* \"#utility.yul\":3892:3898   */\n      dup3\n        /* \"#utility.yul\":3888:3903   */\n      add\n        /* \"#utility.yul\":3881:3926   */\n      mstore\n        /* \"#utility.yul\":3696:3933   */\n      pop\n      jump\t// out\n        /* \"#utility.yul\":3939:4305   */\n    tag_121:\n        /* \"#utility.yul\":4081:4084   */\n      0x00\n        /* \"#utility.yul\":4102:4169   */\n      tag_171\n        /* \"#utility.yul\":4166:4168   */\n      0x32\n        /* \"#utility.yul\":4161:4164   */\n      dup4\n        /* \"#utility.yul\":4102:4169   */\n      tag_119\n      jump\t// in\n    tag_171:\n        /* \"#utility.yul\":4095:4169   */\n      swap2\n      pop\n        /* \"#utility.yul\":4178:4271   */\n      tag_172\n        /* \"#utility.yul\":4267:4270   */\n      dup3\n        /* \"#utility.yul\":4178:4271   */\n      tag_120\n      jump\t// in\n    tag_172:\n        /* \"#utility.yul\":4296:4298   */\n      0x40\n        /* \"#utility.yul\":4291:4294   */\n      dup3\n        /* \"#utility.yul\":4287:4299   */\n      add\n        /* \"#utility.yul\":4280:4299   */\n      swap1\n      pop\n        /* \"#utility.yul\":3939:4305   */\n      swap2\n      swap1\n      pop\n      jump\t// out\n        /* \"#utility.yul\":4311:4730   */\n    tag_36:\n        /* \"#utility.yul\":4477:4481   */\n      0x00\n        /* \"#utility.yul\":4515:4517   */\n      0x20\n        /* \"#utility.yul\":4504:4513   */\n      dup3\n        /* \"#utility.yul\":4500:4518   */\n      add\n        /* \"#utility.yul\":4492:4518   */\n      swap1\n      pop\n        /* \"#utility.yul\":4564:4573   */\n      dup2\n        /* \"#utility.yul\":4558:4562   */\n      dup2\n        /* \"#utility.yul\":4554:4574   */\n      sub\n        /* \"#utility.yul\":4550:4551   */\n      0x00\n        /* \"#utility.yul\":4539:4548   */\n      dup4\n        /* \"#utility.yul\":4535:4552   */\n      add\n        /* \"#utility.yul\":4528:4575   */\n      mstore\n        /* \"#utility.yul\":4592:4723   */\n      tag_174\n        /* \"#utility.yul\":4718:4722   */\n      dup2\n        /* \"#utility.yul\":4592:4723   */\n      tag_121\n      jump\t// in\n    tag_174:\n        /* \"#utility.yul\":4584:4723   */\n      swap1\n      pop\n        /* \"#utility.yul\":4311:4730   */\n      swap2\n      swap1\n      pop\n      jump\t// out\n        /* \"#utility.yul\":4736:4916   */\n    tag_56:\n        /* \"#utility.yul\":4784:4861   */\n      0x4e487b7100000000000000000000000000000000000000000000000000000000\n        /* \"#utility.yul\":4781:4782   */\n      0x00\n        /* \"#utility.yul\":4774:4862   */\n      mstore\n        /* \"#utility.yul\":4881:4885   */\n      0x32\n        /* \"#utility.yul\":4878:4879   */\n      0x04\n        /* \"#utility.yul\":4871:4886   */\n      mstore\n        /* \"#utility.yul\":4905:4909   */\n      0x24\n        /* \"#utility.yul\":4902:4903   */\n      0x00\n        /* \"#utility.yul\":4895:4910   */\n      revert\n        /* \"#utility.yul\":4922:5102   */\n    tag_122:\n        /* \"#utility.yul\":4970:5047   */\n      0x4e487b7100000000000000000000000000000000000000000000000000000000\n        /* \"#utility.yul\":4967:4968   */\n      0x00\n        /* \"#utility.yul\":4960:5048   */\n      mstore\n        /* \"#utility.yul\":5067:5071   */\n      0x11\n        /* \"#utility.yul\":5064:5065   */\n      0x04\n        /* \"#utility.yul\":5057:5072   */\n      mstore\n        /* \"#utility.yul\":5091:5095   */\n      0x24\n        /* \"#utility.yul\":5088:5089   */\n      0x00\n        /* \"#utility.yul\":5081:5096   */\n      revert\n        /* \"#utility.yul\":5108:5341   */\n    tag_70:\n        /* \"#utility.yul\":5147:5150   */\n      0x00\n        /* \"#utility.yul\":5170:5194   */\n      tag_178\n        /* \"#utility.yul\":5188:5193   */\n      dup3\n        /* \"#utility.yul\":5170:5194   */\n      tag_109\n      jump\t// in\n    tag_178:\n        /* \"#utility.yul\":5161:5194   */\n      swap2\n      pop\n        /* \"#utility.yul\":5216:5282   */\n      0xffffffffffffffffffffffffffffffffffffffffffffffffffffffffffffffff\n        /* \"#utility.yul\":5209:5214   */\n      dup3\n        /* \"#utility.yul\":5206:5283   */\n      sub\n        /* \"#utility.yul\":5203:5306   */\n      tag_179\n      jumpi\n        /* \"#utility.yul\":5286:5304   */\n      tag_180\n      tag_122\n      jump\t// in\n    tag_180:\n        /* \"#utility.yul\":5203:5306   */\n    tag_179:\n        /* \"#utility.yul\":5333:5334   */\n      0x01\n        /* \"#utility.yul\":5326:5331   */\n      dup3\n        /* \"#utility.yul\":5322:5335   */\n      add\n        /* \"#utility.yul\":5315:5335   */\n      swap1\n      pop\n        /* \"#utility.yul\":5108:5341   */\n      swap2\n      swap1\n      pop\n      jump\t// out\n        /* \"#utility.yul\":5347:5538   */\n    tag_101:\n        /* \"#utility.yul\":5387:5390   */\n      0x00\n        /* \"#utility.yul\":5406:5426   */\n      tag_182\n        /* \"#utility.yul\":5424:5425   */\n      dup3\n        /* \"#utility.yul\":5406:5426   */\n      tag_109\n      jump\t// in\n    tag_182:\n        /* \"#utility.yul\":5401:5426   */\n      swap2\n      pop\n        /* \"#utility.yul\":5440:5460   */\n      tag_183\n        /* \"#utility.yul\":5458:5459   */\n      dup4\n        /* \"#utility.yul\":5440:5460   */\n      tag_109\n      jump\t// in\n    tag_183:\n        /* \"#utility.yul\":5435:5460   */\n      swap3\n      pop\n        /* \"#utility.yul\":5483:5484   */\n      dup3\n        /* \"#utility.yul\":5480:5481   */\n      dup3\n        /* \"#utility.yul\":5476:5485   */\n      add\n        /* \"#utility.yul\":5469:5485   */\n      swap1\n      pop\n        /* \"#utility.yul\":5504:5507   */\n      dup1\n        /* \"#utility.yul\":5501:5502   */\n      dup3\n        /* \"#utility.yul\":5498:5508   */\n      gt\n        /* \"#utility.yul\":5495:5531   */\n      iszero\n      tag_184\n      jumpi\n        /* \"#utility.yul\":5511:5529   */\n      tag_185\n      tag_122\n      jump\t// in\n    tag_185:\n        /* \"#utility.yul\":5495:5531   */\n    tag_184:\n        /* \"#utility.yul\":5347:5538   */\n      swap3\n      swap2\n      pop\n      pop\n      jump\t// out\n\n    auxdata: 0xa2646970667358221220ca2dcf58a1008114333f0120a25b2d696f595e5548c69fe4dc713ee82173584c64736f6c63430008120033\n}\n",
				"bytecode": {
					"linkReferences": {},
					"object": "608060405234801561001057600080fd5b506108e4806100206000396000f3fe60806040526004361061004a5760003560e01c80636aa283a51461004f57806371cc64b41461006b578063b97461d3146100a8578063e4da41a7146100e5578063f8e5802414610110575b600080fd5b610069600480360381019061006491906105c8565b61013b565b005b34801561007757600080fd5b50610092600480360381019061008d91906105c8565b610293565b60405161009f9190610621565b60405180910390f35b3480156100b457600080fd5b506100cf60048036038101906100ca91906105c8565b610441565b6040516100dc9190610621565b60405180910390f35b3480156100f157600080fd5b506100fa610555565b60405161010791906106b3565b60405180910390f35b34801561011c57600080fd5b50610125610566565b6040516101329190610716565b60405180910390f35b818160006101498383610441565b905080341461018d576040517f08c379a0000000000000000000000000000000000000000000000000000000008152600401610184906107b4565b60405180910390fd5b600160003373ffffffffffffffffffffffffffffffffffffffff1673ffffffffffffffffffffffffffffffffffffffff16815260200190815260200160002060405180604001604052808760028111156101ea576101e961063c565b5b81526020018660028111156102025761020161063c565b5b8152509080600181540180825580915050600190039060005260206000200160009091909190915060008201518160000160006101000a81548160ff021916908360028111156102555761025461063c565b5b021790555060208201518160000160016101000a81548160ff021916908360028111156102855761028461063c565b5b021790555050505050505050565b60008060005b600160003373ffffffffffffffffffffffffffffffffffffffff1673ffffffffffffffffffffffffffffffffffffffff16815260200190815260200160002080549050811015610436578460028111156102f6576102f561063c565b5b600160003373ffffffffffffffffffffffffffffffffffffffff1673ffffffffffffffffffffffffffffffffffffffff1681526020019081526020016000208281548110610347576103466107d4565b5b9060005260206000200160000160009054906101000a900460ff1660028111156103745761037361063c565b5b14801561040f575083600281111561038f5761038e61063c565b5b600160003373ffffffffffffffffffffffffffffffffffffffff1673ffffffffffffffffffffffffffffffffffffffff16815260200190815260200160002082815481106103e0576103df6107d4565b5b9060005260206000200160000160019054906101000a900460ff16600281111561040d5761040c61063c565b5b145b1561042357818061041f90610832565b9250505b808061042e90610832565b915050610299565b508091505092915050565b600080600060028111156104585761045761063c565b5b84600281111561046b5761046a61063c565b5b0361047957600a90506104e0565b6001600281111561048d5761048c61063c565b5b8460028111156104a05761049f61063c565b5b036104ae57600f90506104df565b6002808111156104c1576104c061063c565b5b8460028111156104d4576104d361063c565b5b036104de57601490505b5b5b600160028111156104f4576104f361063c565b5b8360028111156105075761050661063c565b5b148061053657506002808111156105215761052061063c565b5b8360028111156105345761053361063c565b5b145b1561054b57600581610548919061087a565b90505b8091505092915050565b60008054906101000a900460ff1681565b600060019054906101000a900460ff1681565b600080fd5b6003811061058b57600080fd5b50565b60008135905061059d8161057e565b92915050565b600381106105b057600080fd5b50565b6000813590506105c2816105a3565b92915050565b600080604083850312156105df576105de610579565b5b60006105ed8582860161058e565b92505060206105fe858286016105b3565b9150509250929050565b6000819050919050565b61061b81610608565b82525050565b60006020820190506106366000830184610612565b92915050565b7f4e487b7100000000000000000000000000000000000000000000000000000000600052602160045260246000fd5b6003811061067c5761067b61063c565b5b50565b600081905061068d8261066b565b919050565b600061069d8261067f565b9050919050565b6106ad81610692565b82525050565b60006020820190506106c860008301846106a4565b92915050565b600381106106df576106de61063c565b5b50565b60008190506106f0826106ce565b919050565b6000610700826106e2565b9050919050565b610710816106f5565b82525050565b600060208201905061072b6000830184610707565b92915050565b600082825260208201905092915050565b7f506c65617365207061792074686520657861637420616d6f756e7420746f206d60008201527f616b6520746869732070757263686173652e0000000000000000000000000000602082015250565b600061079e603283610731565b91506107a982610742565b604082019050919050565b600060208201905081810360008301526107cd81610791565b9050919050565b7f4e487b7100000000000000000000000000000000000000000000000000000000600052603260045260246000fd5b7f4e487b7100000000000000000000000000000000000000000000000000000000600052601160045260246000fd5b600061083d82610608565b91507fffffffffffffffffffffffffffffffffffffffffffffffffffffffffffffffff820361086f5761086e610803565b5b600182019050919050565b600061088582610608565b915061089083610608565b92508282019050808211156108a8576108a7610803565b5b9291505056fea2646970667358221220ca2dcf58a1008114333f0120a25b2d696f595e5548c69fe4dc713ee82173584c64736f6c63430008120033",
					"opcodes": "PUSH1 0x80 PUSH1 0x40 MSTORE CALLVALUE DUP1 ISZERO PUSH2 0x10 JUMPI PUSH1 0x0 DUP1 REVERT JUMPDEST POP PUSH2 0x8E4 DUP1 PUSH2 0x20 PUSH1 0x0 CODECOPY PUSH1 0x0 RETURN INVALID PUSH1 0x80 PUSH1 0x40 MSTORE PUSH1 0x4 CALLDATASIZE LT PUSH2 0x4A JUMPI PUSH1 0x0 CALLDATALOAD PUSH1 0xE0 SHR DUP1 PUSH4 0x6AA283A5 EQ PUSH2 0x4F JUMPI DUP1 PUSH4 0x71CC64B4 EQ PUSH2 0x6B JUMPI DUP1 PUSH4 0xB97461D3 EQ PUSH2 0xA8 JUMPI DUP1 PUSH4 0xE4DA41A7 EQ PUSH2 0xE5 JUMPI DUP1 PUSH4 0xF8E58024 EQ PUSH2 0x110 JUMPI JUMPDEST PUSH1 0x0 DUP1 REVERT JUMPDEST PUSH2 0x69 PUSH1 0x4 DUP1 CALLDATASIZE SUB DUP2 ADD SWAP1 PUSH2 0x64 SWAP2 SWAP1 PUSH2 0x5C8 JUMP JUMPDEST PUSH2 0x13B JUMP JUMPDEST STOP JUMPDEST CALLVALUE DUP1 ISZERO PUSH2 0x77 JUMPI PUSH1 0x0 DUP1 REVERT JUMPDEST POP PUSH2 0x92 PUSH1 0x4 DUP1 CALLDATASIZE SUB DUP2 ADD SWAP1 PUSH2 0x8D SWAP2 SWAP1 PUSH2 0x5C8 JUMP JUMPDEST PUSH2 0x293 JUMP JUMPDEST PUSH1 0x40 MLOAD PUSH2 0x9F SWAP2 SWAP1 PUSH2 0x621 JUMP JUMPDEST PUSH1 0x40 MLOAD DUP1 SWAP2 SUB SWAP1 RETURN JUMPDEST CALLVALUE DUP1 ISZERO PUSH2 0xB4 JUMPI PUSH1 0x0 DUP1 REVERT JUMPDEST POP PUSH2 0xCF PUSH1 0x4 DUP1 CALLDATASIZE SUB DUP2 ADD SWAP1 PUSH2 0xCA SWAP2 SWAP1 PUSH2 0x5C8 JUMP JUMPDEST PUSH2 0x441 JUMP JUMPDEST PUSH1 0x40 MLOAD PUSH2 0xDC SWAP2 SWAP1 PUSH2 0x621 JUMP JUMPDEST PUSH1 0x40 MLOAD DUP1 SWAP2 SUB SWAP1 RETURN JUMPDEST CALLVALUE DUP1 ISZERO PUSH2 0xF1 JUMPI PUSH1 0x0 DUP1 REVERT JUMPDEST POP PUSH2 0xFA PUSH2 0x555 JUMP JUMPDEST PUSH1 0x40 MLOAD PUSH2 0x107 SWAP2 SWAP1 PUSH2 0x6B3 JUMP JUMPDEST PUSH1 0x40 MLOAD DUP1 SWAP2 SUB SWAP1 RETURN JUMPDEST CALLVALUE DUP1 ISZERO PUSH2 0x11C JUMPI PUSH1 0x0 DUP1 REVERT JUMPDEST POP PUSH2 0x125 PUSH2 0x566 JUMP JUMPDEST PUSH1 0x40 MLOAD PUSH2 0x132 SWAP2 SWAP1 PUSH2 0x716 JUMP JUMPDEST PUSH1 0x40 MLOAD DUP1 SWAP2 SUB SWAP1 RETURN JUMPDEST DUP2 DUP2 PUSH1 0x0 PUSH2 0x149 DUP4 DUP4 PUSH2 0x441 JUMP JUMPDEST SWAP1 POP DUP1 CALLVALUE EQ PUSH2 0x18D JUMPI PUSH1 0x40 MLOAD PUSH32 0x8C379A000000000000000000000000000000000000000000000000000000000 DUP2 MSTORE PUSH1 0x4 ADD PUSH2 0x184 SWAP1 PUSH2 0x7B4 JUMP JUMPDEST PUSH1 0x40 MLOAD DUP1 SWAP2 SUB SWAP1 REVERT JUMPDEST PUSH1 0x1 PUSH1 0x0 CALLER PUSH20 0xFFFFFFFFFFFFFFFFFFFFFFFFFFFFFFFFFFFFFFFF AND PUSH20 0xFFFFFFFFFFFFFFFFFFFFFFFFFFFFFFFFFFFFFFFF AND DUP2 MSTORE PUSH1 0x20 ADD SWAP1 DUP2 MSTORE PUSH1 0x20 ADD PUSH1 0x0 KECCAK256 PUSH1 0x40 MLOAD DUP1 PUSH1 0x40 ADD PUSH1 0x40 MSTORE DUP1 DUP8 PUSH1 0x2 DUP2 GT ISZERO PUSH2 0x1EA JUMPI PUSH2 0x1E9 PUSH2 0x63C JUMP JUMPDEST JUMPDEST DUP2 MSTORE PUSH1 0x20 ADD DUP7 PUSH1 0x2 DUP2 GT ISZERO PUSH2 0x202 JUMPI PUSH2 0x201 PUSH2 0x63C JUMP JUMPDEST JUMPDEST DUP2 MSTORE POP SWAP1 DUP1 PUSH1 0x1 DUP2 SLOAD ADD DUP1 DUP3 SSTORE DUP1 SWAP2 POP POP PUSH1 0x1 SWAP1 SUB SWAP1 PUSH1 0x0 MSTORE PUSH1 0x20 PUSH1 0x0 KECCAK256 ADD PUSH1 0x0 SWAP1 SWAP2 SWAP1 SWAP2 SWAP1 SWAP2 POP PUSH1 0x0 DUP3 ADD MLOAD DUP2 PUSH1 0x0 ADD PUSH1 0x0 PUSH2 0x100 EXP DUP2 SLOAD DUP2 PUSH1 0xFF MUL NOT AND SWAP1 DUP4 PUSH1 0x2 DUP2 GT ISZERO PUSH2 0x255 JUMPI PUSH2 0x254 PUSH2 0x63C JUMP JUMPDEST JUMPDEST MUL OR SWAP1 SSTORE POP PUSH1 0x20 DUP3 ADD MLOAD DUP2 PUSH1 0x0 ADD PUSH1 0x1 PUSH2 0x100 EXP DUP2 SLOAD DUP2 PUSH1 0xFF MUL NOT AND SWAP1 DUP4 PUSH1 0x2 DUP2 GT ISZERO PUSH2 0x285 JUMPI PUSH2 0x284 PUSH2 0x63C JUMP JUMPDEST JUMPDEST MUL OR SWAP1 SSTORE POP POP POP POP POP POP POP POP JUMP JUMPDEST PUSH1 0x0 DUP1 PUSH1 0x0 JUMPDEST PUSH1 0x1 PUSH1 0x0 CALLER PUSH20 0xFFFFFFFFFFFFFFFFFFFFFFFFFFFFFFFFFFFFFFFF AND PUSH20 0xFFFFFFFFFFFFFFFFFFFFFFFFFFFFFFFFFFFFFFFF AND DUP2 MSTORE PUSH1 0x20 ADD SWAP1 DUP2 MSTORE PUSH1 0x20 ADD PUSH1 0x0 KECCAK256 DUP1 SLOAD SWAP1 POP DUP2 LT ISZERO PUSH2 0x436 JUMPI DUP5 PUSH1 0x2 DUP2 GT ISZERO PUSH2 0x2F6 JUMPI PUSH2 0x2F5 PUSH2 0x63C JUMP JUMPDEST JUMPDEST PUSH1 0x1 PUSH1 0x0 CALLER PUSH20 0xFFFFFFFFFFFFFFFFFFFFFFFFFFFFFFFFFFFFFFFF AND PUSH20 0xFFFFFFFFFFFFFFFFFFFFFFFFFFFFFFFFFFFFFFFF AND DUP2 MSTORE PUSH1 0x20 ADD SWAP1 DUP2 MSTORE PUSH1 0x20 ADD PUSH1 0x0 KECCAK256 DUP3 DUP2 SLOAD DUP2 LT PUSH2 0x347 JUMPI PUSH2 0x346 PUSH2 0x7D4 JUMP JUMPDEST JUMPDEST SWAP1 PUSH1 0x0 MSTORE PUSH1 0x20 PUSH1 0x0 KECCAK256 ADD PUSH1 0x0 ADD PUSH1 0x0 SWAP1 SLOAD SWAP1 PUSH2 0x100 EXP SWAP1 DIV PUSH1 0xFF AND PUSH1 0x2 DUP2 GT ISZERO PUSH2 0x374 JUMPI PUSH2 0x373 PUSH2 0x63C JUMP JUMPDEST JUMPDEST EQ DUP1 ISZERO PUSH2 0x40F JUMPI POP DUP4 PUSH1 0x2 DUP2 GT ISZERO PUSH2 0x38F JUMPI PUSH2 0x38E PUSH2 0x63C JUMP JUMPDEST JUMPDEST PUSH1 0x1 PUSH1 0x0 CALLER PUSH20 0xFFFFFFFFFFFFFFFFFFFFFFFFFFFFFFFFFFFFFFFF AND PUSH20 0xFFFFFFFFFFFFFFFFFFFFFFFFFFFFFFFFFFFFFFFF AND DUP2 MSTORE PUSH1 0x20 ADD SWAP1 DUP2 MSTORE PUSH1 0x20 ADD PUSH1 0x0 KECCAK256 DUP3 DUP2 SLOAD DUP2 LT PUSH2 0x3E0 JUMPI PUSH2 0x3DF PUSH2 0x7D4 JUMP JUMPDEST JUMPDEST SWAP1 PUSH1 0x0 MSTORE PUSH1 0x20 PUSH1 0x0 KECCAK256 ADD PUSH1 0x0 ADD PUSH1 0x1 SWAP1 SLOAD SWAP1 PUSH2 0x100 EXP SWAP1 DIV PUSH1 0xFF AND PUSH1 0x2 DUP2 GT ISZERO PUSH2 0x40D JUMPI PUSH2 0x40C PUSH2 0x63C JUMP JUMPDEST JUMPDEST EQ JUMPDEST ISZERO PUSH2 0x423 JUMPI DUP2 DUP1 PUSH2 0x41F SWAP1 PUSH2 0x832 JUMP JUMPDEST SWAP3 POP POP JUMPDEST DUP1 DUP1 PUSH2 0x42E SWAP1 PUSH2 0x832 JUMP JUMPDEST SWAP2 POP POP PUSH2 0x299 JUMP JUMPDEST POP DUP1 SWAP2 POP POP SWAP3 SWAP2 POP POP JUMP JUMPDEST PUSH1 0x0 DUP1 PUSH1 0x0 PUSH1 0x2 DUP2 GT ISZERO PUSH2 0x458 JUMPI PUSH2 0x457 PUSH2 0x63C JUMP JUMPDEST JUMPDEST DUP5 PUSH1 0x2 DUP2 GT ISZERO PUSH2 0x46B JUMPI PUSH2 0x46A PUSH2 0x63C JUMP JUMPDEST JUMPDEST SUB PUSH2 0x479 JUMPI PUSH1 0xA SWAP1 POP PUSH2 0x4E0 JUMP JUMPDEST PUSH1 0x1 PUSH1 0x2 DUP2 GT ISZERO PUSH2 0x48D JUMPI PUSH2 0x48C PUSH2 0x63C JUMP JUMPDEST JUMPDEST DUP5 PUSH1 0x2 DUP2 GT ISZERO PUSH2 0x4A0 JUMPI PUSH2 0x49F PUSH2 0x63C JUMP JUMPDEST JUMPDEST SUB PUSH2 0x4AE JUMPI PUSH1 0xF SWAP1 POP PUSH2 0x4DF JUMP JUMPDEST PUSH1 0x2 DUP1 DUP2 GT ISZERO PUSH2 0x4C1 JUMPI PUSH2 0x4C0 PUSH2 0x63C JUMP JUMPDEST JUMPDEST DUP5 PUSH1 0x2 DUP2 GT ISZERO PUSH2 0x4D4 JUMPI PUSH2 0x4D3 PUSH2 0x63C JUMP JUMPDEST JUMPDEST SUB PUSH2 0x4DE JUMPI PUSH1 0x14 SWAP1 POP JUMPDEST JUMPDEST JUMPDEST PUSH1 0x1 PUSH1 0x2 DUP2 GT ISZERO PUSH2 0x4F4 JUMPI PUSH2 0x4F3 PUSH2 0x63C JUMP JUMPDEST JUMPDEST DUP4 PUSH1 0x2 DUP2 GT ISZERO PUSH2 0x507 JUMPI PUSH2 0x506 PUSH2 0x63C JUMP JUMPDEST JUMPDEST EQ DUP1 PUSH2 0x536 JUMPI POP PUSH1 0x2 DUP1 DUP2 GT ISZERO PUSH2 0x521 JUMPI PUSH2 0x520 PUSH2 0x63C JUMP JUMPDEST JUMPDEST DUP4 PUSH1 0x2 DUP2 GT ISZERO PUSH2 0x534 JUMPI PUSH2 0x533 PUSH2 0x63C JUMP JUMPDEST JUMPDEST EQ JUMPDEST ISZERO PUSH2 0x54B JUMPI PUSH1 0x5 DUP2 PUSH2 0x548 SWAP2 SWAP1 PUSH2 0x87A JUMP JUMPDEST SWAP1 POP JUMPDEST DUP1 SWAP2 POP POP SWAP3 SWAP2 POP POP JUMP JUMPDEST PUSH1 0x0 DUP1 SLOAD SWAP1 PUSH2 0x100 EXP SWAP1 DIV PUSH1 0xFF AND DUP2 JUMP JUMPDEST PUSH1 0x0 PUSH1 0x1 SWAP1 SLOAD SWAP1 PUSH2 0x100 EXP SWAP1 DIV PUSH1 0xFF AND DUP2 JUMP JUMPDEST PUSH1 0x0 DUP1 REVERT JUMPDEST PUSH1 0x3 DUP2 LT PUSH2 0x58B JUMPI PUSH1 0x0 DUP1 REVERT JUMPDEST POP JUMP JUMPDEST PUSH1 0x0 DUP2 CALLDATALOAD SWAP1 POP PUSH2 0x59D DUP2 PUSH2 0x57E JUMP JUMPDEST SWAP3 SWAP2 POP POP JUMP JUMPDEST PUSH1 0x3 DUP2 LT PUSH2 0x5B0 JUMPI PUSH1 0x0 DUP1 REVERT JUMPDEST POP JUMP JUMPDEST PUSH1 0x0 DUP2 CALLDATALOAD SWAP1 POP PUSH2 0x5C2 DUP2 PUSH2 0x5A3 JUMP JUMPDEST SWAP3 SWAP2 POP POP JUMP JUMPDEST PUSH1 0x0 DUP1 PUSH1 0x40 DUP4 DUP6 SUB SLT ISZERO PUSH2 0x5DF JUMPI PUSH2 0x5DE PUSH2 0x579 JUMP JUMPDEST JUMPDEST PUSH1 0x0 PUSH2 0x5ED DUP6 DUP3 DUP7 ADD PUSH2 0x58E JUMP JUMPDEST SWAP3 POP POP PUSH1 0x20 PUSH2 0x5FE DUP6 DUP3 DUP7 ADD PUSH2 0x5B3 JUMP JUMPDEST SWAP2 POP POP SWAP3 POP SWAP3 SWAP1 POP JUMP JUMPDEST PUSH1 0x0 DUP2 SWAP1 POP SWAP2 SWAP1 POP JUMP JUMPDEST PUSH2 0x61B DUP2 PUSH2 0x608 JUMP JUMPDEST DUP3 MSTORE POP POP JUMP JUMPDEST PUSH1 0x0 PUSH1 0x20 DUP3 ADD SWAP1 POP PUSH2 0x636 PUSH1 0x0 DUP4 ADD DUP5 PUSH2 0x612 JUMP JUMPDEST SWAP3 SWAP2 POP POP JUMP JUMPDEST PUSH32 0x4E487B7100000000000000000000000000000000000000000000000000000000 PUSH1 0x0 MSTORE PUSH1 0x21 PUSH1 0x4 MSTORE PUSH1 0x24 PUSH1 0x0 REVERT JUMPDEST PUSH1 0x3 DUP2 LT PUSH2 0x67C JUMPI PUSH2 0x67B PUSH2 0x63C JUMP JUMPDEST JUMPDEST POP JUMP JUMPDEST PUSH1 0x0 DUP2 SWAP1 POP PUSH2 0x68D DUP3 PUSH2 0x66B JUMP JUMPDEST SWAP2 SWAP1 POP JUMP JUMPDEST PUSH1 0x0 PUSH2 0x69D DUP3 PUSH2 0x67F JUMP JUMPDEST SWAP1 POP SWAP2 SWAP1 POP JUMP JUMPDEST PUSH2 0x6AD DUP2 PUSH2 0x692 JUMP JUMPDEST DUP3 MSTORE POP POP JUMP JUMPDEST PUSH1 0x0 PUSH1 0x20 DUP3 ADD SWAP1 POP PUSH2 0x6C8 PUSH1 0x0 DUP4 ADD DUP5 PUSH2 0x6A4 JUMP JUMPDEST SWAP3 SWAP2 POP POP JUMP JUMPDEST PUSH1 0x3 DUP2 LT PUSH2 0x6DF JUMPI PUSH2 0x6DE PUSH2 0x63C JUMP JUMPDEST JUMPDEST POP JUMP JUMPDEST PUSH1 0x0 DUP2 SWAP1 POP PUSH2 0x6F0 DUP3 PUSH2 0x6CE JUMP JUMPDEST SWAP2 SWAP1 POP JUMP JUMPDEST PUSH1 0x0 PUSH2 0x700 DUP3 PUSH2 0x6E2 JUMP JUMPDEST SWAP1 POP SWAP2 SWAP1 POP JUMP JUMPDEST PUSH2 0x710 DUP2 PUSH2 0x6F5 JUMP JUMPDEST DUP3 MSTORE POP POP JUMP JUMPDEST PUSH1 0x0 PUSH1 0x20 DUP3 ADD SWAP1 POP PUSH2 0x72B PUSH1 0x0 DUP4 ADD DUP5 PUSH2 0x707 JUMP JUMPDEST SWAP3 SWAP2 POP POP JUMP JUMPDEST PUSH1 0x0 DUP3 DUP3 MSTORE PUSH1 0x20 DUP3 ADD SWAP1 POP SWAP3 SWAP2 POP POP JUMP JUMPDEST PUSH32 0x506C65617365207061792074686520657861637420616D6F756E7420746F206D PUSH1 0x0 DUP3 ADD MSTORE PUSH32 0x616B6520746869732070757263686173652E0000000000000000000000000000 PUSH1 0x20 DUP3 ADD MSTORE POP JUMP JUMPDEST PUSH1 0x0 PUSH2 0x79E PUSH1 0x32 DUP4 PUSH2 0x731 JUMP JUMPDEST SWAP2 POP PUSH2 0x7A9 DUP3 PUSH2 0x742 JUMP JUMPDEST PUSH1 0x40 DUP3 ADD SWAP1 POP SWAP2 SWAP1 POP JUMP JUMPDEST PUSH1 0x0 PUSH1 0x20 DUP3 ADD SWAP1 POP DUP2 DUP2 SUB PUSH1 0x0 DUP4 ADD MSTORE PUSH2 0x7CD DUP2 PUSH2 0x791 JUMP JUMPDEST SWAP1 POP SWAP2 SWAP1 POP JUMP JUMPDEST PUSH32 0x4E487B7100000000000000000000000000000000000000000000000000000000 PUSH1 0x0 MSTORE PUSH1 0x32 PUSH1 0x4 MSTORE PUSH1 0x24 PUSH1 0x0 REVERT JUMPDEST PUSH32 0x4E487B7100000000000000000000000000000000000000000000000000000000 PUSH1 0x0 MSTORE PUSH1 0x11 PUSH1 0x4 MSTORE PUSH1 0x24 PUSH1 0x0 REVERT JUMPDEST PUSH1 0x0 PUSH2 0x83D DUP3 PUSH2 0x608 JUMP JUMPDEST SWAP2 POP PUSH32 0xFFFFFFFFFFFFFFFFFFFFFFFFFFFFFFFFFFFFFFFFFFFFFFFFFFFFFFFFFFFFFFFF DUP3 SUB PUSH2 0x86F JUMPI PUSH2 0x86E PUSH2 0x803 JUMP JUMPDEST JUMPDEST PUSH1 0x1 DUP3 ADD SWAP1 POP SWAP2 SWAP1 POP JUMP JUMPDEST PUSH1 0x0 PUSH2 0x885 DUP3 PUSH2 0x608 JUMP JUMPDEST SWAP2 POP PUSH2 0x890 DUP4 PUSH2 0x608 JUMP JUMPDEST SWAP3 POP DUP3 DUP3 ADD SWAP1 POP DUP1 DUP3 GT ISZERO PUSH2 0x8A8 JUMPI PUSH2 0x8A7 PUSH2 0x803 JUMP JUMPDEST JUMPDEST SWAP3 SWAP2 POP POP JUMP INVALID LOG2 PUSH5 0x6970667358 0x22 SLT KECCAK256 0xCA 0x2D 0xCF PC LOG1 STOP DUP2 EQ CALLER EXTCODEHASH ADD KECCAK256 LOG2 JUMPDEST 0x2D PUSH10 0x6F595E5548C69FE4DC71 RETURNDATACOPY 0xE8 0x21 PUSH20 0x584C64736F6C6343000812003300000000000000 "
				},
				"gasEstimates": {
					"creation": {
						"codeDepositCost": "455200",
						"executionCost": "493",
						"totalCost": "455693"
					},
					"external": {
						"buyShirt(uint8,uint8)": "infinite",
						"colors()": "2676",
						"getShirtPrice(uint8,uint8)": "infinite",
						"getShirts(uint8,uint8)": "infinite",
						"sizes()": "2601"
					}
				},
				"methodIdentifiers": {
					"buyShirt(uint8,uint8)": "6aa283a5",
					"colors()": "f8e58024",
					"getShirtPrice(uint8,uint8)": "b97461d3",
					"getShirts(uint8,uint8)": "71cc64b4",
					"sizes()": "e4da41a7"
				}
			},
			"storageLayout": {
				"storage": [
					{
						"astId": 12,
						"contract": "contracts/practice/problems/EnumProblem.sol:FancyShirts",
						"label": "sizes",
						"offset": 0,
						"slot": "0",
						"type": "t_enum(Size)5"
					},
					{
						"astId": 15,
						"contract": "contracts/practice/problems/EnumProblem.sol:FancyShirts",
						"label": "colors",
						"offset": 1,
						"slot": "0",
						"type": "t_enum(Color)9"
					},
					{
						"astId": 28,
						"contract": "contracts/practice/problems/EnumProblem.sol:FancyShirts",
						"label": "shirts",
						"offset": 0,
						"slot": "1",
						"type": "t_mapping(t_address,t_array(t_struct(Shirt)22_storage)dyn_storage)"
					}
				],
				"types": {
					"t_address": {
						"encoding": "inplace",
						"label": "address",
						"numberOfBytes": "20"
					},
					"t_array(t_struct(Shirt)22_storage)dyn_storage": {
						"base": "t_struct(Shirt)22_storage",
						"encoding": "dynamic_array",
						"label": "struct FancyShirts.Shirt[]",
						"numberOfBytes": "32"
					},
					"t_enum(Color)9": {
						"encoding": "inplace",
						"label": "enum FancyShirts.Color",
						"numberOfBytes": "1"
					},
					"t_enum(Size)5": {
						"encoding": "inplace",
						"label": "enum FancyShirts.Size",
						"numberOfBytes": "1"
					},
					"t_mapping(t_address,t_array(t_struct(Shirt)22_storage)dyn_storage)": {
						"encoding": "mapping",
						"key": "t_address",
						"label": "mapping(address => struct FancyShirts.Shirt[])",
						"numberOfBytes": "32",
						"value": "t_array(t_struct(Shirt)22_storage)dyn_storage"
					},
					"t_struct(Shirt)22_storage": {
						"encoding": "inplace",
						"label": "struct FancyShirts.Shirt",
						"members": [
							{
								"astId": 18,
								"contract": "contracts/practice/problems/EnumProblem.sol:FancyShirts",
								"label": "size",
								"offset": 0,
								"slot": "0",
								"type": "t_enum(Size)5"
							},
							{
								"astId": 21,
								"contract": "contracts/practice/problems/EnumProblem.sol:FancyShirts",
								"label": "color",
								"offset": 1,
								"slot": "0",
								"type": "t_enum(Color)9"
							}
						],
						"numberOfBytes": "32"
					}
				}
			},
			"userdoc": {
				"kind": "user",
				"methods": {},
				"version": 1
			}
		}
	}
}