{
	"contracts/practice/examples/EnumExample.sol": {
		"Enums": {
			"abi": [
				{
					"inputs": [],
					"name": "env",
					"outputs": [
						{
							"internalType": "enum Enums.Environment",
							"name": "",
							"type": "uint8"
						}
					],
					"stateMutability": "view",
					"type": "function"
				},
				{
					"inputs": [],
					"name": "isLive",
					"outputs": [
						{
							"internalType": "bool",
							"name": "",
							"type": "bool"
						}
					],
					"stateMutability": "view",
					"type": "function"
				},
				{
					"inputs": [],
					"name": "pushToProduction",
					"outputs": [],
					"stateMutability": "nonpayable",
					"type": "function"
				},
				{
					"inputs": [],
					"name": "pushToStaging",
					"outputs": [],
					"stateMutability": "nonpayable",
					"type": "function"
				},
				{
					"inputs": [],
					"name": "rollbackToSandbox",
					"outputs": [],
					"stateMutability": "nonpayable",
					"type": "function"
				}
			],
			"devdoc": {
				"kind": "dev",
				"methods": {},
				"version": 1
			},
			"evm": {
				"assembly": "    /* \"contracts/practice/examples/EnumExample.sol\":32:563  contract Enums {... */\n  mstore(0x40, 0x80)\n  callvalue\n  dup1\n  iszero\n  tag_1\n  jumpi\n  0x00\n  dup1\n  revert\ntag_1:\n  pop\n  dataSize(sub_0)\n  dup1\n  dataOffset(sub_0)\n  0x00\n  codecopy\n  0x00\n  return\nstop\n\nsub_0: assembly {\n        /* \"contracts/practice/examples/EnumExample.sol\":32:563  contract Enums {... */\n      mstore(0x40, 0x80)\n      callvalue\n      dup1\n      iszero\n      tag_1\n      jumpi\n      0x00\n      dup1\n      revert\n    tag_1:\n      pop\n      jumpi(tag_2, lt(calldatasize, 0x04))\n      shr(0xe0, calldataload(0x00))\n      dup1\n      0x069b897d\n      eq\n      tag_3\n      jumpi\n      dup1\n      0x29cfb550\n      eq\n      tag_4\n      jumpi\n      dup1\n      0x5e8bacc7\n      eq\n      tag_5\n      jumpi\n      dup1\n      0x9dca0032\n      eq\n      tag_6\n      jumpi\n      dup1\n      0xb8f7a665\n      eq\n      tag_7\n      jumpi\n    tag_2:\n      0x00\n      dup1\n      revert\n        /* \"contracts/practice/examples/EnumExample.sol\":286:371  function pushToProduction () public {... */\n    tag_3:\n      tag_8\n      tag_9\n      jump\t// in\n    tag_8:\n      stop\n        /* \"contracts/practice/examples/EnumExample.sol\":199:277  function pushToStaging () public {... */\n    tag_4:\n      tag_10\n      tag_11\n      jump\t// in\n    tag_10:\n      stop\n        /* \"contracts/practice/examples/EnumExample.sol\":492:560  function rollbackToSandbox () public {... */\n    tag_5:\n      tag_12\n      tag_13\n      jump\t// in\n    tag_12:\n      stop\n        /* \"contracts/practice/examples/EnumExample.sol\":167:189  Environment public env */\n    tag_6:\n      tag_14\n      tag_15\n      jump\t// in\n    tag_14:\n      mload(0x40)\n      tag_16\n      swap2\n      swap1\n      tag_17\n      jump\t// in\n    tag_16:\n      mload(0x40)\n      dup1\n      swap2\n      sub\n      swap1\n      return\n        /* \"contracts/practice/examples/EnumExample.sol\":380:483  function isLive () public view returns (bool) {... */\n    tag_7:\n      tag_18\n      tag_19\n      jump\t// in\n    tag_18:\n      mload(0x40)\n      tag_20\n      swap2\n      swap1\n      tag_21\n      jump\t// in\n    tag_20:\n      mload(0x40)\n      dup1\n      swap2\n      sub\n      swap1\n      return\n        /* \"contracts/practice/examples/EnumExample.sol\":286:371  function pushToProduction () public {... */\n    tag_9:\n        /* \"contracts/practice/examples/EnumExample.sol\":340:362  Environment.Production */\n      0x02\n        /* \"contracts/practice/examples/EnumExample.sol\":334:337  env */\n      0x00\n      dup1\n        /* \"contracts/practice/examples/EnumExample.sol\":334:362  env = Environment.Production */\n      0x0100\n      exp\n      dup2\n      sload\n      dup2\n      0xff\n      mul\n      not\n      and\n      swap1\n      dup4\n      0x02\n      dup2\n      gt\n      iszero\n      tag_23\n      jumpi\n      tag_24\n      tag_25\n      jump\t// in\n    tag_24:\n    tag_23:\n      mul\n      or\n      swap1\n      sstore\n      pop\n        /* \"contracts/practice/examples/EnumExample.sol\":286:371  function pushToProduction () public {... */\n      jump\t// out\n        /* \"contracts/practice/examples/EnumExample.sol\":199:277  function pushToStaging () public {... */\n    tag_11:\n        /* \"contracts/practice/examples/EnumExample.sol\":249:268  Environment.Staging */\n      0x01\n        /* \"contracts/practice/examples/EnumExample.sol\":243:246  env */\n      0x00\n      dup1\n        /* \"contracts/practice/examples/EnumExample.sol\":243:268  env = Environment.Staging */\n      0x0100\n      exp\n      dup2\n      sload\n      dup2\n      0xff\n      mul\n      not\n      and\n      swap1\n      dup4\n      0x02\n      dup2\n      gt\n      iszero\n      tag_27\n      jumpi\n      tag_28\n      tag_25\n      jump\t// in\n    tag_28:\n    tag_27:\n      mul\n      or\n      swap1\n      sstore\n      pop\n        /* \"contracts/practice/examples/EnumExample.sol\":199:277  function pushToStaging () public {... */\n      jump\t// out\n        /* \"contracts/practice/examples/EnumExample.sol\":492:560  function rollbackToSandbox () public {... */\n    tag_13:\n        /* \"contracts/practice/examples/EnumExample.sol\":548:551  env */\n      0x00\n      dup1\n        /* \"contracts/practice/examples/EnumExample.sol\":541:551  delete env */\n      0x0100\n      exp\n      dup2\n      sload\n      swap1\n      0xff\n      mul\n      not\n      and\n      swap1\n      sstore\n        /* \"contracts/practice/examples/EnumExample.sol\":492:560  function rollbackToSandbox () public {... */\n      jump\t// out\n        /* \"contracts/practice/examples/EnumExample.sol\":167:189  Environment public env */\n    tag_15:\n      0x00\n      dup1\n      sload\n      swap1\n      0x0100\n      exp\n      swap1\n      div\n      0xff\n      and\n      dup2\n      jump\t// out\n        /* \"contracts/practice/examples/EnumExample.sol\":380:483  function isLive () public view returns (bool) {... */\n    tag_19:\n        /* \"contracts/practice/examples/EnumExample.sol\":420:424  bool */\n      0x00\n        /* \"contracts/practice/examples/EnumExample.sol\":452:474  Environment.Production */\n      0x02\n        /* \"contracts/practice/examples/EnumExample.sol\":445:474  env == Environment.Production */\n      dup1\n      dup2\n      gt\n      iszero\n      tag_31\n      jumpi\n      tag_32\n      tag_25\n      jump\t// in\n    tag_32:\n    tag_31:\n        /* \"contracts/practice/examples/EnumExample.sol\":445:448  env */\n      0x00\n      dup1\n      sload\n      swap1\n      0x0100\n      exp\n      swap1\n      div\n      0xff\n      and\n        /* \"contracts/practice/examples/EnumExample.sol\":445:474  env == Environment.Production */\n      0x02\n      dup2\n      gt\n      iszero\n      tag_33\n      jumpi\n      tag_34\n      tag_25\n      jump\t// in\n    tag_34:\n    tag_33:\n      eq\n        /* \"contracts/practice/examples/EnumExample.sol\":438:474  return env == Environment.Production */\n      swap1\n      pop\n        /* \"contracts/practice/examples/EnumExample.sol\":380:483  function isLive () public view returns (bool) {... */\n      swap1\n      jump\t// out\n        /* \"#utility.yul\":7:187   */\n    tag_25:\n        /* \"#utility.yul\":55:132   */\n      0x4e487b7100000000000000000000000000000000000000000000000000000000\n        /* \"#utility.yul\":52:53   */\n      0x00\n        /* \"#utility.yul\":45:133   */\n      mstore\n        /* \"#utility.yul\":152:156   */\n      0x21\n        /* \"#utility.yul\":149:150   */\n      0x04\n        /* \"#utility.yul\":142:157   */\n      mstore\n        /* \"#utility.yul\":176:180   */\n      0x24\n        /* \"#utility.yul\":173:174   */\n      0x00\n        /* \"#utility.yul\":166:181   */\n      revert\n        /* \"#utility.yul\":193:311   */\n    tag_35:\n        /* \"#utility.yul\":279:280   */\n      0x03\n        /* \"#utility.yul\":272:277   */\n      dup2\n        /* \"#utility.yul\":269:281   */\n      lt\n        /* \"#utility.yul\":259:305   */\n      tag_44\n      jumpi\n        /* \"#utility.yul\":285:303   */\n      tag_45\n      tag_25\n      jump\t// in\n    tag_45:\n        /* \"#utility.yul\":259:305   */\n    tag_44:\n        /* \"#utility.yul\":193:311   */\n      pop\n      jump\t// out\n        /* \"#utility.yul\":317:454   */\n    tag_36:\n        /* \"#utility.yul\":367:374   */\n      0x00\n        /* \"#utility.yul\":396:401   */\n      dup2\n        /* \"#utility.yul\":385:401   */\n      swap1\n      pop\n        /* \"#utility.yul\":402:448   */\n      tag_47\n        /* \"#utility.yul\":442:447   */\n      dup3\n        /* \"#utility.yul\":402:448   */\n      tag_35\n      jump\t// in\n    tag_47:\n        /* \"#utility.yul\":317:454   */\n      swap2\n      swap1\n      pop\n      jump\t// out\n        /* \"#utility.yul\":460:597   */\n    tag_37:\n        /* \"#utility.yul\":521:530   */\n      0x00\n        /* \"#utility.yul\":554:591   */\n      tag_49\n        /* \"#utility.yul\":585:590   */\n      dup3\n        /* \"#utility.yul\":554:591   */\n      tag_36\n      jump\t// in\n    tag_49:\n        /* \"#utility.yul\":541:591   */\n      swap1\n      pop\n        /* \"#utility.yul\":460:597   */\n      swap2\n      swap1\n      pop\n      jump\t// out\n        /* \"#utility.yul\":603:756   */\n    tag_38:\n        /* \"#utility.yul\":701:749   */\n      tag_51\n        /* \"#utility.yul\":743:748   */\n      dup2\n        /* \"#utility.yul\":701:749   */\n      tag_37\n      jump\t// in\n    tag_51:\n        /* \"#utility.yul\":696:699   */\n      dup3\n        /* \"#utility.yul\":689:750   */\n      mstore\n        /* \"#utility.yul\":603:756   */\n      pop\n      pop\n      jump\t// out\n        /* \"#utility.yul\":762:1006   */\n    tag_17:\n        /* \"#utility.yul\":866:870   */\n      0x00\n        /* \"#utility.yul\":904:906   */\n      0x20\n        /* \"#utility.yul\":893:902   */\n      dup3\n        /* \"#utility.yul\":889:907   */\n      add\n        /* \"#utility.yul\":881:907   */\n      swap1\n      pop\n        /* \"#utility.yul\":917:999   */\n      tag_53\n        /* \"#utility.yul\":996:997   */\n      0x00\n        /* \"#utility.yul\":985:994   */\n      dup4\n        /* \"#utility.yul\":981:998   */\n      add\n        /* \"#utility.yul\":972:978   */\n      dup5\n        /* \"#utility.yul\":917:999   */\n      tag_38\n      jump\t// in\n    tag_53:\n        /* \"#utility.yul\":762:1006   */\n      swap3\n      swap2\n      pop\n      pop\n      jump\t// out\n        /* \"#utility.yul\":1012:1102   */\n    tag_39:\n        /* \"#utility.yul\":1046:1053   */\n      0x00\n        /* \"#utility.yul\":1089:1094   */\n      dup2\n        /* \"#utility.yul\":1082:1095   */\n      iszero\n        /* \"#utility.yul\":1075:1096   */\n      iszero\n        /* \"#utility.yul\":1064:1096   */\n      swap1\n      pop\n        /* \"#utility.yul\":1012:1102   */\n      swap2\n      swap1\n      pop\n      jump\t// out\n        /* \"#utility.yul\":1108:1217   */\n    tag_40:\n        /* \"#utility.yul\":1189:1210   */\n      tag_56\n        /* \"#utility.yul\":1204:1209   */\n      dup2\n        /* \"#utility.yul\":1189:1210   */\n      tag_39\n      jump\t// in\n    tag_56:\n        /* \"#utility.yul\":1184:1187   */\n      dup3\n        /* \"#utility.yul\":1177:1211   */\n      mstore\n        /* \"#utility.yul\":1108:1217   */\n      pop\n      pop\n      jump\t// out\n        /* \"#utility.yul\":1223:1433   */\n    tag_21:\n        /* \"#utility.yul\":1310:1314   */\n      0x00\n        /* \"#utility.yul\":1348:1350   */\n      0x20\n        /* \"#utility.yul\":1337:1346   */\n      dup3\n        /* \"#utility.yul\":1333:1351   */\n      add\n        /* \"#utility.yul\":1325:1351   */\n      swap1\n      pop\n        /* \"#utility.yul\":1361:1426   */\n      tag_58\n        /* \"#utility.yul\":1423:1424   */\n      0x00\n        /* \"#utility.yul\":1412:1421   */\n      dup4\n        /* \"#utility.yul\":1408:1425   */\n      add\n        /* \"#utility.yul\":1399:1405   */\n      dup5\n        /* \"#utility.yul\":1361:1426   */\n      tag_40\n      jump\t// in\n    tag_58:\n        /* \"#utility.yul\":1223:1433   */\n      swap3\n      swap2\n      pop\n      pop\n      jump\t// out\n\n    auxdata: 0xa2646970667358221220d10d8cd2eb8872e86ed107755a85adfb1479a620eb50a6f83cc2199de878d84d64736f6c63430008120033\n}\n",
				"bytecode": {
					"linkReferences": {},
					"object": "608060405234801561001057600080fd5b5061026b806100206000396000f3fe608060405234801561001057600080fd5b50600436106100575760003560e01c8063069b897d1461005c57806329cfb550146100665780635e8bacc7146100705780639dca00321461007a578063b8f7a66514610098575b600080fd5b6100646100b6565b005b61006e6100e2565b005b61007861010e565b005b610082610121565b60405161008f91906101e4565b60405180910390f35b6100a0610132565b6040516100ad919061021a565b60405180910390f35b60026000806101000a81548160ff021916908360028111156100db576100da61016d565b5b0217905550565b60016000806101000a81548160ff021916908360028111156101075761010661016d565b5b0217905550565b6000806101000a81549060ff0219169055565b60008054906101000a900460ff1681565b60006002808111156101475761014661016d565b5b60008054906101000a900460ff1660028111156101675761016661016d565b5b14905090565b7f4e487b7100000000000000000000000000000000000000000000000000000000600052602160045260246000fd5b600381106101ad576101ac61016d565b5b50565b60008190506101be8261019c565b919050565b60006101ce826101b0565b9050919050565b6101de816101c3565b82525050565b60006020820190506101f960008301846101d5565b92915050565b60008115159050919050565b610214816101ff565b82525050565b600060208201905061022f600083018461020b565b9291505056fea2646970667358221220d10d8cd2eb8872e86ed107755a85adfb1479a620eb50a6f83cc2199de878d84d64736f6c63430008120033",
					"opcodes": "PUSH1 0x80 PUSH1 0x40 MSTORE CALLVALUE DUP1 ISZERO PUSH2 0x10 JUMPI PUSH1 0x0 DUP1 REVERT JUMPDEST POP PUSH2 0x26B DUP1 PUSH2 0x20 PUSH1 0x0 CODECOPY PUSH1 0x0 RETURN INVALID PUSH1 0x80 PUSH1 0x40 MSTORE CALLVALUE DUP1 ISZERO PUSH2 0x10 JUMPI PUSH1 0x0 DUP1 REVERT JUMPDEST POP PUSH1 0x4 CALLDATASIZE LT PUSH2 0x57 JUMPI PUSH1 0x0 CALLDATALOAD PUSH1 0xE0 SHR DUP1 PUSH4 0x69B897D EQ PUSH2 0x5C JUMPI DUP1 PUSH4 0x29CFB550 EQ PUSH2 0x66 JUMPI DUP1 PUSH4 0x5E8BACC7 EQ PUSH2 0x70 JUMPI DUP1 PUSH4 0x9DCA0032 EQ PUSH2 0x7A JUMPI DUP1 PUSH4 0xB8F7A665 EQ PUSH2 0x98 JUMPI JUMPDEST PUSH1 0x0 DUP1 REVERT JUMPDEST PUSH2 0x64 PUSH2 0xB6 JUMP JUMPDEST STOP JUMPDEST PUSH2 0x6E PUSH2 0xE2 JUMP JUMPDEST STOP JUMPDEST PUSH2 0x78 PUSH2 0x10E JUMP JUMPDEST STOP JUMPDEST PUSH2 0x82 PUSH2 0x121 JUMP JUMPDEST PUSH1 0x40 MLOAD PUSH2 0x8F SWAP2 SWAP1 PUSH2 0x1E4 JUMP JUMPDEST PUSH1 0x40 MLOAD DUP1 SWAP2 SUB SWAP1 RETURN JUMPDEST PUSH2 0xA0 PUSH2 0x132 JUMP JUMPDEST PUSH1 0x40 MLOAD PUSH2 0xAD SWAP2 SWAP1 PUSH2 0x21A JUMP JUMPDEST PUSH1 0x40 MLOAD DUP1 SWAP2 SUB SWAP1 RETURN JUMPDEST PUSH1 0x2 PUSH1 0x0 DUP1 PUSH2 0x100 EXP DUP2 SLOAD DUP2 PUSH1 0xFF MUL NOT AND SWAP1 DUP4 PUSH1 0x2 DUP2 GT ISZERO PUSH2 0xDB JUMPI PUSH2 0xDA PUSH2 0x16D JUMP JUMPDEST JUMPDEST MUL OR SWAP1 SSTORE POP JUMP JUMPDEST PUSH1 0x1 PUSH1 0x0 DUP1 PUSH2 0x100 EXP DUP2 SLOAD DUP2 PUSH1 0xFF MUL NOT AND SWAP1 DUP4 PUSH1 0x2 DUP2 GT ISZERO PUSH2 0x107 JUMPI PUSH2 0x106 PUSH2 0x16D JUMP JUMPDEST JUMPDEST MUL OR SWAP1 SSTORE POP JUMP JUMPDEST PUSH1 0x0 DUP1 PUSH2 0x100 EXP DUP2 SLOAD SWAP1 PUSH1 0xFF MUL NOT AND SWAP1 SSTORE JUMP JUMPDEST PUSH1 0x0 DUP1 SLOAD SWAP1 PUSH2 0x100 EXP SWAP1 DIV PUSH1 0xFF AND DUP2 JUMP JUMPDEST PUSH1 0x0 PUSH1 0x2 DUP1 DUP2 GT ISZERO PUSH2 0x147 JUMPI PUSH2 0x146 PUSH2 0x16D JUMP JUMPDEST JUMPDEST PUSH1 0x0 DUP1 SLOAD SWAP1 PUSH2 0x100 EXP SWAP1 DIV PUSH1 0xFF AND PUSH1 0x2 DUP2 GT ISZERO PUSH2 0x167 JUMPI PUSH2 0x166 PUSH2 0x16D JUMP JUMPDEST JUMPDEST EQ SWAP1 POP SWAP1 JUMP JUMPDEST PUSH32 0x4E487B7100000000000000000000000000000000000000000000000000000000 PUSH1 0x0 MSTORE PUSH1 0x21 PUSH1 0x4 MSTORE PUSH1 0x24 PUSH1 0x0 REVERT JUMPDEST PUSH1 0x3 DUP2 LT PUSH2 0x1AD JUMPI PUSH2 0x1AC PUSH2 0x16D JUMP JUMPDEST JUMPDEST POP JUMP JUMPDEST PUSH1 0x0 DUP2 SWAP1 POP PUSH2 0x1BE DUP3 PUSH2 0x19C JUMP JUMPDEST SWAP2 SWAP1 POP JUMP JUMPDEST PUSH1 0x0 PUSH2 0x1CE DUP3 PUSH2 0x1B0 JUMP JUMPDEST SWAP1 POP SWAP2 SWAP1 POP JUMP JUMPDEST PUSH2 0x1DE DUP2 PUSH2 0x1C3 JUMP JUMPDEST DUP3 MSTORE POP POP JUMP JUMPDEST PUSH1 0x0 PUSH1 0x20 DUP3 ADD SWAP1 POP PUSH2 0x1F9 PUSH1 0x0 DUP4 ADD DUP5 PUSH2 0x1D5 JUMP JUMPDEST SWAP3 SWAP2 POP POP JUMP JUMPDEST PUSH1 0x0 DUP2 ISZERO ISZERO SWAP1 POP SWAP2 SWAP1 POP JUMP JUMPDEST PUSH2 0x214 DUP2 PUSH2 0x1FF JUMP JUMPDEST DUP3 MSTORE POP POP JUMP JUMPDEST PUSH1 0x0 PUSH1 0x20 DUP3 ADD SWAP1 POP PUSH2 0x22F PUSH1 0x0 DUP4 ADD DUP5 PUSH2 0x20B JUMP JUMPDEST SWAP3 SWAP2 POP POP JUMP INVALID LOG2 PUSH5 0x6970667358 0x22 SLT KECCAK256 0xD1 0xD DUP13 0xD2 0xEB DUP9 PUSH19 0xE86ED107755A85ADFB1479A620EB50A6F83CC2 NOT SWAP14 0xE8 PUSH25 0xD84D64736F6C63430008120033000000000000000000000000 "
				},
				"gasEstimates": {
					"creation": {
						"codeDepositCost": "123800",
						"executionCost": "171",
						"totalCost": "123971"
					},
					"external": {
						"env()": "2601",
						"isLive()": "2600",
						"pushToProduction()": "24409",
						"pushToStaging()": "24431",
						"rollbackToSandbox()": "24408"
					}
				},
				"methodIdentifiers": {
					"env()": "9dca0032",
					"isLive()": "b8f7a665",
					"pushToProduction()": "069b897d",
					"pushToStaging()": "29cfb550",
					"rollbackToSandbox()": "5e8bacc7"
				}
			},
			"storageLayout": {
				"storage": [
					{
						"astId": 8,
						"contract": "contracts/practice/examples/EnumExample.sol:Enums",
						"label": "env",
						"offset": 0,
						"slot": "0",
						"type": "t_enum(Environment)5"
					}
				],
				"types": {
					"t_enum(Environment)5": {
						"encoding": "inplace",
						"label": "enum Enums.Environment",
						"numberOfBytes": "1"
					}
				}
			},
			"userdoc": {
				"kind": "user",
				"methods": {},
				"version": 1
			}
		}
	}
}