{
	"contracts/practice/examples/AbstractExample.sol": {
		"NewContract": {
			"abi": [
				{
					"inputs": [],
					"name": "addValue",
					"outputs": [
						{
							"internalType": "uint256",
							"name": "",
							"type": "uint256"
						}
					],
					"stateMutability": "view",
					"type": "function"
				},
				{
					"inputs": [],
					"name": "newValue",
					"outputs": [
						{
							"internalType": "uint256",
							"name": "",
							"type": "uint256"
						}
					],
					"stateMutability": "view",
					"type": "function"
				},
				{
					"inputs": [
						{
							"internalType": "uint256",
							"name": "_x",
							"type": "uint256"
						}
					],
					"name": "setX",
					"outputs": [],
					"stateMutability": "nonpayable",
					"type": "function"
				},
				{
					"inputs": [],
					"name": "showOne",
					"outputs": [
						{
							"internalType": "uint256",
							"name": "",
							"type": "uint256"
						}
					],
					"stateMutability": "pure",
					"type": "function"
				}
			],
			"devdoc": {
				"kind": "dev",
				"methods": {},
				"version": 1
			},
			"evm": {
				"assembly": "    /* \"contracts/practice/examples/AbstractExample.sol\":558:755  contract NewContract is AbstractExample(10){... */\n  mstore(0x40, 0x80)\n  callvalue\n  dup1\n  iszero\n  tag_1\n  jumpi\n  0x00\n  dup1\n  revert\ntag_1:\n  pop\n    /* \"contracts/practice/examples/AbstractExample.sol\":598:600  10 */\n  0x0a\n    /* \"contracts/practice/examples/AbstractExample.sol\":302:304  _x */\n  dup1\n    /* \"contracts/practice/examples/AbstractExample.sol\":298:299  x */\n  0x00\n    /* \"contracts/practice/examples/AbstractExample.sol\":298:304  x = _x */\n  dup2\n  swap1\n  sstore\n  pop\n    /* \"contracts/practice/examples/AbstractExample.sol\":266:312  constructor(uint _x) {... */\n  pop\n    /* \"contracts/practice/examples/AbstractExample.sol\":558:755  contract NewContract is AbstractExample(10){... */\n  dataSize(sub_0)\n  dup1\n  dataOffset(sub_0)\n  0x00\n  codecopy\n  0x00\n  return\nstop\n\nsub_0: assembly {\n        /* \"contracts/practice/examples/AbstractExample.sol\":558:755  contract NewContract is AbstractExample(10){... */\n      mstore(0x40, 0x80)\n      callvalue\n      dup1\n      iszero\n      tag_1\n      jumpi\n      0x00\n      dup1\n      revert\n    tag_1:\n      pop\n      jumpi(tag_2, lt(calldatasize, 0x04))\n      shr(0xe0, calldataload(0x00))\n      dup1\n      0x040f0aee\n      eq\n      tag_3\n      jumpi\n      dup1\n      0x2362bcf5\n      eq\n      tag_4\n      jumpi\n      dup1\n      0x4018d9aa\n      eq\n      tag_5\n      jumpi\n      dup1\n      0x7c65452c\n      eq\n      tag_6\n      jumpi\n    tag_2:\n      0x00\n      dup1\n      revert\n        /* \"contracts/practice/examples/AbstractExample.sol\":462:547  function addValue() public view returns(uint){... */\n    tag_3:\n      tag_7\n      tag_8\n      jump\t// in\n    tag_7:\n      mload(0x40)\n      tag_9\n      swap2\n      swap1\n      tag_10\n      jump\t// in\n    tag_9:\n      mload(0x40)\n      dup1\n      swap2\n      sub\n      swap1\n      return\n        /* \"contracts/practice/examples/AbstractExample.sol\":320:392  function showOne() public pure returns(uint) {... */\n    tag_4:\n      tag_11\n      tag_12\n      jump\t// in\n    tag_11:\n      mload(0x40)\n      tag_13\n      swap2\n      swap1\n      tag_10\n      jump\t// in\n    tag_13:\n      mload(0x40)\n      dup1\n      swap2\n      sub\n      swap1\n      return\n        /* \"contracts/practice/examples/AbstractExample.sol\":610:665  function setX(uint _x) public {... */\n    tag_5:\n      tag_14\n      0x04\n      dup1\n      calldatasize\n      sub\n      dup2\n      add\n      swap1\n      tag_15\n      swap2\n      swap1\n      tag_16\n      jump\t// in\n    tag_15:\n      tag_17\n      jump\t// in\n    tag_14:\n      stop\n        /* \"contracts/practice/examples/AbstractExample.sol\":671:752  function newValue() public override view returns(uint){... */\n    tag_6:\n      tag_18\n      tag_19\n      jump\t// in\n    tag_18:\n      mload(0x40)\n      tag_20\n      swap2\n      swap1\n      tag_10\n      jump\t// in\n    tag_20:\n      mload(0x40)\n      dup1\n      swap2\n      sub\n      swap1\n      return\n        /* \"contracts/practice/examples/AbstractExample.sol\":462:547  function addValue() public view returns(uint){... */\n    tag_8:\n        /* \"contracts/practice/examples/AbstractExample.sol\":502:506  uint */\n      0x00\n        /* \"contracts/practice/examples/AbstractExample.sol\":538:539  5 */\n      0x05\n        /* \"contracts/practice/examples/AbstractExample.sol\":525:535  newValue() */\n      tag_22\n        /* \"contracts/practice/examples/AbstractExample.sol\":525:533  newValue */\n      tag_19\n        /* \"contracts/practice/examples/AbstractExample.sol\":525:535  newValue() */\n      jump\t// in\n    tag_22:\n        /* \"contracts/practice/examples/AbstractExample.sol\":525:539  newValue() + 5 */\n      tag_23\n      swap2\n      swap1\n      tag_24\n      jump\t// in\n    tag_23:\n        /* \"contracts/practice/examples/AbstractExample.sol\":518:539  return newValue() + 5 */\n      swap1\n      pop\n        /* \"contracts/practice/examples/AbstractExample.sol\":462:547  function addValue() public view returns(uint){... */\n      swap1\n      jump\t// out\n        /* \"contracts/practice/examples/AbstractExample.sol\":320:392  function showOne() public pure returns(uint) {... */\n    tag_12:\n        /* \"contracts/practice/examples/AbstractExample.sol\":359:363  uint */\n      0x00\n        /* \"contracts/practice/examples/AbstractExample.sol\":383:384  1 */\n      0x01\n        /* \"contracts/practice/examples/AbstractExample.sol\":376:384  return 1 */\n      swap1\n      pop\n        /* \"contracts/practice/examples/AbstractExample.sol\":320:392  function showOne() public pure returns(uint) {... */\n      swap1\n      jump\t// out\n        /* \"contracts/practice/examples/AbstractExample.sol\":610:665  function setX(uint _x) public {... */\n    tag_17:\n        /* \"contracts/practice/examples/AbstractExample.sol\":655:657  _x */\n      dup1\n        /* \"contracts/practice/examples/AbstractExample.sol\":651:652  x */\n      0x00\n        /* \"contracts/practice/examples/AbstractExample.sol\":651:657  x = _x */\n      dup2\n      swap1\n      sstore\n      pop\n        /* \"contracts/practice/examples/AbstractExample.sol\":610:665  function setX(uint _x) public {... */\n      pop\n      jump\t// out\n        /* \"contracts/practice/examples/AbstractExample.sol\":671:752  function newValue() public override view returns(uint){... */\n    tag_19:\n        /* \"contracts/practice/examples/AbstractExample.sol\":720:724  uint */\n      0x00\n        /* \"contracts/practice/examples/AbstractExample.sol\":743:744  x */\n      dup1\n      sload\n        /* \"contracts/practice/examples/AbstractExample.sol\":736:744  return x */\n      swap1\n      pop\n        /* \"contracts/practice/examples/AbstractExample.sol\":671:752  function newValue() public override view returns(uint){... */\n      swap1\n      jump\t// out\n        /* \"#utility.yul\":7:84   */\n    tag_28:\n        /* \"#utility.yul\":44:51   */\n      0x00\n        /* \"#utility.yul\":73:78   */\n      dup2\n        /* \"#utility.yul\":62:78   */\n      swap1\n      pop\n        /* \"#utility.yul\":7:84   */\n      swap2\n      swap1\n      pop\n      jump\t// out\n        /* \"#utility.yul\":90:208   */\n    tag_29:\n        /* \"#utility.yul\":177:201   */\n      tag_39\n        /* \"#utility.yul\":195:200   */\n      dup2\n        /* \"#utility.yul\":177:201   */\n      tag_28\n      jump\t// in\n    tag_39:\n        /* \"#utility.yul\":172:175   */\n      dup3\n        /* \"#utility.yul\":165:202   */\n      mstore\n        /* \"#utility.yul\":90:208   */\n      pop\n      pop\n      jump\t// out\n        /* \"#utility.yul\":214:436   */\n    tag_10:\n        /* \"#utility.yul\":307:311   */\n      0x00\n        /* \"#utility.yul\":345:347   */\n      0x20\n        /* \"#utility.yul\":334:343   */\n      dup3\n        /* \"#utility.yul\":330:348   */\n      add\n        /* \"#utility.yul\":322:348   */\n      swap1\n      pop\n        /* \"#utility.yul\":358:429   */\n      tag_41\n        /* \"#utility.yul\":426:427   */\n      0x00\n        /* \"#utility.yul\":415:424   */\n      dup4\n        /* \"#utility.yul\":411:428   */\n      add\n        /* \"#utility.yul\":402:408   */\n      dup5\n        /* \"#utility.yul\":358:429   */\n      tag_29\n      jump\t// in\n    tag_41:\n        /* \"#utility.yul\":214:436   */\n      swap3\n      swap2\n      pop\n      pop\n      jump\t// out\n        /* \"#utility.yul\":523:640   */\n    tag_31:\n        /* \"#utility.yul\":632:633   */\n      0x00\n        /* \"#utility.yul\":629:630   */\n      dup1\n        /* \"#utility.yul\":622:634   */\n      revert\n        /* \"#utility.yul\":769:891   */\n    tag_33:\n        /* \"#utility.yul\":842:866   */\n      tag_46\n        /* \"#utility.yul\":860:865   */\n      dup2\n        /* \"#utility.yul\":842:866   */\n      tag_28\n      jump\t// in\n    tag_46:\n        /* \"#utility.yul\":835:840   */\n      dup2\n        /* \"#utility.yul\":832:867   */\n      eq\n        /* \"#utility.yul\":822:885   */\n      tag_47\n      jumpi\n        /* \"#utility.yul\":881:882   */\n      0x00\n        /* \"#utility.yul\":878:879   */\n      dup1\n        /* \"#utility.yul\":871:883   */\n      revert\n        /* \"#utility.yul\":822:885   */\n    tag_47:\n        /* \"#utility.yul\":769:891   */\n      pop\n      jump\t// out\n        /* \"#utility.yul\":897:1036   */\n    tag_34:\n        /* \"#utility.yul\":943:948   */\n      0x00\n        /* \"#utility.yul\":981:987   */\n      dup2\n        /* \"#utility.yul\":968:988   */\n      calldataload\n        /* \"#utility.yul\":959:988   */\n      swap1\n      pop\n        /* \"#utility.yul\":997:1030   */\n      tag_49\n        /* \"#utility.yul\":1024:1029   */\n      dup2\n        /* \"#utility.yul\":997:1030   */\n      tag_33\n      jump\t// in\n    tag_49:\n        /* \"#utility.yul\":897:1036   */\n      swap3\n      swap2\n      pop\n      pop\n      jump\t// out\n        /* \"#utility.yul\":1042:1371   */\n    tag_16:\n        /* \"#utility.yul\":1101:1107   */\n      0x00\n        /* \"#utility.yul\":1150:1152   */\n      0x20\n        /* \"#utility.yul\":1138:1147   */\n      dup3\n        /* \"#utility.yul\":1129:1136   */\n      dup5\n        /* \"#utility.yul\":1125:1148   */\n      sub\n        /* \"#utility.yul\":1121:1153   */\n      slt\n        /* \"#utility.yul\":1118:1237   */\n      iszero\n      tag_51\n      jumpi\n        /* \"#utility.yul\":1156:1235   */\n      tag_52\n      tag_31\n      jump\t// in\n    tag_52:\n        /* \"#utility.yul\":1118:1237   */\n    tag_51:\n        /* \"#utility.yul\":1276:1277   */\n      0x00\n        /* \"#utility.yul\":1301:1354   */\n      tag_53\n        /* \"#utility.yul\":1346:1353   */\n      dup5\n        /* \"#utility.yul\":1337:1343   */\n      dup3\n        /* \"#utility.yul\":1326:1335   */\n      dup6\n        /* \"#utility.yul\":1322:1344   */\n      add\n        /* \"#utility.yul\":1301:1354   */\n      tag_34\n      jump\t// in\n    tag_53:\n        /* \"#utility.yul\":1291:1354   */\n      swap2\n      pop\n        /* \"#utility.yul\":1247:1364   */\n      pop\n        /* \"#utility.yul\":1042:1371   */\n      swap3\n      swap2\n      pop\n      pop\n      jump\t// out\n        /* \"#utility.yul\":1377:1557   */\n    tag_35:\n        /* \"#utility.yul\":1425:1502   */\n      0x4e487b7100000000000000000000000000000000000000000000000000000000\n        /* \"#utility.yul\":1422:1423   */\n      0x00\n        /* \"#utility.yul\":1415:1503   */\n      mstore\n        /* \"#utility.yul\":1522:1526   */\n      0x11\n        /* \"#utility.yul\":1519:1520   */\n      0x04\n        /* \"#utility.yul\":1512:1527   */\n      mstore\n        /* \"#utility.yul\":1546:1550   */\n      0x24\n        /* \"#utility.yul\":1543:1544   */\n      0x00\n        /* \"#utility.yul\":1536:1551   */\n      revert\n        /* \"#utility.yul\":1563:1754   */\n    tag_24:\n        /* \"#utility.yul\":1603:1606   */\n      0x00\n        /* \"#utility.yul\":1622:1642   */\n      tag_56\n        /* \"#utility.yul\":1640:1641   */\n      dup3\n        /* \"#utility.yul\":1622:1642   */\n      tag_28\n      jump\t// in\n    tag_56:\n        /* \"#utility.yul\":1617:1642   */\n      swap2\n      pop\n        /* \"#utility.yul\":1656:1676   */\n      tag_57\n        /* \"#utility.yul\":1674:1675   */\n      dup4\n        /* \"#utility.yul\":1656:1676   */\n      tag_28\n      jump\t// in\n    tag_57:\n        /* \"#utility.yul\":1651:1676   */\n      swap3\n      pop\n        /* \"#utility.yul\":1699:1700   */\n      dup3\n        /* \"#utility.yul\":1696:1697   */\n      dup3\n        /* \"#utility.yul\":1692:1701   */\n      add\n        /* \"#utility.yul\":1685:1701   */\n      swap1\n      pop\n        /* \"#utility.yul\":1720:1723   */\n      dup1\n        /* \"#utility.yul\":1717:1718   */\n      dup3\n        /* \"#utility.yul\":1714:1724   */\n      gt\n        /* \"#utility.yul\":1711:1747   */\n      iszero\n      tag_58\n      jumpi\n        /* \"#utility.yul\":1727:1745   */\n      tag_59\n      tag_35\n      jump\t// in\n    tag_59:\n        /* \"#utility.yul\":1711:1747   */\n    tag_58:\n        /* \"#utility.yul\":1563:1754   */\n      swap3\n      swap2\n      pop\n      pop\n      jump\t// out\n\n    auxdata: 0xa2646970667358221220e41f5814f9b441ac27bda9450722561db189bface7c91300ce7c7a87bcbc8e8264736f6c63430008130033\n}\n",
				"bytecode": {
					"linkReferences": {},
					"object": "608060405234801561001057600080fd5b50600a80600081905550506102298061002a6000396000f3fe608060405234801561001057600080fd5b506004361061004c5760003560e01c8063040f0aee146100515780632362bcf51461006f5780634018d9aa1461008d5780637c65452c146100a9575b600080fd5b6100596100c7565b6040516100669190610117565b60405180910390f35b6100776100e2565b6040516100849190610117565b60405180910390f35b6100a760048036038101906100a29190610163565b6100eb565b005b6100b16100f5565b6040516100be9190610117565b60405180910390f35b600060056100d36100f5565b6100dd91906101bf565b905090565b60006001905090565b8060008190555050565b60008054905090565b6000819050919050565b610111816100fe565b82525050565b600060208201905061012c6000830184610108565b92915050565b600080fd5b610140816100fe565b811461014b57600080fd5b50565b60008135905061015d81610137565b92915050565b60006020828403121561017957610178610132565b5b60006101878482850161014e565b91505092915050565b7f4e487b7100000000000000000000000000000000000000000000000000000000600052601160045260246000fd5b60006101ca826100fe565b91506101d5836100fe565b92508282019050808211156101ed576101ec610190565b5b9291505056fea2646970667358221220e41f5814f9b441ac27bda9450722561db189bface7c91300ce7c7a87bcbc8e8264736f6c63430008130033",
					"opcodes": "PUSH1 0x80 PUSH1 0x40 MSTORE CALLVALUE DUP1 ISZERO PUSH2 0x10 JUMPI PUSH1 0x0 DUP1 REVERT JUMPDEST POP PUSH1 0xA DUP1 PUSH1 0x0 DUP2 SWAP1 SSTORE POP POP PUSH2 0x229 DUP1 PUSH2 0x2A PUSH1 0x0 CODECOPY PUSH1 0x0 RETURN INVALID PUSH1 0x80 PUSH1 0x40 MSTORE CALLVALUE DUP1 ISZERO PUSH2 0x10 JUMPI PUSH1 0x0 DUP1 REVERT JUMPDEST POP PUSH1 0x4 CALLDATASIZE LT PUSH2 0x4C JUMPI PUSH1 0x0 CALLDATALOAD PUSH1 0xE0 SHR DUP1 PUSH4 0x40F0AEE EQ PUSH2 0x51 JUMPI DUP1 PUSH4 0x2362BCF5 EQ PUSH2 0x6F JUMPI DUP1 PUSH4 0x4018D9AA EQ PUSH2 0x8D JUMPI DUP1 PUSH4 0x7C65452C EQ PUSH2 0xA9 JUMPI JUMPDEST PUSH1 0x0 DUP1 REVERT JUMPDEST PUSH2 0x59 PUSH2 0xC7 JUMP JUMPDEST PUSH1 0x40 MLOAD PUSH2 0x66 SWAP2 SWAP1 PUSH2 0x117 JUMP JUMPDEST PUSH1 0x40 MLOAD DUP1 SWAP2 SUB SWAP1 RETURN JUMPDEST PUSH2 0x77 PUSH2 0xE2 JUMP JUMPDEST PUSH1 0x40 MLOAD PUSH2 0x84 SWAP2 SWAP1 PUSH2 0x117 JUMP JUMPDEST PUSH1 0x40 MLOAD DUP1 SWAP2 SUB SWAP1 RETURN JUMPDEST PUSH2 0xA7 PUSH1 0x4 DUP1 CALLDATASIZE SUB DUP2 ADD SWAP1 PUSH2 0xA2 SWAP2 SWAP1 PUSH2 0x163 JUMP JUMPDEST PUSH2 0xEB JUMP JUMPDEST STOP JUMPDEST PUSH2 0xB1 PUSH2 0xF5 JUMP JUMPDEST PUSH1 0x40 MLOAD PUSH2 0xBE SWAP2 SWAP1 PUSH2 0x117 JUMP JUMPDEST PUSH1 0x40 MLOAD DUP1 SWAP2 SUB SWAP1 RETURN JUMPDEST PUSH1 0x0 PUSH1 0x5 PUSH2 0xD3 PUSH2 0xF5 JUMP JUMPDEST PUSH2 0xDD SWAP2 SWAP1 PUSH2 0x1BF JUMP JUMPDEST SWAP1 POP SWAP1 JUMP JUMPDEST PUSH1 0x0 PUSH1 0x1 SWAP1 POP SWAP1 JUMP JUMPDEST DUP1 PUSH1 0x0 DUP2 SWAP1 SSTORE POP POP JUMP JUMPDEST PUSH1 0x0 DUP1 SLOAD SWAP1 POP SWAP1 JUMP JUMPDEST PUSH1 0x0 DUP2 SWAP1 POP SWAP2 SWAP1 POP JUMP JUMPDEST PUSH2 0x111 DUP2 PUSH2 0xFE JUMP JUMPDEST DUP3 MSTORE POP POP JUMP JUMPDEST PUSH1 0x0 PUSH1 0x20 DUP3 ADD SWAP1 POP PUSH2 0x12C PUSH1 0x0 DUP4 ADD DUP5 PUSH2 0x108 JUMP JUMPDEST SWAP3 SWAP2 POP POP JUMP JUMPDEST PUSH1 0x0 DUP1 REVERT JUMPDEST PUSH2 0x140 DUP2 PUSH2 0xFE JUMP JUMPDEST DUP2 EQ PUSH2 0x14B JUMPI PUSH1 0x0 DUP1 REVERT JUMPDEST POP JUMP JUMPDEST PUSH1 0x0 DUP2 CALLDATALOAD SWAP1 POP PUSH2 0x15D DUP2 PUSH2 0x137 JUMP JUMPDEST SWAP3 SWAP2 POP POP JUMP JUMPDEST PUSH1 0x0 PUSH1 0x20 DUP3 DUP5 SUB SLT ISZERO PUSH2 0x179 JUMPI PUSH2 0x178 PUSH2 0x132 JUMP JUMPDEST JUMPDEST PUSH1 0x0 PUSH2 0x187 DUP5 DUP3 DUP6 ADD PUSH2 0x14E JUMP JUMPDEST SWAP2 POP POP SWAP3 SWAP2 POP POP JUMP JUMPDEST PUSH32 0x4E487B7100000000000000000000000000000000000000000000000000000000 PUSH1 0x0 MSTORE PUSH1 0x11 PUSH1 0x4 MSTORE PUSH1 0x24 PUSH1 0x0 REVERT JUMPDEST PUSH1 0x0 PUSH2 0x1CA DUP3 PUSH2 0xFE JUMP JUMPDEST SWAP2 POP PUSH2 0x1D5 DUP4 PUSH2 0xFE JUMP JUMPDEST SWAP3 POP DUP3 DUP3 ADD SWAP1 POP DUP1 DUP3 GT ISZERO PUSH2 0x1ED JUMPI PUSH2 0x1EC PUSH2 0x190 JUMP JUMPDEST JUMPDEST SWAP3 SWAP2 POP POP JUMP INVALID LOG2 PUSH5 0x6970667358 0x22 SLT KECCAK256 0xE4 0x1F PC EQ 0xF9 0xB4 COINBASE 0xAC 0x27 0xBD 0xA9 GASLIMIT SMOD 0x22 JUMP SAR 0xB1 DUP10 0xBF 0xAC 0xE7 0xC9 SGT STOP 0xCE PUSH29 0x7A87BCBC8E8264736F6C63430008130033000000000000000000000000 "
				},
				"gasEstimates": {
					"creation": {
						"codeDepositCost": "110600",
						"executionCost": "22278",
						"totalCost": "132878"
					},
					"external": {
						"addValue()": "infinite",
						"newValue()": "2481",
						"setX(uint256)": "22542",
						"showOne()": "337"
					}
				},
				"methodIdentifiers": {
					"addValue()": "040f0aee",
					"newValue()": "7c65452c",
					"setX(uint256)": "4018d9aa",
					"showOne()": "2362bcf5"
				}
			},
			"storageLayout": {
				"storage": [
					{
						"astId": 3,
						"contract": "contracts/practice/examples/AbstractExample.sol:NewContract",
						"label": "x",
						"offset": 0,
						"slot": "0",
						"type": "t_uint256"
					}
				],
				"types": {
					"t_uint256": {
						"encoding": "inplace",
						"label": "uint256",
						"numberOfBytes": "32"
					}
				}
			},
			"userdoc": {
				"kind": "user",
				"methods": {},
				"version": 1
			}
		}
	}
}