{
	"data": {
		"bytecode": {
			"linkReferences": {},
			"object": "610645610053600b82828239805160001a607314610046577f4e487b7100000000000000000000000000000000000000000000000000000000600052600060045260246000fd5b30600052607381538281f3fe73000000000000000000000000000000000000000030146080604052600436106100405760003560e01c80638bd5868214610045578063a299573914610075575b600080fd5b61005f600480360381019061005a919061038a565b6100a5565b60405161006c91906103e2565b60405180910390f35b61008f600480360381019061008a91906104f6565b610146565b60405161009c919061054e565b60405180910390f35b6000808251036100b85760009050610141565b6000826000815181106100ce576100cd610569565b5b602002602001015190506000600190505b835181101561013b57818482815181106100fc576100fb610569565b5b602002602001015111156101285783818151811061011d5761011c610569565b5b602002602001015191505b8080610133906105c7565b9150506100df565b50809150505b919050565b60008082510361015957600090506101e2565b60008260008151811061016f5761016e610569565b5b602002602001015190506000600190505b83518110156101dc578184828151811061019d5761019c610569565b5b602002602001015113156101c9578381815181106101be576101bd610569565b5b602002602001015191505b80806101d4906105c7565b915050610180565b50809150505b919050565b6000604051905090565b600080fd5b600080fd5b600080fd5b6000601f19601f8301169050919050565b7f4e487b7100000000000000000000000000000000000000000000000000000000600052604160045260246000fd5b61024982610200565b810181811067ffffffffffffffff8211171561026857610267610211565b5b80604052505050565b600061027b6101e7565b90506102878282610240565b919050565b600067ffffffffffffffff8211156102a7576102a6610211565b5b602082029050602081019050919050565b600080fd5b6000819050919050565b6102d0816102bd565b81146102db57600080fd5b50565b6000813590506102ed816102c7565b92915050565b60006103066103018461028c565b610271565b90508083825260208201905060208402830185811115610329576103286102b8565b5b835b81811015610352578061033e88826102de565b84526020840193505060208101905061032b565b5050509392505050565b600082601f830112610371576103706101fb565b5b81356103818482602086016102f3565b91505092915050565b6000602082840312156103a05761039f6101f1565b5b600082013567ffffffffffffffff8111156103be576103bd6101f6565b5b6103ca8482850161035c565b91505092915050565b6103dc816102bd565b82525050565b60006020820190506103f760008301846103d3565b92915050565b600067ffffffffffffffff82111561041857610417610211565b5b602082029050602081019050919050565b6000819050919050565b61043c81610429565b811461044757600080fd5b50565b60008135905061045981610433565b92915050565b600061047261046d846103fd565b610271565b90508083825260208201905060208402830185811115610495576104946102b8565b5b835b818110156104be57806104aa888261044a565b845260208401935050602081019050610497565b5050509392505050565b600082601f8301126104dd576104dc6101fb565b5b81356104ed84826020860161045f565b91505092915050565b60006020828403121561050c5761050b6101f1565b5b600082013567ffffffffffffffff81111561052a576105296101f6565b5b610536848285016104c8565b91505092915050565b61054881610429565b82525050565b6000602082019050610563600083018461053f565b92915050565b7f4e487b7100000000000000000000000000000000000000000000000000000000600052603260045260246000fd5b7f4e487b7100000000000000000000000000000000000000000000000000000000600052601160045260246000fd5b60006105d2826102bd565b91507fffffffffffffffffffffffffffffffffffffffffffffffffffffffffffffffff820361060457610603610598565b5b60018201905091905056fea2646970667358221220261d56bf9e5b70946c8a0a074dfc7226563bc36f35a92ddd5367f4295a32f0c364736f6c63430008120033",
			"opcodes": "PUSH2 0x645 PUSH2 0x53 PUSH1 0xB DUP3 DUP3 DUP3 CODECOPY DUP1 MLOAD PUSH1 0x0 BYTE PUSH1 0x73 EQ PUSH2 0x46 JUMPI PUSH32 0x4E487B7100000000000000000000000000000000000000000000000000000000 PUSH1 0x0 MSTORE PUSH1 0x0 PUSH1 0x4 MSTORE PUSH1 0x24 PUSH1 0x0 REVERT JUMPDEST ADDRESS PUSH1 0x0 MSTORE PUSH1 0x73 DUP2 MSTORE8 DUP3 DUP2 RETURN INVALID PUSH20 0x0 ADDRESS EQ PUSH1 0x80 PUSH1 0x40 MSTORE PUSH1 0x4 CALLDATASIZE LT PUSH2 0x40 JUMPI PUSH1 0x0 CALLDATALOAD PUSH1 0xE0 SHR DUP1 PUSH4 0x8BD58682 EQ PUSH2 0x45 JUMPI DUP1 PUSH4 0xA2995739 EQ PUSH2 0x75 JUMPI JUMPDEST PUSH1 0x0 DUP1 REVERT JUMPDEST PUSH2 0x5F PUSH1 0x4 DUP1 CALLDATASIZE SUB DUP2 ADD SWAP1 PUSH2 0x5A SWAP2 SWAP1 PUSH2 0x38A JUMP JUMPDEST PUSH2 0xA5 JUMP JUMPDEST PUSH1 0x40 MLOAD PUSH2 0x6C SWAP2 SWAP1 PUSH2 0x3E2 JUMP JUMPDEST PUSH1 0x40 MLOAD DUP1 SWAP2 SUB SWAP1 RETURN JUMPDEST PUSH2 0x8F PUSH1 0x4 DUP1 CALLDATASIZE SUB DUP2 ADD SWAP1 PUSH2 0x8A SWAP2 SWAP1 PUSH2 0x4F6 JUMP JUMPDEST PUSH2 0x146 JUMP JUMPDEST PUSH1 0x40 MLOAD PUSH2 0x9C SWAP2 SWAP1 PUSH2 0x54E JUMP JUMPDEST PUSH1 0x40 MLOAD DUP1 SWAP2 SUB SWAP1 RETURN JUMPDEST PUSH1 0x0 DUP1 DUP3 MLOAD SUB PUSH2 0xB8 JUMPI PUSH1 0x0 SWAP1 POP PUSH2 0x141 JUMP JUMPDEST PUSH1 0x0 DUP3 PUSH1 0x0 DUP2 MLOAD DUP2 LT PUSH2 0xCE JUMPI PUSH2 0xCD PUSH2 0x569 JUMP JUMPDEST JUMPDEST PUSH1 0x20 MUL PUSH1 0x20 ADD ADD MLOAD SWAP1 POP PUSH1 0x0 PUSH1 0x1 SWAP1 POP JUMPDEST DUP4 MLOAD DUP2 LT ISZERO PUSH2 0x13B JUMPI DUP2 DUP5 DUP3 DUP2 MLOAD DUP2 LT PUSH2 0xFC JUMPI PUSH2 0xFB PUSH2 0x569 JUMP JUMPDEST JUMPDEST PUSH1 0x20 MUL PUSH1 0x20 ADD ADD MLOAD GT ISZERO PUSH2 0x128 JUMPI DUP4 DUP2 DUP2 MLOAD DUP2 LT PUSH2 0x11D JUMPI PUSH2 0x11C PUSH2 0x569 JUMP JUMPDEST JUMPDEST PUSH1 0x20 MUL PUSH1 0x20 ADD ADD MLOAD SWAP2 POP JUMPDEST DUP1 DUP1 PUSH2 0x133 SWAP1 PUSH2 0x5C7 JUMP JUMPDEST SWAP2 POP POP PUSH2 0xDF JUMP JUMPDEST POP DUP1 SWAP2 POP POP JUMPDEST SWAP2 SWAP1 POP JUMP JUMPDEST PUSH1 0x0 DUP1 DUP3 MLOAD SUB PUSH2 0x159 JUMPI PUSH1 0x0 SWAP1 POP PUSH2 0x1E2 JUMP JUMPDEST PUSH1 0x0 DUP3 PUSH1 0x0 DUP2 MLOAD DUP2 LT PUSH2 0x16F JUMPI PUSH2 0x16E PUSH2 0x569 JUMP JUMPDEST JUMPDEST PUSH1 0x20 MUL PUSH1 0x20 ADD ADD MLOAD SWAP1 POP PUSH1 0x0 PUSH1 0x1 SWAP1 POP JUMPDEST DUP4 MLOAD DUP2 LT ISZERO PUSH2 0x1DC JUMPI DUP2 DUP5 DUP3 DUP2 MLOAD DUP2 LT PUSH2 0x19D JUMPI PUSH2 0x19C PUSH2 0x569 JUMP JUMPDEST JUMPDEST PUSH1 0x20 MUL PUSH1 0x20 ADD ADD MLOAD SGT ISZERO PUSH2 0x1C9 JUMPI DUP4 DUP2 DUP2 MLOAD DUP2 LT PUSH2 0x1BE JUMPI PUSH2 0x1BD PUSH2 0x569 JUMP JUMPDEST JUMPDEST PUSH1 0x20 MUL PUSH1 0x20 ADD ADD MLOAD SWAP2 POP JUMPDEST DUP1 DUP1 PUSH2 0x1D4 SWAP1 PUSH2 0x5C7 JUMP JUMPDEST SWAP2 POP POP PUSH2 0x180 JUMP JUMPDEST POP DUP1 SWAP2 POP POP JUMPDEST SWAP2 SWAP1 POP JUMP JUMPDEST PUSH1 0x0 PUSH1 0x40 MLOAD SWAP1 POP SWAP1 JUMP JUMPDEST PUSH1 0x0 DUP1 REVERT JUMPDEST PUSH1 0x0 DUP1 REVERT JUMPDEST PUSH1 0x0 DUP1 REVERT JUMPDEST PUSH1 0x0 PUSH1 0x1F NOT PUSH1 0x1F DUP4 ADD AND SWAP1 POP SWAP2 SWAP1 POP JUMP JUMPDEST PUSH32 0x4E487B7100000000000000000000000000000000000000000000000000000000 PUSH1 0x0 MSTORE PUSH1 0x41 PUSH1 0x4 MSTORE PUSH1 0x24 PUSH1 0x0 REVERT JUMPDEST PUSH2 0x249 DUP3 PUSH2 0x200 JUMP JUMPDEST DUP2 ADD DUP2 DUP2 LT PUSH8 0xFFFFFFFFFFFFFFFF DUP3 GT OR ISZERO PUSH2 0x268 JUMPI PUSH2 0x267 PUSH2 0x211 JUMP JUMPDEST JUMPDEST DUP1 PUSH1 0x40 MSTORE POP POP POP JUMP JUMPDEST PUSH1 0x0 PUSH2 0x27B PUSH2 0x1E7 JUMP JUMPDEST SWAP1 POP PUSH2 0x287 DUP3 DUP3 PUSH2 0x240 JUMP JUMPDEST SWAP2 SWAP1 POP JUMP JUMPDEST PUSH1 0x0 PUSH8 0xFFFFFFFFFFFFFFFF DUP3 GT ISZERO PUSH2 0x2A7 JUMPI PUSH2 0x2A6 PUSH2 0x211 JUMP JUMPDEST JUMPDEST PUSH1 0x20 DUP3 MUL SWAP1 POP PUSH1 0x20 DUP2 ADD SWAP1 POP SWAP2 SWAP1 POP JUMP JUMPDEST PUSH1 0x0 DUP1 REVERT JUMPDEST PUSH1 0x0 DUP2 SWAP1 POP SWAP2 SWAP1 POP JUMP JUMPDEST PUSH2 0x2D0 DUP2 PUSH2 0x2BD JUMP JUMPDEST DUP2 EQ PUSH2 0x2DB JUMPI PUSH1 0x0 DUP1 REVERT JUMPDEST POP JUMP JUMPDEST PUSH1 0x0 DUP2 CALLDATALOAD SWAP1 POP PUSH2 0x2ED DUP2 PUSH2 0x2C7 JUMP JUMPDEST SWAP3 SWAP2 POP POP JUMP JUMPDEST PUSH1 0x0 PUSH2 0x306 PUSH2 0x301 DUP5 PUSH2 0x28C JUMP JUMPDEST PUSH2 0x271 JUMP JUMPDEST SWAP1 POP DUP1 DUP4 DUP3 MSTORE PUSH1 0x20 DUP3 ADD SWAP1 POP PUSH1 0x20 DUP5 MUL DUP4 ADD DUP6 DUP2 GT ISZERO PUSH2 0x329 JUMPI PUSH2 0x328 PUSH2 0x2B8 JUMP JUMPDEST JUMPDEST DUP4 JUMPDEST DUP2 DUP2 LT ISZERO PUSH2 0x352 JUMPI DUP1 PUSH2 0x33E DUP9 DUP3 PUSH2 0x2DE JUMP JUMPDEST DUP5 MSTORE PUSH1 0x20 DUP5 ADD SWAP4 POP POP PUSH1 0x20 DUP2 ADD SWAP1 POP PUSH2 0x32B JUMP JUMPDEST POP POP POP SWAP4 SWAP3 POP POP POP JUMP JUMPDEST PUSH1 0x0 DUP3 PUSH1 0x1F DUP4 ADD SLT PUSH2 0x371 JUMPI PUSH2 0x370 PUSH2 0x1FB JUMP JUMPDEST JUMPDEST DUP2 CALLDATALOAD PUSH2 0x381 DUP5 DUP3 PUSH1 0x20 DUP7 ADD PUSH2 0x2F3 JUMP JUMPDEST SWAP2 POP POP SWAP3 SWAP2 POP POP JUMP JUMPDEST PUSH1 0x0 PUSH1 0x20 DUP3 DUP5 SUB SLT ISZERO PUSH2 0x3A0 JUMPI PUSH2 0x39F PUSH2 0x1F1 JUMP JUMPDEST JUMPDEST PUSH1 0x0 DUP3 ADD CALLDATALOAD PUSH8 0xFFFFFFFFFFFFFFFF DUP2 GT ISZERO PUSH2 0x3BE JUMPI PUSH2 0x3BD PUSH2 0x1F6 JUMP JUMPDEST JUMPDEST PUSH2 0x3CA DUP5 DUP3 DUP6 ADD PUSH2 0x35C JUMP JUMPDEST SWAP2 POP POP SWAP3 SWAP2 POP POP JUMP JUMPDEST PUSH2 0x3DC DUP2 PUSH2 0x2BD JUMP JUMPDEST DUP3 MSTORE POP POP JUMP JUMPDEST PUSH1 0x0 PUSH1 0x20 DUP3 ADD SWAP1 POP PUSH2 0x3F7 PUSH1 0x0 DUP4 ADD DUP5 PUSH2 0x3D3 JUMP JUMPDEST SWAP3 SWAP2 POP POP JUMP JUMPDEST PUSH1 0x0 PUSH8 0xFFFFFFFFFFFFFFFF DUP3 GT ISZERO PUSH2 0x418 JUMPI PUSH2 0x417 PUSH2 0x211 JUMP JUMPDEST JUMPDEST PUSH1 0x20 DUP3 MUL SWAP1 POP PUSH1 0x20 DUP2 ADD SWAP1 POP SWAP2 SWAP1 POP JUMP JUMPDEST PUSH1 0x0 DUP2 SWAP1 POP SWAP2 SWAP1 POP JUMP JUMPDEST PUSH2 0x43C DUP2 PUSH2 0x429 JUMP JUMPDEST DUP2 EQ PUSH2 0x447 JUMPI PUSH1 0x0 DUP1 REVERT JUMPDEST POP JUMP JUMPDEST PUSH1 0x0 DUP2 CALLDATALOAD SWAP1 POP PUSH2 0x459 DUP2 PUSH2 0x433 JUMP JUMPDEST SWAP3 SWAP2 POP POP JUMP JUMPDEST PUSH1 0x0 PUSH2 0x472 PUSH2 0x46D DUP5 PUSH2 0x3FD JUMP JUMPDEST PUSH2 0x271 JUMP JUMPDEST SWAP1 POP DUP1 DUP4 DUP3 MSTORE PUSH1 0x20 DUP3 ADD SWAP1 POP PUSH1 0x20 DUP5 MUL DUP4 ADD DUP6 DUP2 GT ISZERO PUSH2 0x495 JUMPI PUSH2 0x494 PUSH2 0x2B8 JUMP JUMPDEST JUMPDEST DUP4 JUMPDEST DUP2 DUP2 LT ISZERO PUSH2 0x4BE JUMPI DUP1 PUSH2 0x4AA DUP9 DUP3 PUSH2 0x44A JUMP JUMPDEST DUP5 MSTORE PUSH1 0x20 DUP5 ADD SWAP4 POP POP PUSH1 0x20 DUP2 ADD SWAP1 POP PUSH2 0x497 JUMP JUMPDEST POP POP POP SWAP4 SWAP3 POP POP POP JUMP JUMPDEST PUSH1 0x0 DUP3 PUSH1 0x1F DUP4 ADD SLT PUSH2 0x4DD JUMPI PUSH2 0x4DC PUSH2 0x1FB JUMP JUMPDEST JUMPDEST DUP2 CALLDATALOAD PUSH2 0x4ED DUP5 DUP3 PUSH1 0x20 DUP7 ADD PUSH2 0x45F JUMP JUMPDEST SWAP2 POP POP SWAP3 SWAP2 POP POP JUMP JUMPDEST PUSH1 0x0 PUSH1 0x20 DUP3 DUP5 SUB SLT ISZERO PUSH2 0x50C JUMPI PUSH2 0x50B PUSH2 0x1F1 JUMP JUMPDEST JUMPDEST PUSH1 0x0 DUP3 ADD CALLDATALOAD PUSH8 0xFFFFFFFFFFFFFFFF DUP2 GT ISZERO PUSH2 0x52A JUMPI PUSH2 0x529 PUSH2 0x1F6 JUMP JUMPDEST JUMPDEST PUSH2 0x536 DUP5 DUP3 DUP6 ADD PUSH2 0x4C8 JUMP JUMPDEST SWAP2 POP POP SWAP3 SWAP2 POP POP JUMP JUMPDEST PUSH2 0x548 DUP2 PUSH2 0x429 JUMP JUMPDEST DUP3 MSTORE POP POP JUMP JUMPDEST PUSH1 0x0 PUSH1 0x20 DUP3 ADD SWAP1 POP PUSH2 0x563 PUSH1 0x0 DUP4 ADD DUP5 PUSH2 0x53F JUMP JUMPDEST SWAP3 SWAP2 POP POP JUMP JUMPDEST PUSH32 0x4E487B7100000000000000000000000000000000000000000000000000000000 PUSH1 0x0 MSTORE PUSH1 0x32 PUSH1 0x4 MSTORE PUSH1 0x24 PUSH1 0x0 REVERT JUMPDEST PUSH32 0x4E487B7100000000000000000000000000000000000000000000000000000000 PUSH1 0x0 MSTORE PUSH1 0x11 PUSH1 0x4 MSTORE PUSH1 0x24 PUSH1 0x0 REVERT JUMPDEST PUSH1 0x0 PUSH2 0x5D2 DUP3 PUSH2 0x2BD JUMP JUMPDEST SWAP2 POP PUSH32 0xFFFFFFFFFFFFFFFFFFFFFFFFFFFFFFFFFFFFFFFFFFFFFFFFFFFFFFFFFFFFFFFF DUP3 SUB PUSH2 0x604 JUMPI PUSH2 0x603 PUSH2 0x598 JUMP JUMPDEST JUMPDEST PUSH1 0x1 DUP3 ADD SWAP1 POP SWAP2 SWAP1 POP JUMP INVALID LOG2 PUSH5 0x6970667358 0x22 SLT KECCAK256 0x26 SAR JUMP 0xBF SWAP15 JUMPDEST PUSH17 0x946C8A0A074DFC7226563BC36F35A92DDD MSTORE8 PUSH8 0xF4295A32F0C36473 PUSH16 0x6C634300081200330000000000000000 "
		},
		"gasEstimates": {
			"creation": {
				"codeDepositCost": "321000",
				"executionCost": "387",
				"totalCost": "321387"
			},
			"external": {
				"findMax(int256[])": "infinite",
				"findMax(uint256[])": "infinite"
			}
		},
		"methodIdentifiers": {
			"findMax(int256[])": "a2995739",
			"findMax(uint256[])": "8bd58682"
		}
	},
	"abi": [
		{
			"inputs": [
				{
					"internalType": "uint256[]",
					"name": "numbers",
					"type": "uint256[]"
				}
			],
			"name": "findMax",
			"outputs": [
				{
					"internalType": "uint256",
					"name": "",
					"type": "uint256"
				}
			],
			"stateMutability": "pure",
			"type": "function"
		},
		{
			"inputs": [
				{
					"internalType": "int256[]",
					"name": "numbers",
					"type": "int256[]"
				}
			],
			"name": "findMax",
			"outputs": [
				{
					"internalType": "int256",
					"name": "",
					"type": "int256"
				}
			],
			"stateMutability": "pure",
			"type": "function"
		}
	]
}