{
	"data": {
		"bytecode": {
			"linkReferences": {},
			"object": "60806040523480156200001157600080fd5b50604051620008f3380380620008f3833981810160405281019062000037919062000232565b828281600090816200004a9190620004ee565b5080600181905550505080600281905550505050620005d5565b6000604051905090565b600080fd5b600080fd5b600080fd5b600080fd5b6000601f19601f8301169050919050565b7f4e487b7100000000000000000000000000000000000000000000000000000000600052604160045260246000fd5b620000cd8262000082565b810181811067ffffffffffffffff82111715620000ef57620000ee62000093565b5b80604052505050565b60006200010462000064565b9050620001128282620000c2565b919050565b600067ffffffffffffffff82111562000135576200013462000093565b5b620001408262000082565b9050602081019050919050565b60005b838110156200016d57808201518184015260208101905062000150565b60008484015250505050565b6000620001906200018a8462000117565b620000f8565b905082815260208101848484011115620001af57620001ae6200007d565b5b620001bc8482856200014d565b509392505050565b600082601f830112620001dc57620001db62000078565b5b8151620001ee84826020860162000179565b91505092915050565b6000819050919050565b6200020c81620001f7565b81146200021857600080fd5b50565b6000815190506200022c8162000201565b92915050565b6000806000606084860312156200024e576200024d6200006e565b5b600084015167ffffffffffffffff8111156200026f576200026e62000073565b5b6200027d86828701620001c4565b935050602062000290868287016200021b565b9250506040620002a3868287016200021b565b9150509250925092565b600081519050919050565b7f4e487b7100000000000000000000000000000000000000000000000000000000600052602260045260246000fd5b600060028204905060018216806200030057607f821691505b602082108103620003165762000315620002b8565b5b50919050565b60008190508160005260206000209050919050565b60006020601f8301049050919050565b600082821b905092915050565b600060088302620003807fffffffffffffffffffffffffffffffffffffffffffffffffffffffffffffffff8262000341565b6200038c868362000341565b95508019841693508086168417925050509392505050565b6000819050919050565b6000620003cf620003c9620003c384620001f7565b620003a4565b620001f7565b9050919050565b6000819050919050565b620003eb83620003ae565b62000403620003fa82620003d6565b8484546200034e565b825550505050565b600090565b6200041a6200040b565b62000427818484620003e0565b505050565b5b818110156200044f576200044360008262000410565b6001810190506200042d565b5050565b601f8211156200049e5762000468816200031c565b620004738462000331565b8101602085101562000483578190505b6200049b620004928562000331565b8301826200042c565b50505b505050565b600082821c905092915050565b6000620004c360001984600802620004a3565b1980831691505092915050565b6000620004de8383620004b0565b9150826002028217905092915050565b620004f982620002ad565b67ffffffffffffffff81111562000515576200051462000093565b5b620005218254620002e7565b6200052e82828562000453565b600060209050601f83116001811462000566576000841562000551578287015190505b6200055d8582620004d0565b865550620005cd565b601f19841662000576866200031c565b60005b82811015620005a05784890151825560018201915060208501945060208101905062000579565b86831015620005c05784890151620005bc601f891682620004b0565b8355505b6001600288020188555050505b505050505050565b61030e80620005e56000396000f3fe608060405234801561001057600080fd5b50600436106100365760003560e01c806317d7de7c1461003b57806398d5fdca14610059575b600080fd5b610043610077565b60405161005091906101bf565b60405180910390f35b610061610109565b60405161006e91906101fa565b60405180910390f35b60606000805461008690610244565b80601f01602080910402602001604051908101604052809291908181526020018280546100b290610244565b80156100ff5780601f106100d4576101008083540402835291602001916100ff565b820191906000526020600020905b8154815290600101906020018083116100e257829003601f168201915b5050505050905090565b6000610113610125565b60025461012091906102a4565b905090565b6000600154905090565b600081519050919050565b600082825260208201905092915050565b60005b8381101561016957808201518184015260208101905061014e565b60008484015250505050565b6000601f19601f8301169050919050565b60006101918261012f565b61019b818561013a565b93506101ab81856020860161014b565b6101b481610175565b840191505092915050565b600060208201905081810360008301526101d98184610186565b905092915050565b6000819050919050565b6101f4816101e1565b82525050565b600060208201905061020f60008301846101eb565b92915050565b7f4e487b7100000000000000000000000000000000000000000000000000000000600052602260045260246000fd5b6000600282049050600182168061025c57607f821691505b60208210810361026f5761026e610215565b5b50919050565b7f4e487b7100000000000000000000000000000000000000000000000000000000600052601160045260246000fd5b60006102af826101e1565b91506102ba836101e1565b92508282019050808211156102d2576102d1610275565b5b9291505056fea2646970667358221220a2814405b19542719141ec67446ca3c27156386dab63d5c8f997a2f9ac94395f64736f6c63430008120033",
			"opcodes": "PUSH1 0x80 PUSH1 0x40 MSTORE CALLVALUE DUP1 ISZERO PUSH3 0x11 JUMPI PUSH1 0x0 DUP1 REVERT JUMPDEST POP PUSH1 0x40 MLOAD PUSH3 0x8F3 CODESIZE SUB DUP1 PUSH3 0x8F3 DUP4 CODECOPY DUP2 DUP2 ADD PUSH1 0x40 MSTORE DUP2 ADD SWAP1 PUSH3 0x37 SWAP2 SWAP1 PUSH3 0x232 JUMP JUMPDEST DUP3 DUP3 DUP2 PUSH1 0x0 SWAP1 DUP2 PUSH3 0x4A SWAP2 SWAP1 PUSH3 0x4EE JUMP JUMPDEST POP DUP1 PUSH1 0x1 DUP2 SWAP1 SSTORE POP POP POP DUP1 PUSH1 0x2 DUP2 SWAP1 SSTORE POP POP POP POP PUSH3 0x5D5 JUMP JUMPDEST PUSH1 0x0 PUSH1 0x40 MLOAD SWAP1 POP SWAP1 JUMP JUMPDEST PUSH1 0x0 DUP1 REVERT JUMPDEST PUSH1 0x0 DUP1 REVERT JUMPDEST PUSH1 0x0 DUP1 REVERT JUMPDEST PUSH1 0x0 DUP1 REVERT JUMPDEST PUSH1 0x0 PUSH1 0x1F NOT PUSH1 0x1F DUP4 ADD AND SWAP1 POP SWAP2 SWAP1 POP JUMP JUMPDEST PUSH32 0x4E487B7100000000000000000000000000000000000000000000000000000000 PUSH1 0x0 MSTORE PUSH1 0x41 PUSH1 0x4 MSTORE PUSH1 0x24 PUSH1 0x0 REVERT JUMPDEST PUSH3 0xCD DUP3 PUSH3 0x82 JUMP JUMPDEST DUP2 ADD DUP2 DUP2 LT PUSH8 0xFFFFFFFFFFFFFFFF DUP3 GT OR ISZERO PUSH3 0xEF JUMPI PUSH3 0xEE PUSH3 0x93 JUMP JUMPDEST JUMPDEST DUP1 PUSH1 0x40 MSTORE POP POP POP JUMP JUMPDEST PUSH1 0x0 PUSH3 0x104 PUSH3 0x64 JUMP JUMPDEST SWAP1 POP PUSH3 0x112 DUP3 DUP3 PUSH3 0xC2 JUMP JUMPDEST SWAP2 SWAP1 POP JUMP JUMPDEST PUSH1 0x0 PUSH8 0xFFFFFFFFFFFFFFFF DUP3 GT ISZERO PUSH3 0x135 JUMPI PUSH3 0x134 PUSH3 0x93 JUMP JUMPDEST JUMPDEST PUSH3 0x140 DUP3 PUSH3 0x82 JUMP JUMPDEST SWAP1 POP PUSH1 0x20 DUP2 ADD SWAP1 POP SWAP2 SWAP1 POP JUMP JUMPDEST PUSH1 0x0 JUMPDEST DUP4 DUP2 LT ISZERO PUSH3 0x16D JUMPI DUP1 DUP3 ADD MLOAD DUP2 DUP5 ADD MSTORE PUSH1 0x20 DUP2 ADD SWAP1 POP PUSH3 0x150 JUMP JUMPDEST PUSH1 0x0 DUP5 DUP5 ADD MSTORE POP POP POP POP JUMP JUMPDEST PUSH1 0x0 PUSH3 0x190 PUSH3 0x18A DUP5 PUSH3 0x117 JUMP JUMPDEST PUSH3 0xF8 JUMP JUMPDEST SWAP1 POP DUP3 DUP2 MSTORE PUSH1 0x20 DUP2 ADD DUP5 DUP5 DUP5 ADD GT ISZERO PUSH3 0x1AF JUMPI PUSH3 0x1AE PUSH3 0x7D JUMP JUMPDEST JUMPDEST PUSH3 0x1BC DUP5 DUP3 DUP6 PUSH3 0x14D JUMP JUMPDEST POP SWAP4 SWAP3 POP POP POP JUMP JUMPDEST PUSH1 0x0 DUP3 PUSH1 0x1F DUP4 ADD SLT PUSH3 0x1DC JUMPI PUSH3 0x1DB PUSH3 0x78 JUMP JUMPDEST JUMPDEST DUP2 MLOAD PUSH3 0x1EE DUP5 DUP3 PUSH1 0x20 DUP7 ADD PUSH3 0x179 JUMP JUMPDEST SWAP2 POP POP SWAP3 SWAP2 POP POP JUMP JUMPDEST PUSH1 0x0 DUP2 SWAP1 POP SWAP2 SWAP1 POP JUMP JUMPDEST PUSH3 0x20C DUP2 PUSH3 0x1F7 JUMP JUMPDEST DUP2 EQ PUSH3 0x218 JUMPI PUSH1 0x0 DUP1 REVERT JUMPDEST POP JUMP JUMPDEST PUSH1 0x0 DUP2 MLOAD SWAP1 POP PUSH3 0x22C DUP2 PUSH3 0x201 JUMP JUMPDEST SWAP3 SWAP2 POP POP JUMP JUMPDEST PUSH1 0x0 DUP1 PUSH1 0x0 PUSH1 0x60 DUP5 DUP7 SUB SLT ISZERO PUSH3 0x24E JUMPI PUSH3 0x24D PUSH3 0x6E JUMP JUMPDEST JUMPDEST PUSH1 0x0 DUP5 ADD MLOAD PUSH8 0xFFFFFFFFFFFFFFFF DUP2 GT ISZERO PUSH3 0x26F JUMPI PUSH3 0x26E PUSH3 0x73 JUMP JUMPDEST JUMPDEST PUSH3 0x27D DUP7 DUP3 DUP8 ADD PUSH3 0x1C4 JUMP JUMPDEST SWAP4 POP POP PUSH1 0x20 PUSH3 0x290 DUP7 DUP3 DUP8 ADD PUSH3 0x21B JUMP JUMPDEST SWAP3 POP POP PUSH1 0x40 PUSH3 0x2A3 DUP7 DUP3 DUP8 ADD PUSH3 0x21B JUMP JUMPDEST SWAP2 POP POP SWAP3 POP SWAP3 POP SWAP3 JUMP JUMPDEST PUSH1 0x0 DUP2 MLOAD SWAP1 POP SWAP2 SWAP1 POP JUMP JUMPDEST PUSH32 0x4E487B7100000000000000000000000000000000000000000000000000000000 PUSH1 0x0 MSTORE PUSH1 0x22 PUSH1 0x4 MSTORE PUSH1 0x24 PUSH1 0x0 REVERT JUMPDEST PUSH1 0x0 PUSH1 0x2 DUP3 DIV SWAP1 POP PUSH1 0x1 DUP3 AND DUP1 PUSH3 0x300 JUMPI PUSH1 0x7F DUP3 AND SWAP2 POP JUMPDEST PUSH1 0x20 DUP3 LT DUP2 SUB PUSH3 0x316 JUMPI PUSH3 0x315 PUSH3 0x2B8 JUMP JUMPDEST JUMPDEST POP SWAP2 SWAP1 POP JUMP JUMPDEST PUSH1 0x0 DUP2 SWAP1 POP DUP2 PUSH1 0x0 MSTORE PUSH1 0x20 PUSH1 0x0 KECCAK256 SWAP1 POP SWAP2 SWAP1 POP JUMP JUMPDEST PUSH1 0x0 PUSH1 0x20 PUSH1 0x1F DUP4 ADD DIV SWAP1 POP SWAP2 SWAP1 POP JUMP JUMPDEST PUSH1 0x0 DUP3 DUP3 SHL SWAP1 POP SWAP3 SWAP2 POP POP JUMP JUMPDEST PUSH1 0x0 PUSH1 0x8 DUP4 MUL PUSH3 0x380 PUSH32 0xFFFFFFFFFFFFFFFFFFFFFFFFFFFFFFFFFFFFFFFFFFFFFFFFFFFFFFFFFFFFFFFF DUP3 PUSH3 0x341 JUMP JUMPDEST PUSH3 0x38C DUP7 DUP4 PUSH3 0x341 JUMP JUMPDEST SWAP6 POP DUP1 NOT DUP5 AND SWAP4 POP DUP1 DUP7 AND DUP5 OR SWAP3 POP POP POP SWAP4 SWAP3 POP POP POP JUMP JUMPDEST PUSH1 0x0 DUP2 SWAP1 POP SWAP2 SWAP1 POP JUMP JUMPDEST PUSH1 0x0 PUSH3 0x3CF PUSH3 0x3C9 PUSH3 0x3C3 DUP5 PUSH3 0x1F7 JUMP JUMPDEST PUSH3 0x3A4 JUMP JUMPDEST PUSH3 0x1F7 JUMP JUMPDEST SWAP1 POP SWAP2 SWAP1 POP JUMP JUMPDEST PUSH1 0x0 DUP2 SWAP1 POP SWAP2 SWAP1 POP JUMP JUMPDEST PUSH3 0x3EB DUP4 PUSH3 0x3AE JUMP JUMPDEST PUSH3 0x403 PUSH3 0x3FA DUP3 PUSH3 0x3D6 JUMP JUMPDEST DUP5 DUP5 SLOAD PUSH3 0x34E JUMP JUMPDEST DUP3 SSTORE POP POP POP POP JUMP JUMPDEST PUSH1 0x0 SWAP1 JUMP JUMPDEST PUSH3 0x41A PUSH3 0x40B JUMP JUMPDEST PUSH3 0x427 DUP2 DUP5 DUP5 PUSH3 0x3E0 JUMP JUMPDEST POP POP POP JUMP JUMPDEST JUMPDEST DUP2 DUP2 LT ISZERO PUSH3 0x44F JUMPI PUSH3 0x443 PUSH1 0x0 DUP3 PUSH3 0x410 JUMP JUMPDEST PUSH1 0x1 DUP2 ADD SWAP1 POP PUSH3 0x42D JUMP JUMPDEST POP POP JUMP JUMPDEST PUSH1 0x1F DUP3 GT ISZERO PUSH3 0x49E JUMPI PUSH3 0x468 DUP2 PUSH3 0x31C JUMP JUMPDEST PUSH3 0x473 DUP5 PUSH3 0x331 JUMP JUMPDEST DUP2 ADD PUSH1 0x20 DUP6 LT ISZERO PUSH3 0x483 JUMPI DUP2 SWAP1 POP JUMPDEST PUSH3 0x49B PUSH3 0x492 DUP6 PUSH3 0x331 JUMP JUMPDEST DUP4 ADD DUP3 PUSH3 0x42C JUMP JUMPDEST POP POP JUMPDEST POP POP POP JUMP JUMPDEST PUSH1 0x0 DUP3 DUP3 SHR SWAP1 POP SWAP3 SWAP2 POP POP JUMP JUMPDEST PUSH1 0x0 PUSH3 0x4C3 PUSH1 0x0 NOT DUP5 PUSH1 0x8 MUL PUSH3 0x4A3 JUMP JUMPDEST NOT DUP1 DUP4 AND SWAP2 POP POP SWAP3 SWAP2 POP POP JUMP JUMPDEST PUSH1 0x0 PUSH3 0x4DE DUP4 DUP4 PUSH3 0x4B0 JUMP JUMPDEST SWAP2 POP DUP3 PUSH1 0x2 MUL DUP3 OR SWAP1 POP SWAP3 SWAP2 POP POP JUMP JUMPDEST PUSH3 0x4F9 DUP3 PUSH3 0x2AD JUMP JUMPDEST PUSH8 0xFFFFFFFFFFFFFFFF DUP2 GT ISZERO PUSH3 0x515 JUMPI PUSH3 0x514 PUSH3 0x93 JUMP JUMPDEST JUMPDEST PUSH3 0x521 DUP3 SLOAD PUSH3 0x2E7 JUMP JUMPDEST PUSH3 0x52E DUP3 DUP3 DUP6 PUSH3 0x453 JUMP JUMPDEST PUSH1 0x0 PUSH1 0x20 SWAP1 POP PUSH1 0x1F DUP4 GT PUSH1 0x1 DUP2 EQ PUSH3 0x566 JUMPI PUSH1 0x0 DUP5 ISZERO PUSH3 0x551 JUMPI DUP3 DUP8 ADD MLOAD SWAP1 POP JUMPDEST PUSH3 0x55D DUP6 DUP3 PUSH3 0x4D0 JUMP JUMPDEST DUP7 SSTORE POP PUSH3 0x5CD JUMP JUMPDEST PUSH1 0x1F NOT DUP5 AND PUSH3 0x576 DUP7 PUSH3 0x31C JUMP JUMPDEST PUSH1 0x0 JUMPDEST DUP3 DUP2 LT ISZERO PUSH3 0x5A0 JUMPI DUP5 DUP10 ADD MLOAD DUP3 SSTORE PUSH1 0x1 DUP3 ADD SWAP2 POP PUSH1 0x20 DUP6 ADD SWAP5 POP PUSH1 0x20 DUP2 ADD SWAP1 POP PUSH3 0x579 JUMP JUMPDEST DUP7 DUP4 LT ISZERO PUSH3 0x5C0 JUMPI DUP5 DUP10 ADD MLOAD PUSH3 0x5BC PUSH1 0x1F DUP10 AND DUP3 PUSH3 0x4B0 JUMP JUMPDEST DUP4 SSTORE POP JUMPDEST PUSH1 0x1 PUSH1 0x2 DUP9 MUL ADD DUP9 SSTORE POP POP POP JUMPDEST POP POP POP POP POP POP JUMP JUMPDEST PUSH2 0x30E DUP1 PUSH3 0x5E5 PUSH1 0x0 CODECOPY PUSH1 0x0 RETURN INVALID PUSH1 0x80 PUSH1 0x40 MSTORE CALLVALUE DUP1 ISZERO PUSH2 0x10 JUMPI PUSH1 0x0 DUP1 REVERT JUMPDEST POP PUSH1 0x4 CALLDATASIZE LT PUSH2 0x36 JUMPI PUSH1 0x0 CALLDATALOAD PUSH1 0xE0 SHR DUP1 PUSH4 0x17D7DE7C EQ PUSH2 0x3B JUMPI DUP1 PUSH4 0x98D5FDCA EQ PUSH2 0x59 JUMPI JUMPDEST PUSH1 0x0 DUP1 REVERT JUMPDEST PUSH2 0x43 PUSH2 0x77 JUMP JUMPDEST PUSH1 0x40 MLOAD PUSH2 0x50 SWAP2 SWAP1 PUSH2 0x1BF JUMP JUMPDEST PUSH1 0x40 MLOAD DUP1 SWAP2 SUB SWAP1 RETURN JUMPDEST PUSH2 0x61 PUSH2 0x109 JUMP JUMPDEST PUSH1 0x40 MLOAD PUSH2 0x6E SWAP2 SWAP1 PUSH2 0x1FA JUMP JUMPDEST PUSH1 0x40 MLOAD DUP1 SWAP2 SUB SWAP1 RETURN JUMPDEST PUSH1 0x60 PUSH1 0x0 DUP1 SLOAD PUSH2 0x86 SWAP1 PUSH2 0x244 JUMP JUMPDEST DUP1 PUSH1 0x1F ADD PUSH1 0x20 DUP1 SWAP2 DIV MUL PUSH1 0x20 ADD PUSH1 0x40 MLOAD SWAP1 DUP2 ADD PUSH1 0x40 MSTORE DUP1 SWAP3 SWAP2 SWAP1 DUP2 DUP2 MSTORE PUSH1 0x20 ADD DUP3 DUP1 SLOAD PUSH2 0xB2 SWAP1 PUSH2 0x244 JUMP JUMPDEST DUP1 ISZERO PUSH2 0xFF JUMPI DUP1 PUSH1 0x1F LT PUSH2 0xD4 JUMPI PUSH2 0x100 DUP1 DUP4 SLOAD DIV MUL DUP4 MSTORE SWAP2 PUSH1 0x20 ADD SWAP2 PUSH2 0xFF JUMP JUMPDEST DUP3 ADD SWAP2 SWAP1 PUSH1 0x0 MSTORE PUSH1 0x20 PUSH1 0x0 KECCAK256 SWAP1 JUMPDEST DUP2 SLOAD DUP2 MSTORE SWAP1 PUSH1 0x1 ADD SWAP1 PUSH1 0x20 ADD DUP1 DUP4 GT PUSH2 0xE2 JUMPI DUP3 SWAP1 SUB PUSH1 0x1F AND DUP3 ADD SWAP2 JUMPDEST POP POP POP POP POP SWAP1 POP SWAP1 JUMP JUMPDEST PUSH1 0x0 PUSH2 0x113 PUSH2 0x125 JUMP JUMPDEST PUSH1 0x2 SLOAD PUSH2 0x120 SWAP2 SWAP1 PUSH2 0x2A4 JUMP JUMPDEST SWAP1 POP SWAP1 JUMP JUMPDEST PUSH1 0x0 PUSH1 0x1 SLOAD SWAP1 POP SWAP1 JUMP JUMPDEST PUSH1 0x0 DUP2 MLOAD SWAP1 POP SWAP2 SWAP1 POP JUMP JUMPDEST PUSH1 0x0 DUP3 DUP3 MSTORE PUSH1 0x20 DUP3 ADD SWAP1 POP SWAP3 SWAP2 POP POP JUMP JUMPDEST PUSH1 0x0 JUMPDEST DUP4 DUP2 LT ISZERO PUSH2 0x169 JUMPI DUP1 DUP3 ADD MLOAD DUP2 DUP5 ADD MSTORE PUSH1 0x20 DUP2 ADD SWAP1 POP PUSH2 0x14E JUMP JUMPDEST PUSH1 0x0 DUP5 DUP5 ADD MSTORE POP POP POP POP JUMP JUMPDEST PUSH1 0x0 PUSH1 0x1F NOT PUSH1 0x1F DUP4 ADD AND SWAP1 POP SWAP2 SWAP1 POP JUMP JUMPDEST PUSH1 0x0 PUSH2 0x191 DUP3 PUSH2 0x12F JUMP JUMPDEST PUSH2 0x19B DUP2 DUP6 PUSH2 0x13A JUMP JUMPDEST SWAP4 POP PUSH2 0x1AB DUP2 DUP6 PUSH1 0x20 DUP7 ADD PUSH2 0x14B JUMP JUMPDEST PUSH2 0x1B4 DUP2 PUSH2 0x175 JUMP JUMPDEST DUP5 ADD SWAP2 POP POP SWAP3 SWAP2 POP POP JUMP JUMPDEST PUSH1 0x0 PUSH1 0x20 DUP3 ADD SWAP1 POP DUP2 DUP2 SUB PUSH1 0x0 DUP4 ADD MSTORE PUSH2 0x1D9 DUP2 DUP5 PUSH2 0x186 JUMP JUMPDEST SWAP1 POP SWAP3 SWAP2 POP POP JUMP JUMPDEST PUSH1 0x0 DUP2 SWAP1 POP SWAP2 SWAP1 POP JUMP JUMPDEST PUSH2 0x1F4 DUP2 PUSH2 0x1E1 JUMP JUMPDEST DUP3 MSTORE POP POP JUMP JUMPDEST PUSH1 0x0 PUSH1 0x20 DUP3 ADD SWAP1 POP PUSH2 0x20F PUSH1 0x0 DUP4 ADD DUP5 PUSH2 0x1EB JUMP JUMPDEST SWAP3 SWAP2 POP POP JUMP JUMPDEST PUSH32 0x4E487B7100000000000000000000000000000000000000000000000000000000 PUSH1 0x0 MSTORE PUSH1 0x22 PUSH1 0x4 MSTORE PUSH1 0x24 PUSH1 0x0 REVERT JUMPDEST PUSH1 0x0 PUSH1 0x2 DUP3 DIV SWAP1 POP PUSH1 0x1 DUP3 AND DUP1 PUSH2 0x25C JUMPI PUSH1 0x7F DUP3 AND SWAP2 POP JUMPDEST PUSH1 0x20 DUP3 LT DUP2 SUB PUSH2 0x26F JUMPI PUSH2 0x26E PUSH2 0x215 JUMP JUMPDEST JUMPDEST POP SWAP2 SWAP1 POP JUMP JUMPDEST PUSH32 0x4E487B7100000000000000000000000000000000000000000000000000000000 PUSH1 0x0 MSTORE PUSH1 0x11 PUSH1 0x4 MSTORE PUSH1 0x24 PUSH1 0x0 REVERT JUMPDEST PUSH1 0x0 PUSH2 0x2AF DUP3 PUSH2 0x1E1 JUMP JUMPDEST SWAP2 POP PUSH2 0x2BA DUP4 PUSH2 0x1E1 JUMP JUMPDEST SWAP3 POP DUP3 DUP3 ADD SWAP1 POP DUP1 DUP3 GT ISZERO PUSH2 0x2D2 JUMPI PUSH2 0x2D1 PUSH2 0x275 JUMP JUMPDEST JUMPDEST SWAP3 SWAP2 POP POP JUMP INVALID LOG2 PUSH5 0x6970667358 0x22 SLT KECCAK256 LOG2 DUP2 PREVRANDAO SDIV 0xB1 SWAP6 TIMESTAMP PUSH18 0x9141EC67446CA3C27156386DAB63D5C8F997 LOG2 0xF9 0xAC SWAP5 CODECOPY 0x5F PUSH5 0x736F6C6343 STOP ADDMOD SLT STOP CALLER "
		},
		"gasEstimates": {
			"creation": {
				"codeDepositCost": "156400",
				"executionCost": "infinite",
				"totalCost": "infinite"
			},
			"external": {
				"getName()": "infinite",
				"getPrice()": "infinite"
			}
		},
		"methodIdentifiers": {
			"getName()": "17d7de7c",
			"getPrice()": "98d5fdca"
		}
	},
	"abi": [
		{
			"inputs": [
				{
					"internalType": "string",
					"name": "_name",
					"type": "string"
				},
				{
					"internalType": "uint256",
					"name": "_price",
					"type": "uint256"
				},
				{
					"internalType": "uint256",
					"name": "_tax",
					"type": "uint256"
				}
			],
			"stateMutability": "nonpayable",
			"type": "constructor"
		},
		{
			"inputs": [],
			"name": "getName",
			"outputs": [
				{
					"internalType": "string",
					"name": "",
					"type": "string"
				}
			],
			"stateMutability": "view",
			"type": "function"
		},
		{
			"inputs": [],
			"name": "getPrice",
			"outputs": [
				{
					"internalType": "uint256",
					"name": "",
					"type": "uint256"
				}
			],
			"stateMutability": "view",
			"type": "function"
		}
	]
}