{
	"data": {
		"bytecode": {
			"linkReferences": {},
			"object": "608060405234801561001057600080fd5b506108ce806100206000396000f3fe608060405234801561001057600080fd5b50600436106100415760003560e01c806396da107714610046578063bbdd371f14610062578063e01906711461007e575b600080fd5b610060600480360381019061005b9190610306565b61009c565b005b61007c60048036038101906100779190610306565b61013b565b005b6100866101da565b604051610093919061034c565b60405180910390f35b6000816040516100ab906102c2565b6100b591906103de565b604051809103906000f0801580156100d1573d6000803e3d6000fd5b5090506000819080600181540180825580915050600190039060005260206000200160009091909190916101000a81548173ffffffffffffffffffffffffffffffffffffffff021916908373ffffffffffffffffffffffffffffffffffffffff1602179055505050565b60008160405161014a906102cf565b61015491906103de565b604051809103906000f080158015610170573d6000803e3d6000fd5b5090506000819080600181540180825580915050600190039060005260206000200160009091909190916101000a81548173ffffffffffffffffffffffffffffffffffffffff021916908373ffffffffffffffffffffffffffffffffffffffff1602179055505050565b60008060005b6000805490508110156102ba5760008181548110610201576102006103f9565b5b9060005260206000200160009054906101000a900473ffffffffffffffffffffffffffffffffffffffff1673ffffffffffffffffffffffffffffffffffffffff166398d5fdca6040518163ffffffff1660e01b8152600401602060405180830381865afa158015610276573d6000803e3d6000fd5b505050506040513d601f19601f8201168201806040525081019061029a9190610454565b826102a591906104b0565b915080806102b2906104e4565b9150506101e0565b508091505090565b6101b68061052d83390190565b6101b6806106e383390190565b600080fd5b600381106102ee57600080fd5b50565b600081359050610300816102e1565b92915050565b60006020828403121561031c5761031b6102dc565b5b600061032a848285016102f1565b91505092915050565b6000819050919050565b61034681610333565b82525050565b6000602082019050610361600083018461033d565b92915050565b7f4e487b7100000000000000000000000000000000000000000000000000000000600052602160045260246000fd5b600381106103a7576103a6610367565b5b50565b60008190506103b882610396565b919050565b60006103c8826103aa565b9050919050565b6103d8816103bd565b82525050565b60006020820190506103f360008301846103cf565b92915050565b7f4e487b7100000000000000000000000000000000000000000000000000000000600052603260045260246000fd5b61043181610333565b811461043c57600080fd5b50565b60008151905061044e81610428565b92915050565b60006020828403121561046a576104696102dc565b5b60006104788482850161043f565b91505092915050565b7f4e487b7100000000000000000000000000000000000000000000000000000000600052601160045260246000fd5b60006104bb82610333565b91506104c683610333565b92508282019050808211156104de576104dd610481565b5b92915050565b60006104ef82610333565b91507fffffffffffffffffffffffffffffffffffffffffffffffffffffffffffffffff820361052157610520610481565b5b60018201905091905056fe608060405234801561001057600080fd5b506040516101b63803806101b683398181016040528101906100329190610096565b600a806000819055505080600160006101000a81548160ff02191690836002811115610061576100606100c3565b5b0217905550506100f2565b600080fd5b6003811061007e57600080fd5b50565b60008151905061009081610071565b92915050565b6000602082840312156100ac576100ab61006c565b5b60006100ba84828501610081565b91505092915050565b7f4e487b7100000000000000000000000000000000000000000000000000000000600052602160045260246000fd5b60b6806101006000396000f3fe6080604052348015600f57600080fd5b506004361060285760003560e01c806398d5fdca14602d575b600080fd5b60336047565b604051603e91906067565b60405180910390f35b60008054905090565b6000819050919050565b6061816050565b82525050565b6000602082019050607a6000830184605a565b9291505056fea2646970667358221220ce67052aa117f635f279595e39eb5422383ae62e44a710e611aae319bf7c9b3864736f6c63430008120033608060405234801561001057600080fd5b506040516101b63803806101b683398181016040528101906100329190610096565b600f806000819055505080600160006101000a81548160ff02191690836002811115610061576100606100c3565b5b0217905550506100f2565b600080fd5b6003811061007e57600080fd5b50565b60008151905061009081610071565b92915050565b6000602082840312156100ac576100ab61006c565b5b60006100ba84828501610081565b91505092915050565b7f4e487b7100000000000000000000000000000000000000000000000000000000600052602160045260246000fd5b60b6806101006000396000f3fe6080604052348015600f57600080fd5b506004361060285760003560e01c806398d5fdca14602d575b600080fd5b60336047565b604051603e91906067565b60405180910390f35b60008054905090565b6000819050919050565b6061816050565b82525050565b6000602082019050607a6000830184605a565b9291505056fea2646970667358221220e11d5e812c8ff19accdcab834b2c39fd4e6da137af583d15b243ab2ced56c70f64736f6c63430008120033a2646970667358221220a071ea2c0907733a4fb88a7ae7b0d838b11bf03d5d4c5d0dfdc90462ce5323a164736f6c63430008120033",
			"opcodes": "PUSH1 0x80 PUSH1 0x40 MSTORE CALLVALUE DUP1 ISZERO PUSH2 0x10 JUMPI PUSH1 0x0 DUP1 REVERT JUMPDEST POP PUSH2 0x8CE DUP1 PUSH2 0x20 PUSH1 0x0 CODECOPY PUSH1 0x0 RETURN INVALID PUSH1 0x80 PUSH1 0x40 MSTORE CALLVALUE DUP1 ISZERO PUSH2 0x10 JUMPI PUSH1 0x0 DUP1 REVERT JUMPDEST POP PUSH1 0x4 CALLDATASIZE LT PUSH2 0x41 JUMPI PUSH1 0x0 CALLDATALOAD PUSH1 0xE0 SHR DUP1 PUSH4 0x96DA1077 EQ PUSH2 0x46 JUMPI DUP1 PUSH4 0xBBDD371F EQ PUSH2 0x62 JUMPI DUP1 PUSH4 0xE0190671 EQ PUSH2 0x7E JUMPI JUMPDEST PUSH1 0x0 DUP1 REVERT JUMPDEST PUSH2 0x60 PUSH1 0x4 DUP1 CALLDATASIZE SUB DUP2 ADD SWAP1 PUSH2 0x5B SWAP2 SWAP1 PUSH2 0x306 JUMP JUMPDEST PUSH2 0x9C JUMP JUMPDEST STOP JUMPDEST PUSH2 0x7C PUSH1 0x4 DUP1 CALLDATASIZE SUB DUP2 ADD SWAP1 PUSH2 0x77 SWAP2 SWAP1 PUSH2 0x306 JUMP JUMPDEST PUSH2 0x13B JUMP JUMPDEST STOP JUMPDEST PUSH2 0x86 PUSH2 0x1DA JUMP JUMPDEST PUSH1 0x40 MLOAD PUSH2 0x93 SWAP2 SWAP1 PUSH2 0x34C JUMP JUMPDEST PUSH1 0x40 MLOAD DUP1 SWAP2 SUB SWAP1 RETURN JUMPDEST PUSH1 0x0 DUP2 PUSH1 0x40 MLOAD PUSH2 0xAB SWAP1 PUSH2 0x2C2 JUMP JUMPDEST PUSH2 0xB5 SWAP2 SWAP1 PUSH2 0x3DE JUMP JUMPDEST PUSH1 0x40 MLOAD DUP1 SWAP2 SUB SWAP1 PUSH1 0x0 CREATE DUP1 ISZERO DUP1 ISZERO PUSH2 0xD1 JUMPI RETURNDATASIZE PUSH1 0x0 DUP1 RETURNDATACOPY RETURNDATASIZE PUSH1 0x0 REVERT JUMPDEST POP SWAP1 POP PUSH1 0x0 DUP2 SWAP1 DUP1 PUSH1 0x1 DUP2 SLOAD ADD DUP1 DUP3 SSTORE DUP1 SWAP2 POP POP PUSH1 0x1 SWAP1 SUB SWAP1 PUSH1 0x0 MSTORE PUSH1 0x20 PUSH1 0x0 KECCAK256 ADD PUSH1 0x0 SWAP1 SWAP2 SWAP1 SWAP2 SWAP1 SWAP2 PUSH2 0x100 EXP DUP2 SLOAD DUP2 PUSH20 0xFFFFFFFFFFFFFFFFFFFFFFFFFFFFFFFFFFFFFFFF MUL NOT AND SWAP1 DUP4 PUSH20 0xFFFFFFFFFFFFFFFFFFFFFFFFFFFFFFFFFFFFFFFF AND MUL OR SWAP1 SSTORE POP POP POP JUMP JUMPDEST PUSH1 0x0 DUP2 PUSH1 0x40 MLOAD PUSH2 0x14A SWAP1 PUSH2 0x2CF JUMP JUMPDEST PUSH2 0x154 SWAP2 SWAP1 PUSH2 0x3DE JUMP JUMPDEST PUSH1 0x40 MLOAD DUP1 SWAP2 SUB SWAP1 PUSH1 0x0 CREATE DUP1 ISZERO DUP1 ISZERO PUSH2 0x170 JUMPI RETURNDATASIZE PUSH1 0x0 DUP1 RETURNDATACOPY RETURNDATASIZE PUSH1 0x0 REVERT JUMPDEST POP SWAP1 POP PUSH1 0x0 DUP2 SWAP1 DUP1 PUSH1 0x1 DUP2 SLOAD ADD DUP1 DUP3 SSTORE DUP1 SWAP2 POP POP PUSH1 0x1 SWAP1 SUB SWAP1 PUSH1 0x0 MSTORE PUSH1 0x20 PUSH1 0x0 KECCAK256 ADD PUSH1 0x0 SWAP1 SWAP2 SWAP1 SWAP2 SWAP1 SWAP2 PUSH2 0x100 EXP DUP2 SLOAD DUP2 PUSH20 0xFFFFFFFFFFFFFFFFFFFFFFFFFFFFFFFFFFFFFFFF MUL NOT AND SWAP1 DUP4 PUSH20 0xFFFFFFFFFFFFFFFFFFFFFFFFFFFFFFFFFFFFFFFF AND MUL OR SWAP1 SSTORE POP POP POP JUMP JUMPDEST PUSH1 0x0 DUP1 PUSH1 0x0 JUMPDEST PUSH1 0x0 DUP1 SLOAD SWAP1 POP DUP2 LT ISZERO PUSH2 0x2BA JUMPI PUSH1 0x0 DUP2 DUP2 SLOAD DUP2 LT PUSH2 0x201 JUMPI PUSH2 0x200 PUSH2 0x3F9 JUMP JUMPDEST JUMPDEST SWAP1 PUSH1 0x0 MSTORE PUSH1 0x20 PUSH1 0x0 KECCAK256 ADD PUSH1 0x0 SWAP1 SLOAD SWAP1 PUSH2 0x100 EXP SWAP1 DIV PUSH20 0xFFFFFFFFFFFFFFFFFFFFFFFFFFFFFFFFFFFFFFFF AND PUSH20 0xFFFFFFFFFFFFFFFFFFFFFFFFFFFFFFFFFFFFFFFF AND PUSH4 0x98D5FDCA PUSH1 0x40 MLOAD DUP2 PUSH4 0xFFFFFFFF AND PUSH1 0xE0 SHL DUP2 MSTORE PUSH1 0x4 ADD PUSH1 0x20 PUSH1 0x40 MLOAD DUP1 DUP4 SUB DUP2 DUP7 GAS STATICCALL ISZERO DUP1 ISZERO PUSH2 0x276 JUMPI RETURNDATASIZE PUSH1 0x0 DUP1 RETURNDATACOPY RETURNDATASIZE PUSH1 0x0 REVERT JUMPDEST POP POP POP POP PUSH1 0x40 MLOAD RETURNDATASIZE PUSH1 0x1F NOT PUSH1 0x1F DUP3 ADD AND DUP3 ADD DUP1 PUSH1 0x40 MSTORE POP DUP2 ADD SWAP1 PUSH2 0x29A SWAP2 SWAP1 PUSH2 0x454 JUMP JUMPDEST DUP3 PUSH2 0x2A5 SWAP2 SWAP1 PUSH2 0x4B0 JUMP JUMPDEST SWAP2 POP DUP1 DUP1 PUSH2 0x2B2 SWAP1 PUSH2 0x4E4 JUMP JUMPDEST SWAP2 POP POP PUSH2 0x1E0 JUMP JUMPDEST POP DUP1 SWAP2 POP POP SWAP1 JUMP JUMPDEST PUSH2 0x1B6 DUP1 PUSH2 0x52D DUP4 CODECOPY ADD SWAP1 JUMP JUMPDEST PUSH2 0x1B6 DUP1 PUSH2 0x6E3 DUP4 CODECOPY ADD SWAP1 JUMP JUMPDEST PUSH1 0x0 DUP1 REVERT JUMPDEST PUSH1 0x3 DUP2 LT PUSH2 0x2EE JUMPI PUSH1 0x0 DUP1 REVERT JUMPDEST POP JUMP JUMPDEST PUSH1 0x0 DUP2 CALLDATALOAD SWAP1 POP PUSH2 0x300 DUP2 PUSH2 0x2E1 JUMP JUMPDEST SWAP3 SWAP2 POP POP JUMP JUMPDEST PUSH1 0x0 PUSH1 0x20 DUP3 DUP5 SUB SLT ISZERO PUSH2 0x31C JUMPI PUSH2 0x31B PUSH2 0x2DC JUMP JUMPDEST JUMPDEST PUSH1 0x0 PUSH2 0x32A DUP5 DUP3 DUP6 ADD PUSH2 0x2F1 JUMP JUMPDEST SWAP2 POP POP SWAP3 SWAP2 POP POP JUMP JUMPDEST PUSH1 0x0 DUP2 SWAP1 POP SWAP2 SWAP1 POP JUMP JUMPDEST PUSH2 0x346 DUP2 PUSH2 0x333 JUMP JUMPDEST DUP3 MSTORE POP POP JUMP JUMPDEST PUSH1 0x0 PUSH1 0x20 DUP3 ADD SWAP1 POP PUSH2 0x361 PUSH1 0x0 DUP4 ADD DUP5 PUSH2 0x33D JUMP JUMPDEST SWAP3 SWAP2 POP POP JUMP JUMPDEST PUSH32 0x4E487B7100000000000000000000000000000000000000000000000000000000 PUSH1 0x0 MSTORE PUSH1 0x21 PUSH1 0x4 MSTORE PUSH1 0x24 PUSH1 0x0 REVERT JUMPDEST PUSH1 0x3 DUP2 LT PUSH2 0x3A7 JUMPI PUSH2 0x3A6 PUSH2 0x367 JUMP JUMPDEST JUMPDEST POP JUMP JUMPDEST PUSH1 0x0 DUP2 SWAP1 POP PUSH2 0x3B8 DUP3 PUSH2 0x396 JUMP JUMPDEST SWAP2 SWAP1 POP JUMP JUMPDEST PUSH1 0x0 PUSH2 0x3C8 DUP3 PUSH2 0x3AA JUMP JUMPDEST SWAP1 POP SWAP2 SWAP1 POP JUMP JUMPDEST PUSH2 0x3D8 DUP2 PUSH2 0x3BD JUMP JUMPDEST DUP3 MSTORE POP POP JUMP JUMPDEST PUSH1 0x0 PUSH1 0x20 DUP3 ADD SWAP1 POP PUSH2 0x3F3 PUSH1 0x0 DUP4 ADD DUP5 PUSH2 0x3CF JUMP JUMPDEST SWAP3 SWAP2 POP POP JUMP JUMPDEST PUSH32 0x4E487B7100000000000000000000000000000000000000000000000000000000 PUSH1 0x0 MSTORE PUSH1 0x32 PUSH1 0x4 MSTORE PUSH1 0x24 PUSH1 0x0 REVERT JUMPDEST PUSH2 0x431 DUP2 PUSH2 0x333 JUMP JUMPDEST DUP2 EQ PUSH2 0x43C JUMPI PUSH1 0x0 DUP1 REVERT JUMPDEST POP JUMP JUMPDEST PUSH1 0x0 DUP2 MLOAD SWAP1 POP PUSH2 0x44E DUP2 PUSH2 0x428 JUMP JUMPDEST SWAP3 SWAP2 POP POP JUMP JUMPDEST PUSH1 0x0 PUSH1 0x20 DUP3 DUP5 SUB SLT ISZERO PUSH2 0x46A JUMPI PUSH2 0x469 PUSH2 0x2DC JUMP JUMPDEST JUMPDEST PUSH1 0x0 PUSH2 0x478 DUP5 DUP3 DUP6 ADD PUSH2 0x43F JUMP JUMPDEST SWAP2 POP POP SWAP3 SWAP2 POP POP JUMP JUMPDEST PUSH32 0x4E487B7100000000000000000000000000000000000000000000000000000000 PUSH1 0x0 MSTORE PUSH1 0x11 PUSH1 0x4 MSTORE PUSH1 0x24 PUSH1 0x0 REVERT JUMPDEST PUSH1 0x0 PUSH2 0x4BB DUP3 PUSH2 0x333 JUMP JUMPDEST SWAP2 POP PUSH2 0x4C6 DUP4 PUSH2 0x333 JUMP JUMPDEST SWAP3 POP DUP3 DUP3 ADD SWAP1 POP DUP1 DUP3 GT ISZERO PUSH2 0x4DE JUMPI PUSH2 0x4DD PUSH2 0x481 JUMP JUMPDEST JUMPDEST SWAP3 SWAP2 POP POP JUMP JUMPDEST PUSH1 0x0 PUSH2 0x4EF DUP3 PUSH2 0x333 JUMP JUMPDEST SWAP2 POP PUSH32 0xFFFFFFFFFFFFFFFFFFFFFFFFFFFFFFFFFFFFFFFFFFFFFFFFFFFFFFFFFFFFFFFF DUP3 SUB PUSH2 0x521 JUMPI PUSH2 0x520 PUSH2 0x481 JUMP JUMPDEST JUMPDEST PUSH1 0x1 DUP3 ADD SWAP1 POP SWAP2 SWAP1 POP JUMP INVALID PUSH1 0x80 PUSH1 0x40 MSTORE CALLVALUE DUP1 ISZERO PUSH2 0x10 JUMPI PUSH1 0x0 DUP1 REVERT JUMPDEST POP PUSH1 0x40 MLOAD PUSH2 0x1B6 CODESIZE SUB DUP1 PUSH2 0x1B6 DUP4 CODECOPY DUP2 DUP2 ADD PUSH1 0x40 MSTORE DUP2 ADD SWAP1 PUSH2 0x32 SWAP2 SWAP1 PUSH2 0x96 JUMP JUMPDEST PUSH1 0xA DUP1 PUSH1 0x0 DUP2 SWAP1 SSTORE POP POP DUP1 PUSH1 0x1 PUSH1 0x0 PUSH2 0x100 EXP DUP2 SLOAD DUP2 PUSH1 0xFF MUL NOT AND SWAP1 DUP4 PUSH1 0x2 DUP2 GT ISZERO PUSH2 0x61 JUMPI PUSH2 0x60 PUSH2 0xC3 JUMP JUMPDEST JUMPDEST MUL OR SWAP1 SSTORE POP POP PUSH2 0xF2 JUMP JUMPDEST PUSH1 0x0 DUP1 REVERT JUMPDEST PUSH1 0x3 DUP2 LT PUSH2 0x7E JUMPI PUSH1 0x0 DUP1 REVERT JUMPDEST POP JUMP JUMPDEST PUSH1 0x0 DUP2 MLOAD SWAP1 POP PUSH2 0x90 DUP2 PUSH2 0x71 JUMP JUMPDEST SWAP3 SWAP2 POP POP JUMP JUMPDEST PUSH1 0x0 PUSH1 0x20 DUP3 DUP5 SUB SLT ISZERO PUSH2 0xAC JUMPI PUSH2 0xAB PUSH2 0x6C JUMP JUMPDEST JUMPDEST PUSH1 0x0 PUSH2 0xBA DUP5 DUP3 DUP6 ADD PUSH2 0x81 JUMP JUMPDEST SWAP2 POP POP SWAP3 SWAP2 POP POP JUMP JUMPDEST PUSH32 0x4E487B7100000000000000000000000000000000000000000000000000000000 PUSH1 0x0 MSTORE PUSH1 0x21 PUSH1 0x4 MSTORE PUSH1 0x24 PUSH1 0x0 REVERT JUMPDEST PUSH1 0xB6 DUP1 PUSH2 0x100 PUSH1 0x0 CODECOPY PUSH1 0x0 RETURN INVALID PUSH1 0x80 PUSH1 0x40 MSTORE CALLVALUE DUP1 ISZERO PUSH1 0xF JUMPI PUSH1 0x0 DUP1 REVERT JUMPDEST POP PUSH1 0x4 CALLDATASIZE LT PUSH1 0x28 JUMPI PUSH1 0x0 CALLDATALOAD PUSH1 0xE0 SHR DUP1 PUSH4 0x98D5FDCA EQ PUSH1 0x2D JUMPI JUMPDEST PUSH1 0x0 DUP1 REVERT JUMPDEST PUSH1 0x33 PUSH1 0x47 JUMP JUMPDEST PUSH1 0x40 MLOAD PUSH1 0x3E SWAP2 SWAP1 PUSH1 0x67 JUMP JUMPDEST PUSH1 0x40 MLOAD DUP1 SWAP2 SUB SWAP1 RETURN JUMPDEST PUSH1 0x0 DUP1 SLOAD SWAP1 POP SWAP1 JUMP JUMPDEST PUSH1 0x0 DUP2 SWAP1 POP SWAP2 SWAP1 POP JUMP JUMPDEST PUSH1 0x61 DUP2 PUSH1 0x50 JUMP JUMPDEST DUP3 MSTORE POP POP JUMP JUMPDEST PUSH1 0x0 PUSH1 0x20 DUP3 ADD SWAP1 POP PUSH1 0x7A PUSH1 0x0 DUP4 ADD DUP5 PUSH1 0x5A JUMP JUMPDEST SWAP3 SWAP2 POP POP JUMP INVALID LOG2 PUSH5 0x6970667358 0x22 SLT KECCAK256 0xCE PUSH8 0x52AA117F635F279 MSIZE 0x5E CODECOPY 0xEB SLOAD 0x22 CODESIZE GASPRICE 0xE6 0x2E PREVRANDAO 0xA7 LT 0xE6 GT 0xAA 0xE3 NOT 0xBF PUSH29 0x9B3864736F6C63430008120033608060405234801561001057600080FD JUMPDEST POP PUSH1 0x40 MLOAD PUSH2 0x1B6 CODESIZE SUB DUP1 PUSH2 0x1B6 DUP4 CODECOPY DUP2 DUP2 ADD PUSH1 0x40 MSTORE DUP2 ADD SWAP1 PUSH2 0x32 SWAP2 SWAP1 PUSH2 0x96 JUMP JUMPDEST PUSH1 0xF DUP1 PUSH1 0x0 DUP2 SWAP1 SSTORE POP POP DUP1 PUSH1 0x1 PUSH1 0x0 PUSH2 0x100 EXP DUP2 SLOAD DUP2 PUSH1 0xFF MUL NOT AND SWAP1 DUP4 PUSH1 0x2 DUP2 GT ISZERO PUSH2 0x61 JUMPI PUSH2 0x60 PUSH2 0xC3 JUMP JUMPDEST JUMPDEST MUL OR SWAP1 SSTORE POP POP PUSH2 0xF2 JUMP JUMPDEST PUSH1 0x0 DUP1 REVERT JUMPDEST PUSH1 0x3 DUP2 LT PUSH2 0x7E JUMPI PUSH1 0x0 DUP1 REVERT JUMPDEST POP JUMP JUMPDEST PUSH1 0x0 DUP2 MLOAD SWAP1 POP PUSH2 0x90 DUP2 PUSH2 0x71 JUMP JUMPDEST SWAP3 SWAP2 POP POP JUMP JUMPDEST PUSH1 0x0 PUSH1 0x20 DUP3 DUP5 SUB SLT ISZERO PUSH2 0xAC JUMPI PUSH2 0xAB PUSH2 0x6C JUMP JUMPDEST JUMPDEST PUSH1 0x0 PUSH2 0xBA DUP5 DUP3 DUP6 ADD PUSH2 0x81 JUMP JUMPDEST SWAP2 POP POP SWAP3 SWAP2 POP POP JUMP JUMPDEST PUSH32 0x4E487B7100000000000000000000000000000000000000000000000000000000 PUSH1 0x0 MSTORE PUSH1 0x21 PUSH1 0x4 MSTORE PUSH1 0x24 PUSH1 0x0 REVERT JUMPDEST PUSH1 0xB6 DUP1 PUSH2 0x100 PUSH1 0x0 CODECOPY PUSH1 0x0 RETURN INVALID PUSH1 0x80 PUSH1 0x40 MSTORE CALLVALUE DUP1 ISZERO PUSH1 0xF JUMPI PUSH1 0x0 DUP1 REVERT JUMPDEST POP PUSH1 0x4 CALLDATASIZE LT PUSH1 0x28 JUMPI PUSH1 0x0 CALLDATALOAD PUSH1 0xE0 SHR DUP1 PUSH4 0x98D5FDCA EQ PUSH1 0x2D JUMPI JUMPDEST PUSH1 0x0 DUP1 REVERT JUMPDEST PUSH1 0x33 PUSH1 0x47 JUMP JUMPDEST PUSH1 0x40 MLOAD PUSH1 0x3E SWAP2 SWAP1 PUSH1 0x67 JUMP JUMPDEST PUSH1 0x40 MLOAD DUP1 SWAP2 SUB SWAP1 RETURN JUMPDEST PUSH1 0x0 DUP1 SLOAD SWAP1 POP SWAP1 JUMP JUMPDEST PUSH1 0x0 DUP2 SWAP1 POP SWAP2 SWAP1 POP JUMP JUMPDEST PUSH1 0x61 DUP2 PUSH1 0x50 JUMP JUMPDEST DUP3 MSTORE POP POP JUMP JUMPDEST PUSH1 0x0 PUSH1 0x20 DUP3 ADD SWAP1 POP PUSH1 0x7A PUSH1 0x0 DUP4 ADD DUP5 PUSH1 0x5A JUMP JUMPDEST SWAP3 SWAP2 POP POP JUMP INVALID LOG2 PUSH5 0x6970667358 0x22 SLT KECCAK256 0xE1 SAR 0x5E DUP2 0x2C DUP16 CALL SWAP11 0xCC 0xDC 0xAB DUP4 0x4B 0x2C CODECOPY REVERT 0x4E PUSH14 0xA137AF583D15B243AB2CED56C70F PUSH5 0x736F6C6343 STOP ADDMOD SLT STOP CALLER LOG2 PUSH5 0x6970667358 0x22 SLT KECCAK256 LOG0 PUSH18 0xEA2C0907733A4FB88A7AE7B0D838B11BF03D 0x5D 0x4C 0x5D 0xD REVERT 0xC9 DIV PUSH3 0xCE5323 LOG1 PUSH5 0x736F6C6343 STOP ADDMOD SLT STOP CALLER "
		},
		"gasEstimates": {
			"creation": {
				"codeDepositCost": "450800",
				"executionCost": "486",
				"totalCost": "451286"
			},
			"external": {
				"addShirt(uint8)": "infinite",
				"addTrouser(uint8)": "infinite",
				"totalPriceofItems()": "infinite"
			}
		},
		"methodIdentifiers": {
			"addShirt(uint8)": "96da1077",
			"addTrouser(uint8)": "bbdd371f",
			"totalPriceofItems()": "e0190671"
		}
	},
	"abi": [
		{
			"inputs": [
				{
					"internalType": "enum Size",
					"name": "_size",
					"type": "uint8"
				}
			],
			"name": "addShirt",
			"outputs": [],
			"stateMutability": "nonpayable",
			"type": "function"
		},
		{
			"inputs": [
				{
					"internalType": "enum Size",
					"name": "_size",
					"type": "uint8"
				}
			],
			"name": "addTrouser",
			"outputs": [],
			"stateMutability": "nonpayable",
			"type": "function"
		},
		{
			"inputs": [],
			"name": "totalPriceofItems",
			"outputs": [
				{
					"internalType": "uint256",
					"name": "",
					"type": "uint256"
				}
			],
			"stateMutability": "view",
			"type": "function"
		}
	]
}