{
	"contracts/Arithmetic.sol": {
		"MathUtils": {
			"abi": [
				{
					"inputs": [
						{
							"internalType": "int256[]",
							"name": "values",
							"type": "int256[]"
						},
						{
							"internalType": "bool",
							"name": "down",
							"type": "bool"
						}
					],
					"name": "average",
					"outputs": [
						{
							"internalType": "int256",
							"name": "",
							"type": "int256"
						}
					],
					"stateMutability": "pure",
					"type": "function"
				},
				{
					"inputs": [
						{
							"internalType": "int256",
							"name": "value",
							"type": "int256"
						}
					],
					"name": "ceil",
					"outputs": [
						{
							"internalType": "int256",
							"name": "",
							"type": "int256"
						}
					],
					"stateMutability": "pure",
					"type": "function"
				},
				{
					"inputs": [
						{
							"internalType": "int256",
							"name": "value",
							"type": "int256"
						}
					],
					"name": "floor",
					"outputs": [
						{
							"internalType": "int256",
							"name": "",
							"type": "int256"
						}
					],
					"stateMutability": "pure",
					"type": "function"
				}
			],
			"devdoc": {
				"kind": "dev",
				"methods": {},
				"version": 1
			},
			"evm": {
				"assembly": "    /* \"contracts/Arithmetic.sol\":38:1627  contract MathUtils {\r... */\n  mstore(0x40, 0x80)\n  callvalue\n  dup1\n  iszero\n  tag_1\n  jumpi\n  0x00\n  dup1\n  revert\ntag_1:\n  pop\n  dataSize(sub_0)\n  dup1\n  dataOffset(sub_0)\n  0x00\n  codecopy\n  0x00\n  return\nstop\n\nsub_0: assembly {\n        /* \"contracts/Arithmetic.sol\":38:1627  contract MathUtils {\r... */\n      mstore(0x40, 0x80)\n      callvalue\n      dup1\n      iszero\n      tag_1\n      jumpi\n      0x00\n      dup1\n      revert\n    tag_1:\n      pop\n      jumpi(tag_2, lt(calldatasize, 0x04))\n      shr(0xe0, calldataload(0x00))\n      dup1\n      0x42fba7ae\n      eq\n      tag_3\n      jumpi\n      dup1\n      0xa0447e55\n      eq\n      tag_4\n      jumpi\n      dup1\n      0xda3ff648\n      eq\n      tag_5\n      jumpi\n    tag_2:\n      0x00\n      dup1\n      revert\n        /* \"contracts/Arithmetic.sol\":227:672  function ceil(int256 value) public pure returns (int256) {\r... */\n    tag_3:\n      tag_6\n      0x04\n      dup1\n      calldatasize\n      sub\n      dup2\n      add\n      swap1\n      tag_7\n      swap2\n      swap1\n      tag_8\n      jump\t// in\n    tag_7:\n      tag_9\n      jump\t// in\n    tag_6:\n      mload(0x40)\n      tag_10\n      swap2\n      swap1\n      tag_11\n      jump\t// in\n    tag_10:\n      mload(0x40)\n      dup1\n      swap2\n      sub\n      swap1\n      return\n        /* \"contracts/Arithmetic.sol\":680:1624  function average(int256[] memory values, bool down)\r... */\n    tag_4:\n      tag_12\n      0x04\n      dup1\n      calldatasize\n      sub\n      dup2\n      add\n      swap1\n      tag_13\n      swap2\n      swap1\n      tag_14\n      jump\t// in\n    tag_13:\n      tag_15\n      jump\t// in\n    tag_12:\n      mload(0x40)\n      tag_16\n      swap2\n      swap1\n      tag_11\n      jump\t// in\n    tag_16:\n      mload(0x40)\n      dup1\n      swap2\n      sub\n      swap1\n      return\n        /* \"contracts/Arithmetic.sol\":64:219  function floor(int256 value) public pure returns (int256) {\r... */\n    tag_5:\n      tag_17\n      0x04\n      dup1\n      calldatasize\n      sub\n      dup2\n      add\n      swap1\n      tag_18\n      swap2\n      swap1\n      tag_8\n      jump\t// in\n    tag_18:\n      tag_19\n      jump\t// in\n    tag_17:\n      mload(0x40)\n      tag_20\n      swap2\n      swap1\n      tag_11\n      jump\t// in\n    tag_20:\n      mload(0x40)\n      dup1\n      swap2\n      sub\n      swap1\n      return\n        /* \"contracts/Arithmetic.sol\":227:672  function ceil(int256 value) public pure returns (int256) {\r... */\n    tag_9:\n        /* \"contracts/Arithmetic.sol\":276:282  int256 */\n      0x00\n        /* \"contracts/Arithmetic.sol\":328:333  int y */\n      dup1\n        /* \"contracts/Arithmetic.sol\":358:359  0 */\n      0x00\n        /* \"contracts/Arithmetic.sol\":349:354  value */\n      dup4\n        /* \"contracts/Arithmetic.sol\":349:359  value == 0 */\n      eq\n        /* \"contracts/Arithmetic.sol\":346:665  if(value == 0){\r... */\n      iszero\n      tag_22\n      jumpi\n        /* \"contracts/Arithmetic.sol\":382:383  0 */\n      0x00\n        /* \"contracts/Arithmetic.sol\":375:383  return 0 */\n      swap2\n      pop\n      pop\n      jump(tag_21)\n        /* \"contracts/Arithmetic.sol\":346:665  if(value == 0){\r... */\n    tag_22:\n        /* \"contracts/Arithmetic.sol\":427:428  0 */\n      0x00\n        /* \"contracts/Arithmetic.sol\":421:423  10 */\n      0x0a\n        /* \"contracts/Arithmetic.sol\":413:418  value */\n      dup5\n        /* \"contracts/Arithmetic.sol\":413:423  value % 10 */\n      tag_24\n      swap2\n      swap1\n      tag_25\n      jump\t// in\n    tag_24:\n        /* \"contracts/Arithmetic.sol\":413:428  value % 10 == 0 */\n      eq\n        /* \"contracts/Arithmetic.sol\":410:665  if(value % 10 == 0){\r... */\n      iszero\n      tag_26\n      jumpi\n        /* \"contracts/Arithmetic.sol\":451:456  value */\n      dup3\n        /* \"contracts/Arithmetic.sol\":444:457  return(value) */\n      swap2\n      pop\n      pop\n      jump(tag_21)\n        /* \"contracts/Arithmetic.sol\":410:665  if(value % 10 == 0){\r... */\n    tag_26:\n        /* \"contracts/Arithmetic.sol\":495:496  0 */\n      0x00\n        /* \"contracts/Arithmetic.sol\":487:492  value */\n      dup4\n        /* \"contracts/Arithmetic.sol\":487:496  value < 0 */\n      slt\n        /* \"contracts/Arithmetic.sol\":484:665  if(value < 0){\r... */\n      iszero\n      tag_28\n      jumpi\n        /* \"contracts/Arithmetic.sol\":531:532  1 */\n      0x01\n        /* \"contracts/Arithmetic.sol\":525:527  10 */\n      0x0a\n        /* \"contracts/Arithmetic.sol\":517:522  value */\n      dup5\n        /* \"contracts/Arithmetic.sol\":517:527  value / 10 */\n      tag_29\n      swap2\n      swap1\n      tag_30\n      jump\t// in\n    tag_29:\n        /* \"contracts/Arithmetic.sol\":516:532  (value / 10) - 1 */\n      tag_31\n      swap2\n      swap1\n      tag_32\n      jump\t// in\n    tag_31:\n        /* \"contracts/Arithmetic.sol\":512:532  y = (value / 10) - 1 */\n      swap1\n      pop\n        /* \"contracts/Arithmetic.sol\":558:560  10 */\n      0x0a\n        /* \"contracts/Arithmetic.sol\":554:555  y */\n      dup2\n        /* \"contracts/Arithmetic.sol\":554:560  y * 10 */\n      tag_33\n      swap2\n      swap1\n      tag_34\n      jump\t// in\n    tag_33:\n        /* \"contracts/Arithmetic.sol\":547:561  return(y * 10) */\n      swap2\n      pop\n      pop\n      jump(tag_21)\n        /* \"contracts/Arithmetic.sol\":484:665  if(value < 0){\r... */\n    tag_28:\n        /* \"contracts/Arithmetic.sol\":622:623  1 */\n      0x01\n        /* \"contracts/Arithmetic.sol\":616:618  10 */\n      0x0a\n        /* \"contracts/Arithmetic.sol\":608:613  value */\n      dup5\n        /* \"contracts/Arithmetic.sol\":608:618  value / 10 */\n      tag_36\n      swap2\n      swap1\n      tag_30\n      jump\t// in\n    tag_36:\n        /* \"contracts/Arithmetic.sol\":607:623  (value / 10) + 1 */\n      tag_37\n      swap2\n      swap1\n      tag_38\n      jump\t// in\n    tag_37:\n        /* \"contracts/Arithmetic.sol\":603:623  y = (value / 10) + 1 */\n      swap1\n      pop\n        /* \"contracts/Arithmetic.sol\":650:652  10 */\n      0x0a\n        /* \"contracts/Arithmetic.sol\":646:647  y */\n      dup2\n        /* \"contracts/Arithmetic.sol\":646:652  y * 10 */\n      tag_39\n      swap2\n      swap1\n      tag_34\n      jump\t// in\n    tag_39:\n        /* \"contracts/Arithmetic.sol\":638:653  return (y * 10) */\n      swap2\n      pop\n      pop\n        /* \"contracts/Arithmetic.sol\":227:672  function ceil(int256 value) public pure returns (int256) {\r... */\n    tag_21:\n      swap2\n      swap1\n      pop\n      jump\t// out\n        /* \"contracts/Arithmetic.sol\":680:1624  function average(int256[] memory values, bool down)\r... */\n    tag_15:\n        /* \"contracts/Arithmetic.sol\":780:786  int256 */\n      0x00\n        /* \"contracts/Arithmetic.sol\":837:844  int sum */\n      dup1\n        /* \"contracts/Arithmetic.sol\":847:848  0 */\n      0x00\n        /* \"contracts/Arithmetic.sol\":837:848  int sum = 0 */\n      swap1\n      pop\n        /* \"contracts/Arithmetic.sol\":880:881  0 */\n      0x00\n        /* \"contracts/Arithmetic.sol\":863:869  values */\n      dup5\n        /* \"contracts/Arithmetic.sol\":863:876  values.length */\n      mload\n        /* \"contracts/Arithmetic.sol\":863:881  values.length == 0 */\n      eq\n        /* \"contracts/Arithmetic.sol\":859:918  if (values.length == 0) {\r... */\n      iszero\n      tag_41\n      jumpi\n        /* \"contracts/Arithmetic.sol\":905:906  0 */\n      0x00\n        /* \"contracts/Arithmetic.sol\":898:906  return 0 */\n      swap2\n      pop\n      pop\n      jump(tag_40)\n        /* \"contracts/Arithmetic.sol\":859:918  if (values.length == 0) {\r... */\n    tag_41:\n        /* \"contracts/Arithmetic.sol\":932:938  uint i */\n      0x00\n        /* \"contracts/Arithmetic.sol\":928:1010  for(uint i = 0; i < values.length; i++){\r... */\n    tag_42:\n        /* \"contracts/Arithmetic.sol\":948:954  values */\n      dup5\n        /* \"contracts/Arithmetic.sol\":948:961  values.length */\n      mload\n        /* \"contracts/Arithmetic.sol\":944:945  i */\n      dup2\n        /* \"contracts/Arithmetic.sol\":944:961  i < values.length */\n      lt\n        /* \"contracts/Arithmetic.sol\":928:1010  for(uint i = 0; i < values.length; i++){\r... */\n      iszero\n      tag_43\n      jumpi\n        /* \"contracts/Arithmetic.sol\":989:995  values */\n      dup5\n        /* \"contracts/Arithmetic.sol\":996:997  i */\n      dup2\n        /* \"contracts/Arithmetic.sol\":989:998  values[i] */\n      dup2\n      mload\n      dup2\n      lt\n      tag_45\n      jumpi\n      tag_46\n      tag_47\n      jump\t// in\n    tag_46:\n    tag_45:\n      0x20\n      mul\n      0x20\n      add\n      add\n      mload\n        /* \"contracts/Arithmetic.sol\":982:998  sum += values[i] */\n      dup3\n      tag_48\n      swap2\n      swap1\n      tag_38\n      jump\t// in\n    tag_48:\n      swap2\n      pop\n        /* \"contracts/Arithmetic.sol\":963:966  i++ */\n      dup1\n      dup1\n      tag_49\n      swap1\n      tag_50\n      jump\t// in\n    tag_49:\n      swap2\n      pop\n      pop\n        /* \"contracts/Arithmetic.sol\":928:1010  for(uint i = 0; i < values.length; i++){\r... */\n      jump(tag_42)\n    tag_43:\n      pop\n        /* \"contracts/Arithmetic.sol\":1036:1042  values */\n      dup4\n        /* \"contracts/Arithmetic.sol\":1036:1049  values.length */\n      mload\n        /* \"contracts/Arithmetic.sol\":1026:1029  sum */\n      dup2\n        /* \"contracts/Arithmetic.sol\":1026:1050  sum / int(values.length) */\n      tag_51\n      swap2\n      swap1\n      tag_30\n      jump\t// in\n    tag_51:\n        /* \"contracts/Arithmetic.sol\":1020:1050  sum = sum / int(values.length) */\n      swap1\n      pop\n        /* \"contracts/Arithmetic.sol\":1073:1074  0 */\n      0x00\n        /* \"contracts/Arithmetic.sol\":1066:1069  sum */\n      dup2\n        /* \"contracts/Arithmetic.sol\":1066:1074  sum == 0 */\n      eq\n        /* \"contracts/Arithmetic.sol\":1063:1607  if(sum == 0){\r... */\n      iszero\n      tag_52\n      jumpi\n        /* \"contracts/Arithmetic.sol\":1097:1098  0 */\n      0x00\n        /* \"contracts/Arithmetic.sol\":1090:1098  return 0 */\n      swap2\n      pop\n      pop\n      jump(tag_40)\n        /* \"contracts/Arithmetic.sol\":1063:1607  if(sum == 0){\r... */\n    tag_52:\n        /* \"contracts/Arithmetic.sol\":1140:1141  0 */\n      0x00\n        /* \"contracts/Arithmetic.sol\":1134:1136  10 */\n      0x0a\n        /* \"contracts/Arithmetic.sol\":1128:1131  sum */\n      dup3\n        /* \"contracts/Arithmetic.sol\":1128:1136  sum % 10 */\n      tag_54\n      swap2\n      swap1\n      tag_25\n      jump\t// in\n    tag_54:\n        /* \"contracts/Arithmetic.sol\":1128:1141  sum % 10 == 0 */\n      eq\n        /* \"contracts/Arithmetic.sol\":1125:1607  if(sum % 10 == 0){\r... */\n      iszero\n      tag_55\n      jumpi\n        /* \"contracts/Arithmetic.sol\":1164:1167  sum */\n      dup1\n        /* \"contracts/Arithmetic.sol\":1157:1168  return(sum) */\n      swap2\n      pop\n      pop\n      jump(tag_40)\n        /* \"contracts/Arithmetic.sol\":1125:1607  if(sum % 10 == 0){\r... */\n    tag_55:\n        /* \"contracts/Arithmetic.sol\":1213:1217  down */\n      dup3\n        /* \"contracts/Arithmetic.sol\":1210:1596  if(down){\r... */\n      iszero\n      tag_57\n      jumpi\n        /* \"contracts/Arithmetic.sol\":1250:1252  10 */\n      0x0a\n        /* \"contracts/Arithmetic.sol\":1244:1247  sum */\n      dup2\n        /* \"contracts/Arithmetic.sol\":1244:1252  sum / 10 */\n      tag_58\n      swap2\n      swap1\n      tag_30\n      jump\t// in\n    tag_58:\n        /* \"contracts/Arithmetic.sol\":1237:1253  sum = (sum / 10) */\n      swap1\n      pop\n        /* \"contracts/Arithmetic.sol\":1285:1287  10 */\n      0x0a\n        /* \"contracts/Arithmetic.sol\":1279:1282  sum */\n      dup2\n        /* \"contracts/Arithmetic.sol\":1279:1287  sum * 10 */\n      tag_59\n      swap2\n      swap1\n      tag_34\n      jump\t// in\n    tag_59:\n        /* \"contracts/Arithmetic.sol\":1272:1288  return(sum * 10) */\n      swap2\n      pop\n      pop\n      jump(tag_40)\n        /* \"contracts/Arithmetic.sol\":1210:1596  if(down){\r... */\n    tag_57:\n        /* \"contracts/Arithmetic.sol\":1351:1352  0 */\n      0x00\n        /* \"contracts/Arithmetic.sol\":1345:1348  sum */\n      dup2\n        /* \"contracts/Arithmetic.sol\":1345:1352  sum < 0 */\n      slt\n        /* \"contracts/Arithmetic.sol\":1342:1581  if(sum < 0){\r... */\n      iszero\n      tag_61\n      jumpi\n        /* \"contracts/Arithmetic.sol\":1395:1396  1 */\n      0x01\n        /* \"contracts/Arithmetic.sol\":1389:1391  10 */\n      0x0a\n        /* \"contracts/Arithmetic.sol\":1383:1386  sum */\n      dup3\n        /* \"contracts/Arithmetic.sol\":1383:1391  sum / 10 */\n      tag_62\n      swap2\n      swap1\n      tag_30\n      jump\t// in\n    tag_62:\n        /* \"contracts/Arithmetic.sol\":1382:1396  (sum / 10) - 1 */\n      tag_63\n      swap2\n      swap1\n      tag_32\n      jump\t// in\n    tag_63:\n        /* \"contracts/Arithmetic.sol\":1376:1396  sum = (sum / 10) - 1 */\n      swap1\n      pop\n        /* \"contracts/Arithmetic.sol\":1432:1434  10 */\n      0x0a\n        /* \"contracts/Arithmetic.sol\":1426:1429  sum */\n      dup2\n        /* \"contracts/Arithmetic.sol\":1426:1434  sum * 10 */\n      tag_64\n      swap2\n      swap1\n      tag_34\n      jump\t// in\n    tag_64:\n        /* \"contracts/Arithmetic.sol\":1419:1435  return(sum * 10) */\n      swap2\n      pop\n      pop\n      jump(tag_40)\n        /* \"contracts/Arithmetic.sol\":1342:1581  if(sum < 0){\r... */\n    tag_61:\n        /* \"contracts/Arithmetic.sol\":1520:1521  1 */\n      0x01\n        /* \"contracts/Arithmetic.sol\":1514:1516  10 */\n      0x0a\n        /* \"contracts/Arithmetic.sol\":1508:1511  sum */\n      dup3\n        /* \"contracts/Arithmetic.sol\":1508:1516  sum / 10 */\n      tag_66\n      swap2\n      swap1\n      tag_30\n      jump\t// in\n    tag_66:\n        /* \"contracts/Arithmetic.sol\":1507:1521  (sum / 10) + 1 */\n      tag_67\n      swap2\n      swap1\n      tag_38\n      jump\t// in\n    tag_67:\n        /* \"contracts/Arithmetic.sol\":1501:1521  sum = (sum / 10) + 1 */\n      swap1\n      pop\n        /* \"contracts/Arithmetic.sol\":1558:1560  10 */\n      0x0a\n        /* \"contracts/Arithmetic.sol\":1552:1555  sum */\n      dup2\n        /* \"contracts/Arithmetic.sol\":1552:1560  sum * 10 */\n      tag_68\n      swap2\n      swap1\n      tag_34\n      jump\t// in\n    tag_68:\n        /* \"contracts/Arithmetic.sol\":1544:1561  return (sum * 10) */\n      swap2\n      pop\n      pop\n        /* \"contracts/Arithmetic.sol\":680:1624  function average(int256[] memory values, bool down)\r... */\n    tag_40:\n      swap3\n      swap2\n      pop\n      pop\n      jump\t// out\n        /* \"contracts/Arithmetic.sol\":64:219  function floor(int256 value) public pure returns (int256) {\r... */\n    tag_19:\n        /* \"contracts/Arithmetic.sol\":114:120  int256 */\n      0x00\n        /* \"contracts/Arithmetic.sol\":166:171  int x */\n      dup1\n        /* \"contracts/Arithmetic.sol\":182:184  10 */\n      0x0a\n        /* \"contracts/Arithmetic.sol\":174:179  value */\n      dup4\n        /* \"contracts/Arithmetic.sol\":174:184  value / 10 */\n      tag_70\n      swap2\n      swap1\n      tag_30\n      jump\t// in\n    tag_70:\n        /* \"contracts/Arithmetic.sol\":166:184  int x = value / 10 */\n      swap1\n      pop\n        /* \"contracts/Arithmetic.sol\":207:209  10 */\n      0x0a\n        /* \"contracts/Arithmetic.sol\":203:204  x */\n      dup2\n        /* \"contracts/Arithmetic.sol\":203:209  x * 10 */\n      tag_71\n      swap2\n      swap1\n      tag_34\n      jump\t// in\n    tag_71:\n        /* \"contracts/Arithmetic.sol\":195:210  return (x * 10) */\n      swap2\n      pop\n      pop\n        /* \"contracts/Arithmetic.sol\":64:219  function floor(int256 value) public pure returns (int256) {\r... */\n      swap2\n      swap1\n      pop\n      jump\t// out\n        /* \"#utility.yul\":23:742   */\n    tag_73:\n        /* \"#utility.yul\":118:123   */\n      0x00\n        /* \"#utility.yul\":143:223   */\n      tag_75\n        /* \"#utility.yul\":159:222   */\n      tag_76\n        /* \"#utility.yul\":215:221   */\n      dup5\n        /* \"#utility.yul\":159:222   */\n      tag_77\n      jump\t// in\n    tag_76:\n        /* \"#utility.yul\":143:223   */\n      tag_78\n      jump\t// in\n    tag_75:\n        /* \"#utility.yul\":134:223   */\n      swap1\n      pop\n        /* \"#utility.yul\":243:248   */\n      dup1\n        /* \"#utility.yul\":272:278   */\n      dup4\n        /* \"#utility.yul\":265:270   */\n      dup3\n        /* \"#utility.yul\":258:279   */\n      mstore\n        /* \"#utility.yul\":306:310   */\n      0x20\n        /* \"#utility.yul\":299:304   */\n      dup3\n        /* \"#utility.yul\":295:311   */\n      add\n        /* \"#utility.yul\":288:311   */\n      swap1\n      pop\n        /* \"#utility.yul\":332:338   */\n      dup3\n        /* \"#utility.yul\":382:385   */\n      dup6\n        /* \"#utility.yul\":374:378   */\n      0x20\n        /* \"#utility.yul\":366:372   */\n      dup7\n        /* \"#utility.yul\":362:379   */\n      mul\n        /* \"#utility.yul\":357:360   */\n      dup3\n        /* \"#utility.yul\":353:380   */\n      add\n        /* \"#utility.yul\":350:386   */\n      gt\n        /* \"#utility.yul\":347:490   */\n      iszero\n      tag_79\n      jumpi\n        /* \"#utility.yul\":401:480   */\n      tag_80\n      tag_81\n      jump\t// in\n    tag_80:\n        /* \"#utility.yul\":347:490   */\n    tag_79:\n        /* \"#utility.yul\":514:515   */\n      0x00\n        /* \"#utility.yul\":499:736   */\n    tag_82:\n        /* \"#utility.yul\":524:530   */\n      dup6\n        /* \"#utility.yul\":521:522   */\n      dup2\n        /* \"#utility.yul\":518:531   */\n      lt\n        /* \"#utility.yul\":499:736   */\n      iszero\n      tag_84\n      jumpi\n        /* \"#utility.yul\":592:595   */\n      dup2\n        /* \"#utility.yul\":621:657   */\n      tag_85\n        /* \"#utility.yul\":653:656   */\n      dup9\n        /* \"#utility.yul\":641:651   */\n      dup3\n        /* \"#utility.yul\":621:657   */\n      tag_86\n      jump\t// in\n    tag_85:\n        /* \"#utility.yul\":616:619   */\n      dup5\n        /* \"#utility.yul\":609:658   */\n      mstore\n        /* \"#utility.yul\":687:691   */\n      0x20\n        /* \"#utility.yul\":682:685   */\n      dup5\n        /* \"#utility.yul\":678:692   */\n      add\n        /* \"#utility.yul\":671:692   */\n      swap4\n      pop\n        /* \"#utility.yul\":721:725   */\n      0x20\n        /* \"#utility.yul\":716:719   */\n      dup4\n        /* \"#utility.yul\":712:726   */\n      add\n        /* \"#utility.yul\":705:726   */\n      swap3\n      pop\n        /* \"#utility.yul\":559:736   */\n      pop\n        /* \"#utility.yul\":546:547   */\n      0x01\n        /* \"#utility.yul\":543:544   */\n      dup2\n        /* \"#utility.yul\":539:548   */\n      add\n        /* \"#utility.yul\":534:548   */\n      swap1\n      pop\n        /* \"#utility.yul\":499:736   */\n      jump(tag_82)\n    tag_84:\n        /* \"#utility.yul\":503:517   */\n      pop\n        /* \"#utility.yul\":124:742   */\n      pop\n      pop\n        /* \"#utility.yul\":23:742   */\n      swap4\n      swap3\n      pop\n      pop\n      pop\n      jump\t// out\n        /* \"#utility.yul\":764:1132   */\n    tag_87:\n        /* \"#utility.yul\":834:839   */\n      0x00\n        /* \"#utility.yul\":883:886   */\n      dup3\n        /* \"#utility.yul\":876:880   */\n      0x1f\n        /* \"#utility.yul\":868:874   */\n      dup4\n        /* \"#utility.yul\":864:881   */\n      add\n        /* \"#utility.yul\":860:887   */\n      slt\n        /* \"#utility.yul\":850:972   */\n      tag_89\n      jumpi\n        /* \"#utility.yul\":891:970   */\n      tag_90\n      tag_91\n      jump\t// in\n    tag_90:\n        /* \"#utility.yul\":850:972   */\n    tag_89:\n        /* \"#utility.yul\":1008:1014   */\n      dup2\n        /* \"#utility.yul\":995:1015   */\n      calldataload\n        /* \"#utility.yul\":1033:1126   */\n      tag_92\n        /* \"#utility.yul\":1122:1125   */\n      dup5\n        /* \"#utility.yul\":1114:1120   */\n      dup3\n        /* \"#utility.yul\":1107:1111   */\n      0x20\n        /* \"#utility.yul\":1099:1105   */\n      dup7\n        /* \"#utility.yul\":1095:1112   */\n      add\n        /* \"#utility.yul\":1033:1126   */\n      tag_73\n      jump\t// in\n    tag_92:\n        /* \"#utility.yul\":1024:1126   */\n      swap2\n      pop\n        /* \"#utility.yul\":840:1132   */\n      pop\n        /* \"#utility.yul\":764:1132   */\n      swap3\n      swap2\n      pop\n      pop\n      jump\t// out\n        /* \"#utility.yul\":1138:1271   */\n    tag_93:\n        /* \"#utility.yul\":1181:1186   */\n      0x00\n        /* \"#utility.yul\":1219:1225   */\n      dup2\n        /* \"#utility.yul\":1206:1226   */\n      calldataload\n        /* \"#utility.yul\":1197:1226   */\n      swap1\n      pop\n        /* \"#utility.yul\":1235:1265   */\n      tag_95\n        /* \"#utility.yul\":1259:1264   */\n      dup2\n        /* \"#utility.yul\":1235:1265   */\n      tag_96\n      jump\t// in\n    tag_95:\n        /* \"#utility.yul\":1138:1271   */\n      swap3\n      swap2\n      pop\n      pop\n      jump\t// out\n        /* \"#utility.yul\":1277:1414   */\n    tag_86:\n        /* \"#utility.yul\":1322:1327   */\n      0x00\n        /* \"#utility.yul\":1360:1366   */\n      dup2\n        /* \"#utility.yul\":1347:1367   */\n      calldataload\n        /* \"#utility.yul\":1338:1367   */\n      swap1\n      pop\n        /* \"#utility.yul\":1376:1408   */\n      tag_98\n        /* \"#utility.yul\":1402:1407   */\n      dup2\n        /* \"#utility.yul\":1376:1408   */\n      tag_99\n      jump\t// in\n    tag_98:\n        /* \"#utility.yul\":1277:1414   */\n      swap3\n      swap2\n      pop\n      pop\n      jump\t// out\n        /* \"#utility.yul\":1420:2096   */\n    tag_14:\n        /* \"#utility.yul\":1509:1515   */\n      0x00\n        /* \"#utility.yul\":1517:1523   */\n      dup1\n        /* \"#utility.yul\":1566:1568   */\n      0x40\n        /* \"#utility.yul\":1554:1563   */\n      dup4\n        /* \"#utility.yul\":1545:1552   */\n      dup6\n        /* \"#utility.yul\":1541:1564   */\n      sub\n        /* \"#utility.yul\":1537:1569   */\n      slt\n        /* \"#utility.yul\":1534:1653   */\n      iszero\n      tag_101\n      jumpi\n        /* \"#utility.yul\":1572:1651   */\n      tag_102\n      tag_103\n      jump\t// in\n    tag_102:\n        /* \"#utility.yul\":1534:1653   */\n    tag_101:\n        /* \"#utility.yul\":1720:1721   */\n      0x00\n        /* \"#utility.yul\":1709:1718   */\n      dup4\n        /* \"#utility.yul\":1705:1722   */\n      add\n        /* \"#utility.yul\":1692:1723   */\n      calldataload\n        /* \"#utility.yul\":1750:1768   */\n      0xffffffffffffffff\n        /* \"#utility.yul\":1742:1748   */\n      dup2\n        /* \"#utility.yul\":1739:1769   */\n      gt\n        /* \"#utility.yul\":1736:1853   */\n      iszero\n      tag_104\n      jumpi\n        /* \"#utility.yul\":1772:1851   */\n      tag_105\n      tag_106\n      jump\t// in\n    tag_105:\n        /* \"#utility.yul\":1736:1853   */\n    tag_104:\n        /* \"#utility.yul\":1877:1954   */\n      tag_107\n        /* \"#utility.yul\":1946:1953   */\n      dup6\n        /* \"#utility.yul\":1937:1943   */\n      dup3\n        /* \"#utility.yul\":1926:1935   */\n      dup7\n        /* \"#utility.yul\":1922:1944   */\n      add\n        /* \"#utility.yul\":1877:1954   */\n      tag_87\n      jump\t// in\n    tag_107:\n        /* \"#utility.yul\":1867:1954   */\n      swap3\n      pop\n        /* \"#utility.yul\":1663:1964   */\n      pop\n        /* \"#utility.yul\":2003:2005   */\n      0x20\n        /* \"#utility.yul\":2029:2079   */\n      tag_108\n        /* \"#utility.yul\":2071:2078   */\n      dup6\n        /* \"#utility.yul\":2062:2068   */\n      dup3\n        /* \"#utility.yul\":2051:2060   */\n      dup7\n        /* \"#utility.yul\":2047:2069   */\n      add\n        /* \"#utility.yul\":2029:2079   */\n      tag_93\n      jump\t// in\n    tag_108:\n        /* \"#utility.yul\":2019:2079   */\n      swap2\n      pop\n        /* \"#utility.yul\":1974:2089   */\n      pop\n        /* \"#utility.yul\":1420:2096   */\n      swap3\n      pop\n      swap3\n      swap1\n      pop\n      jump\t// out\n        /* \"#utility.yul\":2102:2429   */\n    tag_8:\n        /* \"#utility.yul\":2160:2166   */\n      0x00\n        /* \"#utility.yul\":2209:2211   */\n      0x20\n        /* \"#utility.yul\":2197:2206   */\n      dup3\n        /* \"#utility.yul\":2188:2195   */\n      dup5\n        /* \"#utility.yul\":2184:2207   */\n      sub\n        /* \"#utility.yul\":2180:2212   */\n      slt\n        /* \"#utility.yul\":2177:2296   */\n      iszero\n      tag_110\n      jumpi\n        /* \"#utility.yul\":2215:2294   */\n      tag_111\n      tag_103\n      jump\t// in\n    tag_111:\n        /* \"#utility.yul\":2177:2296   */\n    tag_110:\n        /* \"#utility.yul\":2335:2336   */\n      0x00\n        /* \"#utility.yul\":2360:2412   */\n      tag_112\n        /* \"#utility.yul\":2404:2411   */\n      dup5\n        /* \"#utility.yul\":2395:2401   */\n      dup3\n        /* \"#utility.yul\":2384:2393   */\n      dup6\n        /* \"#utility.yul\":2380:2402   */\n      add\n        /* \"#utility.yul\":2360:2412   */\n      tag_86\n      jump\t// in\n    tag_112:\n        /* \"#utility.yul\":2350:2412   */\n      swap2\n      pop\n        /* \"#utility.yul\":2306:2422   */\n      pop\n        /* \"#utility.yul\":2102:2429   */\n      swap3\n      swap2\n      pop\n      pop\n      jump\t// out\n        /* \"#utility.yul\":2435:2550   */\n    tag_113:\n        /* \"#utility.yul\":2520:2543   */\n      tag_115\n        /* \"#utility.yul\":2537:2542   */\n      dup2\n        /* \"#utility.yul\":2520:2543   */\n      tag_116\n      jump\t// in\n    tag_115:\n        /* \"#utility.yul\":2515:2518   */\n      dup3\n        /* \"#utility.yul\":2508:2544   */\n      mstore\n        /* \"#utility.yul\":2435:2550   */\n      pop\n      pop\n      jump\t// out\n        /* \"#utility.yul\":2556:2774   */\n    tag_11:\n        /* \"#utility.yul\":2647:2651   */\n      0x00\n        /* \"#utility.yul\":2685:2687   */\n      0x20\n        /* \"#utility.yul\":2674:2683   */\n      dup3\n        /* \"#utility.yul\":2670:2688   */\n      add\n        /* \"#utility.yul\":2662:2688   */\n      swap1\n      pop\n        /* \"#utility.yul\":2698:2767   */\n      tag_118\n        /* \"#utility.yul\":2764:2765   */\n      0x00\n        /* \"#utility.yul\":2753:2762   */\n      dup4\n        /* \"#utility.yul\":2749:2766   */\n      add\n        /* \"#utility.yul\":2740:2746   */\n      dup5\n        /* \"#utility.yul\":2698:2767   */\n      tag_113\n      jump\t// in\n    tag_118:\n        /* \"#utility.yul\":2556:2774   */\n      swap3\n      swap2\n      pop\n      pop\n      jump\t// out\n        /* \"#utility.yul\":2780:2909   */\n    tag_78:\n        /* \"#utility.yul\":2814:2820   */\n      0x00\n        /* \"#utility.yul\":2841:2861   */\n      tag_120\n      tag_121\n      jump\t// in\n    tag_120:\n        /* \"#utility.yul\":2831:2861   */\n      swap1\n      pop\n        /* \"#utility.yul\":2870:2903   */\n      tag_122\n        /* \"#utility.yul\":2898:2902   */\n      dup3\n        /* \"#utility.yul\":2890:2896   */\n      dup3\n        /* \"#utility.yul\":2870:2903   */\n      tag_123\n      jump\t// in\n    tag_122:\n        /* \"#utility.yul\":2780:2909   */\n      swap2\n      swap1\n      pop\n      jump\t// out\n        /* \"#utility.yul\":2915:2990   */\n    tag_121:\n        /* \"#utility.yul\":2948:2954   */\n      0x00\n        /* \"#utility.yul\":2981:2983   */\n      0x40\n        /* \"#utility.yul\":2975:2984   */\n      mload\n        /* \"#utility.yul\":2965:2984   */\n      swap1\n      pop\n        /* \"#utility.yul\":2915:2990   */\n      swap1\n      jump\t// out\n        /* \"#utility.yul\":2996:3306   */\n    tag_77:\n        /* \"#utility.yul\":3072:3076   */\n      0x00\n        /* \"#utility.yul\":3162:3180   */\n      0xffffffffffffffff\n        /* \"#utility.yul\":3154:3160   */\n      dup3\n        /* \"#utility.yul\":3151:3181   */\n      gt\n        /* \"#utility.yul\":3148:3204   */\n      iszero\n      tag_126\n      jumpi\n        /* \"#utility.yul\":3184:3202   */\n      tag_127\n      tag_128\n      jump\t// in\n    tag_127:\n        /* \"#utility.yul\":3148:3204   */\n    tag_126:\n        /* \"#utility.yul\":3234:3238   */\n      0x20\n        /* \"#utility.yul\":3226:3232   */\n      dup3\n        /* \"#utility.yul\":3222:3239   */\n      mul\n        /* \"#utility.yul\":3214:3239   */\n      swap1\n      pop\n        /* \"#utility.yul\":3294:3298   */\n      0x20\n        /* \"#utility.yul\":3288:3292   */\n      dup2\n        /* \"#utility.yul\":3284:3299   */\n      add\n        /* \"#utility.yul\":3276:3299   */\n      swap1\n      pop\n        /* \"#utility.yul\":2996:3306   */\n      swap2\n      swap1\n      pop\n      jump\t// out\n        /* \"#utility.yul\":3312:3837   */\n    tag_38:\n        /* \"#utility.yul\":3351:3354   */\n      0x00\n        /* \"#utility.yul\":3370:3389   */\n      tag_130\n        /* \"#utility.yul\":3387:3388   */\n      dup3\n        /* \"#utility.yul\":3370:3389   */\n      tag_116\n      jump\t// in\n    tag_130:\n        /* \"#utility.yul\":3365:3389   */\n      swap2\n      pop\n        /* \"#utility.yul\":3403:3422   */\n      tag_131\n        /* \"#utility.yul\":3420:3421   */\n      dup4\n        /* \"#utility.yul\":3403:3422   */\n      tag_116\n      jump\t// in\n    tag_131:\n        /* \"#utility.yul\":3398:3422   */\n      swap3\n      pop\n        /* \"#utility.yul\":3591:3592   */\n      dup2\n        /* \"#utility.yul\":3523:3589   */\n      0x7fffffffffffffffffffffffffffffffffffffffffffffffffffffffffffffff\n        /* \"#utility.yul\":3519:3593   */\n      sub\n        /* \"#utility.yul\":3516:3517   */\n      dup4\n        /* \"#utility.yul\":3512:3594   */\n      sgt\n        /* \"#utility.yul\":3507:3508   */\n      0x00\n        /* \"#utility.yul\":3504:3505   */\n      dup4\n        /* \"#utility.yul\":3500:3509   */\n      slt\n        /* \"#utility.yul\":3493:3510   */\n      iszero\n        /* \"#utility.yul\":3489:3595   */\n      and\n        /* \"#utility.yul\":3486:3618   */\n      iszero\n      tag_132\n      jumpi\n        /* \"#utility.yul\":3598:3616   */\n      tag_133\n      tag_134\n      jump\t// in\n    tag_133:\n        /* \"#utility.yul\":3486:3618   */\n    tag_132:\n        /* \"#utility.yul\":3778:3779   */\n      dup2\n        /* \"#utility.yul\":3710:3776   */\n      0x8000000000000000000000000000000000000000000000000000000000000000\n        /* \"#utility.yul\":3706:3780   */\n      sub\n        /* \"#utility.yul\":3703:3704   */\n      dup4\n        /* \"#utility.yul\":3699:3781   */\n      slt\n        /* \"#utility.yul\":3695:3696   */\n      0x00\n        /* \"#utility.yul\":3692:3693   */\n      dup4\n        /* \"#utility.yul\":3688:3697   */\n      slt\n        /* \"#utility.yul\":3684:3782   */\n      and\n        /* \"#utility.yul\":3681:3805   */\n      iszero\n      tag_135\n      jumpi\n        /* \"#utility.yul\":3785:3803   */\n      tag_136\n      tag_134\n      jump\t// in\n    tag_136:\n        /* \"#utility.yul\":3681:3805   */\n    tag_135:\n        /* \"#utility.yul\":3829:3830   */\n      dup3\n        /* \"#utility.yul\":3826:3827   */\n      dup3\n        /* \"#utility.yul\":3822:3831   */\n      add\n        /* \"#utility.yul\":3815:3831   */\n      swap1\n      pop\n        /* \"#utility.yul\":3312:3837   */\n      swap3\n      swap2\n      pop\n      pop\n      jump\t// out\n        /* \"#utility.yul\":3843:4228   */\n    tag_30:\n        /* \"#utility.yul\":3882:3883   */\n      0x00\n        /* \"#utility.yul\":3899:3918   */\n      tag_138\n        /* \"#utility.yul\":3916:3917   */\n      dup3\n        /* \"#utility.yul\":3899:3918   */\n      tag_116\n      jump\t// in\n    tag_138:\n        /* \"#utility.yul\":3894:3918   */\n      swap2\n      pop\n        /* \"#utility.yul\":3932:3951   */\n      tag_139\n        /* \"#utility.yul\":3949:3950   */\n      dup4\n        /* \"#utility.yul\":3932:3951   */\n      tag_116\n      jump\t// in\n    tag_139:\n        /* \"#utility.yul\":3927:3951   */\n      swap3\n      pop\n        /* \"#utility.yul\":3970:3971   */\n      dup3\n        /* \"#utility.yul\":3960:3995   */\n      tag_140\n      jumpi\n        /* \"#utility.yul\":3975:3993   */\n      tag_141\n      tag_142\n      jump\t// in\n    tag_141:\n        /* \"#utility.yul\":3960:3995   */\n    tag_140:\n        /* \"#utility.yul\":4161:4162   */\n      0x01\n        /* \"#utility.yul\":4158:4159   */\n      0x00\n        /* \"#utility.yul\":4154:4163   */\n      sub\n        /* \"#utility.yul\":4151:4152   */\n      dup4\n        /* \"#utility.yul\":4148:4164   */\n      eq\n        /* \"#utility.yul\":4067:4133   */\n      0x8000000000000000000000000000000000000000000000000000000000000000\n        /* \"#utility.yul\":4064:4065   */\n      dup4\n        /* \"#utility.yul\":4061:4134   */\n      eq\n        /* \"#utility.yul\":4044:4174   */\n      and\n        /* \"#utility.yul\":4041:4197   */\n      iszero\n      tag_143\n      jumpi\n        /* \"#utility.yul\":4177:4195   */\n      tag_144\n      tag_134\n      jump\t// in\n    tag_144:\n        /* \"#utility.yul\":4041:4197   */\n    tag_143:\n        /* \"#utility.yul\":4220:4221   */\n      dup3\n        /* \"#utility.yul\":4217:4218   */\n      dup3\n        /* \"#utility.yul\":4212:4222   */\n      sdiv\n        /* \"#utility.yul\":4207:4222   */\n      swap1\n      pop\n        /* \"#utility.yul\":3843:4228   */\n      swap3\n      swap2\n      pop\n      pop\n      jump\t// out\n        /* \"#utility.yul\":4234:5225   */\n    tag_34:\n        /* \"#utility.yul\":4273:4280   */\n      0x00\n        /* \"#utility.yul\":4296:4315   */\n      tag_146\n        /* \"#utility.yul\":4313:4314   */\n      dup3\n        /* \"#utility.yul\":4296:4315   */\n      tag_116\n      jump\t// in\n    tag_146:\n        /* \"#utility.yul\":4291:4315   */\n      swap2\n      pop\n        /* \"#utility.yul\":4329:4348   */\n      tag_147\n        /* \"#utility.yul\":4346:4347   */\n      dup4\n        /* \"#utility.yul\":4329:4348   */\n      tag_116\n      jump\t// in\n    tag_147:\n        /* \"#utility.yul\":4324:4348   */\n      swap3\n      pop\n        /* \"#utility.yul\":4530:4531   */\n      dup3\n        /* \"#utility.yul\":4462:4528   */\n      0x7fffffffffffffffffffffffffffffffffffffffffffffffffffffffffffffff\n        /* \"#utility.yul\":4458:4532   */\n      div\n        /* \"#utility.yul\":4455:4456   */\n      dup3\n        /* \"#utility.yul\":4452:4533   */\n      gt\n        /* \"#utility.yul\":4447:4448   */\n      0x00\n        /* \"#utility.yul\":4444:4445   */\n      dup5\n        /* \"#utility.yul\":4440:4449   */\n      sgt\n        /* \"#utility.yul\":4436:4437   */\n      0x00\n        /* \"#utility.yul\":4433:4434   */\n      dup5\n        /* \"#utility.yul\":4429:4438   */\n      sgt\n        /* \"#utility.yul\":4425:4450   */\n      and\n        /* \"#utility.yul\":4421:4534   */\n      and\n        /* \"#utility.yul\":4418:4557   */\n      iszero\n      tag_148\n      jumpi\n        /* \"#utility.yul\":4537:4555   */\n      tag_149\n      tag_134\n      jump\t// in\n    tag_149:\n        /* \"#utility.yul\":4418:4557   */\n    tag_148:\n        /* \"#utility.yul\":4741:4742   */\n      dup2\n        /* \"#utility.yul\":4673:4739   */\n      0x8000000000000000000000000000000000000000000000000000000000000000\n        /* \"#utility.yul\":4668:4743   */\n      sdiv\n        /* \"#utility.yul\":4665:4666   */\n      dup4\n        /* \"#utility.yul\":4661:4744   */\n      slt\n        /* \"#utility.yul\":4656:4657   */\n      0x00\n        /* \"#utility.yul\":4653:4654   */\n      dup5\n        /* \"#utility.yul\":4649:4658   */\n      slt\n        /* \"#utility.yul\":4645:4646   */\n      0x00\n        /* \"#utility.yul\":4642:4643   */\n      dup5\n        /* \"#utility.yul\":4638:4647   */\n      sgt\n        /* \"#utility.yul\":4634:4659   */\n      and\n        /* \"#utility.yul\":4630:4745   */\n      and\n        /* \"#utility.yul\":4627:4768   */\n      iszero\n      tag_150\n      jumpi\n        /* \"#utility.yul\":4748:4766   */\n      tag_151\n      tag_134\n      jump\t// in\n    tag_151:\n        /* \"#utility.yul\":4627:4768   */\n    tag_150:\n        /* \"#utility.yul\":4952:4953   */\n      dup3\n        /* \"#utility.yul\":4884:4950   */\n      0x8000000000000000000000000000000000000000000000000000000000000000\n        /* \"#utility.yul\":4879:4954   */\n      sdiv\n        /* \"#utility.yul\":4876:4877   */\n      dup3\n        /* \"#utility.yul\":4872:4955   */\n      slt\n        /* \"#utility.yul\":4867:4868   */\n      0x00\n        /* \"#utility.yul\":4864:4865   */\n      dup5\n        /* \"#utility.yul\":4860:4869   */\n      sgt\n        /* \"#utility.yul\":4856:4857   */\n      0x00\n        /* \"#utility.yul\":4853:4854   */\n      dup5\n        /* \"#utility.yul\":4849:4858   */\n      slt\n        /* \"#utility.yul\":4845:4870   */\n      and\n        /* \"#utility.yul\":4841:4956   */\n      and\n        /* \"#utility.yul\":4838:4979   */\n      iszero\n      tag_152\n      jumpi\n        /* \"#utility.yul\":4959:4977   */\n      tag_153\n      tag_134\n      jump\t// in\n    tag_153:\n        /* \"#utility.yul\":4838:4979   */\n    tag_152:\n        /* \"#utility.yul\":5162:5163   */\n      dup3\n        /* \"#utility.yul\":5094:5160   */\n      0x7fffffffffffffffffffffffffffffffffffffffffffffffffffffffffffffff\n        /* \"#utility.yul\":5089:5164   */\n      sdiv\n        /* \"#utility.yul\":5086:5087   */\n      dup3\n        /* \"#utility.yul\":5082:5165   */\n      slt\n        /* \"#utility.yul\":5077:5078   */\n      0x00\n        /* \"#utility.yul\":5074:5075   */\n      dup5\n        /* \"#utility.yul\":5070:5079   */\n      slt\n        /* \"#utility.yul\":5066:5067   */\n      0x00\n        /* \"#utility.yul\":5063:5064   */\n      dup5\n        /* \"#utility.yul\":5059:5068   */\n      slt\n        /* \"#utility.yul\":5055:5080   */\n      and\n        /* \"#utility.yul\":5051:5166   */\n      and\n        /* \"#utility.yul\":5048:5189   */\n      iszero\n      tag_154\n      jumpi\n        /* \"#utility.yul\":5169:5187   */\n      tag_155\n      tag_134\n      jump\t// in\n    tag_155:\n        /* \"#utility.yul\":5048:5189   */\n    tag_154:\n        /* \"#utility.yul\":5217:5218   */\n      dup3\n        /* \"#utility.yul\":5214:5215   */\n      dup3\n        /* \"#utility.yul\":5210:5219   */\n      mul\n        /* \"#utility.yul\":5199:5219   */\n      swap1\n      pop\n        /* \"#utility.yul\":4234:5225   */\n      swap3\n      swap2\n      pop\n      pop\n      jump\t// out\n        /* \"#utility.yul\":5231:5758   */\n    tag_32:\n        /* \"#utility.yul\":5270:5274   */\n      0x00\n        /* \"#utility.yul\":5290:5309   */\n      tag_157\n        /* \"#utility.yul\":5307:5308   */\n      dup3\n        /* \"#utility.yul\":5290:5309   */\n      tag_116\n      jump\t// in\n    tag_157:\n        /* \"#utility.yul\":5285:5309   */\n      swap2\n      pop\n        /* \"#utility.yul\":5323:5342   */\n      tag_158\n        /* \"#utility.yul\":5340:5341   */\n      dup4\n        /* \"#utility.yul\":5323:5342   */\n      tag_116\n      jump\t// in\n    tag_158:\n        /* \"#utility.yul\":5318:5342   */\n      swap3\n      pop\n        /* \"#utility.yul\":5512:5513   */\n      dup3\n        /* \"#utility.yul\":5444:5510   */\n      0x8000000000000000000000000000000000000000000000000000000000000000\n        /* \"#utility.yul\":5440:5514   */\n      add\n        /* \"#utility.yul\":5437:5438   */\n      dup3\n        /* \"#utility.yul\":5433:5515   */\n      slt\n        /* \"#utility.yul\":5428:5429   */\n      0x00\n        /* \"#utility.yul\":5425:5426   */\n      dup5\n        /* \"#utility.yul\":5421:5430   */\n      slt\n        /* \"#utility.yul\":5414:5431   */\n      iszero\n        /* \"#utility.yul\":5410:5516   */\n      and\n        /* \"#utility.yul\":5407:5539   */\n      iszero\n      tag_159\n      jumpi\n        /* \"#utility.yul\":5519:5537   */\n      tag_160\n      tag_134\n      jump\t// in\n    tag_160:\n        /* \"#utility.yul\":5407:5539   */\n    tag_159:\n        /* \"#utility.yul\":5698:5699   */\n      dup3\n        /* \"#utility.yul\":5630:5696   */\n      0x7fffffffffffffffffffffffffffffffffffffffffffffffffffffffffffffff\n        /* \"#utility.yul\":5626:5700   */\n      add\n        /* \"#utility.yul\":5623:5624   */\n      dup3\n        /* \"#utility.yul\":5619:5701   */\n      sgt\n        /* \"#utility.yul\":5615:5616   */\n      0x00\n        /* \"#utility.yul\":5612:5613   */\n      dup5\n        /* \"#utility.yul\":5608:5617   */\n      slt\n        /* \"#utility.yul\":5604:5702   */\n      and\n        /* \"#utility.yul\":5601:5725   */\n      iszero\n      tag_161\n      jumpi\n        /* \"#utility.yul\":5705:5723   */\n      tag_162\n      tag_134\n      jump\t// in\n    tag_162:\n        /* \"#utility.yul\":5601:5725   */\n    tag_161:\n        /* \"#utility.yul\":5750:5751   */\n      dup3\n        /* \"#utility.yul\":5747:5748   */\n      dup3\n        /* \"#utility.yul\":5743:5752   */\n      sub\n        /* \"#utility.yul\":5735:5752   */\n      swap1\n      pop\n        /* \"#utility.yul\":5231:5758   */\n      swap3\n      swap2\n      pop\n      pop\n      jump\t// out\n        /* \"#utility.yul\":5764:5854   */\n    tag_163:\n        /* \"#utility.yul\":5798:5805   */\n      0x00\n        /* \"#utility.yul\":5841:5846   */\n      dup2\n        /* \"#utility.yul\":5834:5847   */\n      iszero\n        /* \"#utility.yul\":5827:5848   */\n      iszero\n        /* \"#utility.yul\":5816:5848   */\n      swap1\n      pop\n        /* \"#utility.yul\":5764:5854   */\n      swap2\n      swap1\n      pop\n      jump\t// out\n        /* \"#utility.yul\":5860:5936   */\n    tag_116:\n        /* \"#utility.yul\":5896:5903   */\n      0x00\n        /* \"#utility.yul\":5925:5930   */\n      dup2\n        /* \"#utility.yul\":5914:5930   */\n      swap1\n      pop\n        /* \"#utility.yul\":5860:5936   */\n      swap2\n      swap1\n      pop\n      jump\t// out\n        /* \"#utility.yul\":5942:6019   */\n    tag_166:\n        /* \"#utility.yul\":5979:5986   */\n      0x00\n        /* \"#utility.yul\":6008:6013   */\n      dup2\n        /* \"#utility.yul\":5997:6013   */\n      swap1\n      pop\n        /* \"#utility.yul\":5942:6019   */\n      swap2\n      swap1\n      pop\n      jump\t// out\n        /* \"#utility.yul\":6025:6306   */\n    tag_123:\n        /* \"#utility.yul\":6108:6135   */\n      tag_169\n        /* \"#utility.yul\":6130:6134   */\n      dup3\n        /* \"#utility.yul\":6108:6135   */\n      tag_170\n      jump\t// in\n    tag_169:\n        /* \"#utility.yul\":6100:6106   */\n      dup2\n        /* \"#utility.yul\":6096:6136   */\n      add\n        /* \"#utility.yul\":6238:6244   */\n      dup2\n        /* \"#utility.yul\":6226:6236   */\n      dup2\n        /* \"#utility.yul\":6223:6245   */\n      lt\n        /* \"#utility.yul\":6202:6220   */\n      0xffffffffffffffff\n        /* \"#utility.yul\":6190:6200   */\n      dup3\n        /* \"#utility.yul\":6187:6221   */\n      gt\n        /* \"#utility.yul\":6184:6246   */\n      or\n        /* \"#utility.yul\":6181:6269   */\n      iszero\n      tag_171\n      jumpi\n        /* \"#utility.yul\":6249:6267   */\n      tag_172\n      tag_128\n      jump\t// in\n    tag_172:\n        /* \"#utility.yul\":6181:6269   */\n    tag_171:\n        /* \"#utility.yul\":6289:6299   */\n      dup1\n        /* \"#utility.yul\":6285:6287   */\n      0x40\n        /* \"#utility.yul\":6278:6300   */\n      mstore\n        /* \"#utility.yul\":6068:6306   */\n      pop\n        /* \"#utility.yul\":6025:6306   */\n      pop\n      pop\n      jump\t// out\n        /* \"#utility.yul\":6312:6545   */\n    tag_50:\n        /* \"#utility.yul\":6351:6354   */\n      0x00\n        /* \"#utility.yul\":6374:6398   */\n      tag_174\n        /* \"#utility.yul\":6392:6397   */\n      dup3\n        /* \"#utility.yul\":6374:6398   */\n      tag_166\n      jump\t// in\n    tag_174:\n        /* \"#utility.yul\":6365:6398   */\n      swap2\n      pop\n        /* \"#utility.yul\":6420:6486   */\n      0xffffffffffffffffffffffffffffffffffffffffffffffffffffffffffffffff\n        /* \"#utility.yul\":6413:6418   */\n      dup3\n        /* \"#utility.yul\":6410:6487   */\n      eq\n        /* \"#utility.yul\":6407:6510   */\n      iszero\n      tag_175\n      jumpi\n        /* \"#utility.yul\":6490:6508   */\n      tag_176\n      tag_134\n      jump\t// in\n    tag_176:\n        /* \"#utility.yul\":6407:6510   */\n    tag_175:\n        /* \"#utility.yul\":6537:6538   */\n      0x01\n        /* \"#utility.yul\":6530:6535   */\n      dup3\n        /* \"#utility.yul\":6526:6539   */\n      add\n        /* \"#utility.yul\":6519:6539   */\n      swap1\n      pop\n        /* \"#utility.yul\":6312:6545   */\n      swap2\n      swap1\n      pop\n      jump\t// out\n        /* \"#utility.yul\":6551:6725   */\n    tag_25:\n        /* \"#utility.yul\":6582:6583   */\n      0x00\n        /* \"#utility.yul\":6599:6618   */\n      tag_178\n        /* \"#utility.yul\":6616:6617   */\n      dup3\n        /* \"#utility.yul\":6599:6618   */\n      tag_116\n      jump\t// in\n    tag_178:\n        /* \"#utility.yul\":6594:6618   */\n      swap2\n      pop\n        /* \"#utility.yul\":6632:6651   */\n      tag_179\n        /* \"#utility.yul\":6649:6650   */\n      dup4\n        /* \"#utility.yul\":6632:6651   */\n      tag_116\n      jump\t// in\n    tag_179:\n        /* \"#utility.yul\":6627:6651   */\n      swap3\n      pop\n        /* \"#utility.yul\":6670:6671   */\n      dup3\n        /* \"#utility.yul\":6660:6695   */\n      tag_180\n      jumpi\n        /* \"#utility.yul\":6675:6693   */\n      tag_181\n      tag_142\n      jump\t// in\n    tag_181:\n        /* \"#utility.yul\":6660:6695   */\n    tag_180:\n        /* \"#utility.yul\":6717:6718   */\n      dup3\n        /* \"#utility.yul\":6714:6715   */\n      dup3\n        /* \"#utility.yul\":6709:6719   */\n      smod\n        /* \"#utility.yul\":6704:6719   */\n      swap1\n      pop\n        /* \"#utility.yul\":6551:6725   */\n      swap3\n      swap2\n      pop\n      pop\n      jump\t// out\n        /* \"#utility.yul\":6731:6911   */\n    tag_134:\n        /* \"#utility.yul\":6779:6856   */\n      0x4e487b7100000000000000000000000000000000000000000000000000000000\n        /* \"#utility.yul\":6776:6777   */\n      0x00\n        /* \"#utility.yul\":6769:6857   */\n      mstore\n        /* \"#utility.yul\":6876:6880   */\n      0x11\n        /* \"#utility.yul\":6873:6874   */\n      0x04\n        /* \"#utility.yul\":6866:6881   */\n      mstore\n        /* \"#utility.yul\":6900:6904   */\n      0x24\n        /* \"#utility.yul\":6897:6898   */\n      0x00\n        /* \"#utility.yul\":6890:6905   */\n      revert\n        /* \"#utility.yul\":6917:7097   */\n    tag_142:\n        /* \"#utility.yul\":6965:7042   */\n      0x4e487b7100000000000000000000000000000000000000000000000000000000\n        /* \"#utility.yul\":6962:6963   */\n      0x00\n        /* \"#utility.yul\":6955:7043   */\n      mstore\n        /* \"#utility.yul\":7062:7066   */\n      0x12\n        /* \"#utility.yul\":7059:7060   */\n      0x04\n        /* \"#utility.yul\":7052:7067   */\n      mstore\n        /* \"#utility.yul\":7086:7090   */\n      0x24\n        /* \"#utility.yul\":7083:7084   */\n      0x00\n        /* \"#utility.yul\":7076:7091   */\n      revert\n        /* \"#utility.yul\":7103:7283   */\n    tag_47:\n        /* \"#utility.yul\":7151:7228   */\n      0x4e487b7100000000000000000000000000000000000000000000000000000000\n        /* \"#utility.yul\":7148:7149   */\n      0x00\n        /* \"#utility.yul\":7141:7229   */\n      mstore\n        /* \"#utility.yul\":7248:7252   */\n      0x32\n        /* \"#utility.yul\":7245:7246   */\n      0x04\n        /* \"#utility.yul\":7238:7253   */\n      mstore\n        /* \"#utility.yul\":7272:7276   */\n      0x24\n        /* \"#utility.yul\":7269:7270   */\n      0x00\n        /* \"#utility.yul\":7262:7277   */\n      revert\n        /* \"#utility.yul\":7289:7469   */\n    tag_128:\n        /* \"#utility.yul\":7337:7414   */\n      0x4e487b7100000000000000000000000000000000000000000000000000000000\n        /* \"#utility.yul\":7334:7335   */\n      0x00\n        /* \"#utility.yul\":7327:7415   */\n      mstore\n        /* \"#utility.yul\":7434:7438   */\n      0x41\n        /* \"#utility.yul\":7431:7432   */\n      0x04\n        /* \"#utility.yul\":7424:7439   */\n      mstore\n        /* \"#utility.yul\":7458:7462   */\n      0x24\n        /* \"#utility.yul\":7455:7456   */\n      0x00\n        /* \"#utility.yul\":7448:7463   */\n      revert\n        /* \"#utility.yul\":7475:7592   */\n    tag_91:\n        /* \"#utility.yul\":7584:7585   */\n      0x00\n        /* \"#utility.yul\":7581:7582   */\n      dup1\n        /* \"#utility.yul\":7574:7586   */\n      revert\n        /* \"#utility.yul\":7598:7715   */\n    tag_81:\n        /* \"#utility.yul\":7707:7708   */\n      0x00\n        /* \"#utility.yul\":7704:7705   */\n      dup1\n        /* \"#utility.yul\":7697:7709   */\n      revert\n        /* \"#utility.yul\":7721:7838   */\n    tag_106:\n        /* \"#utility.yul\":7830:7831   */\n      0x00\n        /* \"#utility.yul\":7827:7828   */\n      dup1\n        /* \"#utility.yul\":7820:7832   */\n      revert\n        /* \"#utility.yul\":7844:7961   */\n    tag_103:\n        /* \"#utility.yul\":7953:7954   */\n      0x00\n        /* \"#utility.yul\":7950:7951   */\n      dup1\n        /* \"#utility.yul\":7943:7955   */\n      revert\n        /* \"#utility.yul\":7967:8069   */\n    tag_170:\n        /* \"#utility.yul\":8008:8014   */\n      0x00\n        /* \"#utility.yul\":8059:8061   */\n      0x1f\n        /* \"#utility.yul\":8055:8062   */\n      not\n        /* \"#utility.yul\":8050:8052   */\n      0x1f\n        /* \"#utility.yul\":8043:8048   */\n      dup4\n        /* \"#utility.yul\":8039:8053   */\n      add\n        /* \"#utility.yul\":8035:8063   */\n      and\n        /* \"#utility.yul\":8025:8063   */\n      swap1\n      pop\n        /* \"#utility.yul\":7967:8069   */\n      swap2\n      swap1\n      pop\n      jump\t// out\n        /* \"#utility.yul\":8075:8191   */\n    tag_96:\n        /* \"#utility.yul\":8145:8166   */\n      tag_192\n        /* \"#utility.yul\":8160:8165   */\n      dup2\n        /* \"#utility.yul\":8145:8166   */\n      tag_163\n      jump\t// in\n    tag_192:\n        /* \"#utility.yul\":8138:8143   */\n      dup2\n        /* \"#utility.yul\":8135:8167   */\n      eq\n        /* \"#utility.yul\":8125:8185   */\n      tag_193\n      jumpi\n        /* \"#utility.yul\":8181:8182   */\n      0x00\n        /* \"#utility.yul\":8178:8179   */\n      dup1\n        /* \"#utility.yul\":8171:8183   */\n      revert\n        /* \"#utility.yul\":8125:8185   */\n    tag_193:\n        /* \"#utility.yul\":8075:8191   */\n      pop\n      jump\t// out\n        /* \"#utility.yul\":8197:8317   */\n    tag_99:\n        /* \"#utility.yul\":8269:8292   */\n      tag_195\n        /* \"#utility.yul\":8286:8291   */\n      dup2\n        /* \"#utility.yul\":8269:8292   */\n      tag_116\n      jump\t// in\n    tag_195:\n        /* \"#utility.yul\":8262:8267   */\n      dup2\n        /* \"#utility.yul\":8259:8293   */\n      eq\n        /* \"#utility.yul\":8249:8311   */\n      tag_196\n      jumpi\n        /* \"#utility.yul\":8307:8308   */\n      0x00\n        /* \"#utility.yul\":8304:8305   */\n      dup1\n        /* \"#utility.yul\":8297:8309   */\n      revert\n        /* \"#utility.yul\":8249:8311   */\n    tag_196:\n        /* \"#utility.yul\":8197:8317   */\n      pop\n      jump\t// out\n\n    auxdata: 0xa2646970667358221220a495a8b69c96780316647995255143dccbe5da36cd83df00244a5ae7c0498cdc64736f6c63430008070033\n}\n",
				"bytecode": {
					"linkReferences": {},
					"object": "608060405234801561001057600080fd5b50610958806100206000396000f3fe608060405234801561001057600080fd5b50600436106100415760003560e01c806342fba7ae14610046578063a0447e5514610076578063da3ff648146100a6575b600080fd5b610060600480360381019061005b91906103f7565b6100d6565b60405161006d9190610433565b60405180910390f35b610090600480360381019061008b919061039b565b610174565b60405161009d9190610433565b60405180910390f35b6100c060048036038101906100bb91906103f7565b6102ac565b6040516100cd9190610433565b60405180910390f35b60008060008314156100ec57600091505061016f565b6000600a846100fb91906107e2565b141561010a578291505061016f565b6000831215610143576001600a846101229190610533565b61012c91906106b4565b9050600a8161013b919061059d565b91505061016f565b6001600a846101529190610533565b61015c919061049f565b9050600a8161016b919061059d565b9150505b919050565b6000806000905060008451141561018f5760009150506102a6565b60005b84518110156101d6578481815181106101ae576101ad610871565b5b6020026020010151826101c1919061049f565b915080806101ce90610799565b915050610192565b508351816101e49190610533565b905060008114156101f95760009150506102a6565b6000600a8261020891906107e2565b141561021757809150506102a6565b821561024157600a8161022a9190610533565b9050600a81610239919061059d565b9150506102a6565b600081121561027a576001600a826102599190610533565b61026391906106b4565b9050600a81610272919061059d565b9150506102a6565b6001600a826102899190610533565b610293919061049f565b9050600a816102a2919061059d565b9150505b92915050565b600080600a836102bc9190610533565b9050600a816102cb919061059d565b915050919050565b60006102e66102e184610473565b61044e565b90508083825260208201905082856020860282011115610309576103086108d4565b5b60005b85811015610339578161031f8882610386565b84526020840193506020830192505060018101905061030c565b5050509392505050565b600082601f830112610358576103576108cf565b5b81356103688482602086016102d3565b91505092915050565b600081359050610380816108f4565b92915050565b6000813590506103958161090b565b92915050565b600080604083850312156103b2576103b16108de565b5b600083013567ffffffffffffffff8111156103d0576103cf6108d9565b5b6103dc85828601610343565b92505060206103ed85828601610371565b9150509250929050565b60006020828403121561040d5761040c6108de565b5b600061041b84828501610386565b91505092915050565b61042d81610754565b82525050565b60006020820190506104486000830184610424565b92915050565b6000610458610469565b90506104648282610768565b919050565b6000604051905090565b600067ffffffffffffffff82111561048e5761048d6108a0565b5b602082029050602081019050919050565b60006104aa82610754565b91506104b583610754565b9250817f7fffffffffffffffffffffffffffffffffffffffffffffffffffffffffffffff038313600083121516156104f0576104ef610813565b5b817f800000000000000000000000000000000000000000000000000000000000000003831260008312161561052857610527610813565b5b828201905092915050565b600061053e82610754565b915061054983610754565b92508261055957610558610842565b5b600160000383147f80000000000000000000000000000000000000000000000000000000000000008314161561059257610591610813565b5b828205905092915050565b60006105a882610754565b91506105b383610754565b9250827f7fffffffffffffffffffffffffffffffffffffffffffffffffffffffffffffff04821160008413600084131616156105f2576105f1610813565b5b817f8000000000000000000000000000000000000000000000000000000000000000058312600084126000841316161561062f5761062e610813565b5b827f8000000000000000000000000000000000000000000000000000000000000000058212600084136000841216161561066c5761066b610813565b5b827f7fffffffffffffffffffffffffffffffffffffffffffffffffffffffffffffff05821260008412600084121616156106a9576106a8610813565b5b828202905092915050565b60006106bf82610754565b91506106ca83610754565b9250827f80000000000000000000000000000000000000000000000000000000000000000182126000841215161561070557610704610813565b5b827f7fffffffffffffffffffffffffffffffffffffffffffffffffffffffffffffff01821360008412161561073d5761073c610813565b5b828203905092915050565b60008115159050919050565b6000819050919050565b6000819050919050565b610771826108e3565b810181811067ffffffffffffffff821117156107905761078f6108a0565b5b80604052505050565b60006107a48261075e565b91507fffffffffffffffffffffffffffffffffffffffffffffffffffffffffffffffff8214156107d7576107d6610813565b5b600182019050919050565b60006107ed82610754565b91506107f883610754565b92508261080857610807610842565b5b828207905092915050565b7f4e487b7100000000000000000000000000000000000000000000000000000000600052601160045260246000fd5b7f4e487b7100000000000000000000000000000000000000000000000000000000600052601260045260246000fd5b7f4e487b7100000000000000000000000000000000000000000000000000000000600052603260045260246000fd5b7f4e487b7100000000000000000000000000000000000000000000000000000000600052604160045260246000fd5b600080fd5b600080fd5b600080fd5b600080fd5b6000601f19601f8301169050919050565b6108fd81610748565b811461090857600080fd5b50565b61091481610754565b811461091f57600080fd5b5056fea2646970667358221220a495a8b69c96780316647995255143dccbe5da36cd83df00244a5ae7c0498cdc64736f6c63430008070033",
					"opcodes": "PUSH1 0x80 PUSH1 0x40 MSTORE CALLVALUE DUP1 ISZERO PUSH2 0x10 JUMPI PUSH1 0x0 DUP1 REVERT JUMPDEST POP PUSH2 0x958 DUP1 PUSH2 0x20 PUSH1 0x0 CODECOPY PUSH1 0x0 RETURN INVALID PUSH1 0x80 PUSH1 0x40 MSTORE CALLVALUE DUP1 ISZERO PUSH2 0x10 JUMPI PUSH1 0x0 DUP1 REVERT JUMPDEST POP PUSH1 0x4 CALLDATASIZE LT PUSH2 0x41 JUMPI PUSH1 0x0 CALLDATALOAD PUSH1 0xE0 SHR DUP1 PUSH4 0x42FBA7AE EQ PUSH2 0x46 JUMPI DUP1 PUSH4 0xA0447E55 EQ PUSH2 0x76 JUMPI DUP1 PUSH4 0xDA3FF648 EQ PUSH2 0xA6 JUMPI JUMPDEST PUSH1 0x0 DUP1 REVERT JUMPDEST PUSH2 0x60 PUSH1 0x4 DUP1 CALLDATASIZE SUB DUP2 ADD SWAP1 PUSH2 0x5B SWAP2 SWAP1 PUSH2 0x3F7 JUMP JUMPDEST PUSH2 0xD6 JUMP JUMPDEST PUSH1 0x40 MLOAD PUSH2 0x6D SWAP2 SWAP1 PUSH2 0x433 JUMP JUMPDEST PUSH1 0x40 MLOAD DUP1 SWAP2 SUB SWAP1 RETURN JUMPDEST PUSH2 0x90 PUSH1 0x4 DUP1 CALLDATASIZE SUB DUP2 ADD SWAP1 PUSH2 0x8B SWAP2 SWAP1 PUSH2 0x39B JUMP JUMPDEST PUSH2 0x174 JUMP JUMPDEST PUSH1 0x40 MLOAD PUSH2 0x9D SWAP2 SWAP1 PUSH2 0x433 JUMP JUMPDEST PUSH1 0x40 MLOAD DUP1 SWAP2 SUB SWAP1 RETURN JUMPDEST PUSH2 0xC0 PUSH1 0x4 DUP1 CALLDATASIZE SUB DUP2 ADD SWAP1 PUSH2 0xBB SWAP2 SWAP1 PUSH2 0x3F7 JUMP JUMPDEST PUSH2 0x2AC JUMP JUMPDEST PUSH1 0x40 MLOAD PUSH2 0xCD SWAP2 SWAP1 PUSH2 0x433 JUMP JUMPDEST PUSH1 0x40 MLOAD DUP1 SWAP2 SUB SWAP1 RETURN JUMPDEST PUSH1 0x0 DUP1 PUSH1 0x0 DUP4 EQ ISZERO PUSH2 0xEC JUMPI PUSH1 0x0 SWAP2 POP POP PUSH2 0x16F JUMP JUMPDEST PUSH1 0x0 PUSH1 0xA DUP5 PUSH2 0xFB SWAP2 SWAP1 PUSH2 0x7E2 JUMP JUMPDEST EQ ISZERO PUSH2 0x10A JUMPI DUP3 SWAP2 POP POP PUSH2 0x16F JUMP JUMPDEST PUSH1 0x0 DUP4 SLT ISZERO PUSH2 0x143 JUMPI PUSH1 0x1 PUSH1 0xA DUP5 PUSH2 0x122 SWAP2 SWAP1 PUSH2 0x533 JUMP JUMPDEST PUSH2 0x12C SWAP2 SWAP1 PUSH2 0x6B4 JUMP JUMPDEST SWAP1 POP PUSH1 0xA DUP2 PUSH2 0x13B SWAP2 SWAP1 PUSH2 0x59D JUMP JUMPDEST SWAP2 POP POP PUSH2 0x16F JUMP JUMPDEST PUSH1 0x1 PUSH1 0xA DUP5 PUSH2 0x152 SWAP2 SWAP1 PUSH2 0x533 JUMP JUMPDEST PUSH2 0x15C SWAP2 SWAP1 PUSH2 0x49F JUMP JUMPDEST SWAP1 POP PUSH1 0xA DUP2 PUSH2 0x16B SWAP2 SWAP1 PUSH2 0x59D JUMP JUMPDEST SWAP2 POP POP JUMPDEST SWAP2 SWAP1 POP JUMP JUMPDEST PUSH1 0x0 DUP1 PUSH1 0x0 SWAP1 POP PUSH1 0x0 DUP5 MLOAD EQ ISZERO PUSH2 0x18F JUMPI PUSH1 0x0 SWAP2 POP POP PUSH2 0x2A6 JUMP JUMPDEST PUSH1 0x0 JUMPDEST DUP5 MLOAD DUP2 LT ISZERO PUSH2 0x1D6 JUMPI DUP5 DUP2 DUP2 MLOAD DUP2 LT PUSH2 0x1AE JUMPI PUSH2 0x1AD PUSH2 0x871 JUMP JUMPDEST JUMPDEST PUSH1 0x20 MUL PUSH1 0x20 ADD ADD MLOAD DUP3 PUSH2 0x1C1 SWAP2 SWAP1 PUSH2 0x49F JUMP JUMPDEST SWAP2 POP DUP1 DUP1 PUSH2 0x1CE SWAP1 PUSH2 0x799 JUMP JUMPDEST SWAP2 POP POP PUSH2 0x192 JUMP JUMPDEST POP DUP4 MLOAD DUP2 PUSH2 0x1E4 SWAP2 SWAP1 PUSH2 0x533 JUMP JUMPDEST SWAP1 POP PUSH1 0x0 DUP2 EQ ISZERO PUSH2 0x1F9 JUMPI PUSH1 0x0 SWAP2 POP POP PUSH2 0x2A6 JUMP JUMPDEST PUSH1 0x0 PUSH1 0xA DUP3 PUSH2 0x208 SWAP2 SWAP1 PUSH2 0x7E2 JUMP JUMPDEST EQ ISZERO PUSH2 0x217 JUMPI DUP1 SWAP2 POP POP PUSH2 0x2A6 JUMP JUMPDEST DUP3 ISZERO PUSH2 0x241 JUMPI PUSH1 0xA DUP2 PUSH2 0x22A SWAP2 SWAP1 PUSH2 0x533 JUMP JUMPDEST SWAP1 POP PUSH1 0xA DUP2 PUSH2 0x239 SWAP2 SWAP1 PUSH2 0x59D JUMP JUMPDEST SWAP2 POP POP PUSH2 0x2A6 JUMP JUMPDEST PUSH1 0x0 DUP2 SLT ISZERO PUSH2 0x27A JUMPI PUSH1 0x1 PUSH1 0xA DUP3 PUSH2 0x259 SWAP2 SWAP1 PUSH2 0x533 JUMP JUMPDEST PUSH2 0x263 SWAP2 SWAP1 PUSH2 0x6B4 JUMP JUMPDEST SWAP1 POP PUSH1 0xA DUP2 PUSH2 0x272 SWAP2 SWAP1 PUSH2 0x59D JUMP JUMPDEST SWAP2 POP POP PUSH2 0x2A6 JUMP JUMPDEST PUSH1 0x1 PUSH1 0xA DUP3 PUSH2 0x289 SWAP2 SWAP1 PUSH2 0x533 JUMP JUMPDEST PUSH2 0x293 SWAP2 SWAP1 PUSH2 0x49F JUMP JUMPDEST SWAP1 POP PUSH1 0xA DUP2 PUSH2 0x2A2 SWAP2 SWAP1 PUSH2 0x59D JUMP JUMPDEST SWAP2 POP POP JUMPDEST SWAP3 SWAP2 POP POP JUMP JUMPDEST PUSH1 0x0 DUP1 PUSH1 0xA DUP4 PUSH2 0x2BC SWAP2 SWAP1 PUSH2 0x533 JUMP JUMPDEST SWAP1 POP PUSH1 0xA DUP2 PUSH2 0x2CB SWAP2 SWAP1 PUSH2 0x59D JUMP JUMPDEST SWAP2 POP POP SWAP2 SWAP1 POP JUMP JUMPDEST PUSH1 0x0 PUSH2 0x2E6 PUSH2 0x2E1 DUP5 PUSH2 0x473 JUMP JUMPDEST PUSH2 0x44E JUMP JUMPDEST SWAP1 POP DUP1 DUP4 DUP3 MSTORE PUSH1 0x20 DUP3 ADD SWAP1 POP DUP3 DUP6 PUSH1 0x20 DUP7 MUL DUP3 ADD GT ISZERO PUSH2 0x309 JUMPI PUSH2 0x308 PUSH2 0x8D4 JUMP JUMPDEST JUMPDEST PUSH1 0x0 JUMPDEST DUP6 DUP2 LT ISZERO PUSH2 0x339 JUMPI DUP2 PUSH2 0x31F DUP9 DUP3 PUSH2 0x386 JUMP JUMPDEST DUP5 MSTORE PUSH1 0x20 DUP5 ADD SWAP4 POP PUSH1 0x20 DUP4 ADD SWAP3 POP POP PUSH1 0x1 DUP2 ADD SWAP1 POP PUSH2 0x30C JUMP JUMPDEST POP POP POP SWAP4 SWAP3 POP POP POP JUMP JUMPDEST PUSH1 0x0 DUP3 PUSH1 0x1F DUP4 ADD SLT PUSH2 0x358 JUMPI PUSH2 0x357 PUSH2 0x8CF JUMP JUMPDEST JUMPDEST DUP2 CALLDATALOAD PUSH2 0x368 DUP5 DUP3 PUSH1 0x20 DUP7 ADD PUSH2 0x2D3 JUMP JUMPDEST SWAP2 POP POP SWAP3 SWAP2 POP POP JUMP JUMPDEST PUSH1 0x0 DUP2 CALLDATALOAD SWAP1 POP PUSH2 0x380 DUP2 PUSH2 0x8F4 JUMP JUMPDEST SWAP3 SWAP2 POP POP JUMP JUMPDEST PUSH1 0x0 DUP2 CALLDATALOAD SWAP1 POP PUSH2 0x395 DUP2 PUSH2 0x90B JUMP JUMPDEST SWAP3 SWAP2 POP POP JUMP JUMPDEST PUSH1 0x0 DUP1 PUSH1 0x40 DUP4 DUP6 SUB SLT ISZERO PUSH2 0x3B2 JUMPI PUSH2 0x3B1 PUSH2 0x8DE JUMP JUMPDEST JUMPDEST PUSH1 0x0 DUP4 ADD CALLDATALOAD PUSH8 0xFFFFFFFFFFFFFFFF DUP2 GT ISZERO PUSH2 0x3D0 JUMPI PUSH2 0x3CF PUSH2 0x8D9 JUMP JUMPDEST JUMPDEST PUSH2 0x3DC DUP6 DUP3 DUP7 ADD PUSH2 0x343 JUMP JUMPDEST SWAP3 POP POP PUSH1 0x20 PUSH2 0x3ED DUP6 DUP3 DUP7 ADD PUSH2 0x371 JUMP JUMPDEST SWAP2 POP POP SWAP3 POP SWAP3 SWAP1 POP JUMP JUMPDEST PUSH1 0x0 PUSH1 0x20 DUP3 DUP5 SUB SLT ISZERO PUSH2 0x40D JUMPI PUSH2 0x40C PUSH2 0x8DE JUMP JUMPDEST JUMPDEST PUSH1 0x0 PUSH2 0x41B DUP5 DUP3 DUP6 ADD PUSH2 0x386 JUMP JUMPDEST SWAP2 POP POP SWAP3 SWAP2 POP POP JUMP JUMPDEST PUSH2 0x42D DUP2 PUSH2 0x754 JUMP JUMPDEST DUP3 MSTORE POP POP JUMP JUMPDEST PUSH1 0x0 PUSH1 0x20 DUP3 ADD SWAP1 POP PUSH2 0x448 PUSH1 0x0 DUP4 ADD DUP5 PUSH2 0x424 JUMP JUMPDEST SWAP3 SWAP2 POP POP JUMP JUMPDEST PUSH1 0x0 PUSH2 0x458 PUSH2 0x469 JUMP JUMPDEST SWAP1 POP PUSH2 0x464 DUP3 DUP3 PUSH2 0x768 JUMP JUMPDEST SWAP2 SWAP1 POP JUMP JUMPDEST PUSH1 0x0 PUSH1 0x40 MLOAD SWAP1 POP SWAP1 JUMP JUMPDEST PUSH1 0x0 PUSH8 0xFFFFFFFFFFFFFFFF DUP3 GT ISZERO PUSH2 0x48E JUMPI PUSH2 0x48D PUSH2 0x8A0 JUMP JUMPDEST JUMPDEST PUSH1 0x20 DUP3 MUL SWAP1 POP PUSH1 0x20 DUP2 ADD SWAP1 POP SWAP2 SWAP1 POP JUMP JUMPDEST PUSH1 0x0 PUSH2 0x4AA DUP3 PUSH2 0x754 JUMP JUMPDEST SWAP2 POP PUSH2 0x4B5 DUP4 PUSH2 0x754 JUMP JUMPDEST SWAP3 POP DUP2 PUSH32 0x7FFFFFFFFFFFFFFFFFFFFFFFFFFFFFFFFFFFFFFFFFFFFFFFFFFFFFFFFFFFFFFF SUB DUP4 SGT PUSH1 0x0 DUP4 SLT ISZERO AND ISZERO PUSH2 0x4F0 JUMPI PUSH2 0x4EF PUSH2 0x813 JUMP JUMPDEST JUMPDEST DUP2 PUSH32 0x8000000000000000000000000000000000000000000000000000000000000000 SUB DUP4 SLT PUSH1 0x0 DUP4 SLT AND ISZERO PUSH2 0x528 JUMPI PUSH2 0x527 PUSH2 0x813 JUMP JUMPDEST JUMPDEST DUP3 DUP3 ADD SWAP1 POP SWAP3 SWAP2 POP POP JUMP JUMPDEST PUSH1 0x0 PUSH2 0x53E DUP3 PUSH2 0x754 JUMP JUMPDEST SWAP2 POP PUSH2 0x549 DUP4 PUSH2 0x754 JUMP JUMPDEST SWAP3 POP DUP3 PUSH2 0x559 JUMPI PUSH2 0x558 PUSH2 0x842 JUMP JUMPDEST JUMPDEST PUSH1 0x1 PUSH1 0x0 SUB DUP4 EQ PUSH32 0x8000000000000000000000000000000000000000000000000000000000000000 DUP4 EQ AND ISZERO PUSH2 0x592 JUMPI PUSH2 0x591 PUSH2 0x813 JUMP JUMPDEST JUMPDEST DUP3 DUP3 SDIV SWAP1 POP SWAP3 SWAP2 POP POP JUMP JUMPDEST PUSH1 0x0 PUSH2 0x5A8 DUP3 PUSH2 0x754 JUMP JUMPDEST SWAP2 POP PUSH2 0x5B3 DUP4 PUSH2 0x754 JUMP JUMPDEST SWAP3 POP DUP3 PUSH32 0x7FFFFFFFFFFFFFFFFFFFFFFFFFFFFFFFFFFFFFFFFFFFFFFFFFFFFFFFFFFFFFFF DIV DUP3 GT PUSH1 0x0 DUP5 SGT PUSH1 0x0 DUP5 SGT AND AND ISZERO PUSH2 0x5F2 JUMPI PUSH2 0x5F1 PUSH2 0x813 JUMP JUMPDEST JUMPDEST DUP2 PUSH32 0x8000000000000000000000000000000000000000000000000000000000000000 SDIV DUP4 SLT PUSH1 0x0 DUP5 SLT PUSH1 0x0 DUP5 SGT AND AND ISZERO PUSH2 0x62F JUMPI PUSH2 0x62E PUSH2 0x813 JUMP JUMPDEST JUMPDEST DUP3 PUSH32 0x8000000000000000000000000000000000000000000000000000000000000000 SDIV DUP3 SLT PUSH1 0x0 DUP5 SGT PUSH1 0x0 DUP5 SLT AND AND ISZERO PUSH2 0x66C JUMPI PUSH2 0x66B PUSH2 0x813 JUMP JUMPDEST JUMPDEST DUP3 PUSH32 0x7FFFFFFFFFFFFFFFFFFFFFFFFFFFFFFFFFFFFFFFFFFFFFFFFFFFFFFFFFFFFFFF SDIV DUP3 SLT PUSH1 0x0 DUP5 SLT PUSH1 0x0 DUP5 SLT AND AND ISZERO PUSH2 0x6A9 JUMPI PUSH2 0x6A8 PUSH2 0x813 JUMP JUMPDEST JUMPDEST DUP3 DUP3 MUL SWAP1 POP SWAP3 SWAP2 POP POP JUMP JUMPDEST PUSH1 0x0 PUSH2 0x6BF DUP3 PUSH2 0x754 JUMP JUMPDEST SWAP2 POP PUSH2 0x6CA DUP4 PUSH2 0x754 JUMP JUMPDEST SWAP3 POP DUP3 PUSH32 0x8000000000000000000000000000000000000000000000000000000000000000 ADD DUP3 SLT PUSH1 0x0 DUP5 SLT ISZERO AND ISZERO PUSH2 0x705 JUMPI PUSH2 0x704 PUSH2 0x813 JUMP JUMPDEST JUMPDEST DUP3 PUSH32 0x7FFFFFFFFFFFFFFFFFFFFFFFFFFFFFFFFFFFFFFFFFFFFFFFFFFFFFFFFFFFFFFF ADD DUP3 SGT PUSH1 0x0 DUP5 SLT AND ISZERO PUSH2 0x73D JUMPI PUSH2 0x73C PUSH2 0x813 JUMP JUMPDEST JUMPDEST DUP3 DUP3 SUB SWAP1 POP SWAP3 SWAP2 POP POP JUMP JUMPDEST PUSH1 0x0 DUP2 ISZERO ISZERO SWAP1 POP SWAP2 SWAP1 POP JUMP JUMPDEST PUSH1 0x0 DUP2 SWAP1 POP SWAP2 SWAP1 POP JUMP JUMPDEST PUSH1 0x0 DUP2 SWAP1 POP SWAP2 SWAP1 POP JUMP JUMPDEST PUSH2 0x771 DUP3 PUSH2 0x8E3 JUMP JUMPDEST DUP2 ADD DUP2 DUP2 LT PUSH8 0xFFFFFFFFFFFFFFFF DUP3 GT OR ISZERO PUSH2 0x790 JUMPI PUSH2 0x78F PUSH2 0x8A0 JUMP JUMPDEST JUMPDEST DUP1 PUSH1 0x40 MSTORE POP POP POP JUMP JUMPDEST PUSH1 0x0 PUSH2 0x7A4 DUP3 PUSH2 0x75E JUMP JUMPDEST SWAP2 POP PUSH32 0xFFFFFFFFFFFFFFFFFFFFFFFFFFFFFFFFFFFFFFFFFFFFFFFFFFFFFFFFFFFFFFFF DUP3 EQ ISZERO PUSH2 0x7D7 JUMPI PUSH2 0x7D6 PUSH2 0x813 JUMP JUMPDEST JUMPDEST PUSH1 0x1 DUP3 ADD SWAP1 POP SWAP2 SWAP1 POP JUMP JUMPDEST PUSH1 0x0 PUSH2 0x7ED DUP3 PUSH2 0x754 JUMP JUMPDEST SWAP2 POP PUSH2 0x7F8 DUP4 PUSH2 0x754 JUMP JUMPDEST SWAP3 POP DUP3 PUSH2 0x808 JUMPI PUSH2 0x807 PUSH2 0x842 JUMP JUMPDEST JUMPDEST DUP3 DUP3 SMOD SWAP1 POP SWAP3 SWAP2 POP POP JUMP JUMPDEST PUSH32 0x4E487B7100000000000000000000000000000000000000000000000000000000 PUSH1 0x0 MSTORE PUSH1 0x11 PUSH1 0x4 MSTORE PUSH1 0x24 PUSH1 0x0 REVERT JUMPDEST PUSH32 0x4E487B7100000000000000000000000000000000000000000000000000000000 PUSH1 0x0 MSTORE PUSH1 0x12 PUSH1 0x4 MSTORE PUSH1 0x24 PUSH1 0x0 REVERT JUMPDEST PUSH32 0x4E487B7100000000000000000000000000000000000000000000000000000000 PUSH1 0x0 MSTORE PUSH1 0x32 PUSH1 0x4 MSTORE PUSH1 0x24 PUSH1 0x0 REVERT JUMPDEST PUSH32 0x4E487B7100000000000000000000000000000000000000000000000000000000 PUSH1 0x0 MSTORE PUSH1 0x41 PUSH1 0x4 MSTORE PUSH1 0x24 PUSH1 0x0 REVERT JUMPDEST PUSH1 0x0 DUP1 REVERT JUMPDEST PUSH1 0x0 DUP1 REVERT JUMPDEST PUSH1 0x0 DUP1 REVERT JUMPDEST PUSH1 0x0 DUP1 REVERT JUMPDEST PUSH1 0x0 PUSH1 0x1F NOT PUSH1 0x1F DUP4 ADD AND SWAP1 POP SWAP2 SWAP1 POP JUMP JUMPDEST PUSH2 0x8FD DUP2 PUSH2 0x748 JUMP JUMPDEST DUP2 EQ PUSH2 0x908 JUMPI PUSH1 0x0 DUP1 REVERT JUMPDEST POP JUMP JUMPDEST PUSH2 0x914 DUP2 PUSH2 0x754 JUMP JUMPDEST DUP2 EQ PUSH2 0x91F JUMPI PUSH1 0x0 DUP1 REVERT JUMPDEST POP JUMP INVALID LOG2 PUSH5 0x6970667358 0x22 SLT KECCAK256 LOG4 SWAP6 0xA8 0xB6 SWAP13 SWAP7 PUSH25 0x316647995255143DCCBE5DA36CD83DF00244A5AE7C0498CDC PUSH5 0x736F6C6343 STOP ADDMOD SMOD STOP CALLER "
				},
				"gasEstimates": {
					"creation": {
						"codeDepositCost": "478400",
						"executionCost": "511",
						"totalCost": "478911"
					},
					"external": {
						"average(int256[],bool)": "infinite",
						"ceil(int256)": "infinite",
						"floor(int256)": "infinite"
					}
				},
				"methodIdentifiers": {
					"average(int256[],bool)": "a0447e55",
					"ceil(int256)": "42fba7ae",
					"floor(int256)": "da3ff648"
				}
			},
			"storageLayout": {
				"storage": [],
				"types": null
			},
			"userdoc": {
				"kind": "user",
				"methods": {},
				"version": 1
			}
		}
	}
}