{
	"contracts/MaxDepositor.sol": {
		"Competitors": {
			"abi": [
				{
					"inputs": [],
					"stateMutability": "nonpayable",
					"type": "constructor"
				},
				{
					"inputs": [],
					"name": "deposit",
					"outputs": [],
					"stateMutability": "payable",
					"type": "function"
				},
				{
					"inputs": [],
					"name": "destory",
					"outputs": [],
					"stateMutability": "nonpayable",
					"type": "function"
				},
				{
					"inputs": [],
					"name": "owner",
					"outputs": [
						{
							"internalType": "address",
							"name": "",
							"type": "address"
						}
					],
					"stateMutability": "view",
					"type": "function"
				},
				{
					"inputs": [],
					"name": "withdraw",
					"outputs": [],
					"stateMutability": "payable",
					"type": "function"
				}
			],
			"devdoc": {
				"kind": "dev",
				"methods": {},
				"version": 1
			},
			"evm": {
				"assembly": "    /* \"contracts/MaxDepositor.sol\":38:1686  contract Competitors {\r... */\n  mstore(0x40, 0x80)\n    /* \"contracts/MaxDepositor.sol\":278:329  constructor() {\r... */\n  callvalue\n  dup1\n  iszero\n  tag_1\n  jumpi\n  0x00\n  dup1\n  revert\ntag_1:\n  pop\n    /* \"contracts/MaxDepositor.sol\":311:321  msg.sender */\n  caller\n    /* \"contracts/MaxDepositor.sol\":303:308  owner */\n  0x02\n  0x00\n    /* \"contracts/MaxDepositor.sol\":303:321  owner = msg.sender */\n  0x0100\n  exp\n  dup2\n  sload\n  dup2\n  0xffffffffffffffffffffffffffffffffffffffff\n  mul\n  not\n  and\n  swap1\n  dup4\n  0xffffffffffffffffffffffffffffffffffffffff\n  and\n  mul\n  or\n  swap1\n  sstore\n  pop\n    /* \"contracts/MaxDepositor.sol\":38:1686  contract Competitors {\r... */\n  dataSize(sub_0)\n  dup1\n  dataOffset(sub_0)\n  0x00\n  codecopy\n  0x00\n  return\nstop\n\nsub_0: assembly {\n        /* \"contracts/MaxDepositor.sol\":38:1686  contract Competitors {\r... */\n      mstore(0x40, 0x80)\n      jumpi(tag_1, lt(calldatasize, 0x04))\n      shr(0xe0, calldataload(0x00))\n      dup1\n      0x3ccfd60b\n      eq\n      tag_2\n      jumpi\n      dup1\n      0x6bdebcc9\n      eq\n      tag_3\n      jumpi\n      dup1\n      0x8da5cb5b\n      eq\n      tag_4\n      jumpi\n      dup1\n      0xd0e30db0\n      eq\n      tag_5\n      jumpi\n    tag_1:\n      0x00\n      dup1\n      revert\n        /* \"contracts/MaxDepositor.sol\":1059:1459  function withdraw() public payable {\r... */\n    tag_2:\n      tag_6\n      tag_7\n      jump\t// in\n    tag_6:\n      stop\n        /* \"contracts/MaxDepositor.sol\":1467:1683  function destory() public {\r... */\n    tag_3:\n      callvalue\n      dup1\n      iszero\n      tag_8\n      jumpi\n      0x00\n      dup1\n      revert\n    tag_8:\n      pop\n      tag_9\n      tag_10\n      jump\t// in\n    tag_9:\n      stop\n        /* \"contracts/MaxDepositor.sol\":135:155  address public owner */\n    tag_4:\n      callvalue\n      dup1\n      iszero\n      tag_11\n      jumpi\n      0x00\n      dup1\n      revert\n    tag_11:\n      pop\n      tag_12\n      tag_13\n      jump\t// in\n    tag_12:\n      mload(0x40)\n      tag_14\n      swap2\n      swap1\n      tag_15\n      jump\t// in\n    tag_14:\n      mload(0x40)\n      dup1\n      swap2\n      sub\n      swap1\n      return\n        /* \"contracts/MaxDepositor.sol\":337:1051  function deposit() external payable {\r... */\n    tag_5:\n      tag_16\n      tag_17\n      jump\t// in\n    tag_16:\n      stop\n        /* \"contracts/MaxDepositor.sol\":1059:1459  function withdraw() public payable {\r... */\n    tag_7:\n        /* \"contracts/MaxDepositor.sol\":1123:1130  3 ether */\n      0x29a2241af62c0000\n        /* \"contracts/MaxDepositor.sol\":1113:1119  amount */\n      sload(0x04)\n        /* \"contracts/MaxDepositor.sol\":1113:1130  amount == 3 ether */\n      eq\n        /* \"contracts/MaxDepositor.sol\":1105:1164  require(amount == 3 ether, \"You can't withdraw the amount\") */\n      tag_19\n      jumpi\n      mload(0x40)\n      0x08c379a000000000000000000000000000000000000000000000000000000000\n      dup2\n      mstore\n      0x04\n      add\n      tag_20\n      swap1\n      tag_21\n      jump\t// in\n    tag_20:\n      mload(0x40)\n      dup1\n      swap2\n      sub\n      swap1\n      revert\n    tag_19:\n        /* \"contracts/MaxDepositor.sol\":1192:1203  user2amount */\n      sload(0x06)\n        /* \"contracts/MaxDepositor.sol\":1178:1189  user1amount */\n      sload(0x05)\n        /* \"contracts/MaxDepositor.sol\":1178:1203  user1amount > user2amount */\n      gt\n        /* \"contracts/MaxDepositor.sol\":1175:1301  if(user1amount > user2amount){\r... */\n      iszero\n      tag_22\n      jumpi\n        /* \"contracts/MaxDepositor.sol\":1228:1233  user1 */\n      0x00\n      dup1\n      sload\n      swap1\n      0x0100\n      exp\n      swap1\n      div\n      0xffffffffffffffffffffffffffffffffffffffff\n      and\n        /* \"contracts/MaxDepositor.sol\":1219:1225  winner */\n      0x03\n      0x00\n        /* \"contracts/MaxDepositor.sol\":1219:1233  winner = user1 */\n      0x0100\n      exp\n      dup2\n      sload\n      dup2\n      0xffffffffffffffffffffffffffffffffffffffff\n      mul\n      not\n      and\n      swap1\n      dup4\n      0xffffffffffffffffffffffffffffffffffffffff\n      and\n      mul\n      or\n      swap1\n      sstore\n      pop\n        /* \"contracts/MaxDepositor.sol\":1175:1301  if(user1amount > user2amount){\r... */\n      jump(tag_23)\n    tag_22:\n        /* \"contracts/MaxDepositor.sol\":1284:1289  user2 */\n      0x01\n      0x00\n      swap1\n      sload\n      swap1\n      0x0100\n      exp\n      swap1\n      div\n      0xffffffffffffffffffffffffffffffffffffffff\n      and\n        /* \"contracts/MaxDepositor.sol\":1275:1281  winner */\n      0x03\n      0x00\n        /* \"contracts/MaxDepositor.sol\":1275:1289  winner = user2 */\n      0x0100\n      exp\n      dup2\n      sload\n      dup2\n      0xffffffffffffffffffffffffffffffffffffffff\n      mul\n      not\n      and\n      swap1\n      dup4\n      0xffffffffffffffffffffffffffffffffffffffff\n      and\n      mul\n      or\n      swap1\n      sstore\n      pop\n        /* \"contracts/MaxDepositor.sol\":1175:1301  if(user1amount > user2amount){\r... */\n    tag_23:\n        /* \"contracts/MaxDepositor.sol\":1322:1331  bool sent */\n      0x00\n        /* \"contracts/MaxDepositor.sol\":1345:1351  winner */\n      0x03\n      0x00\n      swap1\n      sload\n      swap1\n      0x0100\n      exp\n      swap1\n      div\n      0xffffffffffffffffffffffffffffffffffffffff\n      and\n        /* \"contracts/MaxDepositor.sol\":1337:1357  payable(winner).call */\n      0xffffffffffffffffffffffffffffffffffffffff\n      and\n        /* \"contracts/MaxDepositor.sol\":1364:1371  3 ether */\n      0x29a2241af62c0000\n        /* \"contracts/MaxDepositor.sol\":1337:1376  payable(winner).call{value:3 ether}(\"\") */\n      mload(0x40)\n      tag_24\n      swap1\n      tag_25\n      jump\t// in\n    tag_24:\n      0x00\n      mload(0x40)\n      dup1\n      dup4\n      sub\n      dup2\n      dup6\n      dup8\n      gas\n      call\n      swap3\n      pop\n      pop\n      pop\n      returndatasize\n      dup1\n      0x00\n      dup2\n      eq\n      tag_28\n      jumpi\n      mload(0x40)\n      swap2\n      pop\n      and(add(returndatasize, 0x3f), not(0x1f))\n      dup3\n      add\n      0x40\n      mstore\n      returndatasize\n      dup3\n      mstore\n      returndatasize\n      0x00\n      0x20\n      dup5\n      add\n      returndatacopy\n      jump(tag_27)\n    tag_28:\n      0x60\n      swap2\n      pop\n    tag_27:\n      pop\n        /* \"contracts/MaxDepositor.sol\":1321:1376  (bool sent, ) = payable(winner).call{value:3 ether}(\"\") */\n      pop\n      swap1\n      pop\n        /* \"contracts/MaxDepositor.sol\":1405:1409  true */\n      0x01\n        /* \"contracts/MaxDepositor.sol\":1387:1402  amountWithdrawn */\n      0x07\n      0x00\n        /* \"contracts/MaxDepositor.sol\":1387:1409  amountWithdrawn = true */\n      0x0100\n      exp\n      dup2\n      sload\n      dup2\n      0xff\n      mul\n      not\n      and\n      swap1\n      dup4\n      iszero\n      iszero\n      mul\n      or\n      swap1\n      sstore\n      pop\n        /* \"contracts/MaxDepositor.sol\":1428:1432  sent */\n      dup1\n        /* \"contracts/MaxDepositor.sol\":1420:1451  require(sent, \"Payment failed\") */\n      tag_29\n      jumpi\n      mload(0x40)\n      0x08c379a000000000000000000000000000000000000000000000000000000000\n      dup2\n      mstore\n      0x04\n      add\n      tag_30\n      swap1\n      tag_31\n      jump\t// in\n    tag_30:\n      mload(0x40)\n      dup1\n      swap2\n      sub\n      swap1\n      revert\n    tag_29:\n        /* \"contracts/MaxDepositor.sol\":1094:1459  {\r... */\n      pop\n        /* \"contracts/MaxDepositor.sol\":1059:1459  function withdraw() public payable {\r... */\n      jump\t// out\n        /* \"contracts/MaxDepositor.sol\":1467:1683  function destory() public {\r... */\n    tag_10:\n        /* \"contracts/MaxDepositor.sol\":1507:1522  amountWithdrawn */\n      0x07\n      0x00\n      swap1\n      sload\n      swap1\n      0x0100\n      exp\n      swap1\n      div\n      0xff\n      and\n        /* \"contracts/MaxDepositor.sol\":1507:1545  amountWithdrawn && owner == msg.sender */\n      dup1\n      iszero\n      tag_33\n      jumpi\n      pop\n        /* \"contracts/MaxDepositor.sol\":1535:1545  msg.sender */\n      caller\n        /* \"contracts/MaxDepositor.sol\":1526:1545  owner == msg.sender */\n      0xffffffffffffffffffffffffffffffffffffffff\n      and\n        /* \"contracts/MaxDepositor.sol\":1526:1531  owner */\n      0x02\n      0x00\n      swap1\n      sload\n      swap1\n      0x0100\n      exp\n      swap1\n      div\n      0xffffffffffffffffffffffffffffffffffffffff\n      and\n        /* \"contracts/MaxDepositor.sol\":1526:1545  owner == msg.sender */\n      0xffffffffffffffffffffffffffffffffffffffff\n      and\n      eq\n        /* \"contracts/MaxDepositor.sol\":1507:1545  amountWithdrawn && owner == msg.sender */\n    tag_33:\n        /* \"contracts/MaxDepositor.sol\":1504:1676  if(amountWithdrawn && owner == msg.sender){\r... */\n      iszero\n      tag_34\n      jumpi\n        /* \"contracts/MaxDepositor.sol\":1582:1587  owner */\n      0x02\n      0x00\n      swap1\n      sload\n      swap1\n      0x0100\n      exp\n      swap1\n      div\n      0xffffffffffffffffffffffffffffffffffffffff\n      and\n        /* \"contracts/MaxDepositor.sol\":1561:1589  selfdestruct(payable(owner)) */\n      0xffffffffffffffffffffffffffffffffffffffff\n      and\n      selfdestruct\n        /* \"contracts/MaxDepositor.sol\":1504:1676  if(amountWithdrawn && owner == msg.sender){\r... */\n    tag_34:\n        /* \"contracts/MaxDepositor.sol\":1631:1664  revert(\"You can't destroy this.\") */\n      mload(0x40)\n      0x08c379a000000000000000000000000000000000000000000000000000000000\n      dup2\n      mstore\n      0x04\n      add\n      tag_36\n      swap1\n      tag_37\n      jump\t// in\n    tag_36:\n      mload(0x40)\n      dup1\n      swap2\n      sub\n      swap1\n      revert\n        /* \"contracts/MaxDepositor.sol\":135:155  address public owner */\n    tag_13:\n      0x02\n      0x00\n      swap1\n      sload\n      swap1\n      0x0100\n      exp\n      swap1\n      div\n      0xffffffffffffffffffffffffffffffffffffffff\n      and\n      dup2\n      jump\t// out\n        /* \"contracts/MaxDepositor.sol\":337:1051  function deposit() external payable {\r... */\n    tag_17:\n        /* \"contracts/MaxDepositor.sol\":405:412  1 ether */\n      0x0de0b6b3a7640000\n        /* \"contracts/MaxDepositor.sol\":392:401  msg.value */\n      callvalue\n        /* \"contracts/MaxDepositor.sol\":392:412  msg.value == 1 ether */\n      eq\n        /* \"contracts/MaxDepositor.sol\":384:454  require(msg.value == 1 ether, \"You can send only 1 Ether at a moment\") */\n      tag_39\n      jumpi\n      mload(0x40)\n      0x08c379a000000000000000000000000000000000000000000000000000000000\n      dup2\n      mstore\n      0x04\n      add\n      tag_40\n      swap1\n      tag_41\n      jump\t// in\n    tag_40:\n      mload(0x40)\n      dup1\n      swap2\n      sub\n      swap1\n      revert\n    tag_39:\n        /* \"contracts/MaxDepositor.sol\":482:489  3 ether */\n      0x29a2241af62c0000\n        /* \"contracts/MaxDepositor.sol\":473:479  amount */\n      sload(0x04)\n        /* \"contracts/MaxDepositor.sol\":473:489  amount < 3 ether */\n      lt\n        /* \"contracts/MaxDepositor.sol\":465:557  require(amount < 3 ether, \"Sorry! this contract has limit reached you cant send the amount\") */\n      tag_42\n      jumpi\n      mload(0x40)\n      0x08c379a000000000000000000000000000000000000000000000000000000000\n      dup2\n      mstore\n      0x04\n      add\n      tag_43\n      swap1\n      tag_44\n      jump\t// in\n    tag_43:\n      mload(0x40)\n      dup1\n      swap2\n      sub\n      swap1\n      revert\n    tag_42:\n        /* \"contracts/MaxDepositor.sol\":578:579  1 */\n      0x01\n        /* \"contracts/MaxDepositor.sol\":568:574  amount */\n      0x04\n      0x00\n        /* \"contracts/MaxDepositor.sol\":568:579  amount += 1 */\n      dup3\n      dup3\n      sload\n      tag_45\n      swap2\n      swap1\n      tag_46\n      jump\t// in\n    tag_45:\n      swap3\n      pop\n      pop\n      dup2\n      swap1\n      sstore\n      pop\n        /* \"contracts/MaxDepositor.sol\":612:613  0 */\n      0x00\n        /* \"contracts/MaxDepositor.sol\":595:614  user1 == address(0) */\n      0xffffffffffffffffffffffffffffffffffffffff\n      and\n        /* \"contracts/MaxDepositor.sol\":595:600  user1 */\n      0x00\n      dup1\n      sload\n      swap1\n      0x0100\n      exp\n      swap1\n      div\n      0xffffffffffffffffffffffffffffffffffffffff\n      and\n        /* \"contracts/MaxDepositor.sol\":595:614  user1 == address(0) */\n      0xffffffffffffffffffffffffffffffffffffffff\n      and\n      eq\n        /* \"contracts/MaxDepositor.sol\":592:1040  if(user1 == address(0)){\r... */\n      iszero\n      tag_47\n      jumpi\n        /* \"contracts/MaxDepositor.sol\":638:648  msg.sender */\n      caller\n        /* \"contracts/MaxDepositor.sol\":630:635  user1 */\n      0x00\n      dup1\n        /* \"contracts/MaxDepositor.sol\":630:648  user1 = msg.sender */\n      0x0100\n      exp\n      dup2\n      sload\n      dup2\n      0xffffffffffffffffffffffffffffffffffffffff\n      mul\n      not\n      and\n      swap1\n      dup4\n      0xffffffffffffffffffffffffffffffffffffffff\n      and\n      mul\n      or\n      swap1\n      sstore\n      pop\n        /* \"contracts/MaxDepositor.sol\":663:674  user1amount */\n      0x05\n      0x00\n        /* \"contracts/MaxDepositor.sol\":663:676  user1amount++ */\n      dup2\n      sload\n      dup1\n      swap3\n      swap2\n      swap1\n      tag_48\n      swap1\n      tag_49\n      jump\t// in\n    tag_48:\n      swap2\n      swap1\n      pop\n      sstore\n      pop\n        /* \"contracts/MaxDepositor.sol\":592:1040  if(user1 == address(0)){\r... */\n      jump(tag_50)\n    tag_47:\n        /* \"contracts/MaxDepositor.sol\":723:724  0 */\n      0x00\n        /* \"contracts/MaxDepositor.sol\":706:725  user2 == address(0) */\n      0xffffffffffffffffffffffffffffffffffffffff\n      and\n        /* \"contracts/MaxDepositor.sol\":706:711  user2 */\n      0x01\n      0x00\n      swap1\n      sload\n      swap1\n      0x0100\n      exp\n      swap1\n      div\n      0xffffffffffffffffffffffffffffffffffffffff\n      and\n        /* \"contracts/MaxDepositor.sol\":706:725  user2 == address(0) */\n      0xffffffffffffffffffffffffffffffffffffffff\n      and\n      eq\n        /* \"contracts/MaxDepositor.sol\":703:1040  if(user2 == address(0)){\r... */\n      iszero\n      tag_51\n      jumpi\n        /* \"contracts/MaxDepositor.sol\":749:759  msg.sender */\n      caller\n        /* \"contracts/MaxDepositor.sol\":741:746  user2 */\n      0x01\n      0x00\n        /* \"contracts/MaxDepositor.sol\":741:759  user2 = msg.sender */\n      0x0100\n      exp\n      dup2\n      sload\n      dup2\n      0xffffffffffffffffffffffffffffffffffffffff\n      mul\n      not\n      and\n      swap1\n      dup4\n      0xffffffffffffffffffffffffffffffffffffffff\n      and\n      mul\n      or\n      swap1\n      sstore\n      pop\n        /* \"contracts/MaxDepositor.sol\":774:785  user2amount */\n      0x06\n      0x00\n        /* \"contracts/MaxDepositor.sol\":774:787  user2amount++ */\n      dup2\n      sload\n      dup1\n      swap3\n      swap2\n      swap1\n      tag_52\n      swap1\n      tag_49\n      jump\t// in\n    tag_52:\n      swap2\n      swap1\n      pop\n      sstore\n      pop\n        /* \"contracts/MaxDepositor.sol\":703:1040  if(user2 == address(0)){\r... */\n      jump(tag_53)\n    tag_51:\n        /* \"contracts/MaxDepositor.sol\":826:836  msg.sender */\n      caller\n        /* \"contracts/MaxDepositor.sol\":817:836  user1 == msg.sender */\n      0xffffffffffffffffffffffffffffffffffffffff\n      and\n        /* \"contracts/MaxDepositor.sol\":817:822  user1 */\n      0x00\n      dup1\n      sload\n      swap1\n      0x0100\n      exp\n      swap1\n      div\n      0xffffffffffffffffffffffffffffffffffffffff\n      and\n        /* \"contracts/MaxDepositor.sol\":817:836  user1 == msg.sender */\n      0xffffffffffffffffffffffffffffffffffffffff\n      and\n      eq\n        /* \"contracts/MaxDepositor.sol\":814:1040  if(user1 == msg.sender){\r... */\n      iszero\n      tag_54\n      jumpi\n        /* \"contracts/MaxDepositor.sol\":852:863  user1amount */\n      0x05\n      0x00\n        /* \"contracts/MaxDepositor.sol\":852:865  user1amount++ */\n      dup2\n      sload\n      dup1\n      swap3\n      swap2\n      swap1\n      tag_55\n      swap1\n      tag_49\n      jump\t// in\n    tag_55:\n      swap2\n      swap1\n      pop\n      sstore\n      pop\n        /* \"contracts/MaxDepositor.sol\":814:1040  if(user1 == msg.sender){\r... */\n      jump(tag_56)\n    tag_54:\n        /* \"contracts/MaxDepositor.sol\":904:914  msg.sender */\n      caller\n        /* \"contracts/MaxDepositor.sol\":895:914  user2 == msg.sender */\n      0xffffffffffffffffffffffffffffffffffffffff\n      and\n        /* \"contracts/MaxDepositor.sol\":895:900  user2 */\n      0x01\n      0x00\n      swap1\n      sload\n      swap1\n      0x0100\n      exp\n      swap1\n      div\n      0xffffffffffffffffffffffffffffffffffffffff\n      and\n        /* \"contracts/MaxDepositor.sol\":895:914  user2 == msg.sender */\n      0xffffffffffffffffffffffffffffffffffffffff\n      and\n      eq\n        /* \"contracts/MaxDepositor.sol\":892:1040  if(user2 == msg.sender){\r... */\n      iszero\n      tag_57\n      jumpi\n        /* \"contracts/MaxDepositor.sol\":930:941  user2amount */\n      0x06\n      0x00\n        /* \"contracts/MaxDepositor.sol\":930:943  user2amount++ */\n      dup2\n      sload\n      dup1\n      swap3\n      swap2\n      swap1\n      tag_58\n      swap1\n      tag_49\n      jump\t// in\n    tag_58:\n      swap2\n      swap1\n      pop\n      sstore\n      pop\n        /* \"contracts/MaxDepositor.sol\":892:1040  if(user2 == msg.sender){\r... */\n      jump(tag_59)\n    tag_57:\n        /* \"contracts/MaxDepositor.sol\":988:1028  revert(\"First two users are deposited.\") */\n      mload(0x40)\n      0x08c379a000000000000000000000000000000000000000000000000000000000\n      dup2\n      mstore\n      0x04\n      add\n      tag_60\n      swap1\n      tag_61\n      jump\t// in\n    tag_60:\n      mload(0x40)\n      dup1\n      swap2\n      sub\n      swap1\n      revert\n        /* \"contracts/MaxDepositor.sol\":892:1040  if(user2 == msg.sender){\r... */\n    tag_59:\n        /* \"contracts/MaxDepositor.sol\":814:1040  if(user1 == msg.sender){\r... */\n    tag_56:\n        /* \"contracts/MaxDepositor.sol\":703:1040  if(user2 == address(0)){\r... */\n    tag_53:\n        /* \"contracts/MaxDepositor.sol\":592:1040  if(user1 == address(0)){\r... */\n    tag_50:\n        /* \"contracts/MaxDepositor.sol\":337:1051  function deposit() external payable {\r... */\n      jump\t// out\n        /* \"#utility.yul\":7:125   */\n    tag_63:\n        /* \"#utility.yul\":94:118   */\n      tag_65\n        /* \"#utility.yul\":112:117   */\n      dup2\n        /* \"#utility.yul\":94:118   */\n      tag_66\n      jump\t// in\n    tag_65:\n        /* \"#utility.yul\":89:92   */\n      dup3\n        /* \"#utility.yul\":82:119   */\n      mstore\n        /* \"#utility.yul\":7:125   */\n      pop\n      pop\n      jump\t// out\n        /* \"#utility.yul\":131:497   */\n    tag_67:\n        /* \"#utility.yul\":273:276   */\n      0x00\n        /* \"#utility.yul\":294:361   */\n      tag_69\n        /* \"#utility.yul\":358:360   */\n      0x3f\n        /* \"#utility.yul\":353:356   */\n      dup4\n        /* \"#utility.yul\":294:361   */\n      tag_70\n      jump\t// in\n    tag_69:\n        /* \"#utility.yul\":287:361   */\n      swap2\n      pop\n        /* \"#utility.yul\":370:463   */\n      tag_71\n        /* \"#utility.yul\":459:462   */\n      dup3\n        /* \"#utility.yul\":370:463   */\n      tag_72\n      jump\t// in\n    tag_71:\n        /* \"#utility.yul\":488:490   */\n      0x40\n        /* \"#utility.yul\":483:486   */\n      dup3\n        /* \"#utility.yul\":479:491   */\n      add\n        /* \"#utility.yul\":472:491   */\n      swap1\n      pop\n        /* \"#utility.yul\":131:497   */\n      swap2\n      swap1\n      pop\n      jump\t// out\n        /* \"#utility.yul\":503:869   */\n    tag_73:\n        /* \"#utility.yul\":645:648   */\n      0x00\n        /* \"#utility.yul\":666:733   */\n      tag_75\n        /* \"#utility.yul\":730:732   */\n      0x25\n        /* \"#utility.yul\":725:728   */\n      dup4\n        /* \"#utility.yul\":666:733   */\n      tag_70\n      jump\t// in\n    tag_75:\n        /* \"#utility.yul\":659:733   */\n      swap2\n      pop\n        /* \"#utility.yul\":742:835   */\n      tag_76\n        /* \"#utility.yul\":831:834   */\n      dup3\n        /* \"#utility.yul\":742:835   */\n      tag_77\n      jump\t// in\n    tag_76:\n        /* \"#utility.yul\":860:862   */\n      0x40\n        /* \"#utility.yul\":855:858   */\n      dup3\n        /* \"#utility.yul\":851:863   */\n      add\n        /* \"#utility.yul\":844:863   */\n      swap1\n      pop\n        /* \"#utility.yul\":503:869   */\n      swap2\n      swap1\n      pop\n      jump\t// out\n        /* \"#utility.yul\":875:1241   */\n    tag_78:\n        /* \"#utility.yul\":1017:1020   */\n      0x00\n        /* \"#utility.yul\":1038:1105   */\n      tag_80\n        /* \"#utility.yul\":1102:1104   */\n      0x1e\n        /* \"#utility.yul\":1097:1100   */\n      dup4\n        /* \"#utility.yul\":1038:1105   */\n      tag_70\n      jump\t// in\n    tag_80:\n        /* \"#utility.yul\":1031:1105   */\n      swap2\n      pop\n        /* \"#utility.yul\":1114:1207   */\n      tag_81\n        /* \"#utility.yul\":1203:1206   */\n      dup3\n        /* \"#utility.yul\":1114:1207   */\n      tag_82\n      jump\t// in\n    tag_81:\n        /* \"#utility.yul\":1232:1234   */\n      0x20\n        /* \"#utility.yul\":1227:1230   */\n      dup3\n        /* \"#utility.yul\":1223:1235   */\n      add\n        /* \"#utility.yul\":1216:1235   */\n      swap1\n      pop\n        /* \"#utility.yul\":875:1241   */\n      swap2\n      swap1\n      pop\n      jump\t// out\n        /* \"#utility.yul\":1247:1613   */\n    tag_83:\n        /* \"#utility.yul\":1389:1392   */\n      0x00\n        /* \"#utility.yul\":1410:1477   */\n      tag_85\n        /* \"#utility.yul\":1474:1476   */\n      0x0e\n        /* \"#utility.yul\":1469:1472   */\n      dup4\n        /* \"#utility.yul\":1410:1477   */\n      tag_70\n      jump\t// in\n    tag_85:\n        /* \"#utility.yul\":1403:1477   */\n      swap2\n      pop\n        /* \"#utility.yul\":1486:1579   */\n      tag_86\n        /* \"#utility.yul\":1575:1578   */\n      dup3\n        /* \"#utility.yul\":1486:1579   */\n      tag_87\n      jump\t// in\n    tag_86:\n        /* \"#utility.yul\":1604:1606   */\n      0x20\n        /* \"#utility.yul\":1599:1602   */\n      dup3\n        /* \"#utility.yul\":1595:1607   */\n      add\n        /* \"#utility.yul\":1588:1607   */\n      swap1\n      pop\n        /* \"#utility.yul\":1247:1613   */\n      swap2\n      swap1\n      pop\n      jump\t// out\n        /* \"#utility.yul\":1619:1985   */\n    tag_88:\n        /* \"#utility.yul\":1761:1764   */\n      0x00\n        /* \"#utility.yul\":1782:1849   */\n      tag_90\n        /* \"#utility.yul\":1846:1848   */\n      0x17\n        /* \"#utility.yul\":1841:1844   */\n      dup4\n        /* \"#utility.yul\":1782:1849   */\n      tag_70\n      jump\t// in\n    tag_90:\n        /* \"#utility.yul\":1775:1849   */\n      swap2\n      pop\n        /* \"#utility.yul\":1858:1951   */\n      tag_91\n        /* \"#utility.yul\":1947:1950   */\n      dup3\n        /* \"#utility.yul\":1858:1951   */\n      tag_92\n      jump\t// in\n    tag_91:\n        /* \"#utility.yul\":1976:1978   */\n      0x20\n        /* \"#utility.yul\":1971:1974   */\n      dup3\n        /* \"#utility.yul\":1967:1979   */\n      add\n        /* \"#utility.yul\":1960:1979   */\n      swap1\n      pop\n        /* \"#utility.yul\":1619:1985   */\n      swap2\n      swap1\n      pop\n      jump\t// out\n        /* \"#utility.yul\":1991:2389   */\n    tag_93:\n        /* \"#utility.yul\":2150:2153   */\n      0x00\n        /* \"#utility.yul\":2171:2254   */\n      tag_95\n        /* \"#utility.yul\":2252:2253   */\n      0x00\n        /* \"#utility.yul\":2247:2250   */\n      dup4\n        /* \"#utility.yul\":2171:2254   */\n      tag_96\n      jump\t// in\n    tag_95:\n        /* \"#utility.yul\":2164:2254   */\n      swap2\n      pop\n        /* \"#utility.yul\":2263:2356   */\n      tag_97\n        /* \"#utility.yul\":2352:2355   */\n      dup3\n        /* \"#utility.yul\":2263:2356   */\n      tag_98\n      jump\t// in\n    tag_97:\n        /* \"#utility.yul\":2381:2382   */\n      0x00\n        /* \"#utility.yul\":2376:2379   */\n      dup3\n        /* \"#utility.yul\":2372:2383   */\n      add\n        /* \"#utility.yul\":2365:2383   */\n      swap1\n      pop\n        /* \"#utility.yul\":1991:2389   */\n      swap2\n      swap1\n      pop\n      jump\t// out\n        /* \"#utility.yul\":2395:2761   */\n    tag_99:\n        /* \"#utility.yul\":2537:2540   */\n      0x00\n        /* \"#utility.yul\":2558:2625   */\n      tag_101\n        /* \"#utility.yul\":2622:2624   */\n      0x1d\n        /* \"#utility.yul\":2617:2620   */\n      dup4\n        /* \"#utility.yul\":2558:2625   */\n      tag_70\n      jump\t// in\n    tag_101:\n        /* \"#utility.yul\":2551:2625   */\n      swap2\n      pop\n        /* \"#utility.yul\":2634:2727   */\n      tag_102\n        /* \"#utility.yul\":2723:2726   */\n      dup3\n        /* \"#utility.yul\":2634:2727   */\n      tag_103\n      jump\t// in\n    tag_102:\n        /* \"#utility.yul\":2752:2754   */\n      0x20\n        /* \"#utility.yul\":2747:2750   */\n      dup3\n        /* \"#utility.yul\":2743:2755   */\n      add\n        /* \"#utility.yul\":2736:2755   */\n      swap1\n      pop\n        /* \"#utility.yul\":2395:2761   */\n      swap2\n      swap1\n      pop\n      jump\t// out\n        /* \"#utility.yul\":2767:3146   */\n    tag_25:\n        /* \"#utility.yul\":2951:2954   */\n      0x00\n        /* \"#utility.yul\":2973:3120   */\n      tag_105\n        /* \"#utility.yul\":3116:3119   */\n      dup3\n        /* \"#utility.yul\":2973:3120   */\n      tag_93\n      jump\t// in\n    tag_105:\n        /* \"#utility.yul\":2966:3120   */\n      swap2\n      pop\n        /* \"#utility.yul\":3137:3140   */\n      dup2\n        /* \"#utility.yul\":3130:3140   */\n      swap1\n      pop\n        /* \"#utility.yul\":2767:3146   */\n      swap2\n      swap1\n      pop\n      jump\t// out\n        /* \"#utility.yul\":3152:3374   */\n    tag_15:\n        /* \"#utility.yul\":3245:3249   */\n      0x00\n        /* \"#utility.yul\":3283:3285   */\n      0x20\n        /* \"#utility.yul\":3272:3281   */\n      dup3\n        /* \"#utility.yul\":3268:3286   */\n      add\n        /* \"#utility.yul\":3260:3286   */\n      swap1\n      pop\n        /* \"#utility.yul\":3296:3367   */\n      tag_107\n        /* \"#utility.yul\":3364:3365   */\n      0x00\n        /* \"#utility.yul\":3353:3362   */\n      dup4\n        /* \"#utility.yul\":3349:3366   */\n      add\n        /* \"#utility.yul\":3340:3346   */\n      dup5\n        /* \"#utility.yul\":3296:3367   */\n      tag_63\n      jump\t// in\n    tag_107:\n        /* \"#utility.yul\":3152:3374   */\n      swap3\n      swap2\n      pop\n      pop\n      jump\t// out\n        /* \"#utility.yul\":3380:3799   */\n    tag_44:\n        /* \"#utility.yul\":3546:3550   */\n      0x00\n        /* \"#utility.yul\":3584:3586   */\n      0x20\n        /* \"#utility.yul\":3573:3582   */\n      dup3\n        /* \"#utility.yul\":3569:3587   */\n      add\n        /* \"#utility.yul\":3561:3587   */\n      swap1\n      pop\n        /* \"#utility.yul\":3633:3642   */\n      dup2\n        /* \"#utility.yul\":3627:3631   */\n      dup2\n        /* \"#utility.yul\":3623:3643   */\n      sub\n        /* \"#utility.yul\":3619:3620   */\n      0x00\n        /* \"#utility.yul\":3608:3617   */\n      dup4\n        /* \"#utility.yul\":3604:3621   */\n      add\n        /* \"#utility.yul\":3597:3644   */\n      mstore\n        /* \"#utility.yul\":3661:3792   */\n      tag_109\n        /* \"#utility.yul\":3787:3791   */\n      dup2\n        /* \"#utility.yul\":3661:3792   */\n      tag_67\n      jump\t// in\n    tag_109:\n        /* \"#utility.yul\":3653:3792   */\n      swap1\n      pop\n        /* \"#utility.yul\":3380:3799   */\n      swap2\n      swap1\n      pop\n      jump\t// out\n        /* \"#utility.yul\":3805:4224   */\n    tag_41:\n        /* \"#utility.yul\":3971:3975   */\n      0x00\n        /* \"#utility.yul\":4009:4011   */\n      0x20\n        /* \"#utility.yul\":3998:4007   */\n      dup3\n        /* \"#utility.yul\":3994:4012   */\n      add\n        /* \"#utility.yul\":3986:4012   */\n      swap1\n      pop\n        /* \"#utility.yul\":4058:4067   */\n      dup2\n        /* \"#utility.yul\":4052:4056   */\n      dup2\n        /* \"#utility.yul\":4048:4068   */\n      sub\n        /* \"#utility.yul\":4044:4045   */\n      0x00\n        /* \"#utility.yul\":4033:4042   */\n      dup4\n        /* \"#utility.yul\":4029:4046   */\n      add\n        /* \"#utility.yul\":4022:4069   */\n      mstore\n        /* \"#utility.yul\":4086:4217   */\n      tag_111\n        /* \"#utility.yul\":4212:4216   */\n      dup2\n        /* \"#utility.yul\":4086:4217   */\n      tag_73\n      jump\t// in\n    tag_111:\n        /* \"#utility.yul\":4078:4217   */\n      swap1\n      pop\n        /* \"#utility.yul\":3805:4224   */\n      swap2\n      swap1\n      pop\n      jump\t// out\n        /* \"#utility.yul\":4230:4649   */\n    tag_61:\n        /* \"#utility.yul\":4396:4400   */\n      0x00\n        /* \"#utility.yul\":4434:4436   */\n      0x20\n        /* \"#utility.yul\":4423:4432   */\n      dup3\n        /* \"#utility.yul\":4419:4437   */\n      add\n        /* \"#utility.yul\":4411:4437   */\n      swap1\n      pop\n        /* \"#utility.yul\":4483:4492   */\n      dup2\n        /* \"#utility.yul\":4477:4481   */\n      dup2\n        /* \"#utility.yul\":4473:4493   */\n      sub\n        /* \"#utility.yul\":4469:4470   */\n      0x00\n        /* \"#utility.yul\":4458:4467   */\n      dup4\n        /* \"#utility.yul\":4454:4471   */\n      add\n        /* \"#utility.yul\":4447:4494   */\n      mstore\n        /* \"#utility.yul\":4511:4642   */\n      tag_113\n        /* \"#utility.yul\":4637:4641   */\n      dup2\n        /* \"#utility.yul\":4511:4642   */\n      tag_78\n      jump\t// in\n    tag_113:\n        /* \"#utility.yul\":4503:4642   */\n      swap1\n      pop\n        /* \"#utility.yul\":4230:4649   */\n      swap2\n      swap1\n      pop\n      jump\t// out\n        /* \"#utility.yul\":4655:5074   */\n    tag_31:\n        /* \"#utility.yul\":4821:4825   */\n      0x00\n        /* \"#utility.yul\":4859:4861   */\n      0x20\n        /* \"#utility.yul\":4848:4857   */\n      dup3\n        /* \"#utility.yul\":4844:4862   */\n      add\n        /* \"#utility.yul\":4836:4862   */\n      swap1\n      pop\n        /* \"#utility.yul\":4908:4917   */\n      dup2\n        /* \"#utility.yul\":4902:4906   */\n      dup2\n        /* \"#utility.yul\":4898:4918   */\n      sub\n        /* \"#utility.yul\":4894:4895   */\n      0x00\n        /* \"#utility.yul\":4883:4892   */\n      dup4\n        /* \"#utility.yul\":4879:4896   */\n      add\n        /* \"#utility.yul\":4872:4919   */\n      mstore\n        /* \"#utility.yul\":4936:5067   */\n      tag_115\n        /* \"#utility.yul\":5062:5066   */\n      dup2\n        /* \"#utility.yul\":4936:5067   */\n      tag_83\n      jump\t// in\n    tag_115:\n        /* \"#utility.yul\":4928:5067   */\n      swap1\n      pop\n        /* \"#utility.yul\":4655:5074   */\n      swap2\n      swap1\n      pop\n      jump\t// out\n        /* \"#utility.yul\":5080:5499   */\n    tag_37:\n        /* \"#utility.yul\":5246:5250   */\n      0x00\n        /* \"#utility.yul\":5284:5286   */\n      0x20\n        /* \"#utility.yul\":5273:5282   */\n      dup3\n        /* \"#utility.yul\":5269:5287   */\n      add\n        /* \"#utility.yul\":5261:5287   */\n      swap1\n      pop\n        /* \"#utility.yul\":5333:5342   */\n      dup2\n        /* \"#utility.yul\":5327:5331   */\n      dup2\n        /* \"#utility.yul\":5323:5343   */\n      sub\n        /* \"#utility.yul\":5319:5320   */\n      0x00\n        /* \"#utility.yul\":5308:5317   */\n      dup4\n        /* \"#utility.yul\":5304:5321   */\n      add\n        /* \"#utility.yul\":5297:5344   */\n      mstore\n        /* \"#utility.yul\":5361:5492   */\n      tag_117\n        /* \"#utility.yul\":5487:5491   */\n      dup2\n        /* \"#utility.yul\":5361:5492   */\n      tag_88\n      jump\t// in\n    tag_117:\n        /* \"#utility.yul\":5353:5492   */\n      swap1\n      pop\n        /* \"#utility.yul\":5080:5499   */\n      swap2\n      swap1\n      pop\n      jump\t// out\n        /* \"#utility.yul\":5505:5924   */\n    tag_21:\n        /* \"#utility.yul\":5671:5675   */\n      0x00\n        /* \"#utility.yul\":5709:5711   */\n      0x20\n        /* \"#utility.yul\":5698:5707   */\n      dup3\n        /* \"#utility.yul\":5694:5712   */\n      add\n        /* \"#utility.yul\":5686:5712   */\n      swap1\n      pop\n        /* \"#utility.yul\":5758:5767   */\n      dup2\n        /* \"#utility.yul\":5752:5756   */\n      dup2\n        /* \"#utility.yul\":5748:5768   */\n      sub\n        /* \"#utility.yul\":5744:5745   */\n      0x00\n        /* \"#utility.yul\":5733:5742   */\n      dup4\n        /* \"#utility.yul\":5729:5746   */\n      add\n        /* \"#utility.yul\":5722:5769   */\n      mstore\n        /* \"#utility.yul\":5786:5917   */\n      tag_119\n        /* \"#utility.yul\":5912:5916   */\n      dup2\n        /* \"#utility.yul\":5786:5917   */\n      tag_99\n      jump\t// in\n    tag_119:\n        /* \"#utility.yul\":5778:5917   */\n      swap1\n      pop\n        /* \"#utility.yul\":5505:5924   */\n      swap2\n      swap1\n      pop\n      jump\t// out\n        /* \"#utility.yul\":5930:6077   */\n    tag_96:\n        /* \"#utility.yul\":6031:6042   */\n      0x00\n        /* \"#utility.yul\":6068:6071   */\n      dup2\n        /* \"#utility.yul\":6053:6071   */\n      swap1\n      pop\n        /* \"#utility.yul\":5930:6077   */\n      swap3\n      swap2\n      pop\n      pop\n      jump\t// out\n        /* \"#utility.yul\":6083:6252   */\n    tag_70:\n        /* \"#utility.yul\":6167:6178   */\n      0x00\n        /* \"#utility.yul\":6201:6207   */\n      dup3\n        /* \"#utility.yul\":6196:6199   */\n      dup3\n        /* \"#utility.yul\":6189:6208   */\n      mstore\n        /* \"#utility.yul\":6241:6245   */\n      0x20\n        /* \"#utility.yul\":6236:6239   */\n      dup3\n        /* \"#utility.yul\":6232:6246   */\n      add\n        /* \"#utility.yul\":6217:6246   */\n      swap1\n      pop\n        /* \"#utility.yul\":6083:6252   */\n      swap3\n      swap2\n      pop\n      pop\n      jump\t// out\n        /* \"#utility.yul\":6258:6563   */\n    tag_46:\n        /* \"#utility.yul\":6298:6301   */\n      0x00\n        /* \"#utility.yul\":6317:6337   */\n      tag_123\n        /* \"#utility.yul\":6335:6336   */\n      dup3\n        /* \"#utility.yul\":6317:6337   */\n      tag_124\n      jump\t// in\n    tag_123:\n        /* \"#utility.yul\":6312:6337   */\n      swap2\n      pop\n        /* \"#utility.yul\":6351:6371   */\n      tag_125\n        /* \"#utility.yul\":6369:6370   */\n      dup4\n        /* \"#utility.yul\":6351:6371   */\n      tag_124\n      jump\t// in\n    tag_125:\n        /* \"#utility.yul\":6346:6371   */\n      swap3\n      pop\n        /* \"#utility.yul\":6505:6506   */\n      dup3\n        /* \"#utility.yul\":6437:6503   */\n      0xffffffffffffffffffffffffffffffffffffffffffffffffffffffffffffffff\n        /* \"#utility.yul\":6433:6507   */\n      sub\n        /* \"#utility.yul\":6430:6431   */\n      dup3\n        /* \"#utility.yul\":6427:6508   */\n      gt\n        /* \"#utility.yul\":6424:6531   */\n      iszero\n      tag_126\n      jumpi\n        /* \"#utility.yul\":6511:6529   */\n      tag_127\n      tag_128\n      jump\t// in\n    tag_127:\n        /* \"#utility.yul\":6424:6531   */\n    tag_126:\n        /* \"#utility.yul\":6555:6556   */\n      dup3\n        /* \"#utility.yul\":6552:6553   */\n      dup3\n        /* \"#utility.yul\":6548:6557   */\n      add\n        /* \"#utility.yul\":6541:6557   */\n      swap1\n      pop\n        /* \"#utility.yul\":6258:6563   */\n      swap3\n      swap2\n      pop\n      pop\n      jump\t// out\n        /* \"#utility.yul\":6569:6665   */\n    tag_66:\n        /* \"#utility.yul\":6606:6613   */\n      0x00\n        /* \"#utility.yul\":6635:6659   */\n      tag_130\n        /* \"#utility.yul\":6653:6658   */\n      dup3\n        /* \"#utility.yul\":6635:6659   */\n      tag_131\n      jump\t// in\n    tag_130:\n        /* \"#utility.yul\":6624:6659   */\n      swap1\n      pop\n        /* \"#utility.yul\":6569:6665   */\n      swap2\n      swap1\n      pop\n      jump\t// out\n        /* \"#utility.yul\":6671:6797   */\n    tag_131:\n        /* \"#utility.yul\":6708:6715   */\n      0x00\n        /* \"#utility.yul\":6748:6790   */\n      0xffffffffffffffffffffffffffffffffffffffff\n        /* \"#utility.yul\":6741:6746   */\n      dup3\n        /* \"#utility.yul\":6737:6791   */\n      and\n        /* \"#utility.yul\":6726:6791   */\n      swap1\n      pop\n        /* \"#utility.yul\":6671:6797   */\n      swap2\n      swap1\n      pop\n      jump\t// out\n        /* \"#utility.yul\":6803:6880   */\n    tag_124:\n        /* \"#utility.yul\":6840:6847   */\n      0x00\n        /* \"#utility.yul\":6869:6874   */\n      dup2\n        /* \"#utility.yul\":6858:6874   */\n      swap1\n      pop\n        /* \"#utility.yul\":6803:6880   */\n      swap2\n      swap1\n      pop\n      jump\t// out\n        /* \"#utility.yul\":6886:7119   */\n    tag_49:\n        /* \"#utility.yul\":6925:6928   */\n      0x00\n        /* \"#utility.yul\":6948:6972   */\n      tag_135\n        /* \"#utility.yul\":6966:6971   */\n      dup3\n        /* \"#utility.yul\":6948:6972   */\n      tag_124\n      jump\t// in\n    tag_135:\n        /* \"#utility.yul\":6939:6972   */\n      swap2\n      pop\n        /* \"#utility.yul\":6994:7060   */\n      0xffffffffffffffffffffffffffffffffffffffffffffffffffffffffffffffff\n        /* \"#utility.yul\":6987:6992   */\n      dup3\n        /* \"#utility.yul\":6984:7061   */\n      eq\n        /* \"#utility.yul\":6981:7084   */\n      iszero\n      tag_136\n      jumpi\n        /* \"#utility.yul\":7064:7082   */\n      tag_137\n      tag_128\n      jump\t// in\n    tag_137:\n        /* \"#utility.yul\":6981:7084   */\n    tag_136:\n        /* \"#utility.yul\":7111:7112   */\n      0x01\n        /* \"#utility.yul\":7104:7109   */\n      dup3\n        /* \"#utility.yul\":7100:7113   */\n      add\n        /* \"#utility.yul\":7093:7113   */\n      swap1\n      pop\n        /* \"#utility.yul\":6886:7119   */\n      swap2\n      swap1\n      pop\n      jump\t// out\n        /* \"#utility.yul\":7125:7305   */\n    tag_128:\n        /* \"#utility.yul\":7173:7250   */\n      0x4e487b7100000000000000000000000000000000000000000000000000000000\n        /* \"#utility.yul\":7170:7171   */\n      0x00\n        /* \"#utility.yul\":7163:7251   */\n      mstore\n        /* \"#utility.yul\":7270:7274   */\n      0x11\n        /* \"#utility.yul\":7267:7268   */\n      0x04\n        /* \"#utility.yul\":7260:7275   */\n      mstore\n        /* \"#utility.yul\":7294:7298   */\n      0x24\n        /* \"#utility.yul\":7291:7292   */\n      0x00\n        /* \"#utility.yul\":7284:7299   */\n      revert\n        /* \"#utility.yul\":7311:7561   */\n    tag_72:\n        /* \"#utility.yul\":7451:7485   */\n      0x536f72727921207468697320636f6e747261637420686173206c696d69742072\n        /* \"#utility.yul\":7447:7448   */\n      0x00\n        /* \"#utility.yul\":7439:7445   */\n      dup3\n        /* \"#utility.yul\":7435:7449   */\n      add\n        /* \"#utility.yul\":7428:7486   */\n      mstore\n        /* \"#utility.yul\":7520:7553   */\n      0x65616368656420796f752063616e742073656e642074686520616d6f756e7400\n        /* \"#utility.yul\":7515:7517   */\n      0x20\n        /* \"#utility.yul\":7507:7513   */\n      dup3\n        /* \"#utility.yul\":7503:7518   */\n      add\n        /* \"#utility.yul\":7496:7554   */\n      mstore\n        /* \"#utility.yul\":7311:7561   */\n      pop\n      jump\t// out\n        /* \"#utility.yul\":7567:7791   */\n    tag_77:\n        /* \"#utility.yul\":7707:7741   */\n      0x596f752063616e2073656e64206f6e6c7920312045746865722061742061206d\n        /* \"#utility.yul\":7703:7704   */\n      0x00\n        /* \"#utility.yul\":7695:7701   */\n      dup3\n        /* \"#utility.yul\":7691:7705   */\n      add\n        /* \"#utility.yul\":7684:7742   */\n      mstore\n        /* \"#utility.yul\":7776:7783   */\n      0x6f6d656e74000000000000000000000000000000000000000000000000000000\n        /* \"#utility.yul\":7771:7773   */\n      0x20\n        /* \"#utility.yul\":7763:7769   */\n      dup3\n        /* \"#utility.yul\":7759:7774   */\n      add\n        /* \"#utility.yul\":7752:7784   */\n      mstore\n        /* \"#utility.yul\":7567:7791   */\n      pop\n      jump\t// out\n        /* \"#utility.yul\":7797:7977   */\n    tag_82:\n        /* \"#utility.yul\":7937:7969   */\n      0x46697273742074776f20757365727320617265206465706f73697465642e0000\n        /* \"#utility.yul\":7933:7934   */\n      0x00\n        /* \"#utility.yul\":7925:7931   */\n      dup3\n        /* \"#utility.yul\":7921:7935   */\n      add\n        /* \"#utility.yul\":7914:7970   */\n      mstore\n        /* \"#utility.yul\":7797:7977   */\n      pop\n      jump\t// out\n        /* \"#utility.yul\":7983:8147   */\n    tag_87:\n        /* \"#utility.yul\":8123:8139   */\n      0x5061796d656e74206661696c6564000000000000000000000000000000000000\n        /* \"#utility.yul\":8119:8120   */\n      0x00\n        /* \"#utility.yul\":8111:8117   */\n      dup3\n        /* \"#utility.yul\":8107:8121   */\n      add\n        /* \"#utility.yul\":8100:8140   */\n      mstore\n        /* \"#utility.yul\":7983:8147   */\n      pop\n      jump\t// out\n        /* \"#utility.yul\":8153:8326   */\n    tag_92:\n        /* \"#utility.yul\":8293:8318   */\n      0x596f752063616e27742064657374726f7920746869732e000000000000000000\n        /* \"#utility.yul\":8289:8290   */\n      0x00\n        /* \"#utility.yul\":8281:8287   */\n      dup3\n        /* \"#utility.yul\":8277:8291   */\n      add\n        /* \"#utility.yul\":8270:8319   */\n      mstore\n        /* \"#utility.yul\":8153:8326   */\n      pop\n      jump\t// out\n        /* \"#utility.yul\":8332:8446   */\n    tag_98:\n      pop\n      jump\t// out\n        /* \"#utility.yul\":8452:8631   */\n    tag_103:\n        /* \"#utility.yul\":8592:8623   */\n      0x596f752063616e27742077697468647261772074686520616d6f756e74000000\n        /* \"#utility.yul\":8588:8589   */\n      0x00\n        /* \"#utility.yul\":8580:8586   */\n      dup3\n        /* \"#utility.yul\":8576:8590   */\n      add\n        /* \"#utility.yul\":8569:8624   */\n      mstore\n        /* \"#utility.yul\":8452:8631   */\n      pop\n      jump\t// out\n\n    auxdata: 0xa26469706673582212200590f5d2d4f36eb88121dde5babceb3860aef2a46578ccc621878882b65a1e5f64736f6c63430008070033\n}\n",
				"bytecode": {
					"linkReferences": {},
					"object": "608060405234801561001057600080fd5b5033600260006101000a81548173ffffffffffffffffffffffffffffffffffffffff021916908373ffffffffffffffffffffffffffffffffffffffff160217905550610b8a806100616000396000f3fe60806040526004361061003f5760003560e01c80633ccfd60b146100445780636bdebcc91461004e5780638da5cb5b14610065578063d0e30db014610090575b600080fd5b61004c61009a565b005b34801561005a57600080fd5b506100636102b0565b005b34801561007157600080fd5b5061007a610394565b604051610087919061080e565b60405180910390f35b6100986103ba565b005b6729a2241af62c0000600454146100e6576040517f08c379a00000000000000000000000000000000000000000000000000000000081526004016100dd906108c9565b60405180910390fd5b60065460055411156101585760008054906101000a900473ffffffffffffffffffffffffffffffffffffffff16600360006101000a81548173ffffffffffffffffffffffffffffffffffffffff021916908373ffffffffffffffffffffffffffffffffffffffff1602179055506101bc565b600160009054906101000a900473ffffffffffffffffffffffffffffffffffffffff16600360006101000a81548173ffffffffffffffffffffffffffffffffffffffff021916908373ffffffffffffffffffffffffffffffffffffffff1602179055505b6000600360009054906101000a900473ffffffffffffffffffffffffffffffffffffffff1673ffffffffffffffffffffffffffffffffffffffff166729a2241af62c000060405161020c906107f9565b60006040518083038185875af1925050503d8060008114610249576040519150601f19603f3d011682016040523d82523d6000602084013e61024e565b606091505b505090506001600760006101000a81548160ff021916908315150217905550806102ad576040517f08c379a00000000000000000000000000000000000000000000000000000000081526004016102a490610889565b60405180910390fd5b50565b600760009054906101000a900460ff16801561031957503373ffffffffffffffffffffffffffffffffffffffff16600260009054906101000a900473ffffffffffffffffffffffffffffffffffffffff1673ffffffffffffffffffffffffffffffffffffffff16145b1561035957600260009054906101000a900473ffffffffffffffffffffffffffffffffffffffff1673ffffffffffffffffffffffffffffffffffffffff16ff5b6040517f08c379a000000000000000000000000000000000000000000000000000000000815260040161038b906108a9565b60405180910390fd5b600260009054906101000a900473ffffffffffffffffffffffffffffffffffffffff1681565b670de0b6b3a76400003414610404576040517f08c379a00000000000000000000000000000000000000000000000000000000081526004016103fb90610849565b60405180910390fd5b6729a2241af62c000060045410610450576040517f08c379a000000000000000000000000000000000000000000000000000000000815260040161044790610829565b60405180910390fd5b6001600460008282546104639190610905565b92505081905550600073ffffffffffffffffffffffffffffffffffffffff1660008054906101000a900473ffffffffffffffffffffffffffffffffffffffff1673ffffffffffffffffffffffffffffffffffffffff16141561051c57336000806101000a81548173ffffffffffffffffffffffffffffffffffffffff021916908373ffffffffffffffffffffffffffffffffffffffff1602179055506005600081548092919061051290610997565b91905055506106f3565b600073ffffffffffffffffffffffffffffffffffffffff16600160009054906101000a900473ffffffffffffffffffffffffffffffffffffffff1673ffffffffffffffffffffffffffffffffffffffff1614156105d15733600160006101000a81548173ffffffffffffffffffffffffffffffffffffffff021916908373ffffffffffffffffffffffffffffffffffffffff160217905550600660008154809291906105c790610997565b91905055506106f2565b3373ffffffffffffffffffffffffffffffffffffffff1660008054906101000a900473ffffffffffffffffffffffffffffffffffffffff1673ffffffffffffffffffffffffffffffffffffffff161415610642576005600081548092919061063890610997565b91905055506106f1565b3373ffffffffffffffffffffffffffffffffffffffff16600160009054906101000a900473ffffffffffffffffffffffffffffffffffffffff1673ffffffffffffffffffffffffffffffffffffffff1614156106b557600660008154809291906106ab90610997565b91905055506106f0565b6040517f08c379a00000000000000000000000000000000000000000000000000000000081526004016106e790610869565b60405180910390fd5b5b5b5b565b6106fe8161095b565b82525050565b6000610711603f836108f4565b915061071c82610a0f565b604082019050919050565b60006107346025836108f4565b915061073f82610a5e565b604082019050919050565b6000610757601e836108f4565b915061076282610aad565b602082019050919050565b600061077a600e836108f4565b915061078582610ad6565b602082019050919050565b600061079d6017836108f4565b91506107a882610aff565b602082019050919050565b60006107c06000836108e9565b91506107cb82610b28565b600082019050919050565b60006107e3601d836108f4565b91506107ee82610b2b565b602082019050919050565b6000610804826107b3565b9150819050919050565b600060208201905061082360008301846106f5565b92915050565b6000602082019050818103600083015261084281610704565b9050919050565b6000602082019050818103600083015261086281610727565b9050919050565b600060208201905081810360008301526108828161074a565b9050919050565b600060208201905081810360008301526108a28161076d565b9050919050565b600060208201905081810360008301526108c281610790565b9050919050565b600060208201905081810360008301526108e2816107d6565b9050919050565b600081905092915050565b600082825260208201905092915050565b60006109108261098d565b915061091b8361098d565b9250827fffffffffffffffffffffffffffffffffffffffffffffffffffffffffffffffff038211156109505761094f6109e0565b5b828201905092915050565b60006109668261096d565b9050919050565b600073ffffffffffffffffffffffffffffffffffffffff82169050919050565b6000819050919050565b60006109a28261098d565b91507fffffffffffffffffffffffffffffffffffffffffffffffffffffffffffffffff8214156109d5576109d46109e0565b5b600182019050919050565b7f4e487b7100000000000000000000000000000000000000000000000000000000600052601160045260246000fd5b7f536f72727921207468697320636f6e747261637420686173206c696d6974207260008201527f65616368656420796f752063616e742073656e642074686520616d6f756e7400602082015250565b7f596f752063616e2073656e64206f6e6c7920312045746865722061742061206d60008201527f6f6d656e74000000000000000000000000000000000000000000000000000000602082015250565b7f46697273742074776f20757365727320617265206465706f73697465642e0000600082015250565b7f5061796d656e74206661696c6564000000000000000000000000000000000000600082015250565b7f596f752063616e27742064657374726f7920746869732e000000000000000000600082015250565b50565b7f596f752063616e27742077697468647261772074686520616d6f756e7400000060008201525056fea26469706673582212200590f5d2d4f36eb88121dde5babceb3860aef2a46578ccc621878882b65a1e5f64736f6c63430008070033",
					"opcodes": "PUSH1 0x80 PUSH1 0x40 MSTORE CALLVALUE DUP1 ISZERO PUSH2 0x10 JUMPI PUSH1 0x0 DUP1 REVERT JUMPDEST POP CALLER PUSH1 0x2 PUSH1 0x0 PUSH2 0x100 EXP DUP2 SLOAD DUP2 PUSH20 0xFFFFFFFFFFFFFFFFFFFFFFFFFFFFFFFFFFFFFFFF MUL NOT AND SWAP1 DUP4 PUSH20 0xFFFFFFFFFFFFFFFFFFFFFFFFFFFFFFFFFFFFFFFF AND MUL OR SWAP1 SSTORE POP PUSH2 0xB8A DUP1 PUSH2 0x61 PUSH1 0x0 CODECOPY PUSH1 0x0 RETURN INVALID PUSH1 0x80 PUSH1 0x40 MSTORE PUSH1 0x4 CALLDATASIZE LT PUSH2 0x3F JUMPI PUSH1 0x0 CALLDATALOAD PUSH1 0xE0 SHR DUP1 PUSH4 0x3CCFD60B EQ PUSH2 0x44 JUMPI DUP1 PUSH4 0x6BDEBCC9 EQ PUSH2 0x4E JUMPI DUP1 PUSH4 0x8DA5CB5B EQ PUSH2 0x65 JUMPI DUP1 PUSH4 0xD0E30DB0 EQ PUSH2 0x90 JUMPI JUMPDEST PUSH1 0x0 DUP1 REVERT JUMPDEST PUSH2 0x4C PUSH2 0x9A JUMP JUMPDEST STOP JUMPDEST CALLVALUE DUP1 ISZERO PUSH2 0x5A JUMPI PUSH1 0x0 DUP1 REVERT JUMPDEST POP PUSH2 0x63 PUSH2 0x2B0 JUMP JUMPDEST STOP JUMPDEST CALLVALUE DUP1 ISZERO PUSH2 0x71 JUMPI PUSH1 0x0 DUP1 REVERT JUMPDEST POP PUSH2 0x7A PUSH2 0x394 JUMP JUMPDEST PUSH1 0x40 MLOAD PUSH2 0x87 SWAP2 SWAP1 PUSH2 0x80E JUMP JUMPDEST PUSH1 0x40 MLOAD DUP1 SWAP2 SUB SWAP1 RETURN JUMPDEST PUSH2 0x98 PUSH2 0x3BA JUMP JUMPDEST STOP JUMPDEST PUSH8 0x29A2241AF62C0000 PUSH1 0x4 SLOAD EQ PUSH2 0xE6 JUMPI PUSH1 0x40 MLOAD PUSH32 0x8C379A000000000000000000000000000000000000000000000000000000000 DUP2 MSTORE PUSH1 0x4 ADD PUSH2 0xDD SWAP1 PUSH2 0x8C9 JUMP JUMPDEST PUSH1 0x40 MLOAD DUP1 SWAP2 SUB SWAP1 REVERT JUMPDEST PUSH1 0x6 SLOAD PUSH1 0x5 SLOAD GT ISZERO PUSH2 0x158 JUMPI PUSH1 0x0 DUP1 SLOAD SWAP1 PUSH2 0x100 EXP SWAP1 DIV PUSH20 0xFFFFFFFFFFFFFFFFFFFFFFFFFFFFFFFFFFFFFFFF AND PUSH1 0x3 PUSH1 0x0 PUSH2 0x100 EXP DUP2 SLOAD DUP2 PUSH20 0xFFFFFFFFFFFFFFFFFFFFFFFFFFFFFFFFFFFFFFFF MUL NOT AND SWAP1 DUP4 PUSH20 0xFFFFFFFFFFFFFFFFFFFFFFFFFFFFFFFFFFFFFFFF AND MUL OR SWAP1 SSTORE POP PUSH2 0x1BC JUMP JUMPDEST PUSH1 0x1 PUSH1 0x0 SWAP1 SLOAD SWAP1 PUSH2 0x100 EXP SWAP1 DIV PUSH20 0xFFFFFFFFFFFFFFFFFFFFFFFFFFFFFFFFFFFFFFFF AND PUSH1 0x3 PUSH1 0x0 PUSH2 0x100 EXP DUP2 SLOAD DUP2 PUSH20 0xFFFFFFFFFFFFFFFFFFFFFFFFFFFFFFFFFFFFFFFF MUL NOT AND SWAP1 DUP4 PUSH20 0xFFFFFFFFFFFFFFFFFFFFFFFFFFFFFFFFFFFFFFFF AND MUL OR SWAP1 SSTORE POP JUMPDEST PUSH1 0x0 PUSH1 0x3 PUSH1 0x0 SWAP1 SLOAD SWAP1 PUSH2 0x100 EXP SWAP1 DIV PUSH20 0xFFFFFFFFFFFFFFFFFFFFFFFFFFFFFFFFFFFFFFFF AND PUSH20 0xFFFFFFFFFFFFFFFFFFFFFFFFFFFFFFFFFFFFFFFF AND PUSH8 0x29A2241AF62C0000 PUSH1 0x40 MLOAD PUSH2 0x20C SWAP1 PUSH2 0x7F9 JUMP JUMPDEST PUSH1 0x0 PUSH1 0x40 MLOAD DUP1 DUP4 SUB DUP2 DUP6 DUP8 GAS CALL SWAP3 POP POP POP RETURNDATASIZE DUP1 PUSH1 0x0 DUP2 EQ PUSH2 0x249 JUMPI PUSH1 0x40 MLOAD SWAP2 POP PUSH1 0x1F NOT PUSH1 0x3F RETURNDATASIZE ADD AND DUP3 ADD PUSH1 0x40 MSTORE RETURNDATASIZE DUP3 MSTORE RETURNDATASIZE PUSH1 0x0 PUSH1 0x20 DUP5 ADD RETURNDATACOPY PUSH2 0x24E JUMP JUMPDEST PUSH1 0x60 SWAP2 POP JUMPDEST POP POP SWAP1 POP PUSH1 0x1 PUSH1 0x7 PUSH1 0x0 PUSH2 0x100 EXP DUP2 SLOAD DUP2 PUSH1 0xFF MUL NOT AND SWAP1 DUP4 ISZERO ISZERO MUL OR SWAP1 SSTORE POP DUP1 PUSH2 0x2AD JUMPI PUSH1 0x40 MLOAD PUSH32 0x8C379A000000000000000000000000000000000000000000000000000000000 DUP2 MSTORE PUSH1 0x4 ADD PUSH2 0x2A4 SWAP1 PUSH2 0x889 JUMP JUMPDEST PUSH1 0x40 MLOAD DUP1 SWAP2 SUB SWAP1 REVERT JUMPDEST POP JUMP JUMPDEST PUSH1 0x7 PUSH1 0x0 SWAP1 SLOAD SWAP1 PUSH2 0x100 EXP SWAP1 DIV PUSH1 0xFF AND DUP1 ISZERO PUSH2 0x319 JUMPI POP CALLER PUSH20 0xFFFFFFFFFFFFFFFFFFFFFFFFFFFFFFFFFFFFFFFF AND PUSH1 0x2 PUSH1 0x0 SWAP1 SLOAD SWAP1 PUSH2 0x100 EXP SWAP1 DIV PUSH20 0xFFFFFFFFFFFFFFFFFFFFFFFFFFFFFFFFFFFFFFFF AND PUSH20 0xFFFFFFFFFFFFFFFFFFFFFFFFFFFFFFFFFFFFFFFF AND EQ JUMPDEST ISZERO PUSH2 0x359 JUMPI PUSH1 0x2 PUSH1 0x0 SWAP1 SLOAD SWAP1 PUSH2 0x100 EXP SWAP1 DIV PUSH20 0xFFFFFFFFFFFFFFFFFFFFFFFFFFFFFFFFFFFFFFFF AND PUSH20 0xFFFFFFFFFFFFFFFFFFFFFFFFFFFFFFFFFFFFFFFF AND SELFDESTRUCT JUMPDEST PUSH1 0x40 MLOAD PUSH32 0x8C379A000000000000000000000000000000000000000000000000000000000 DUP2 MSTORE PUSH1 0x4 ADD PUSH2 0x38B SWAP1 PUSH2 0x8A9 JUMP JUMPDEST PUSH1 0x40 MLOAD DUP1 SWAP2 SUB SWAP1 REVERT JUMPDEST PUSH1 0x2 PUSH1 0x0 SWAP1 SLOAD SWAP1 PUSH2 0x100 EXP SWAP1 DIV PUSH20 0xFFFFFFFFFFFFFFFFFFFFFFFFFFFFFFFFFFFFFFFF AND DUP2 JUMP JUMPDEST PUSH8 0xDE0B6B3A7640000 CALLVALUE EQ PUSH2 0x404 JUMPI PUSH1 0x40 MLOAD PUSH32 0x8C379A000000000000000000000000000000000000000000000000000000000 DUP2 MSTORE PUSH1 0x4 ADD PUSH2 0x3FB SWAP1 PUSH2 0x849 JUMP JUMPDEST PUSH1 0x40 MLOAD DUP1 SWAP2 SUB SWAP1 REVERT JUMPDEST PUSH8 0x29A2241AF62C0000 PUSH1 0x4 SLOAD LT PUSH2 0x450 JUMPI PUSH1 0x40 MLOAD PUSH32 0x8C379A000000000000000000000000000000000000000000000000000000000 DUP2 MSTORE PUSH1 0x4 ADD PUSH2 0x447 SWAP1 PUSH2 0x829 JUMP JUMPDEST PUSH1 0x40 MLOAD DUP1 SWAP2 SUB SWAP1 REVERT JUMPDEST PUSH1 0x1 PUSH1 0x4 PUSH1 0x0 DUP3 DUP3 SLOAD PUSH2 0x463 SWAP2 SWAP1 PUSH2 0x905 JUMP JUMPDEST SWAP3 POP POP DUP2 SWAP1 SSTORE POP PUSH1 0x0 PUSH20 0xFFFFFFFFFFFFFFFFFFFFFFFFFFFFFFFFFFFFFFFF AND PUSH1 0x0 DUP1 SLOAD SWAP1 PUSH2 0x100 EXP SWAP1 DIV PUSH20 0xFFFFFFFFFFFFFFFFFFFFFFFFFFFFFFFFFFFFFFFF AND PUSH20 0xFFFFFFFFFFFFFFFFFFFFFFFFFFFFFFFFFFFFFFFF AND EQ ISZERO PUSH2 0x51C JUMPI CALLER PUSH1 0x0 DUP1 PUSH2 0x100 EXP DUP2 SLOAD DUP2 PUSH20 0xFFFFFFFFFFFFFFFFFFFFFFFFFFFFFFFFFFFFFFFF MUL NOT AND SWAP1 DUP4 PUSH20 0xFFFFFFFFFFFFFFFFFFFFFFFFFFFFFFFFFFFFFFFF AND MUL OR SWAP1 SSTORE POP PUSH1 0x5 PUSH1 0x0 DUP2 SLOAD DUP1 SWAP3 SWAP2 SWAP1 PUSH2 0x512 SWAP1 PUSH2 0x997 JUMP JUMPDEST SWAP2 SWAP1 POP SSTORE POP PUSH2 0x6F3 JUMP JUMPDEST PUSH1 0x0 PUSH20 0xFFFFFFFFFFFFFFFFFFFFFFFFFFFFFFFFFFFFFFFF AND PUSH1 0x1 PUSH1 0x0 SWAP1 SLOAD SWAP1 PUSH2 0x100 EXP SWAP1 DIV PUSH20 0xFFFFFFFFFFFFFFFFFFFFFFFFFFFFFFFFFFFFFFFF AND PUSH20 0xFFFFFFFFFFFFFFFFFFFFFFFFFFFFFFFFFFFFFFFF AND EQ ISZERO PUSH2 0x5D1 JUMPI CALLER PUSH1 0x1 PUSH1 0x0 PUSH2 0x100 EXP DUP2 SLOAD DUP2 PUSH20 0xFFFFFFFFFFFFFFFFFFFFFFFFFFFFFFFFFFFFFFFF MUL NOT AND SWAP1 DUP4 PUSH20 0xFFFFFFFFFFFFFFFFFFFFFFFFFFFFFFFFFFFFFFFF AND MUL OR SWAP1 SSTORE POP PUSH1 0x6 PUSH1 0x0 DUP2 SLOAD DUP1 SWAP3 SWAP2 SWAP1 PUSH2 0x5C7 SWAP1 PUSH2 0x997 JUMP JUMPDEST SWAP2 SWAP1 POP SSTORE POP PUSH2 0x6F2 JUMP JUMPDEST CALLER PUSH20 0xFFFFFFFFFFFFFFFFFFFFFFFFFFFFFFFFFFFFFFFF AND PUSH1 0x0 DUP1 SLOAD SWAP1 PUSH2 0x100 EXP SWAP1 DIV PUSH20 0xFFFFFFFFFFFFFFFFFFFFFFFFFFFFFFFFFFFFFFFF AND PUSH20 0xFFFFFFFFFFFFFFFFFFFFFFFFFFFFFFFFFFFFFFFF AND EQ ISZERO PUSH2 0x642 JUMPI PUSH1 0x5 PUSH1 0x0 DUP2 SLOAD DUP1 SWAP3 SWAP2 SWAP1 PUSH2 0x638 SWAP1 PUSH2 0x997 JUMP JUMPDEST SWAP2 SWAP1 POP SSTORE POP PUSH2 0x6F1 JUMP JUMPDEST CALLER PUSH20 0xFFFFFFFFFFFFFFFFFFFFFFFFFFFFFFFFFFFFFFFF AND PUSH1 0x1 PUSH1 0x0 SWAP1 SLOAD SWAP1 PUSH2 0x100 EXP SWAP1 DIV PUSH20 0xFFFFFFFFFFFFFFFFFFFFFFFFFFFFFFFFFFFFFFFF AND PUSH20 0xFFFFFFFFFFFFFFFFFFFFFFFFFFFFFFFFFFFFFFFF AND EQ ISZERO PUSH2 0x6B5 JUMPI PUSH1 0x6 PUSH1 0x0 DUP2 SLOAD DUP1 SWAP3 SWAP2 SWAP1 PUSH2 0x6AB SWAP1 PUSH2 0x997 JUMP JUMPDEST SWAP2 SWAP1 POP SSTORE POP PUSH2 0x6F0 JUMP JUMPDEST PUSH1 0x40 MLOAD PUSH32 0x8C379A000000000000000000000000000000000000000000000000000000000 DUP2 MSTORE PUSH1 0x4 ADD PUSH2 0x6E7 SWAP1 PUSH2 0x869 JUMP JUMPDEST PUSH1 0x40 MLOAD DUP1 SWAP2 SUB SWAP1 REVERT JUMPDEST JUMPDEST JUMPDEST JUMPDEST JUMP JUMPDEST PUSH2 0x6FE DUP2 PUSH2 0x95B JUMP JUMPDEST DUP3 MSTORE POP POP JUMP JUMPDEST PUSH1 0x0 PUSH2 0x711 PUSH1 0x3F DUP4 PUSH2 0x8F4 JUMP JUMPDEST SWAP2 POP PUSH2 0x71C DUP3 PUSH2 0xA0F JUMP JUMPDEST PUSH1 0x40 DUP3 ADD SWAP1 POP SWAP2 SWAP1 POP JUMP JUMPDEST PUSH1 0x0 PUSH2 0x734 PUSH1 0x25 DUP4 PUSH2 0x8F4 JUMP JUMPDEST SWAP2 POP PUSH2 0x73F DUP3 PUSH2 0xA5E JUMP JUMPDEST PUSH1 0x40 DUP3 ADD SWAP1 POP SWAP2 SWAP1 POP JUMP JUMPDEST PUSH1 0x0 PUSH2 0x757 PUSH1 0x1E DUP4 PUSH2 0x8F4 JUMP JUMPDEST SWAP2 POP PUSH2 0x762 DUP3 PUSH2 0xAAD JUMP JUMPDEST PUSH1 0x20 DUP3 ADD SWAP1 POP SWAP2 SWAP1 POP JUMP JUMPDEST PUSH1 0x0 PUSH2 0x77A PUSH1 0xE DUP4 PUSH2 0x8F4 JUMP JUMPDEST SWAP2 POP PUSH2 0x785 DUP3 PUSH2 0xAD6 JUMP JUMPDEST PUSH1 0x20 DUP3 ADD SWAP1 POP SWAP2 SWAP1 POP JUMP JUMPDEST PUSH1 0x0 PUSH2 0x79D PUSH1 0x17 DUP4 PUSH2 0x8F4 JUMP JUMPDEST SWAP2 POP PUSH2 0x7A8 DUP3 PUSH2 0xAFF JUMP JUMPDEST PUSH1 0x20 DUP3 ADD SWAP1 POP SWAP2 SWAP1 POP JUMP JUMPDEST PUSH1 0x0 PUSH2 0x7C0 PUSH1 0x0 DUP4 PUSH2 0x8E9 JUMP JUMPDEST SWAP2 POP PUSH2 0x7CB DUP3 PUSH2 0xB28 JUMP JUMPDEST PUSH1 0x0 DUP3 ADD SWAP1 POP SWAP2 SWAP1 POP JUMP JUMPDEST PUSH1 0x0 PUSH2 0x7E3 PUSH1 0x1D DUP4 PUSH2 0x8F4 JUMP JUMPDEST SWAP2 POP PUSH2 0x7EE DUP3 PUSH2 0xB2B JUMP JUMPDEST PUSH1 0x20 DUP3 ADD SWAP1 POP SWAP2 SWAP1 POP JUMP JUMPDEST PUSH1 0x0 PUSH2 0x804 DUP3 PUSH2 0x7B3 JUMP JUMPDEST SWAP2 POP DUP2 SWAP1 POP SWAP2 SWAP1 POP JUMP JUMPDEST PUSH1 0x0 PUSH1 0x20 DUP3 ADD SWAP1 POP PUSH2 0x823 PUSH1 0x0 DUP4 ADD DUP5 PUSH2 0x6F5 JUMP JUMPDEST SWAP3 SWAP2 POP POP JUMP JUMPDEST PUSH1 0x0 PUSH1 0x20 DUP3 ADD SWAP1 POP DUP2 DUP2 SUB PUSH1 0x0 DUP4 ADD MSTORE PUSH2 0x842 DUP2 PUSH2 0x704 JUMP JUMPDEST SWAP1 POP SWAP2 SWAP1 POP JUMP JUMPDEST PUSH1 0x0 PUSH1 0x20 DUP3 ADD SWAP1 POP DUP2 DUP2 SUB PUSH1 0x0 DUP4 ADD MSTORE PUSH2 0x862 DUP2 PUSH2 0x727 JUMP JUMPDEST SWAP1 POP SWAP2 SWAP1 POP JUMP JUMPDEST PUSH1 0x0 PUSH1 0x20 DUP3 ADD SWAP1 POP DUP2 DUP2 SUB PUSH1 0x0 DUP4 ADD MSTORE PUSH2 0x882 DUP2 PUSH2 0x74A JUMP JUMPDEST SWAP1 POP SWAP2 SWAP1 POP JUMP JUMPDEST PUSH1 0x0 PUSH1 0x20 DUP3 ADD SWAP1 POP DUP2 DUP2 SUB PUSH1 0x0 DUP4 ADD MSTORE PUSH2 0x8A2 DUP2 PUSH2 0x76D JUMP JUMPDEST SWAP1 POP SWAP2 SWAP1 POP JUMP JUMPDEST PUSH1 0x0 PUSH1 0x20 DUP3 ADD SWAP1 POP DUP2 DUP2 SUB PUSH1 0x0 DUP4 ADD MSTORE PUSH2 0x8C2 DUP2 PUSH2 0x790 JUMP JUMPDEST SWAP1 POP SWAP2 SWAP1 POP JUMP JUMPDEST PUSH1 0x0 PUSH1 0x20 DUP3 ADD SWAP1 POP DUP2 DUP2 SUB PUSH1 0x0 DUP4 ADD MSTORE PUSH2 0x8E2 DUP2 PUSH2 0x7D6 JUMP JUMPDEST SWAP1 POP SWAP2 SWAP1 POP JUMP JUMPDEST PUSH1 0x0 DUP2 SWAP1 POP SWAP3 SWAP2 POP POP JUMP JUMPDEST PUSH1 0x0 DUP3 DUP3 MSTORE PUSH1 0x20 DUP3 ADD SWAP1 POP SWAP3 SWAP2 POP POP JUMP JUMPDEST PUSH1 0x0 PUSH2 0x910 DUP3 PUSH2 0x98D JUMP JUMPDEST SWAP2 POP PUSH2 0x91B DUP4 PUSH2 0x98D JUMP JUMPDEST SWAP3 POP DUP3 PUSH32 0xFFFFFFFFFFFFFFFFFFFFFFFFFFFFFFFFFFFFFFFFFFFFFFFFFFFFFFFFFFFFFFFF SUB DUP3 GT ISZERO PUSH2 0x950 JUMPI PUSH2 0x94F PUSH2 0x9E0 JUMP JUMPDEST JUMPDEST DUP3 DUP3 ADD SWAP1 POP SWAP3 SWAP2 POP POP JUMP JUMPDEST PUSH1 0x0 PUSH2 0x966 DUP3 PUSH2 0x96D JUMP JUMPDEST SWAP1 POP SWAP2 SWAP1 POP JUMP JUMPDEST PUSH1 0x0 PUSH20 0xFFFFFFFFFFFFFFFFFFFFFFFFFFFFFFFFFFFFFFFF DUP3 AND SWAP1 POP SWAP2 SWAP1 POP JUMP JUMPDEST PUSH1 0x0 DUP2 SWAP1 POP SWAP2 SWAP1 POP JUMP JUMPDEST PUSH1 0x0 PUSH2 0x9A2 DUP3 PUSH2 0x98D JUMP JUMPDEST SWAP2 POP PUSH32 0xFFFFFFFFFFFFFFFFFFFFFFFFFFFFFFFFFFFFFFFFFFFFFFFFFFFFFFFFFFFFFFFF DUP3 EQ ISZERO PUSH2 0x9D5 JUMPI PUSH2 0x9D4 PUSH2 0x9E0 JUMP JUMPDEST JUMPDEST PUSH1 0x1 DUP3 ADD SWAP1 POP SWAP2 SWAP1 POP JUMP JUMPDEST PUSH32 0x4E487B7100000000000000000000000000000000000000000000000000000000 PUSH1 0x0 MSTORE PUSH1 0x11 PUSH1 0x4 MSTORE PUSH1 0x24 PUSH1 0x0 REVERT JUMPDEST PUSH32 0x536F72727921207468697320636F6E747261637420686173206C696D69742072 PUSH1 0x0 DUP3 ADD MSTORE PUSH32 0x65616368656420796F752063616E742073656E642074686520616D6F756E7400 PUSH1 0x20 DUP3 ADD MSTORE POP JUMP JUMPDEST PUSH32 0x596F752063616E2073656E64206F6E6C7920312045746865722061742061206D PUSH1 0x0 DUP3 ADD MSTORE PUSH32 0x6F6D656E74000000000000000000000000000000000000000000000000000000 PUSH1 0x20 DUP3 ADD MSTORE POP JUMP JUMPDEST PUSH32 0x46697273742074776F20757365727320617265206465706F73697465642E0000 PUSH1 0x0 DUP3 ADD MSTORE POP JUMP JUMPDEST PUSH32 0x5061796D656E74206661696C6564000000000000000000000000000000000000 PUSH1 0x0 DUP3 ADD MSTORE POP JUMP JUMPDEST PUSH32 0x596F752063616E27742064657374726F7920746869732E000000000000000000 PUSH1 0x0 DUP3 ADD MSTORE POP JUMP JUMPDEST POP JUMP JUMPDEST PUSH32 0x596F752063616E27742077697468647261772074686520616D6F756E74000000 PUSH1 0x0 DUP3 ADD MSTORE POP JUMP INVALID LOG2 PUSH5 0x6970667358 0x22 SLT KECCAK256 SDIV SWAP1 CREATE2 0xD2 0xD4 RETURN PUSH15 0xB88121DDE5BABCEB3860AEF2A46578 0xCC 0xC6 0x21 DUP8 DUP9 DUP3 0xB6 GAS 0x1E 0x5F PUSH5 0x736F6C6343 STOP ADDMOD SMOD STOP CALLER "
				},
				"gasEstimates": {
					"creation": {
						"codeDepositCost": "590800",
						"executionCost": "24891",
						"totalCost": "615691"
					},
					"external": {
						"deposit()": "infinite",
						"destory()": "34213",
						"owner()": "2536",
						"withdraw()": "infinite"
					}
				},
				"methodIdentifiers": {
					"deposit()": "d0e30db0",
					"destory()": "6bdebcc9",
					"owner()": "8da5cb5b",
					"withdraw()": "3ccfd60b"
				}
			},
			"storageLayout": {
				"storage": [
					{
						"astId": 3,
						"contract": "contracts/MaxDepositor.sol:Competitors",
						"label": "user1",
						"offset": 0,
						"slot": "0",
						"type": "t_address"
					},
					{
						"astId": 5,
						"contract": "contracts/MaxDepositor.sol:Competitors",
						"label": "user2",
						"offset": 0,
						"slot": "1",
						"type": "t_address"
					},
					{
						"astId": 7,
						"contract": "contracts/MaxDepositor.sol:Competitors",
						"label": "owner",
						"offset": 0,
						"slot": "2",
						"type": "t_address"
					},
					{
						"astId": 9,
						"contract": "contracts/MaxDepositor.sol:Competitors",
						"label": "winner",
						"offset": 0,
						"slot": "3",
						"type": "t_address"
					},
					{
						"astId": 11,
						"contract": "contracts/MaxDepositor.sol:Competitors",
						"label": "amount",
						"offset": 0,
						"slot": "4",
						"type": "t_uint256"
					},
					{
						"astId": 13,
						"contract": "contracts/MaxDepositor.sol:Competitors",
						"label": "user1amount",
						"offset": 0,
						"slot": "5",
						"type": "t_uint256"
					},
					{
						"astId": 15,
						"contract": "contracts/MaxDepositor.sol:Competitors",
						"label": "user2amount",
						"offset": 0,
						"slot": "6",
						"type": "t_uint256"
					},
					{
						"astId": 17,
						"contract": "contracts/MaxDepositor.sol:Competitors",
						"label": "amountWithdrawn",
						"offset": 0,
						"slot": "7",
						"type": "t_bool"
					}
				],
				"types": {
					"t_address": {
						"encoding": "inplace",
						"label": "address",
						"numberOfBytes": "20"
					},
					"t_bool": {
						"encoding": "inplace",
						"label": "bool",
						"numberOfBytes": "1"
					},
					"t_uint256": {
						"encoding": "inplace",
						"label": "uint256",
						"numberOfBytes": "32"
					}
				}
			},
			"userdoc": {
				"kind": "user",
				"methods": {},
				"version": 1
			}
		}
	}
}