{
	"contracts/ConstructorExample.sol": {
		"Constructors": {
			"abi": [
				{
					"inputs": [],
					"stateMutability": "nonpayable",
					"type": "constructor"
				},
				{
					"inputs": [],
					"name": "admin",
					"outputs": [
						{
							"internalType": "address",
							"name": "",
							"type": "address"
						}
					],
					"stateMutability": "view",
					"type": "function"
				},
				{
					"inputs": [
						{
							"internalType": "uint256",
							"name": "amount",
							"type": "uint256"
						}
					],
					"name": "withdraw",
					"outputs": [],
					"stateMutability": "nonpayable",
					"type": "function"
				},
				{
					"stateMutability": "payable",
					"type": "receive"
				}
			],
			"devdoc": {
				"kind": "dev",
				"methods": {},
				"version": 1
			},
			"evm": {
				"assembly": "    /* \"contracts/ConstructorExample.sol\":37:528  contract Constructors {\r... */\n  mstore(0x40, 0x80)\n    /* \"contracts/ConstructorExample.sol\":101:151  constructor(){\r... */\n  callvalue\n  dup1\n  iszero\n  tag_1\n  jumpi\n  0x00\n  dup1\n  revert\ntag_1:\n  pop\n    /* \"contracts/ConstructorExample.sol\":133:143  msg.sender */\n  caller\n    /* \"contracts/ConstructorExample.sol\":125:130  admin */\n  0x00\n  dup1\n    /* \"contracts/ConstructorExample.sol\":125:143  admin = msg.sender */\n  0x0100\n  exp\n  dup2\n  sload\n  dup2\n  0xffffffffffffffffffffffffffffffffffffffff\n  mul\n  not\n  and\n  swap1\n  dup4\n  0xffffffffffffffffffffffffffffffffffffffff\n  and\n  mul\n  or\n  swap1\n  sstore\n  pop\n    /* \"contracts/ConstructorExample.sol\":37:528  contract Constructors {\r... */\n  dataSize(sub_0)\n  dup1\n  dataOffset(sub_0)\n  0x00\n  codecopy\n  0x00\n  return\nstop\n\nsub_0: assembly {\n        /* \"contracts/ConstructorExample.sol\":37:528  contract Constructors {\r... */\n      mstore(0x40, 0x80)\n      jumpi(tag_1, lt(calldatasize, 0x04))\n      shr(0xe0, calldataload(0x00))\n      dup1\n      0x2e1a7d4d\n      eq\n      tag_3\n      jumpi\n      dup1\n      0xf851a440\n      eq\n      tag_4\n      jumpi\n      jump(tag_2)\n    tag_1:\n      jumpi(tag_2, calldatasize)\n      stop\n    tag_2:\n      0x00\n      dup1\n      revert\n        /* \"contracts/ConstructorExample.sol\":197:525  function withdraw(uint amount) public  {\r... */\n    tag_3:\n      callvalue\n      dup1\n      iszero\n      tag_7\n      jumpi\n      0x00\n      dup1\n      revert\n    tag_7:\n      pop\n      tag_8\n      0x04\n      dup1\n      calldatasize\n      sub\n      dup2\n      add\n      swap1\n      tag_9\n      swap2\n      swap1\n      tag_10\n      jump\t// in\n    tag_9:\n      tag_11\n      jump\t// in\n    tag_8:\n      stop\n        /* \"contracts/ConstructorExample.sol\":72:92  address public admin */\n    tag_4:\n      callvalue\n      dup1\n      iszero\n      tag_12\n      jumpi\n      0x00\n      dup1\n      revert\n    tag_12:\n      pop\n      tag_13\n      tag_14\n      jump\t// in\n    tag_13:\n      mload(0x40)\n      tag_15\n      swap2\n      swap1\n      tag_16\n      jump\t// in\n    tag_15:\n      mload(0x40)\n      dup1\n      swap2\n      sub\n      swap1\n      return\n        /* \"contracts/ConstructorExample.sol\":197:525  function withdraw(uint amount) public  {\r... */\n    tag_11:\n        /* \"contracts/ConstructorExample.sol\":269:274  admin */\n      0x00\n      dup1\n      sload\n      swap1\n      0x0100\n      exp\n      swap1\n      div\n      0xffffffffffffffffffffffffffffffffffffffff\n      and\n        /* \"contracts/ConstructorExample.sol\":255:274  msg.sender == admin */\n      0xffffffffffffffffffffffffffffffffffffffff\n      and\n        /* \"contracts/ConstructorExample.sol\":255:265  msg.sender */\n      caller\n        /* \"contracts/ConstructorExample.sol\":255:274  msg.sender == admin */\n      0xffffffffffffffffffffffffffffffffffffffff\n      and\n      eq\n        /* \"contracts/ConstructorExample.sol\":247:313  require(msg.sender == admin, \"Only admin can withdraw the amount\") */\n      tag_18\n      jumpi\n      mload(0x40)\n      0x08c379a000000000000000000000000000000000000000000000000000000000\n      dup2\n      mstore\n      0x04\n      add\n      tag_19\n      swap1\n      tag_20\n      jump\t// in\n    tag_19:\n      mload(0x40)\n      dup1\n      swap2\n      sub\n      swap1\n      revert\n    tag_18:\n        /* \"contracts/ConstructorExample.sol\":357:363  amount */\n      dup1\n        /* \"contracts/ConstructorExample.sol\":332:353  address(this).balance */\n      selfbalance\n        /* \"contracts/ConstructorExample.sol\":332:363  address(this).balance >= amount */\n      lt\n      iszero\n        /* \"contracts/ConstructorExample.sol\":324:388  require(address(this).balance >= amount, \"Insufficient balance\") */\n      tag_21\n      jumpi\n      mload(0x40)\n      0x08c379a000000000000000000000000000000000000000000000000000000000\n      dup2\n      mstore\n      0x04\n      add\n      tag_22\n      swap1\n      tag_23\n      jump\t// in\n    tag_22:\n      mload(0x40)\n      dup1\n      swap2\n      sub\n      swap1\n      revert\n    tag_21:\n        /* \"contracts/ConstructorExample.sol\":400:409  bool sent */\n      0x00\n        /* \"contracts/ConstructorExample.sol\":423:428  admin */\n      dup1\n      0x00\n      swap1\n      sload\n      swap1\n      0x0100\n      exp\n      swap1\n      div\n      0xffffffffffffffffffffffffffffffffffffffff\n      and\n        /* \"contracts/ConstructorExample.sol\":415:434  payable(admin).call */\n      0xffffffffffffffffffffffffffffffffffffffff\n      and\n        /* \"contracts/ConstructorExample.sol\":441:447  amount */\n      dup3\n        /* \"contracts/ConstructorExample.sol\":415:452  payable(admin).call{value:amount}(\"\") */\n      mload(0x40)\n      tag_24\n      swap1\n      tag_25\n      jump\t// in\n    tag_24:\n      0x00\n      mload(0x40)\n      dup1\n      dup4\n      sub\n      dup2\n      dup6\n      dup8\n      gas\n      call\n      swap3\n      pop\n      pop\n      pop\n      returndatasize\n      dup1\n      0x00\n      dup2\n      eq\n      tag_28\n      jumpi\n      mload(0x40)\n      swap2\n      pop\n      and(add(returndatasize, 0x3f), not(0x1f))\n      dup3\n      add\n      0x40\n      mstore\n      returndatasize\n      dup3\n      mstore\n      returndatasize\n      0x00\n      0x20\n      dup5\n      add\n      returndatacopy\n      jump(tag_27)\n    tag_28:\n      0x60\n      swap2\n      pop\n    tag_27:\n      pop\n        /* \"contracts/ConstructorExample.sol\":399:452  (bool sent, ) = payable(admin).call{value:amount}(\"\") */\n      pop\n      swap1\n      pop\n        /* \"contracts/ConstructorExample.sol\":471:475  sent */\n      dup1\n        /* \"contracts/ConstructorExample.sol\":463:517  require(sent, \"Payment failed! unable to send amount\") */\n      tag_29\n      jumpi\n      mload(0x40)\n      0x08c379a000000000000000000000000000000000000000000000000000000000\n      dup2\n      mstore\n      0x04\n      add\n      tag_30\n      swap1\n      tag_31\n      jump\t// in\n    tag_30:\n      mload(0x40)\n      dup1\n      swap2\n      sub\n      swap1\n      revert\n    tag_29:\n        /* \"contracts/ConstructorExample.sol\":236:525  {\r... */\n      pop\n        /* \"contracts/ConstructorExample.sol\":197:525  function withdraw(uint amount) public  {\r... */\n      pop\n      jump\t// out\n        /* \"contracts/ConstructorExample.sol\":72:92  address public admin */\n    tag_14:\n      0x00\n      dup1\n      sload\n      swap1\n      0x0100\n      exp\n      swap1\n      div\n      0xffffffffffffffffffffffffffffffffffffffff\n      and\n      dup2\n      jump\t// out\n        /* \"#utility.yul\":7:146   */\n    tag_33:\n        /* \"#utility.yul\":53:58   */\n      0x00\n        /* \"#utility.yul\":91:97   */\n      dup2\n        /* \"#utility.yul\":78:98   */\n      calldataload\n        /* \"#utility.yul\":69:98   */\n      swap1\n      pop\n        /* \"#utility.yul\":107:140   */\n      tag_35\n        /* \"#utility.yul\":134:139   */\n      dup2\n        /* \"#utility.yul\":107:140   */\n      tag_36\n      jump\t// in\n    tag_35:\n        /* \"#utility.yul\":7:146   */\n      swap3\n      swap2\n      pop\n      pop\n      jump\t// out\n        /* \"#utility.yul\":152:481   */\n    tag_10:\n        /* \"#utility.yul\":211:217   */\n      0x00\n        /* \"#utility.yul\":260:262   */\n      0x20\n        /* \"#utility.yul\":248:257   */\n      dup3\n        /* \"#utility.yul\":239:246   */\n      dup5\n        /* \"#utility.yul\":235:258   */\n      sub\n        /* \"#utility.yul\":231:263   */\n      slt\n        /* \"#utility.yul\":228:347   */\n      iszero\n      tag_38\n      jumpi\n        /* \"#utility.yul\":266:345   */\n      tag_39\n      tag_40\n      jump\t// in\n    tag_39:\n        /* \"#utility.yul\":228:347   */\n    tag_38:\n        /* \"#utility.yul\":386:387   */\n      0x00\n        /* \"#utility.yul\":411:464   */\n      tag_41\n        /* \"#utility.yul\":456:463   */\n      dup5\n        /* \"#utility.yul\":447:453   */\n      dup3\n        /* \"#utility.yul\":436:445   */\n      dup6\n        /* \"#utility.yul\":432:454   */\n      add\n        /* \"#utility.yul\":411:464   */\n      tag_33\n      jump\t// in\n    tag_41:\n        /* \"#utility.yul\":401:464   */\n      swap2\n      pop\n        /* \"#utility.yul\":357:474   */\n      pop\n        /* \"#utility.yul\":152:481   */\n      swap3\n      swap2\n      pop\n      pop\n      jump\t// out\n        /* \"#utility.yul\":487:605   */\n    tag_42:\n        /* \"#utility.yul\":574:598   */\n      tag_44\n        /* \"#utility.yul\":592:597   */\n      dup2\n        /* \"#utility.yul\":574:598   */\n      tag_45\n      jump\t// in\n    tag_44:\n        /* \"#utility.yul\":569:572   */\n      dup3\n        /* \"#utility.yul\":562:599   */\n      mstore\n        /* \"#utility.yul\":487:605   */\n      pop\n      pop\n      jump\t// out\n        /* \"#utility.yul\":611:977   */\n    tag_46:\n        /* \"#utility.yul\":753:756   */\n      0x00\n        /* \"#utility.yul\":774:841   */\n      tag_48\n        /* \"#utility.yul\":838:840   */\n      0x14\n        /* \"#utility.yul\":833:836   */\n      dup4\n        /* \"#utility.yul\":774:841   */\n      tag_49\n      jump\t// in\n    tag_48:\n        /* \"#utility.yul\":767:841   */\n      swap2\n      pop\n        /* \"#utility.yul\":850:943   */\n      tag_50\n        /* \"#utility.yul\":939:942   */\n      dup3\n        /* \"#utility.yul\":850:943   */\n      tag_51\n      jump\t// in\n    tag_50:\n        /* \"#utility.yul\":968:970   */\n      0x20\n        /* \"#utility.yul\":963:966   */\n      dup3\n        /* \"#utility.yul\":959:971   */\n      add\n        /* \"#utility.yul\":952:971   */\n      swap1\n      pop\n        /* \"#utility.yul\":611:977   */\n      swap2\n      swap1\n      pop\n      jump\t// out\n        /* \"#utility.yul\":983:1349   */\n    tag_52:\n        /* \"#utility.yul\":1125:1128   */\n      0x00\n        /* \"#utility.yul\":1146:1213   */\n      tag_54\n        /* \"#utility.yul\":1210:1212   */\n      0x25\n        /* \"#utility.yul\":1205:1208   */\n      dup4\n        /* \"#utility.yul\":1146:1213   */\n      tag_49\n      jump\t// in\n    tag_54:\n        /* \"#utility.yul\":1139:1213   */\n      swap2\n      pop\n        /* \"#utility.yul\":1222:1315   */\n      tag_55\n        /* \"#utility.yul\":1311:1314   */\n      dup3\n        /* \"#utility.yul\":1222:1315   */\n      tag_56\n      jump\t// in\n    tag_55:\n        /* \"#utility.yul\":1340:1342   */\n      0x40\n        /* \"#utility.yul\":1335:1338   */\n      dup3\n        /* \"#utility.yul\":1331:1343   */\n      add\n        /* \"#utility.yul\":1324:1343   */\n      swap1\n      pop\n        /* \"#utility.yul\":983:1349   */\n      swap2\n      swap1\n      pop\n      jump\t// out\n        /* \"#utility.yul\":1355:1721   */\n    tag_57:\n        /* \"#utility.yul\":1497:1500   */\n      0x00\n        /* \"#utility.yul\":1518:1585   */\n      tag_59\n        /* \"#utility.yul\":1582:1584   */\n      0x22\n        /* \"#utility.yul\":1577:1580   */\n      dup4\n        /* \"#utility.yul\":1518:1585   */\n      tag_49\n      jump\t// in\n    tag_59:\n        /* \"#utility.yul\":1511:1585   */\n      swap2\n      pop\n        /* \"#utility.yul\":1594:1687   */\n      tag_60\n        /* \"#utility.yul\":1683:1686   */\n      dup3\n        /* \"#utility.yul\":1594:1687   */\n      tag_61\n      jump\t// in\n    tag_60:\n        /* \"#utility.yul\":1712:1714   */\n      0x40\n        /* \"#utility.yul\":1707:1710   */\n      dup3\n        /* \"#utility.yul\":1703:1715   */\n      add\n        /* \"#utility.yul\":1696:1715   */\n      swap1\n      pop\n        /* \"#utility.yul\":1355:1721   */\n      swap2\n      swap1\n      pop\n      jump\t// out\n        /* \"#utility.yul\":1727:2125   */\n    tag_62:\n        /* \"#utility.yul\":1886:1889   */\n      0x00\n        /* \"#utility.yul\":1907:1990   */\n      tag_64\n        /* \"#utility.yul\":1988:1989   */\n      0x00\n        /* \"#utility.yul\":1983:1986   */\n      dup4\n        /* \"#utility.yul\":1907:1990   */\n      tag_65\n      jump\t// in\n    tag_64:\n        /* \"#utility.yul\":1900:1990   */\n      swap2\n      pop\n        /* \"#utility.yul\":1999:2092   */\n      tag_66\n        /* \"#utility.yul\":2088:2091   */\n      dup3\n        /* \"#utility.yul\":1999:2092   */\n      tag_67\n      jump\t// in\n    tag_66:\n        /* \"#utility.yul\":2117:2118   */\n      0x00\n        /* \"#utility.yul\":2112:2115   */\n      dup3\n        /* \"#utility.yul\":2108:2119   */\n      add\n        /* \"#utility.yul\":2101:2119   */\n      swap1\n      pop\n        /* \"#utility.yul\":1727:2125   */\n      swap2\n      swap1\n      pop\n      jump\t// out\n        /* \"#utility.yul\":2131:2510   */\n    tag_25:\n        /* \"#utility.yul\":2315:2318   */\n      0x00\n        /* \"#utility.yul\":2337:2484   */\n      tag_69\n        /* \"#utility.yul\":2480:2483   */\n      dup3\n        /* \"#utility.yul\":2337:2484   */\n      tag_62\n      jump\t// in\n    tag_69:\n        /* \"#utility.yul\":2330:2484   */\n      swap2\n      pop\n        /* \"#utility.yul\":2501:2504   */\n      dup2\n        /* \"#utility.yul\":2494:2504   */\n      swap1\n      pop\n        /* \"#utility.yul\":2131:2510   */\n      swap2\n      swap1\n      pop\n      jump\t// out\n        /* \"#utility.yul\":2516:2738   */\n    tag_16:\n        /* \"#utility.yul\":2609:2613   */\n      0x00\n        /* \"#utility.yul\":2647:2649   */\n      0x20\n        /* \"#utility.yul\":2636:2645   */\n      dup3\n        /* \"#utility.yul\":2632:2650   */\n      add\n        /* \"#utility.yul\":2624:2650   */\n      swap1\n      pop\n        /* \"#utility.yul\":2660:2731   */\n      tag_71\n        /* \"#utility.yul\":2728:2729   */\n      0x00\n        /* \"#utility.yul\":2717:2726   */\n      dup4\n        /* \"#utility.yul\":2713:2730   */\n      add\n        /* \"#utility.yul\":2704:2710   */\n      dup5\n        /* \"#utility.yul\":2660:2731   */\n      tag_42\n      jump\t// in\n    tag_71:\n        /* \"#utility.yul\":2516:2738   */\n      swap3\n      swap2\n      pop\n      pop\n      jump\t// out\n        /* \"#utility.yul\":2744:3163   */\n    tag_23:\n        /* \"#utility.yul\":2910:2914   */\n      0x00\n        /* \"#utility.yul\":2948:2950   */\n      0x20\n        /* \"#utility.yul\":2937:2946   */\n      dup3\n        /* \"#utility.yul\":2933:2951   */\n      add\n        /* \"#utility.yul\":2925:2951   */\n      swap1\n      pop\n        /* \"#utility.yul\":2997:3006   */\n      dup2\n        /* \"#utility.yul\":2991:2995   */\n      dup2\n        /* \"#utility.yul\":2987:3007   */\n      sub\n        /* \"#utility.yul\":2983:2984   */\n      0x00\n        /* \"#utility.yul\":2972:2981   */\n      dup4\n        /* \"#utility.yul\":2968:2985   */\n      add\n        /* \"#utility.yul\":2961:3008   */\n      mstore\n        /* \"#utility.yul\":3025:3156   */\n      tag_73\n        /* \"#utility.yul\":3151:3155   */\n      dup2\n        /* \"#utility.yul\":3025:3156   */\n      tag_46\n      jump\t// in\n    tag_73:\n        /* \"#utility.yul\":3017:3156   */\n      swap1\n      pop\n        /* \"#utility.yul\":2744:3163   */\n      swap2\n      swap1\n      pop\n      jump\t// out\n        /* \"#utility.yul\":3169:3588   */\n    tag_31:\n        /* \"#utility.yul\":3335:3339   */\n      0x00\n        /* \"#utility.yul\":3373:3375   */\n      0x20\n        /* \"#utility.yul\":3362:3371   */\n      dup3\n        /* \"#utility.yul\":3358:3376   */\n      add\n        /* \"#utility.yul\":3350:3376   */\n      swap1\n      pop\n        /* \"#utility.yul\":3422:3431   */\n      dup2\n        /* \"#utility.yul\":3416:3420   */\n      dup2\n        /* \"#utility.yul\":3412:3432   */\n      sub\n        /* \"#utility.yul\":3408:3409   */\n      0x00\n        /* \"#utility.yul\":3397:3406   */\n      dup4\n        /* \"#utility.yul\":3393:3410   */\n      add\n        /* \"#utility.yul\":3386:3433   */\n      mstore\n        /* \"#utility.yul\":3450:3581   */\n      tag_75\n        /* \"#utility.yul\":3576:3580   */\n      dup2\n        /* \"#utility.yul\":3450:3581   */\n      tag_52\n      jump\t// in\n    tag_75:\n        /* \"#utility.yul\":3442:3581   */\n      swap1\n      pop\n        /* \"#utility.yul\":3169:3588   */\n      swap2\n      swap1\n      pop\n      jump\t// out\n        /* \"#utility.yul\":3594:4013   */\n    tag_20:\n        /* \"#utility.yul\":3760:3764   */\n      0x00\n        /* \"#utility.yul\":3798:3800   */\n      0x20\n        /* \"#utility.yul\":3787:3796   */\n      dup3\n        /* \"#utility.yul\":3783:3801   */\n      add\n        /* \"#utility.yul\":3775:3801   */\n      swap1\n      pop\n        /* \"#utility.yul\":3847:3856   */\n      dup2\n        /* \"#utility.yul\":3841:3845   */\n      dup2\n        /* \"#utility.yul\":3837:3857   */\n      sub\n        /* \"#utility.yul\":3833:3834   */\n      0x00\n        /* \"#utility.yul\":3822:3831   */\n      dup4\n        /* \"#utility.yul\":3818:3835   */\n      add\n        /* \"#utility.yul\":3811:3858   */\n      mstore\n        /* \"#utility.yul\":3875:4006   */\n      tag_77\n        /* \"#utility.yul\":4001:4005   */\n      dup2\n        /* \"#utility.yul\":3875:4006   */\n      tag_57\n      jump\t// in\n    tag_77:\n        /* \"#utility.yul\":3867:4006   */\n      swap1\n      pop\n        /* \"#utility.yul\":3594:4013   */\n      swap2\n      swap1\n      pop\n      jump\t// out\n        /* \"#utility.yul\":4100:4247   */\n    tag_65:\n        /* \"#utility.yul\":4201:4212   */\n      0x00\n        /* \"#utility.yul\":4238:4241   */\n      dup2\n        /* \"#utility.yul\":4223:4241   */\n      swap1\n      pop\n        /* \"#utility.yul\":4100:4247   */\n      swap3\n      swap2\n      pop\n      pop\n      jump\t// out\n        /* \"#utility.yul\":4253:4422   */\n    tag_49:\n        /* \"#utility.yul\":4337:4348   */\n      0x00\n        /* \"#utility.yul\":4371:4377   */\n      dup3\n        /* \"#utility.yul\":4366:4369   */\n      dup3\n        /* \"#utility.yul\":4359:4378   */\n      mstore\n        /* \"#utility.yul\":4411:4415   */\n      0x20\n        /* \"#utility.yul\":4406:4409   */\n      dup3\n        /* \"#utility.yul\":4402:4416   */\n      add\n        /* \"#utility.yul\":4387:4416   */\n      swap1\n      pop\n        /* \"#utility.yul\":4253:4422   */\n      swap3\n      swap2\n      pop\n      pop\n      jump\t// out\n        /* \"#utility.yul\":4428:4524   */\n    tag_45:\n        /* \"#utility.yul\":4465:4472   */\n      0x00\n        /* \"#utility.yul\":4494:4518   */\n      tag_83\n        /* \"#utility.yul\":4512:4517   */\n      dup3\n        /* \"#utility.yul\":4494:4518   */\n      tag_84\n      jump\t// in\n    tag_83:\n        /* \"#utility.yul\":4483:4518   */\n      swap1\n      pop\n        /* \"#utility.yul\":4428:4524   */\n      swap2\n      swap1\n      pop\n      jump\t// out\n        /* \"#utility.yul\":4530:4656   */\n    tag_84:\n        /* \"#utility.yul\":4567:4574   */\n      0x00\n        /* \"#utility.yul\":4607:4649   */\n      0xffffffffffffffffffffffffffffffffffffffff\n        /* \"#utility.yul\":4600:4605   */\n      dup3\n        /* \"#utility.yul\":4596:4650   */\n      and\n        /* \"#utility.yul\":4585:4650   */\n      swap1\n      pop\n        /* \"#utility.yul\":4530:4656   */\n      swap2\n      swap1\n      pop\n      jump\t// out\n        /* \"#utility.yul\":4662:4739   */\n    tag_86:\n        /* \"#utility.yul\":4699:4706   */\n      0x00\n        /* \"#utility.yul\":4728:4733   */\n      dup2\n        /* \"#utility.yul\":4717:4733   */\n      swap1\n      pop\n        /* \"#utility.yul\":4662:4739   */\n      swap2\n      swap1\n      pop\n      jump\t// out\n        /* \"#utility.yul\":4868:4985   */\n    tag_40:\n        /* \"#utility.yul\":4977:4978   */\n      0x00\n        /* \"#utility.yul\":4974:4975   */\n      dup1\n        /* \"#utility.yul\":4967:4979   */\n      revert\n        /* \"#utility.yul\":4991:5161   */\n    tag_51:\n        /* \"#utility.yul\":5131:5153   */\n      0x496e73756666696369656e742062616c616e6365000000000000000000000000\n        /* \"#utility.yul\":5127:5128   */\n      0x00\n        /* \"#utility.yul\":5119:5125   */\n      dup3\n        /* \"#utility.yul\":5115:5129   */\n      add\n        /* \"#utility.yul\":5108:5154   */\n      mstore\n        /* \"#utility.yul\":4991:5161   */\n      pop\n      jump\t// out\n        /* \"#utility.yul\":5167:5391   */\n    tag_56:\n        /* \"#utility.yul\":5307:5341   */\n      0x5061796d656e74206661696c65642120756e61626c6520746f2073656e642061\n        /* \"#utility.yul\":5303:5304   */\n      0x00\n        /* \"#utility.yul\":5295:5301   */\n      dup3\n        /* \"#utility.yul\":5291:5305   */\n      add\n        /* \"#utility.yul\":5284:5342   */\n      mstore\n        /* \"#utility.yul\":5376:5383   */\n      0x6d6f756e74000000000000000000000000000000000000000000000000000000\n        /* \"#utility.yul\":5371:5373   */\n      0x20\n        /* \"#utility.yul\":5363:5369   */\n      dup3\n        /* \"#utility.yul\":5359:5374   */\n      add\n        /* \"#utility.yul\":5352:5384   */\n      mstore\n        /* \"#utility.yul\":5167:5391   */\n      pop\n      jump\t// out\n        /* \"#utility.yul\":5397:5618   */\n    tag_61:\n        /* \"#utility.yul\":5537:5571   */\n      0x4f6e6c792061646d696e2063616e2077697468647261772074686520616d6f75\n        /* \"#utility.yul\":5533:5534   */\n      0x00\n        /* \"#utility.yul\":5525:5531   */\n      dup3\n        /* \"#utility.yul\":5521:5535   */\n      add\n        /* \"#utility.yul\":5514:5572   */\n      mstore\n        /* \"#utility.yul\":5606:5610   */\n      0x6e74000000000000000000000000000000000000000000000000000000000000\n        /* \"#utility.yul\":5601:5603   */\n      0x20\n        /* \"#utility.yul\":5593:5599   */\n      dup3\n        /* \"#utility.yul\":5589:5604   */\n      add\n        /* \"#utility.yul\":5582:5611   */\n      mstore\n        /* \"#utility.yul\":5397:5618   */\n      pop\n      jump\t// out\n        /* \"#utility.yul\":5624:5738   */\n    tag_67:\n      pop\n      jump\t// out\n        /* \"#utility.yul\":5744:5866   */\n    tag_36:\n        /* \"#utility.yul\":5817:5841   */\n      tag_96\n        /* \"#utility.yul\":5835:5840   */\n      dup2\n        /* \"#utility.yul\":5817:5841   */\n      tag_86\n      jump\t// in\n    tag_96:\n        /* \"#utility.yul\":5810:5815   */\n      dup2\n        /* \"#utility.yul\":5807:5842   */\n      eq\n        /* \"#utility.yul\":5797:5860   */\n      tag_97\n      jumpi\n        /* \"#utility.yul\":5856:5857   */\n      0x00\n        /* \"#utility.yul\":5853:5854   */\n      dup1\n        /* \"#utility.yul\":5846:5858   */\n      revert\n        /* \"#utility.yul\":5797:5860   */\n    tag_97:\n        /* \"#utility.yul\":5744:5866   */\n      pop\n      jump\t// out\n\n    auxdata: 0xa2646970667358221220699596c4a43f8e16a35fb3160b05b3ea4138d5a1631dd52bc864236fd46b4cfa64736f6c63430008070033\n}\n",
				"bytecode": {
					"linkReferences": {},
					"object": "608060405234801561001057600080fd5b50336000806101000a81548173ffffffffffffffffffffffffffffffffffffffff021916908373ffffffffffffffffffffffffffffffffffffffff160217905550610534806100606000396000f3fe60806040526004361061002d5760003560e01c80632e1a7d4d14610039578063f851a4401461006257610034565b3661003457005b600080fd5b34801561004557600080fd5b50610060600480360381019061005b9190610268565b61008d565b005b34801561006e57600080fd5b5061007761022f565b6040516100849190610345565b60405180910390f35b60008054906101000a900473ffffffffffffffffffffffffffffffffffffffff1673ffffffffffffffffffffffffffffffffffffffff163373ffffffffffffffffffffffffffffffffffffffff161461011b576040517f08c379a0000000000000000000000000000000000000000000000000000000008152600401610112906103a0565b60405180910390fd5b8047101561015e576040517f08c379a000000000000000000000000000000000000000000000000000000000815260040161015590610360565b60405180910390fd5b60008060009054906101000a900473ffffffffffffffffffffffffffffffffffffffff1673ffffffffffffffffffffffffffffffffffffffff16826040516101a590610330565b60006040518083038185875af1925050503d80600081146101e2576040519150601f19603f3d011682016040523d82523d6000602084013e6101e7565b606091505b505090508061022b576040517f08c379a000000000000000000000000000000000000000000000000000000000815260040161022290610380565b60405180910390fd5b5050565b60008054906101000a900473ffffffffffffffffffffffffffffffffffffffff1681565b600081359050610262816104e7565b92915050565b60006020828403121561027e5761027d610418565b5b600061028c84828501610253565b91505092915050565b61029e816103dc565b82525050565b60006102b16014836103cb565b91506102bc8261041d565b602082019050919050565b60006102d46025836103cb565b91506102df82610446565b604082019050919050565b60006102f76022836103cb565b915061030282610495565b604082019050919050565b600061031a6000836103c0565b9150610325826104e4565b600082019050919050565b600061033b8261030d565b9150819050919050565b600060208201905061035a6000830184610295565b92915050565b60006020820190508181036000830152610379816102a4565b9050919050565b60006020820190508181036000830152610399816102c7565b9050919050565b600060208201905081810360008301526103b9816102ea565b9050919050565b600081905092915050565b600082825260208201905092915050565b60006103e7826103ee565b9050919050565b600073ffffffffffffffffffffffffffffffffffffffff82169050919050565b6000819050919050565b600080fd5b7f496e73756666696369656e742062616c616e6365000000000000000000000000600082015250565b7f5061796d656e74206661696c65642120756e61626c6520746f2073656e64206160008201527f6d6f756e74000000000000000000000000000000000000000000000000000000602082015250565b7f4f6e6c792061646d696e2063616e2077697468647261772074686520616d6f7560008201527f6e74000000000000000000000000000000000000000000000000000000000000602082015250565b50565b6104f08161040e565b81146104fb57600080fd5b5056fea2646970667358221220699596c4a43f8e16a35fb3160b05b3ea4138d5a1631dd52bc864236fd46b4cfa64736f6c63430008070033",
					"opcodes": "PUSH1 0x80 PUSH1 0x40 MSTORE CALLVALUE DUP1 ISZERO PUSH2 0x10 JUMPI PUSH1 0x0 DUP1 REVERT JUMPDEST POP CALLER PUSH1 0x0 DUP1 PUSH2 0x100 EXP DUP2 SLOAD DUP2 PUSH20 0xFFFFFFFFFFFFFFFFFFFFFFFFFFFFFFFFFFFFFFFF MUL NOT AND SWAP1 DUP4 PUSH20 0xFFFFFFFFFFFFFFFFFFFFFFFFFFFFFFFFFFFFFFFF AND MUL OR SWAP1 SSTORE POP PUSH2 0x534 DUP1 PUSH2 0x60 PUSH1 0x0 CODECOPY PUSH1 0x0 RETURN INVALID PUSH1 0x80 PUSH1 0x40 MSTORE PUSH1 0x4 CALLDATASIZE LT PUSH2 0x2D JUMPI PUSH1 0x0 CALLDATALOAD PUSH1 0xE0 SHR DUP1 PUSH4 0x2E1A7D4D EQ PUSH2 0x39 JUMPI DUP1 PUSH4 0xF851A440 EQ PUSH2 0x62 JUMPI PUSH2 0x34 JUMP JUMPDEST CALLDATASIZE PUSH2 0x34 JUMPI STOP JUMPDEST PUSH1 0x0 DUP1 REVERT JUMPDEST CALLVALUE DUP1 ISZERO PUSH2 0x45 JUMPI PUSH1 0x0 DUP1 REVERT JUMPDEST POP PUSH2 0x60 PUSH1 0x4 DUP1 CALLDATASIZE SUB DUP2 ADD SWAP1 PUSH2 0x5B SWAP2 SWAP1 PUSH2 0x268 JUMP JUMPDEST PUSH2 0x8D JUMP JUMPDEST STOP JUMPDEST CALLVALUE DUP1 ISZERO PUSH2 0x6E JUMPI PUSH1 0x0 DUP1 REVERT JUMPDEST POP PUSH2 0x77 PUSH2 0x22F JUMP JUMPDEST PUSH1 0x40 MLOAD PUSH2 0x84 SWAP2 SWAP1 PUSH2 0x345 JUMP JUMPDEST PUSH1 0x40 MLOAD DUP1 SWAP2 SUB SWAP1 RETURN JUMPDEST PUSH1 0x0 DUP1 SLOAD SWAP1 PUSH2 0x100 EXP SWAP1 DIV PUSH20 0xFFFFFFFFFFFFFFFFFFFFFFFFFFFFFFFFFFFFFFFF AND PUSH20 0xFFFFFFFFFFFFFFFFFFFFFFFFFFFFFFFFFFFFFFFF AND CALLER PUSH20 0xFFFFFFFFFFFFFFFFFFFFFFFFFFFFFFFFFFFFFFFF AND EQ PUSH2 0x11B JUMPI PUSH1 0x40 MLOAD PUSH32 0x8C379A000000000000000000000000000000000000000000000000000000000 DUP2 MSTORE PUSH1 0x4 ADD PUSH2 0x112 SWAP1 PUSH2 0x3A0 JUMP JUMPDEST PUSH1 0x40 MLOAD DUP1 SWAP2 SUB SWAP1 REVERT JUMPDEST DUP1 SELFBALANCE LT ISZERO PUSH2 0x15E JUMPI PUSH1 0x40 MLOAD PUSH32 0x8C379A000000000000000000000000000000000000000000000000000000000 DUP2 MSTORE PUSH1 0x4 ADD PUSH2 0x155 SWAP1 PUSH2 0x360 JUMP JUMPDEST PUSH1 0x40 MLOAD DUP1 SWAP2 SUB SWAP1 REVERT JUMPDEST PUSH1 0x0 DUP1 PUSH1 0x0 SWAP1 SLOAD SWAP1 PUSH2 0x100 EXP SWAP1 DIV PUSH20 0xFFFFFFFFFFFFFFFFFFFFFFFFFFFFFFFFFFFFFFFF AND PUSH20 0xFFFFFFFFFFFFFFFFFFFFFFFFFFFFFFFFFFFFFFFF AND DUP3 PUSH1 0x40 MLOAD PUSH2 0x1A5 SWAP1 PUSH2 0x330 JUMP JUMPDEST PUSH1 0x0 PUSH1 0x40 MLOAD DUP1 DUP4 SUB DUP2 DUP6 DUP8 GAS CALL SWAP3 POP POP POP RETURNDATASIZE DUP1 PUSH1 0x0 DUP2 EQ PUSH2 0x1E2 JUMPI PUSH1 0x40 MLOAD SWAP2 POP PUSH1 0x1F NOT PUSH1 0x3F RETURNDATASIZE ADD AND DUP3 ADD PUSH1 0x40 MSTORE RETURNDATASIZE DUP3 MSTORE RETURNDATASIZE PUSH1 0x0 PUSH1 0x20 DUP5 ADD RETURNDATACOPY PUSH2 0x1E7 JUMP JUMPDEST PUSH1 0x60 SWAP2 POP JUMPDEST POP POP SWAP1 POP DUP1 PUSH2 0x22B JUMPI PUSH1 0x40 MLOAD PUSH32 0x8C379A000000000000000000000000000000000000000000000000000000000 DUP2 MSTORE PUSH1 0x4 ADD PUSH2 0x222 SWAP1 PUSH2 0x380 JUMP JUMPDEST PUSH1 0x40 MLOAD DUP1 SWAP2 SUB SWAP1 REVERT JUMPDEST POP POP JUMP JUMPDEST PUSH1 0x0 DUP1 SLOAD SWAP1 PUSH2 0x100 EXP SWAP1 DIV PUSH20 0xFFFFFFFFFFFFFFFFFFFFFFFFFFFFFFFFFFFFFFFF AND DUP2 JUMP JUMPDEST PUSH1 0x0 DUP2 CALLDATALOAD SWAP1 POP PUSH2 0x262 DUP2 PUSH2 0x4E7 JUMP JUMPDEST SWAP3 SWAP2 POP POP JUMP JUMPDEST PUSH1 0x0 PUSH1 0x20 DUP3 DUP5 SUB SLT ISZERO PUSH2 0x27E JUMPI PUSH2 0x27D PUSH2 0x418 JUMP JUMPDEST JUMPDEST PUSH1 0x0 PUSH2 0x28C DUP5 DUP3 DUP6 ADD PUSH2 0x253 JUMP JUMPDEST SWAP2 POP POP SWAP3 SWAP2 POP POP JUMP JUMPDEST PUSH2 0x29E DUP2 PUSH2 0x3DC JUMP JUMPDEST DUP3 MSTORE POP POP JUMP JUMPDEST PUSH1 0x0 PUSH2 0x2B1 PUSH1 0x14 DUP4 PUSH2 0x3CB JUMP JUMPDEST SWAP2 POP PUSH2 0x2BC DUP3 PUSH2 0x41D JUMP JUMPDEST PUSH1 0x20 DUP3 ADD SWAP1 POP SWAP2 SWAP1 POP JUMP JUMPDEST PUSH1 0x0 PUSH2 0x2D4 PUSH1 0x25 DUP4 PUSH2 0x3CB JUMP JUMPDEST SWAP2 POP PUSH2 0x2DF DUP3 PUSH2 0x446 JUMP JUMPDEST PUSH1 0x40 DUP3 ADD SWAP1 POP SWAP2 SWAP1 POP JUMP JUMPDEST PUSH1 0x0 PUSH2 0x2F7 PUSH1 0x22 DUP4 PUSH2 0x3CB JUMP JUMPDEST SWAP2 POP PUSH2 0x302 DUP3 PUSH2 0x495 JUMP JUMPDEST PUSH1 0x40 DUP3 ADD SWAP1 POP SWAP2 SWAP1 POP JUMP JUMPDEST PUSH1 0x0 PUSH2 0x31A PUSH1 0x0 DUP4 PUSH2 0x3C0 JUMP JUMPDEST SWAP2 POP PUSH2 0x325 DUP3 PUSH2 0x4E4 JUMP JUMPDEST PUSH1 0x0 DUP3 ADD SWAP1 POP SWAP2 SWAP1 POP JUMP JUMPDEST PUSH1 0x0 PUSH2 0x33B DUP3 PUSH2 0x30D JUMP JUMPDEST SWAP2 POP DUP2 SWAP1 POP SWAP2 SWAP1 POP JUMP JUMPDEST PUSH1 0x0 PUSH1 0x20 DUP3 ADD SWAP1 POP PUSH2 0x35A PUSH1 0x0 DUP4 ADD DUP5 PUSH2 0x295 JUMP JUMPDEST SWAP3 SWAP2 POP POP JUMP JUMPDEST PUSH1 0x0 PUSH1 0x20 DUP3 ADD SWAP1 POP DUP2 DUP2 SUB PUSH1 0x0 DUP4 ADD MSTORE PUSH2 0x379 DUP2 PUSH2 0x2A4 JUMP JUMPDEST SWAP1 POP SWAP2 SWAP1 POP JUMP JUMPDEST PUSH1 0x0 PUSH1 0x20 DUP3 ADD SWAP1 POP DUP2 DUP2 SUB PUSH1 0x0 DUP4 ADD MSTORE PUSH2 0x399 DUP2 PUSH2 0x2C7 JUMP JUMPDEST SWAP1 POP SWAP2 SWAP1 POP JUMP JUMPDEST PUSH1 0x0 PUSH1 0x20 DUP3 ADD SWAP1 POP DUP2 DUP2 SUB PUSH1 0x0 DUP4 ADD MSTORE PUSH2 0x3B9 DUP2 PUSH2 0x2EA JUMP JUMPDEST SWAP1 POP SWAP2 SWAP1 POP JUMP JUMPDEST PUSH1 0x0 DUP2 SWAP1 POP SWAP3 SWAP2 POP POP JUMP JUMPDEST PUSH1 0x0 DUP3 DUP3 MSTORE PUSH1 0x20 DUP3 ADD SWAP1 POP SWAP3 SWAP2 POP POP JUMP JUMPDEST PUSH1 0x0 PUSH2 0x3E7 DUP3 PUSH2 0x3EE JUMP JUMPDEST SWAP1 POP SWAP2 SWAP1 POP JUMP JUMPDEST PUSH1 0x0 PUSH20 0xFFFFFFFFFFFFFFFFFFFFFFFFFFFFFFFFFFFFFFFF DUP3 AND SWAP1 POP SWAP2 SWAP1 POP JUMP JUMPDEST PUSH1 0x0 DUP2 SWAP1 POP SWAP2 SWAP1 POP JUMP JUMPDEST PUSH1 0x0 DUP1 REVERT JUMPDEST PUSH32 0x496E73756666696369656E742062616C616E6365000000000000000000000000 PUSH1 0x0 DUP3 ADD MSTORE POP JUMP JUMPDEST PUSH32 0x5061796D656E74206661696C65642120756E61626C6520746F2073656E642061 PUSH1 0x0 DUP3 ADD MSTORE PUSH32 0x6D6F756E74000000000000000000000000000000000000000000000000000000 PUSH1 0x20 DUP3 ADD MSTORE POP JUMP JUMPDEST PUSH32 0x4F6E6C792061646D696E2063616E2077697468647261772074686520616D6F75 PUSH1 0x0 DUP3 ADD MSTORE PUSH32 0x6E74000000000000000000000000000000000000000000000000000000000000 PUSH1 0x20 DUP3 ADD MSTORE POP JUMP JUMPDEST POP JUMP JUMPDEST PUSH2 0x4F0 DUP2 PUSH2 0x40E JUMP JUMPDEST DUP2 EQ PUSH2 0x4FB JUMPI PUSH1 0x0 DUP1 REVERT JUMPDEST POP JUMP INVALID LOG2 PUSH5 0x6970667358 0x22 SLT KECCAK256 PUSH10 0x9596C4A43F8E16A35FB3 AND SIGNEXTEND SDIV 0xB3 0xEA COINBASE CODESIZE 0xD5 LOG1 PUSH4 0x1DD52BC8 PUSH5 0x236FD46B4C STATICCALL PUSH5 0x736F6C6343 STOP ADDMOD SMOD STOP CALLER "
				},
				"gasEstimates": {
					"creation": {
						"codeDepositCost": "266400",
						"executionCost": "24572",
						"totalCost": "290972"
					},
					"external": {
						"admin()": "2511",
						"withdraw(uint256)": "infinite"
					}
				},
				"methodIdentifiers": {
					"admin()": "f851a440",
					"withdraw(uint256)": "2e1a7d4d"
				}
			},
			"storageLayout": {
				"storage": [
					{
						"astId": 3,
						"contract": "contracts/ConstructorExample.sol:Constructors",
						"label": "admin",
						"offset": 0,
						"slot": "0",
						"type": "t_address"
					}
				],
				"types": {
					"t_address": {
						"encoding": "inplace",
						"label": "address",
						"numberOfBytes": "20"
					}
				}
			},
			"userdoc": {
				"kind": "user",
				"methods": {},
				"version": 1
			}
		}
	}
}