{
	"contracts/ExploitSelfDestruct.sol": {
		"LuckyWinner": {
			"abi": [
				{
					"inputs": [],
					"name": "pay",
					"outputs": [],
					"stateMutability": "payable",
					"type": "function"
				},
				{
					"inputs": [],
					"name": "withdraw",
					"outputs": [],
					"stateMutability": "nonpayable",
					"type": "function"
				}
			],
			"devdoc": {
				"kind": "dev",
				"methods": {},
				"version": 1
			},
			"evm": {
				"assembly": "    /* \"contracts/ExploitSelfDestruct.sol\":37:550  contract LuckyWinner {\r... */\n  mstore(0x40, 0x80)\n  callvalue\n  dup1\n  iszero\n  tag_1\n  jumpi\n  0x00\n  dup1\n  revert\ntag_1:\n  pop\n  dataSize(sub_0)\n  dup1\n  dataOffset(sub_0)\n  0x00\n  codecopy\n  0x00\n  return\nstop\n\nsub_0: assembly {\n        /* \"contracts/ExploitSelfDestruct.sol\":37:550  contract LuckyWinner {\r... */\n      mstore(0x40, 0x80)\n      jumpi(tag_1, lt(calldatasize, 0x04))\n      shr(0xe0, calldataload(0x00))\n      dup1\n      0x1b9265b8\n      eq\n      tag_2\n      jumpi\n      dup1\n      0x3ccfd60b\n      eq\n      tag_3\n      jumpi\n    tag_1:\n      0x00\n      dup1\n      revert\n        /* \"contracts/ExploitSelfDestruct.sol\":106:313  function pay() external payable {\r... */\n    tag_2:\n      tag_4\n      tag_5\n      jump\t// in\n    tag_4:\n      stop\n        /* \"contracts/ExploitSelfDestruct.sol\":321:547  function withdraw() public {\r... */\n    tag_3:\n      callvalue\n      dup1\n      iszero\n      tag_6\n      jumpi\n      0x00\n      dup1\n      revert\n    tag_6:\n      pop\n      tag_7\n      tag_8\n      jump\t// in\n    tag_7:\n      stop\n        /* \"contracts/ExploitSelfDestruct.sol\":106:313  function pay() external payable {\r... */\n    tag_5:\n        /* \"contracts/ExploitSelfDestruct.sol\":170:171  1 */\n      0x01\n        /* \"contracts/ExploitSelfDestruct.sol\":157:166  msg.value */\n      callvalue\n        /* \"contracts/ExploitSelfDestruct.sol\":157:171  msg.value == 1 */\n      eq\n        /* \"contracts/ExploitSelfDestruct.sol\":149:211  require(msg.value == 1, \"You can pay only 1 Ether at a time.\") */\n      tag_10\n      jumpi\n      mload(0x40)\n      0x08c379a000000000000000000000000000000000000000000000000000000000\n      dup2\n      mstore\n      0x04\n      add\n      tag_11\n      swap1\n      tag_12\n      jump\t// in\n    tag_11:\n      mload(0x40)\n      dup1\n      swap2\n      sub\n      swap1\n      revert\n    tag_10:\n        /* \"contracts/ExploitSelfDestruct.sol\":232:233  1 */\n      0x01\n        /* \"contracts/ExploitSelfDestruct.sol\":222:228  amount */\n      dup1\n      0x00\n        /* \"contracts/ExploitSelfDestruct.sol\":222:233  amount += 1 */\n      dup3\n      dup3\n      sload\n      tag_13\n      swap2\n      swap1\n      tag_14\n      jump\t// in\n    tag_13:\n      swap3\n      pop\n      pop\n      dup2\n      swap1\n      sstore\n      pop\n        /* \"contracts/ExploitSelfDestruct.sol\":258:259  3 */\n      0x03\n        /* \"contracts/ExploitSelfDestruct.sol\":248:254  amount */\n      sload(0x01)\n        /* \"contracts/ExploitSelfDestruct.sol\":248:259  amount == 3 */\n      eq\n        /* \"contracts/ExploitSelfDestruct.sol\":244:306  if (amount == 3){\r... */\n      iszero\n      tag_15\n      jumpi\n        /* \"contracts/ExploitSelfDestruct.sol\":284:294  msg.sender */\n      caller\n        /* \"contracts/ExploitSelfDestruct.sol\":275:281  winner */\n      0x00\n      dup1\n        /* \"contracts/ExploitSelfDestruct.sol\":275:294  winner = msg.sender */\n      0x0100\n      exp\n      dup2\n      sload\n      dup2\n      0xffffffffffffffffffffffffffffffffffffffff\n      mul\n      not\n      and\n      swap1\n      dup4\n      0xffffffffffffffffffffffffffffffffffffffff\n      and\n      mul\n      or\n      swap1\n      sstore\n      pop\n        /* \"contracts/ExploitSelfDestruct.sol\":244:306  if (amount == 3){\r... */\n    tag_15:\n        /* \"contracts/ExploitSelfDestruct.sol\":106:313  function pay() external payable {\r... */\n      jump\t// out\n        /* \"contracts/ExploitSelfDestruct.sol\":321:547  function withdraw() public {\r... */\n    tag_8:\n        /* \"contracts/ExploitSelfDestruct.sol\":377:387  msg.sender */\n      caller\n        /* \"contracts/ExploitSelfDestruct.sol\":367:387  winner == msg.sender */\n      0xffffffffffffffffffffffffffffffffffffffff\n      and\n        /* \"contracts/ExploitSelfDestruct.sol\":367:373  winner */\n      0x00\n      dup1\n      sload\n      swap1\n      0x0100\n      exp\n      swap1\n      div\n      0xffffffffffffffffffffffffffffffffffffffff\n      and\n        /* \"contracts/ExploitSelfDestruct.sol\":367:387  winner == msg.sender */\n      0xffffffffffffffffffffffffffffffffffffffff\n      and\n      eq\n        /* \"contracts/ExploitSelfDestruct.sol\":359:434  require(winner == msg.sender, \"You are not the winner of this lucky draw.\") */\n      tag_17\n      jumpi\n      mload(0x40)\n      0x08c379a000000000000000000000000000000000000000000000000000000000\n      dup2\n      mstore\n      0x04\n      add\n      tag_18\n      swap1\n      tag_19\n      jump\t// in\n    tag_18:\n      mload(0x40)\n      dup1\n      swap2\n      sub\n      swap1\n      revert\n    tag_17:\n        /* \"contracts/ExploitSelfDestruct.sol\":446:455  bool sent */\n      0x00\n        /* \"contracts/ExploitSelfDestruct.sol\":469:475  winner */\n      dup1\n      0x00\n      swap1\n      sload\n      swap1\n      0x0100\n      exp\n      swap1\n      div\n      0xffffffffffffffffffffffffffffffffffffffff\n      and\n        /* \"contracts/ExploitSelfDestruct.sol\":461:481  payable(winner).call */\n      0xffffffffffffffffffffffffffffffffffffffff\n      and\n        /* \"contracts/ExploitSelfDestruct.sol\":488:491  100 */\n      0x64\n        /* \"contracts/ExploitSelfDestruct.sol\":461:496  payable(winner).call{value:100}(\"\") */\n      mload(0x40)\n      tag_20\n      swap1\n      tag_21\n      jump\t// in\n    tag_20:\n      0x00\n      mload(0x40)\n      dup1\n      dup4\n      sub\n      dup2\n      dup6\n      dup8\n      gas\n      call\n      swap3\n      pop\n      pop\n      pop\n      returndatasize\n      dup1\n      0x00\n      dup2\n      eq\n      tag_24\n      jumpi\n      mload(0x40)\n      swap2\n      pop\n      and(add(returndatasize, 0x3f), not(0x1f))\n      dup3\n      add\n      0x40\n      mstore\n      returndatasize\n      dup3\n      mstore\n      returndatasize\n      0x00\n      0x20\n      dup5\n      add\n      returndatacopy\n      jump(tag_23)\n    tag_24:\n      0x60\n      swap2\n      pop\n    tag_23:\n      pop\n        /* \"contracts/ExploitSelfDestruct.sol\":445:496  (bool sent, ) = payable(winner).call{value:100}(\"\") */\n      pop\n      swap1\n      pop\n        /* \"contracts/ExploitSelfDestruct.sol\":515:519  sent */\n      dup1\n        /* \"contracts/ExploitSelfDestruct.sol\":507:539  require(sent , \"Payment failed\") */\n      tag_25\n      jumpi\n      mload(0x40)\n      0x08c379a000000000000000000000000000000000000000000000000000000000\n      dup2\n      mstore\n      0x04\n      add\n      tag_26\n      swap1\n      tag_27\n      jump\t// in\n    tag_26:\n      mload(0x40)\n      dup1\n      swap2\n      sub\n      swap1\n      revert\n    tag_25:\n        /* \"contracts/ExploitSelfDestruct.sol\":348:547  {\r... */\n      pop\n        /* \"contracts/ExploitSelfDestruct.sol\":321:547  function withdraw() public {\r... */\n      jump\t// out\n        /* \"#utility.yul\":7:373   */\n    tag_29:\n        /* \"#utility.yul\":149:152   */\n      0x00\n        /* \"#utility.yul\":170:237   */\n      tag_31\n        /* \"#utility.yul\":234:236   */\n      0x0e\n        /* \"#utility.yul\":229:232   */\n      dup4\n        /* \"#utility.yul\":170:237   */\n      tag_32\n      jump\t// in\n    tag_31:\n        /* \"#utility.yul\":163:237   */\n      swap2\n      pop\n        /* \"#utility.yul\":246:339   */\n      tag_33\n        /* \"#utility.yul\":335:338   */\n      dup3\n        /* \"#utility.yul\":246:339   */\n      tag_34\n      jump\t// in\n    tag_33:\n        /* \"#utility.yul\":364:366   */\n      0x20\n        /* \"#utility.yul\":359:362   */\n      dup3\n        /* \"#utility.yul\":355:367   */\n      add\n        /* \"#utility.yul\":348:367   */\n      swap1\n      pop\n        /* \"#utility.yul\":7:373   */\n      swap2\n      swap1\n      pop\n      jump\t// out\n        /* \"#utility.yul\":379:777   */\n    tag_35:\n        /* \"#utility.yul\":538:541   */\n      0x00\n        /* \"#utility.yul\":559:642   */\n      tag_37\n        /* \"#utility.yul\":640:641   */\n      0x00\n        /* \"#utility.yul\":635:638   */\n      dup4\n        /* \"#utility.yul\":559:642   */\n      tag_38\n      jump\t// in\n    tag_37:\n        /* \"#utility.yul\":552:642   */\n      swap2\n      pop\n        /* \"#utility.yul\":651:744   */\n      tag_39\n        /* \"#utility.yul\":740:743   */\n      dup3\n        /* \"#utility.yul\":651:744   */\n      tag_40\n      jump\t// in\n    tag_39:\n        /* \"#utility.yul\":769:770   */\n      0x00\n        /* \"#utility.yul\":764:767   */\n      dup3\n        /* \"#utility.yul\":760:771   */\n      add\n        /* \"#utility.yul\":753:771   */\n      swap1\n      pop\n        /* \"#utility.yul\":379:777   */\n      swap2\n      swap1\n      pop\n      jump\t// out\n        /* \"#utility.yul\":783:1149   */\n    tag_41:\n        /* \"#utility.yul\":925:928   */\n      0x00\n        /* \"#utility.yul\":946:1013   */\n      tag_43\n        /* \"#utility.yul\":1010:1012   */\n      0x2a\n        /* \"#utility.yul\":1005:1008   */\n      dup4\n        /* \"#utility.yul\":946:1013   */\n      tag_32\n      jump\t// in\n    tag_43:\n        /* \"#utility.yul\":939:1013   */\n      swap2\n      pop\n        /* \"#utility.yul\":1022:1115   */\n      tag_44\n        /* \"#utility.yul\":1111:1114   */\n      dup3\n        /* \"#utility.yul\":1022:1115   */\n      tag_45\n      jump\t// in\n    tag_44:\n        /* \"#utility.yul\":1140:1142   */\n      0x40\n        /* \"#utility.yul\":1135:1138   */\n      dup3\n        /* \"#utility.yul\":1131:1143   */\n      add\n        /* \"#utility.yul\":1124:1143   */\n      swap1\n      pop\n        /* \"#utility.yul\":783:1149   */\n      swap2\n      swap1\n      pop\n      jump\t// out\n        /* \"#utility.yul\":1155:1521   */\n    tag_46:\n        /* \"#utility.yul\":1297:1300   */\n      0x00\n        /* \"#utility.yul\":1318:1385   */\n      tag_48\n        /* \"#utility.yul\":1382:1384   */\n      0x23\n        /* \"#utility.yul\":1377:1380   */\n      dup4\n        /* \"#utility.yul\":1318:1385   */\n      tag_32\n      jump\t// in\n    tag_48:\n        /* \"#utility.yul\":1311:1385   */\n      swap2\n      pop\n        /* \"#utility.yul\":1394:1487   */\n      tag_49\n        /* \"#utility.yul\":1483:1486   */\n      dup3\n        /* \"#utility.yul\":1394:1487   */\n      tag_50\n      jump\t// in\n    tag_49:\n        /* \"#utility.yul\":1512:1514   */\n      0x40\n        /* \"#utility.yul\":1507:1510   */\n      dup3\n        /* \"#utility.yul\":1503:1515   */\n      add\n        /* \"#utility.yul\":1496:1515   */\n      swap1\n      pop\n        /* \"#utility.yul\":1155:1521   */\n      swap2\n      swap1\n      pop\n      jump\t// out\n        /* \"#utility.yul\":1527:1906   */\n    tag_21:\n        /* \"#utility.yul\":1711:1714   */\n      0x00\n        /* \"#utility.yul\":1733:1880   */\n      tag_52\n        /* \"#utility.yul\":1876:1879   */\n      dup3\n        /* \"#utility.yul\":1733:1880   */\n      tag_35\n      jump\t// in\n    tag_52:\n        /* \"#utility.yul\":1726:1880   */\n      swap2\n      pop\n        /* \"#utility.yul\":1897:1900   */\n      dup2\n        /* \"#utility.yul\":1890:1900   */\n      swap1\n      pop\n        /* \"#utility.yul\":1527:1906   */\n      swap2\n      swap1\n      pop\n      jump\t// out\n        /* \"#utility.yul\":1912:2331   */\n    tag_27:\n        /* \"#utility.yul\":2078:2082   */\n      0x00\n        /* \"#utility.yul\":2116:2118   */\n      0x20\n        /* \"#utility.yul\":2105:2114   */\n      dup3\n        /* \"#utility.yul\":2101:2119   */\n      add\n        /* \"#utility.yul\":2093:2119   */\n      swap1\n      pop\n        /* \"#utility.yul\":2165:2174   */\n      dup2\n        /* \"#utility.yul\":2159:2163   */\n      dup2\n        /* \"#utility.yul\":2155:2175   */\n      sub\n        /* \"#utility.yul\":2151:2152   */\n      0x00\n        /* \"#utility.yul\":2140:2149   */\n      dup4\n        /* \"#utility.yul\":2136:2153   */\n      add\n        /* \"#utility.yul\":2129:2176   */\n      mstore\n        /* \"#utility.yul\":2193:2324   */\n      tag_54\n        /* \"#utility.yul\":2319:2323   */\n      dup2\n        /* \"#utility.yul\":2193:2324   */\n      tag_29\n      jump\t// in\n    tag_54:\n        /* \"#utility.yul\":2185:2324   */\n      swap1\n      pop\n        /* \"#utility.yul\":1912:2331   */\n      swap2\n      swap1\n      pop\n      jump\t// out\n        /* \"#utility.yul\":2337:2756   */\n    tag_19:\n        /* \"#utility.yul\":2503:2507   */\n      0x00\n        /* \"#utility.yul\":2541:2543   */\n      0x20\n        /* \"#utility.yul\":2530:2539   */\n      dup3\n        /* \"#utility.yul\":2526:2544   */\n      add\n        /* \"#utility.yul\":2518:2544   */\n      swap1\n      pop\n        /* \"#utility.yul\":2590:2599   */\n      dup2\n        /* \"#utility.yul\":2584:2588   */\n      dup2\n        /* \"#utility.yul\":2580:2600   */\n      sub\n        /* \"#utility.yul\":2576:2577   */\n      0x00\n        /* \"#utility.yul\":2565:2574   */\n      dup4\n        /* \"#utility.yul\":2561:2578   */\n      add\n        /* \"#utility.yul\":2554:2601   */\n      mstore\n        /* \"#utility.yul\":2618:2749   */\n      tag_56\n        /* \"#utility.yul\":2744:2748   */\n      dup2\n        /* \"#utility.yul\":2618:2749   */\n      tag_41\n      jump\t// in\n    tag_56:\n        /* \"#utility.yul\":2610:2749   */\n      swap1\n      pop\n        /* \"#utility.yul\":2337:2756   */\n      swap2\n      swap1\n      pop\n      jump\t// out\n        /* \"#utility.yul\":2762:3181   */\n    tag_12:\n        /* \"#utility.yul\":2928:2932   */\n      0x00\n        /* \"#utility.yul\":2966:2968   */\n      0x20\n        /* \"#utility.yul\":2955:2964   */\n      dup3\n        /* \"#utility.yul\":2951:2969   */\n      add\n        /* \"#utility.yul\":2943:2969   */\n      swap1\n      pop\n        /* \"#utility.yul\":3015:3024   */\n      dup2\n        /* \"#utility.yul\":3009:3013   */\n      dup2\n        /* \"#utility.yul\":3005:3025   */\n      sub\n        /* \"#utility.yul\":3001:3002   */\n      0x00\n        /* \"#utility.yul\":2990:2999   */\n      dup4\n        /* \"#utility.yul\":2986:3003   */\n      add\n        /* \"#utility.yul\":2979:3026   */\n      mstore\n        /* \"#utility.yul\":3043:3174   */\n      tag_58\n        /* \"#utility.yul\":3169:3173   */\n      dup2\n        /* \"#utility.yul\":3043:3174   */\n      tag_46\n      jump\t// in\n    tag_58:\n        /* \"#utility.yul\":3035:3174   */\n      swap1\n      pop\n        /* \"#utility.yul\":2762:3181   */\n      swap2\n      swap1\n      pop\n      jump\t// out\n        /* \"#utility.yul\":3187:3334   */\n    tag_38:\n        /* \"#utility.yul\":3288:3299   */\n      0x00\n        /* \"#utility.yul\":3325:3328   */\n      dup2\n        /* \"#utility.yul\":3310:3328   */\n      swap1\n      pop\n        /* \"#utility.yul\":3187:3334   */\n      swap3\n      swap2\n      pop\n      pop\n      jump\t// out\n        /* \"#utility.yul\":3340:3509   */\n    tag_32:\n        /* \"#utility.yul\":3424:3435   */\n      0x00\n        /* \"#utility.yul\":3458:3464   */\n      dup3\n        /* \"#utility.yul\":3453:3456   */\n      dup3\n        /* \"#utility.yul\":3446:3465   */\n      mstore\n        /* \"#utility.yul\":3498:3502   */\n      0x20\n        /* \"#utility.yul\":3493:3496   */\n      dup3\n        /* \"#utility.yul\":3489:3503   */\n      add\n        /* \"#utility.yul\":3474:3503   */\n      swap1\n      pop\n        /* \"#utility.yul\":3340:3509   */\n      swap3\n      swap2\n      pop\n      pop\n      jump\t// out\n        /* \"#utility.yul\":3515:3820   */\n    tag_14:\n        /* \"#utility.yul\":3555:3558   */\n      0x00\n        /* \"#utility.yul\":3574:3594   */\n      tag_62\n        /* \"#utility.yul\":3592:3593   */\n      dup3\n        /* \"#utility.yul\":3574:3594   */\n      tag_63\n      jump\t// in\n    tag_62:\n        /* \"#utility.yul\":3569:3594   */\n      swap2\n      pop\n        /* \"#utility.yul\":3608:3628   */\n      tag_64\n        /* \"#utility.yul\":3626:3627   */\n      dup4\n        /* \"#utility.yul\":3608:3628   */\n      tag_63\n      jump\t// in\n    tag_64:\n        /* \"#utility.yul\":3603:3628   */\n      swap3\n      pop\n        /* \"#utility.yul\":3762:3763   */\n      dup3\n        /* \"#utility.yul\":3694:3760   */\n      0xffffffffffffffffffffffffffffffffffffffffffffffffffffffffffffffff\n        /* \"#utility.yul\":3690:3764   */\n      sub\n        /* \"#utility.yul\":3687:3688   */\n      dup3\n        /* \"#utility.yul\":3684:3765   */\n      gt\n        /* \"#utility.yul\":3681:3788   */\n      iszero\n      tag_65\n      jumpi\n        /* \"#utility.yul\":3768:3786   */\n      tag_66\n      tag_67\n      jump\t// in\n    tag_66:\n        /* \"#utility.yul\":3681:3788   */\n    tag_65:\n        /* \"#utility.yul\":3812:3813   */\n      dup3\n        /* \"#utility.yul\":3809:3810   */\n      dup3\n        /* \"#utility.yul\":3805:3814   */\n      add\n        /* \"#utility.yul\":3798:3814   */\n      swap1\n      pop\n        /* \"#utility.yul\":3515:3820   */\n      swap3\n      swap2\n      pop\n      pop\n      jump\t// out\n        /* \"#utility.yul\":3826:3903   */\n    tag_63:\n        /* \"#utility.yul\":3863:3870   */\n      0x00\n        /* \"#utility.yul\":3892:3897   */\n      dup2\n        /* \"#utility.yul\":3881:3897   */\n      swap1\n      pop\n        /* \"#utility.yul\":3826:3903   */\n      swap2\n      swap1\n      pop\n      jump\t// out\n        /* \"#utility.yul\":3909:4089   */\n    tag_67:\n        /* \"#utility.yul\":3957:4034   */\n      0x4e487b7100000000000000000000000000000000000000000000000000000000\n        /* \"#utility.yul\":3954:3955   */\n      0x00\n        /* \"#utility.yul\":3947:4035   */\n      mstore\n        /* \"#utility.yul\":4054:4058   */\n      0x11\n        /* \"#utility.yul\":4051:4052   */\n      0x04\n        /* \"#utility.yul\":4044:4059   */\n      mstore\n        /* \"#utility.yul\":4078:4082   */\n      0x24\n        /* \"#utility.yul\":4075:4076   */\n      0x00\n        /* \"#utility.yul\":4068:4083   */\n      revert\n        /* \"#utility.yul\":4095:4259   */\n    tag_34:\n        /* \"#utility.yul\":4235:4251   */\n      0x5061796d656e74206661696c6564000000000000000000000000000000000000\n        /* \"#utility.yul\":4231:4232   */\n      0x00\n        /* \"#utility.yul\":4223:4229   */\n      dup3\n        /* \"#utility.yul\":4219:4233   */\n      add\n        /* \"#utility.yul\":4212:4252   */\n      mstore\n        /* \"#utility.yul\":4095:4259   */\n      pop\n      jump\t// out\n        /* \"#utility.yul\":4265:4379   */\n    tag_40:\n      pop\n      jump\t// out\n        /* \"#utility.yul\":4385:4614   */\n    tag_45:\n        /* \"#utility.yul\":4525:4559   */\n      0x596f7520617265206e6f74207468652077696e6e6572206f662074686973206c\n        /* \"#utility.yul\":4521:4522   */\n      0x00\n        /* \"#utility.yul\":4513:4519   */\n      dup3\n        /* \"#utility.yul\":4509:4523   */\n      add\n        /* \"#utility.yul\":4502:4560   */\n      mstore\n        /* \"#utility.yul\":4594:4606   */\n      0x75636b7920647261772e00000000000000000000000000000000000000000000\n        /* \"#utility.yul\":4589:4591   */\n      0x20\n        /* \"#utility.yul\":4581:4587   */\n      dup3\n        /* \"#utility.yul\":4577:4592   */\n      add\n        /* \"#utility.yul\":4570:4607   */\n      mstore\n        /* \"#utility.yul\":4385:4614   */\n      pop\n      jump\t// out\n        /* \"#utility.yul\":4620:4842   */\n    tag_50:\n        /* \"#utility.yul\":4760:4794   */\n      0x596f752063616e20706179206f6e6c7920312045746865722061742061207469\n        /* \"#utility.yul\":4756:4757   */\n      0x00\n        /* \"#utility.yul\":4748:4754   */\n      dup3\n        /* \"#utility.yul\":4744:4758   */\n      add\n        /* \"#utility.yul\":4737:4795   */\n      mstore\n        /* \"#utility.yul\":4829:4834   */\n      0x6d652e0000000000000000000000000000000000000000000000000000000000\n        /* \"#utility.yul\":4824:4826   */\n      0x20\n        /* \"#utility.yul\":4816:4822   */\n      dup3\n        /* \"#utility.yul\":4812:4827   */\n      add\n        /* \"#utility.yul\":4805:4835   */\n      mstore\n        /* \"#utility.yul\":4620:4842   */\n      pop\n      jump\t// out\n\n    auxdata: 0xa2646970667358221220298c21d42cb81fd1f6b3ea6e3232771cd2a1e7b20665eda0492ab8f1478cfefe64736f6c63430008070033\n}\n",
				"bytecode": {
					"linkReferences": {},
					"object": "608060405234801561001057600080fd5b50610504806100206000396000f3fe6080604052600436106100295760003560e01c80631b9265b81461002e5780633ccfd60b14610038575b600080fd5b61003661004f565b005b34801561004457600080fd5b5061004d6100f9565b005b60013414610092576040517f08c379a000000000000000000000000000000000000000000000000000000000815260040161008990610339565b60405180910390fd5b60018060008282546100a49190610375565b92505081905550600360015414156100f757336000806101000a81548173ffffffffffffffffffffffffffffffffffffffff021916908373ffffffffffffffffffffffffffffffffffffffff1602179055505b565b3373ffffffffffffffffffffffffffffffffffffffff1660008054906101000a900473ffffffffffffffffffffffffffffffffffffffff1673ffffffffffffffffffffffffffffffffffffffff1614610187576040517f08c379a000000000000000000000000000000000000000000000000000000000815260040161017e90610319565b60405180910390fd5b60008060009054906101000a900473ffffffffffffffffffffffffffffffffffffffff1673ffffffffffffffffffffffffffffffffffffffff1660646040516101cf906102e4565b60006040518083038185875af1925050503d806000811461020c576040519150601f19603f3d011682016040523d82523d6000602084013e610211565b606091505b5050905080610255576040517f08c379a000000000000000000000000000000000000000000000000000000000815260040161024c906102f9565b60405180910390fd5b50565b6000610265600e83610364565b915061027082610404565b602082019050919050565b6000610288600083610359565b91506102938261042d565b600082019050919050565b60006102ab602a83610364565b91506102b682610430565b604082019050919050565b60006102ce602383610364565b91506102d98261047f565b604082019050919050565b60006102ef8261027b565b9150819050919050565b6000602082019050818103600083015261031281610258565b9050919050565b600060208201905081810360008301526103328161029e565b9050919050565b60006020820190508181036000830152610352816102c1565b9050919050565b600081905092915050565b600082825260208201905092915050565b6000610380826103cb565b915061038b836103cb565b9250827fffffffffffffffffffffffffffffffffffffffffffffffffffffffffffffffff038211156103c0576103bf6103d5565b5b828201905092915050565b6000819050919050565b7f4e487b7100000000000000000000000000000000000000000000000000000000600052601160045260246000fd5b7f5061796d656e74206661696c6564000000000000000000000000000000000000600082015250565b50565b7f596f7520617265206e6f74207468652077696e6e6572206f662074686973206c60008201527f75636b7920647261772e00000000000000000000000000000000000000000000602082015250565b7f596f752063616e20706179206f6e6c792031204574686572206174206120746960008201527f6d652e000000000000000000000000000000000000000000000000000000000060208201525056fea2646970667358221220298c21d42cb81fd1f6b3ea6e3232771cd2a1e7b20665eda0492ab8f1478cfefe64736f6c63430008070033",
					"opcodes": "PUSH1 0x80 PUSH1 0x40 MSTORE CALLVALUE DUP1 ISZERO PUSH2 0x10 JUMPI PUSH1 0x0 DUP1 REVERT JUMPDEST POP PUSH2 0x504 DUP1 PUSH2 0x20 PUSH1 0x0 CODECOPY PUSH1 0x0 RETURN INVALID PUSH1 0x80 PUSH1 0x40 MSTORE PUSH1 0x4 CALLDATASIZE LT PUSH2 0x29 JUMPI PUSH1 0x0 CALLDATALOAD PUSH1 0xE0 SHR DUP1 PUSH4 0x1B9265B8 EQ PUSH2 0x2E JUMPI DUP1 PUSH4 0x3CCFD60B EQ PUSH2 0x38 JUMPI JUMPDEST PUSH1 0x0 DUP1 REVERT JUMPDEST PUSH2 0x36 PUSH2 0x4F JUMP JUMPDEST STOP JUMPDEST CALLVALUE DUP1 ISZERO PUSH2 0x44 JUMPI PUSH1 0x0 DUP1 REVERT JUMPDEST POP PUSH2 0x4D PUSH2 0xF9 JUMP JUMPDEST STOP JUMPDEST PUSH1 0x1 CALLVALUE EQ PUSH2 0x92 JUMPI PUSH1 0x40 MLOAD PUSH32 0x8C379A000000000000000000000000000000000000000000000000000000000 DUP2 MSTORE PUSH1 0x4 ADD PUSH2 0x89 SWAP1 PUSH2 0x339 JUMP JUMPDEST PUSH1 0x40 MLOAD DUP1 SWAP2 SUB SWAP1 REVERT JUMPDEST PUSH1 0x1 DUP1 PUSH1 0x0 DUP3 DUP3 SLOAD PUSH2 0xA4 SWAP2 SWAP1 PUSH2 0x375 JUMP JUMPDEST SWAP3 POP POP DUP2 SWAP1 SSTORE POP PUSH1 0x3 PUSH1 0x1 SLOAD EQ ISZERO PUSH2 0xF7 JUMPI CALLER PUSH1 0x0 DUP1 PUSH2 0x100 EXP DUP2 SLOAD DUP2 PUSH20 0xFFFFFFFFFFFFFFFFFFFFFFFFFFFFFFFFFFFFFFFF MUL NOT AND SWAP1 DUP4 PUSH20 0xFFFFFFFFFFFFFFFFFFFFFFFFFFFFFFFFFFFFFFFF AND MUL OR SWAP1 SSTORE POP JUMPDEST JUMP JUMPDEST CALLER PUSH20 0xFFFFFFFFFFFFFFFFFFFFFFFFFFFFFFFFFFFFFFFF AND PUSH1 0x0 DUP1 SLOAD SWAP1 PUSH2 0x100 EXP SWAP1 DIV PUSH20 0xFFFFFFFFFFFFFFFFFFFFFFFFFFFFFFFFFFFFFFFF AND PUSH20 0xFFFFFFFFFFFFFFFFFFFFFFFFFFFFFFFFFFFFFFFF AND EQ PUSH2 0x187 JUMPI PUSH1 0x40 MLOAD PUSH32 0x8C379A000000000000000000000000000000000000000000000000000000000 DUP2 MSTORE PUSH1 0x4 ADD PUSH2 0x17E SWAP1 PUSH2 0x319 JUMP JUMPDEST PUSH1 0x40 MLOAD DUP1 SWAP2 SUB SWAP1 REVERT JUMPDEST PUSH1 0x0 DUP1 PUSH1 0x0 SWAP1 SLOAD SWAP1 PUSH2 0x100 EXP SWAP1 DIV PUSH20 0xFFFFFFFFFFFFFFFFFFFFFFFFFFFFFFFFFFFFFFFF AND PUSH20 0xFFFFFFFFFFFFFFFFFFFFFFFFFFFFFFFFFFFFFFFF AND PUSH1 0x64 PUSH1 0x40 MLOAD PUSH2 0x1CF SWAP1 PUSH2 0x2E4 JUMP JUMPDEST PUSH1 0x0 PUSH1 0x40 MLOAD DUP1 DUP4 SUB DUP2 DUP6 DUP8 GAS CALL SWAP3 POP POP POP RETURNDATASIZE DUP1 PUSH1 0x0 DUP2 EQ PUSH2 0x20C JUMPI PUSH1 0x40 MLOAD SWAP2 POP PUSH1 0x1F NOT PUSH1 0x3F RETURNDATASIZE ADD AND DUP3 ADD PUSH1 0x40 MSTORE RETURNDATASIZE DUP3 MSTORE RETURNDATASIZE PUSH1 0x0 PUSH1 0x20 DUP5 ADD RETURNDATACOPY PUSH2 0x211 JUMP JUMPDEST PUSH1 0x60 SWAP2 POP JUMPDEST POP POP SWAP1 POP DUP1 PUSH2 0x255 JUMPI PUSH1 0x40 MLOAD PUSH32 0x8C379A000000000000000000000000000000000000000000000000000000000 DUP2 MSTORE PUSH1 0x4 ADD PUSH2 0x24C SWAP1 PUSH2 0x2F9 JUMP JUMPDEST PUSH1 0x40 MLOAD DUP1 SWAP2 SUB SWAP1 REVERT JUMPDEST POP JUMP JUMPDEST PUSH1 0x0 PUSH2 0x265 PUSH1 0xE DUP4 PUSH2 0x364 JUMP JUMPDEST SWAP2 POP PUSH2 0x270 DUP3 PUSH2 0x404 JUMP JUMPDEST PUSH1 0x20 DUP3 ADD SWAP1 POP SWAP2 SWAP1 POP JUMP JUMPDEST PUSH1 0x0 PUSH2 0x288 PUSH1 0x0 DUP4 PUSH2 0x359 JUMP JUMPDEST SWAP2 POP PUSH2 0x293 DUP3 PUSH2 0x42D JUMP JUMPDEST PUSH1 0x0 DUP3 ADD SWAP1 POP SWAP2 SWAP1 POP JUMP JUMPDEST PUSH1 0x0 PUSH2 0x2AB PUSH1 0x2A DUP4 PUSH2 0x364 JUMP JUMPDEST SWAP2 POP PUSH2 0x2B6 DUP3 PUSH2 0x430 JUMP JUMPDEST PUSH1 0x40 DUP3 ADD SWAP1 POP SWAP2 SWAP1 POP JUMP JUMPDEST PUSH1 0x0 PUSH2 0x2CE PUSH1 0x23 DUP4 PUSH2 0x364 JUMP JUMPDEST SWAP2 POP PUSH2 0x2D9 DUP3 PUSH2 0x47F JUMP JUMPDEST PUSH1 0x40 DUP3 ADD SWAP1 POP SWAP2 SWAP1 POP JUMP JUMPDEST PUSH1 0x0 PUSH2 0x2EF DUP3 PUSH2 0x27B JUMP JUMPDEST SWAP2 POP DUP2 SWAP1 POP SWAP2 SWAP1 POP JUMP JUMPDEST PUSH1 0x0 PUSH1 0x20 DUP3 ADD SWAP1 POP DUP2 DUP2 SUB PUSH1 0x0 DUP4 ADD MSTORE PUSH2 0x312 DUP2 PUSH2 0x258 JUMP JUMPDEST SWAP1 POP SWAP2 SWAP1 POP JUMP JUMPDEST PUSH1 0x0 PUSH1 0x20 DUP3 ADD SWAP1 POP DUP2 DUP2 SUB PUSH1 0x0 DUP4 ADD MSTORE PUSH2 0x332 DUP2 PUSH2 0x29E JUMP JUMPDEST SWAP1 POP SWAP2 SWAP1 POP JUMP JUMPDEST PUSH1 0x0 PUSH1 0x20 DUP3 ADD SWAP1 POP DUP2 DUP2 SUB PUSH1 0x0 DUP4 ADD MSTORE PUSH2 0x352 DUP2 PUSH2 0x2C1 JUMP JUMPDEST SWAP1 POP SWAP2 SWAP1 POP JUMP JUMPDEST PUSH1 0x0 DUP2 SWAP1 POP SWAP3 SWAP2 POP POP JUMP JUMPDEST PUSH1 0x0 DUP3 DUP3 MSTORE PUSH1 0x20 DUP3 ADD SWAP1 POP SWAP3 SWAP2 POP POP JUMP JUMPDEST PUSH1 0x0 PUSH2 0x380 DUP3 PUSH2 0x3CB JUMP JUMPDEST SWAP2 POP PUSH2 0x38B DUP4 PUSH2 0x3CB JUMP JUMPDEST SWAP3 POP DUP3 PUSH32 0xFFFFFFFFFFFFFFFFFFFFFFFFFFFFFFFFFFFFFFFFFFFFFFFFFFFFFFFFFFFFFFFF SUB DUP3 GT ISZERO PUSH2 0x3C0 JUMPI PUSH2 0x3BF PUSH2 0x3D5 JUMP JUMPDEST JUMPDEST DUP3 DUP3 ADD SWAP1 POP SWAP3 SWAP2 POP POP JUMP JUMPDEST PUSH1 0x0 DUP2 SWAP1 POP SWAP2 SWAP1 POP JUMP JUMPDEST PUSH32 0x4E487B7100000000000000000000000000000000000000000000000000000000 PUSH1 0x0 MSTORE PUSH1 0x11 PUSH1 0x4 MSTORE PUSH1 0x24 PUSH1 0x0 REVERT JUMPDEST PUSH32 0x5061796D656E74206661696C6564000000000000000000000000000000000000 PUSH1 0x0 DUP3 ADD MSTORE POP JUMP JUMPDEST POP JUMP JUMPDEST PUSH32 0x596F7520617265206E6F74207468652077696E6E6572206F662074686973206C PUSH1 0x0 DUP3 ADD MSTORE PUSH32 0x75636B7920647261772E00000000000000000000000000000000000000000000 PUSH1 0x20 DUP3 ADD MSTORE POP JUMP JUMPDEST PUSH32 0x596F752063616E20706179206F6E6C7920312045746865722061742061207469 PUSH1 0x0 DUP3 ADD MSTORE PUSH32 0x6D652E0000000000000000000000000000000000000000000000000000000000 PUSH1 0x20 DUP3 ADD MSTORE POP JUMP INVALID LOG2 PUSH5 0x6970667358 0x22 SLT KECCAK256 0x29 DUP13 0x21 0xD4 0x2C 0xB8 0x1F 0xD1 0xF6 0xB3 0xEA PUSH15 0x3232771CD2A1E7B20665EDA0492AB8 CALL SELFBALANCE DUP13 INVALID INVALID PUSH5 0x736F6C6343 STOP ADDMOD SMOD STOP CALLER "
				},
				"gasEstimates": {
					"creation": {
						"codeDepositCost": "256800",
						"executionCost": "300",
						"totalCost": "257100"
					},
					"external": {
						"pay()": "infinite",
						"withdraw()": "infinite"
					}
				},
				"methodIdentifiers": {
					"pay()": "1b9265b8",
					"withdraw()": "3ccfd60b"
				}
			},
			"storageLayout": {
				"storage": [
					{
						"astId": 3,
						"contract": "contracts/ExploitSelfDestruct.sol:LuckyWinner",
						"label": "winner",
						"offset": 0,
						"slot": "0",
						"type": "t_address"
					},
					{
						"astId": 5,
						"contract": "contracts/ExploitSelfDestruct.sol:LuckyWinner",
						"label": "amount",
						"offset": 0,
						"slot": "1",
						"type": "t_uint256"
					}
				],
				"types": {
					"t_address": {
						"encoding": "inplace",
						"label": "address",
						"numberOfBytes": "20"
					},
					"t_uint256": {
						"encoding": "inplace",
						"label": "uint256",
						"numberOfBytes": "32"
					}
				}
			},
			"userdoc": {
				"kind": "user",
				"methods": {},
				"version": 1
			}
		}
	}
}