{
	"contracts/EventsExample.sol": {
		"EventAuction": {
			"abi": [
				{
					"inputs": [],
					"stateMutability": "nonpayable",
					"type": "constructor"
				},
				{
					"anonymous": false,
					"inputs": [
						{
							"indexed": true,
							"internalType": "address",
							"name": "highestBidderAddress",
							"type": "address"
						},
						{
							"indexed": false,
							"internalType": "uint256",
							"name": "amount",
							"type": "uint256"
						}
					],
					"name": "AuctionCompleted",
					"type": "event"
				},
				{
					"anonymous": false,
					"inputs": [
						{
							"indexed": true,
							"internalType": "address",
							"name": "bidder",
							"type": "address"
						},
						{
							"indexed": false,
							"internalType": "uint256",
							"name": "amount",
							"type": "uint256"
						}
					],
					"name": "Bid",
					"type": "event"
				},
				{
					"inputs": [],
					"name": "bid",
					"outputs": [],
					"stateMutability": "payable",
					"type": "function"
				},
				{
					"inputs": [],
					"name": "finishAuction",
					"outputs": [],
					"stateMutability": "nonpayable",
					"type": "function"
				},
				{
					"inputs": [],
					"name": "withdraw",
					"outputs": [],
					"stateMutability": "nonpayable",
					"type": "function"
				}
			],
			"devdoc": {
				"kind": "dev",
				"methods": {},
				"version": 1
			},
			"evm": {
				"assembly": "    /* \"contracts/EventsExample.sol\":36:1322  contract EventAuction {\r... */\n  mstore(0x40, 0x80)\n    /* \"contracts/EventsExample.sol\":190:241  constructor () {\r... */\n  callvalue\n  dup1\n  iszero\n  tag_1\n  jumpi\n  0x00\n  dup1\n  revert\ntag_1:\n  pop\n    /* \"contracts/EventsExample.sol\":223:233  msg.sender */\n  caller\n    /* \"contracts/EventsExample.sol\":216:221  owner */\n  0x00\n  dup1\n    /* \"contracts/EventsExample.sol\":216:233  owner= msg.sender */\n  0x0100\n  exp\n  dup2\n  sload\n  dup2\n  0xffffffffffffffffffffffffffffffffffffffff\n  mul\n  not\n  and\n  swap1\n  dup4\n  0xffffffffffffffffffffffffffffffffffffffff\n  and\n  mul\n  or\n  swap1\n  sstore\n  pop\n    /* \"contracts/EventsExample.sol\":36:1322  contract EventAuction {\r... */\n  dataSize(sub_0)\n  dup1\n  dataOffset(sub_0)\n  0x00\n  codecopy\n  0x00\n  return\nstop\n\nsub_0: assembly {\n        /* \"contracts/EventsExample.sol\":36:1322  contract EventAuction {\r... */\n      mstore(0x40, 0x80)\n      jumpi(tag_1, lt(calldatasize, 0x04))\n      shr(0xe0, calldataload(0x00))\n      dup1\n      0x1998aeef\n      eq\n      tag_2\n      jumpi\n      dup1\n      0x3ccfd60b\n      eq\n      tag_3\n      jumpi\n      dup1\n      0x430ca46f\n      eq\n      tag_4\n      jumpi\n    tag_1:\n      0x00\n      dup1\n      revert\n        /* \"contracts/EventsExample.sol\":385:781  function bid() external payable {\r... */\n    tag_2:\n      tag_5\n      tag_6\n      jump\t// in\n    tag_5:\n      stop\n        /* \"contracts/EventsExample.sol\":789:1085  function withdraw() external {\r... */\n    tag_3:\n      callvalue\n      dup1\n      iszero\n      tag_7\n      jumpi\n      0x00\n      dup1\n      revert\n    tag_7:\n      pop\n      tag_8\n      tag_9\n      jump\t// in\n    tag_8:\n      stop\n        /* \"contracts/EventsExample.sol\":1093:1319  function finishAuction() external{\r... */\n    tag_4:\n      callvalue\n      dup1\n      iszero\n      tag_10\n      jumpi\n      0x00\n      dup1\n      revert\n    tag_10:\n      pop\n      tag_11\n      tag_12\n      jump\t// in\n    tag_11:\n      stop\n        /* \"contracts/EventsExample.sol\":385:781  function bid() external payable {\r... */\n    tag_6:\n        /* \"contracts/EventsExample.sol\":452:457  owner */\n      0x00\n      dup1\n      sload\n      swap1\n      0x0100\n      exp\n      swap1\n      div\n      0xffffffffffffffffffffffffffffffffffffffff\n      and\n        /* \"contracts/EventsExample.sol\":438:457  msg.sender != owner */\n      0xffffffffffffffffffffffffffffffffffffffff\n      and\n        /* \"contracts/EventsExample.sol\":438:448  msg.sender */\n      caller\n        /* \"contracts/EventsExample.sol\":438:457  msg.sender != owner */\n      0xffffffffffffffffffffffffffffffffffffffff\n      and\n      eq\n      iszero\n        /* \"contracts/EventsExample.sol\":430:494  require(msg.sender != owner, \"Owner can't bid in this Auction.\") */\n      tag_14\n      jumpi\n      mload(0x40)\n      0x08c379a000000000000000000000000000000000000000000000000000000000\n      dup2\n      mstore\n      0x04\n      add\n      tag_15\n      swap1\n      tag_16\n      jump\t// in\n    tag_15:\n      mload(0x40)\n      dup1\n      swap2\n      sub\n      swap1\n      revert\n    tag_14:\n        /* \"contracts/EventsExample.sol\":525:541  highestBidAmount */\n      sload(0x01)\n        /* \"contracts/EventsExample.sol\":513:522  msg.value */\n      callvalue\n        /* \"contracts/EventsExample.sol\":513:541  msg.value > highestBidAmount */\n      gt\n        /* \"contracts/EventsExample.sol\":505:589  require(msg.value > highestBidAmount, \"You can't bid this amount this is very low.\") */\n      tag_17\n      jumpi\n      mload(0x40)\n      0x08c379a000000000000000000000000000000000000000000000000000000000\n      dup2\n      mstore\n      0x04\n      add\n      tag_18\n      swap1\n      tag_19\n      jump\t// in\n    tag_18:\n      mload(0x40)\n      dup1\n      swap2\n      sub\n      swap1\n      revert\n    tag_17:\n        /* \"contracts/EventsExample.sol\":632:648  highestBidAmount */\n      sload(0x01)\n        /* \"contracts/EventsExample.sol\":600:607  bidders */\n      0x03\n        /* \"contracts/EventsExample.sol\":600:629  bidders[highestBidderAddress] */\n      0x00\n        /* \"contracts/EventsExample.sol\":608:628  highestBidderAddress */\n      0x02\n      0x00\n      swap1\n      sload\n      swap1\n      0x0100\n      exp\n      swap1\n      div\n      0xffffffffffffffffffffffffffffffffffffffff\n      and\n        /* \"contracts/EventsExample.sol\":600:629  bidders[highestBidderAddress] */\n      0xffffffffffffffffffffffffffffffffffffffff\n      and\n      0xffffffffffffffffffffffffffffffffffffffff\n      and\n      dup2\n      mstore\n      0x20\n      add\n      swap1\n      dup2\n      mstore\n      0x20\n      add\n      0x00\n      keccak256\n        /* \"contracts/EventsExample.sol\":600:648  bidders[highestBidderAddress] = highestBidAmount */\n      dup2\n      swap1\n      sstore\n      pop\n        /* \"contracts/EventsExample.sol\":678:687  msg.value */\n      callvalue\n        /* \"contracts/EventsExample.sol\":659:675  highestBidAmount */\n      0x01\n        /* \"contracts/EventsExample.sol\":659:687  highestBidAmount = msg.value */\n      dup2\n      swap1\n      sstore\n      pop\n        /* \"contracts/EventsExample.sol\":721:731  msg.sender */\n      caller\n        /* \"contracts/EventsExample.sol\":698:718  highestBidderAddress */\n      0x02\n      0x00\n        /* \"contracts/EventsExample.sol\":698:731  highestBidderAddress = msg.sender */\n      0x0100\n      exp\n      dup2\n      sload\n      dup2\n      0xffffffffffffffffffffffffffffffffffffffff\n      mul\n      not\n      and\n      swap1\n      dup4\n      0xffffffffffffffffffffffffffffffffffffffff\n      and\n      mul\n      or\n      swap1\n      sstore\n      pop\n        /* \"contracts/EventsExample.sol\":751:761  msg.sender */\n      caller\n        /* \"contracts/EventsExample.sol\":747:773  Bid(msg.sender, msg.value) */\n      0xffffffffffffffffffffffffffffffffffffffff\n      and\n      0xe684a55f31b79eca403df938249029212a5925ec6be8012e099b45bc1019e5d2\n        /* \"contracts/EventsExample.sol\":763:772  msg.value */\n      callvalue\n        /* \"contracts/EventsExample.sol\":747:773  Bid(msg.sender, msg.value) */\n      mload(0x40)\n      tag_20\n      swap2\n      swap1\n      tag_21\n      jump\t// in\n    tag_20:\n      mload(0x40)\n      dup1\n      swap2\n      sub\n      swap1\n      log2\n        /* \"contracts/EventsExample.sol\":385:781  function bid() external payable {\r... */\n      jump\t// out\n        /* \"contracts/EventsExample.sol\":789:1085  function withdraw() external {\r... */\n    tag_9:\n        /* \"contracts/EventsExample.sol\":851:856  owner */\n      0x00\n      dup1\n      sload\n      swap1\n      0x0100\n      exp\n      swap1\n      div\n      0xffffffffffffffffffffffffffffffffffffffff\n      and\n        /* \"contracts/EventsExample.sol\":837:856  msg.sender != owner */\n      0xffffffffffffffffffffffffffffffffffffffff\n      and\n        /* \"contracts/EventsExample.sol\":837:847  msg.sender */\n      caller\n        /* \"contracts/EventsExample.sol\":837:856  msg.sender != owner */\n      0xffffffffffffffffffffffffffffffffffffffff\n      and\n      eq\n      iszero\n        /* \"contracts/EventsExample.sol\":829:882  require(msg.sender != owner, \"Owner can't withdraw.\") */\n      tag_23\n      jumpi\n      mload(0x40)\n      0x08c379a000000000000000000000000000000000000000000000000000000000\n      dup2\n      mstore\n      0x04\n      add\n      tag_24\n      swap1\n      tag_25\n      jump\t// in\n    tag_24:\n      mload(0x40)\n      dup1\n      swap2\n      sub\n      swap1\n      revert\n    tag_23:\n        /* \"contracts/EventsExample.sol\":893:904  uint amount */\n      0x00\n        /* \"contracts/EventsExample.sol\":907:914  bidders */\n      0x03\n        /* \"contracts/EventsExample.sol\":907:926  bidders[msg.sender] */\n      0x00\n        /* \"contracts/EventsExample.sol\":915:925  msg.sender */\n      caller\n        /* \"contracts/EventsExample.sol\":907:926  bidders[msg.sender] */\n      0xffffffffffffffffffffffffffffffffffffffff\n      and\n      0xffffffffffffffffffffffffffffffffffffffff\n      and\n      dup2\n      mstore\n      0x20\n      add\n      swap1\n      dup2\n      mstore\n      0x20\n      add\n      0x00\n      keccak256\n      sload\n        /* \"contracts/EventsExample.sol\":893:926  uint amount = bidders[msg.sender] */\n      swap1\n      pop\n        /* \"contracts/EventsExample.sol\":959:960  0 */\n      0x00\n        /* \"contracts/EventsExample.sol\":937:944  bidders */\n      0x03\n        /* \"contracts/EventsExample.sol\":937:956  bidders[msg.sender] */\n      0x00\n        /* \"contracts/EventsExample.sol\":945:955  msg.sender */\n      caller\n        /* \"contracts/EventsExample.sol\":937:956  bidders[msg.sender] */\n      0xffffffffffffffffffffffffffffffffffffffff\n      and\n      0xffffffffffffffffffffffffffffffffffffffff\n      and\n      dup2\n      mstore\n      0x20\n      add\n      swap1\n      dup2\n      mstore\n      0x20\n      add\n      0x00\n      keccak256\n        /* \"contracts/EventsExample.sol\":937:960  bidders[msg.sender] = 0 */\n      dup2\n      swap1\n      sstore\n      pop\n        /* \"contracts/EventsExample.sol\":972:984  bool success */\n      0x00\n        /* \"contracts/EventsExample.sol\":997:1007  msg.sender */\n      caller\n        /* \"contracts/EventsExample.sol\":989:1013  payable(msg.sender).call */\n      0xffffffffffffffffffffffffffffffffffffffff\n      and\n        /* \"contracts/EventsExample.sol\":1020:1026  amount */\n      dup3\n        /* \"contracts/EventsExample.sol\":989:1031  payable(msg.sender).call{value:amount}(\"\") */\n      mload(0x40)\n      tag_26\n      swap1\n      tag_27\n      jump\t// in\n    tag_26:\n      0x00\n      mload(0x40)\n      dup1\n      dup4\n      sub\n      dup2\n      dup6\n      dup8\n      gas\n      call\n      swap3\n      pop\n      pop\n      pop\n      returndatasize\n      dup1\n      0x00\n      dup2\n      eq\n      tag_30\n      jumpi\n      mload(0x40)\n      swap2\n      pop\n      and(add(returndatasize, 0x3f), not(0x1f))\n      dup3\n      add\n      0x40\n      mstore\n      returndatasize\n      dup3\n      mstore\n      returndatasize\n      0x00\n      0x20\n      dup5\n      add\n      returndatacopy\n      jump(tag_29)\n    tag_30:\n      0x60\n      swap2\n      pop\n    tag_29:\n      pop\n        /* \"contracts/EventsExample.sol\":971:1031  (bool success,) = payable(msg.sender).call{value:amount}(\"\") */\n      pop\n      swap1\n      pop\n        /* \"contracts/EventsExample.sol\":1050:1057  success */\n      dup1\n        /* \"contracts/EventsExample.sol\":1042:1077  require(success, \"Payment failed!\") */\n      tag_31\n      jumpi\n      mload(0x40)\n      0x08c379a000000000000000000000000000000000000000000000000000000000\n      dup2\n      mstore\n      0x04\n      add\n      tag_32\n      swap1\n      tag_33\n      jump\t// in\n    tag_32:\n      mload(0x40)\n      dup1\n      swap2\n      sub\n      swap1\n      revert\n    tag_31:\n        /* \"contracts/EventsExample.sol\":818:1085  {\r... */\n      pop\n      pop\n        /* \"contracts/EventsExample.sol\":789:1085  function withdraw() external {\r... */\n      jump\t// out\n        /* \"contracts/EventsExample.sol\":1093:1319  function finishAuction() external{\r... */\n    tag_12:\n        /* \"contracts/EventsExample.sol\":1159:1164  owner */\n      0x00\n      dup1\n      sload\n      swap1\n      0x0100\n      exp\n      swap1\n      div\n      0xffffffffffffffffffffffffffffffffffffffff\n      and\n        /* \"contracts/EventsExample.sol\":1145:1164  msg.sender == owner */\n      0xffffffffffffffffffffffffffffffffffffffff\n      and\n        /* \"contracts/EventsExample.sol\":1145:1155  msg.sender */\n      caller\n        /* \"contracts/EventsExample.sol\":1145:1164  msg.sender == owner */\n      0xffffffffffffffffffffffffffffffffffffffff\n      and\n      eq\n        /* \"contracts/EventsExample.sol\":1137:1200  require(msg.sender == owner, \"Only owner can stop the auction\") */\n      tag_35\n      jumpi\n      mload(0x40)\n      0x08c379a000000000000000000000000000000000000000000000000000000000\n      dup2\n      mstore\n      0x04\n      add\n      tag_36\n      swap1\n      tag_37\n      jump\t// in\n    tag_36:\n      mload(0x40)\n      dup1\n      swap2\n      sub\n      swap1\n      revert\n    tag_35:\n        /* \"contracts/EventsExample.sol\":1233:1253  highestBidderAddress */\n      0x02\n      0x00\n      swap1\n      sload\n      swap1\n      0x0100\n      exp\n      swap1\n      div\n      0xffffffffffffffffffffffffffffffffffffffff\n      and\n        /* \"contracts/EventsExample.sol\":1216:1272  AuctionCompleted(highestBidderAddress, highestBidAmount) */\n      0xffffffffffffffffffffffffffffffffffffffff\n      and\n      0x1eee73abf7d625fb02ce8cdbc04500a14d0a0a1ac9d0583c1aaed0677c8b555a\n        /* \"contracts/EventsExample.sol\":1255:1271  highestBidAmount */\n      sload(0x01)\n        /* \"contracts/EventsExample.sol\":1216:1272  AuctionCompleted(highestBidderAddress, highestBidAmount) */\n      mload(0x40)\n      tag_38\n      swap2\n      swap1\n      tag_21\n      jump\t// in\n    tag_38:\n      mload(0x40)\n      dup1\n      swap2\n      sub\n      swap1\n      log2\n        /* \"contracts/EventsExample.sol\":1304:1309  owner */\n      0x00\n      dup1\n      sload\n      swap1\n      0x0100\n      exp\n      swap1\n      div\n      0xffffffffffffffffffffffffffffffffffffffff\n      and\n        /* \"contracts/EventsExample.sol\":1283:1311  selfdestruct(payable(owner)) */\n      0xffffffffffffffffffffffffffffffffffffffff\n      and\n      selfdestruct\n        /* \"#utility.yul\":7:373   */\n    tag_40:\n        /* \"#utility.yul\":149:152   */\n      0x00\n        /* \"#utility.yul\":170:237   */\n      tag_42\n        /* \"#utility.yul\":234:236   */\n      0x0f\n        /* \"#utility.yul\":229:232   */\n      dup4\n        /* \"#utility.yul\":170:237   */\n      tag_43\n      jump\t// in\n    tag_42:\n        /* \"#utility.yul\":163:237   */\n      swap2\n      pop\n        /* \"#utility.yul\":246:339   */\n      tag_44\n        /* \"#utility.yul\":335:338   */\n      dup3\n        /* \"#utility.yul\":246:339   */\n      tag_45\n      jump\t// in\n    tag_44:\n        /* \"#utility.yul\":364:366   */\n      0x20\n        /* \"#utility.yul\":359:362   */\n      dup3\n        /* \"#utility.yul\":355:367   */\n      add\n        /* \"#utility.yul\":348:367   */\n      swap1\n      pop\n        /* \"#utility.yul\":7:373   */\n      swap2\n      swap1\n      pop\n      jump\t// out\n        /* \"#utility.yul\":379:745   */\n    tag_46:\n        /* \"#utility.yul\":521:524   */\n      0x00\n        /* \"#utility.yul\":542:609   */\n      tag_48\n        /* \"#utility.yul\":606:608   */\n      0x15\n        /* \"#utility.yul\":601:604   */\n      dup4\n        /* \"#utility.yul\":542:609   */\n      tag_43\n      jump\t// in\n    tag_48:\n        /* \"#utility.yul\":535:609   */\n      swap2\n      pop\n        /* \"#utility.yul\":618:711   */\n      tag_49\n        /* \"#utility.yul\":707:710   */\n      dup3\n        /* \"#utility.yul\":618:711   */\n      tag_50\n      jump\t// in\n    tag_49:\n        /* \"#utility.yul\":736:738   */\n      0x20\n        /* \"#utility.yul\":731:734   */\n      dup3\n        /* \"#utility.yul\":727:739   */\n      add\n        /* \"#utility.yul\":720:739   */\n      swap1\n      pop\n        /* \"#utility.yul\":379:745   */\n      swap2\n      swap1\n      pop\n      jump\t// out\n        /* \"#utility.yul\":751:1117   */\n    tag_51:\n        /* \"#utility.yul\":893:896   */\n      0x00\n        /* \"#utility.yul\":914:981   */\n      tag_53\n        /* \"#utility.yul\":978:980   */\n      0x20\n        /* \"#utility.yul\":973:976   */\n      dup4\n        /* \"#utility.yul\":914:981   */\n      tag_43\n      jump\t// in\n    tag_53:\n        /* \"#utility.yul\":907:981   */\n      swap2\n      pop\n        /* \"#utility.yul\":990:1083   */\n      tag_54\n        /* \"#utility.yul\":1079:1082   */\n      dup3\n        /* \"#utility.yul\":990:1083   */\n      tag_55\n      jump\t// in\n    tag_54:\n        /* \"#utility.yul\":1108:1110   */\n      0x20\n        /* \"#utility.yul\":1103:1106   */\n      dup3\n        /* \"#utility.yul\":1099:1111   */\n      add\n        /* \"#utility.yul\":1092:1111   */\n      swap1\n      pop\n        /* \"#utility.yul\":751:1117   */\n      swap2\n      swap1\n      pop\n      jump\t// out\n        /* \"#utility.yul\":1123:1521   */\n    tag_56:\n        /* \"#utility.yul\":1282:1285   */\n      0x00\n        /* \"#utility.yul\":1303:1386   */\n      tag_58\n        /* \"#utility.yul\":1384:1385   */\n      0x00\n        /* \"#utility.yul\":1379:1382   */\n      dup4\n        /* \"#utility.yul\":1303:1386   */\n      tag_59\n      jump\t// in\n    tag_58:\n        /* \"#utility.yul\":1296:1386   */\n      swap2\n      pop\n        /* \"#utility.yul\":1395:1488   */\n      tag_60\n        /* \"#utility.yul\":1484:1487   */\n      dup3\n        /* \"#utility.yul\":1395:1488   */\n      tag_61\n      jump\t// in\n    tag_60:\n        /* \"#utility.yul\":1513:1514   */\n      0x00\n        /* \"#utility.yul\":1508:1511   */\n      dup3\n        /* \"#utility.yul\":1504:1515   */\n      add\n        /* \"#utility.yul\":1497:1515   */\n      swap1\n      pop\n        /* \"#utility.yul\":1123:1521   */\n      swap2\n      swap1\n      pop\n      jump\t// out\n        /* \"#utility.yul\":1527:1893   */\n    tag_62:\n        /* \"#utility.yul\":1669:1672   */\n      0x00\n        /* \"#utility.yul\":1690:1757   */\n      tag_64\n        /* \"#utility.yul\":1754:1756   */\n      0x2b\n        /* \"#utility.yul\":1749:1752   */\n      dup4\n        /* \"#utility.yul\":1690:1757   */\n      tag_43\n      jump\t// in\n    tag_64:\n        /* \"#utility.yul\":1683:1757   */\n      swap2\n      pop\n        /* \"#utility.yul\":1766:1859   */\n      tag_65\n        /* \"#utility.yul\":1855:1858   */\n      dup3\n        /* \"#utility.yul\":1766:1859   */\n      tag_66\n      jump\t// in\n    tag_65:\n        /* \"#utility.yul\":1884:1886   */\n      0x40\n        /* \"#utility.yul\":1879:1882   */\n      dup3\n        /* \"#utility.yul\":1875:1887   */\n      add\n        /* \"#utility.yul\":1868:1887   */\n      swap1\n      pop\n        /* \"#utility.yul\":1527:1893   */\n      swap2\n      swap1\n      pop\n      jump\t// out\n        /* \"#utility.yul\":1899:2265   */\n    tag_67:\n        /* \"#utility.yul\":2041:2044   */\n      0x00\n        /* \"#utility.yul\":2062:2129   */\n      tag_69\n        /* \"#utility.yul\":2126:2128   */\n      0x1f\n        /* \"#utility.yul\":2121:2124   */\n      dup4\n        /* \"#utility.yul\":2062:2129   */\n      tag_43\n      jump\t// in\n    tag_69:\n        /* \"#utility.yul\":2055:2129   */\n      swap2\n      pop\n        /* \"#utility.yul\":2138:2231   */\n      tag_70\n        /* \"#utility.yul\":2227:2230   */\n      dup3\n        /* \"#utility.yul\":2138:2231   */\n      tag_71\n      jump\t// in\n    tag_70:\n        /* \"#utility.yul\":2256:2258   */\n      0x20\n        /* \"#utility.yul\":2251:2254   */\n      dup3\n        /* \"#utility.yul\":2247:2259   */\n      add\n        /* \"#utility.yul\":2240:2259   */\n      swap1\n      pop\n        /* \"#utility.yul\":1899:2265   */\n      swap2\n      swap1\n      pop\n      jump\t// out\n        /* \"#utility.yul\":2271:2389   */\n    tag_72:\n        /* \"#utility.yul\":2358:2382   */\n      tag_74\n        /* \"#utility.yul\":2376:2381   */\n      dup2\n        /* \"#utility.yul\":2358:2382   */\n      tag_75\n      jump\t// in\n    tag_74:\n        /* \"#utility.yul\":2353:2356   */\n      dup3\n        /* \"#utility.yul\":2346:2383   */\n      mstore\n        /* \"#utility.yul\":2271:2389   */\n      pop\n      pop\n      jump\t// out\n        /* \"#utility.yul\":2395:2774   */\n    tag_27:\n        /* \"#utility.yul\":2579:2582   */\n      0x00\n        /* \"#utility.yul\":2601:2748   */\n      tag_77\n        /* \"#utility.yul\":2744:2747   */\n      dup3\n        /* \"#utility.yul\":2601:2748   */\n      tag_56\n      jump\t// in\n    tag_77:\n        /* \"#utility.yul\":2594:2748   */\n      swap2\n      pop\n        /* \"#utility.yul\":2765:2768   */\n      dup2\n        /* \"#utility.yul\":2758:2768   */\n      swap1\n      pop\n        /* \"#utility.yul\":2395:2774   */\n      swap2\n      swap1\n      pop\n      jump\t// out\n        /* \"#utility.yul\":2780:3199   */\n    tag_33:\n        /* \"#utility.yul\":2946:2950   */\n      0x00\n        /* \"#utility.yul\":2984:2986   */\n      0x20\n        /* \"#utility.yul\":2973:2982   */\n      dup3\n        /* \"#utility.yul\":2969:2987   */\n      add\n        /* \"#utility.yul\":2961:2987   */\n      swap1\n      pop\n        /* \"#utility.yul\":3033:3042   */\n      dup2\n        /* \"#utility.yul\":3027:3031   */\n      dup2\n        /* \"#utility.yul\":3023:3043   */\n      sub\n        /* \"#utility.yul\":3019:3020   */\n      0x00\n        /* \"#utility.yul\":3008:3017   */\n      dup4\n        /* \"#utility.yul\":3004:3021   */\n      add\n        /* \"#utility.yul\":2997:3044   */\n      mstore\n        /* \"#utility.yul\":3061:3192   */\n      tag_79\n        /* \"#utility.yul\":3187:3191   */\n      dup2\n        /* \"#utility.yul\":3061:3192   */\n      tag_40\n      jump\t// in\n    tag_79:\n        /* \"#utility.yul\":3053:3192   */\n      swap1\n      pop\n        /* \"#utility.yul\":2780:3199   */\n      swap2\n      swap1\n      pop\n      jump\t// out\n        /* \"#utility.yul\":3205:3624   */\n    tag_25:\n        /* \"#utility.yul\":3371:3375   */\n      0x00\n        /* \"#utility.yul\":3409:3411   */\n      0x20\n        /* \"#utility.yul\":3398:3407   */\n      dup3\n        /* \"#utility.yul\":3394:3412   */\n      add\n        /* \"#utility.yul\":3386:3412   */\n      swap1\n      pop\n        /* \"#utility.yul\":3458:3467   */\n      dup2\n        /* \"#utility.yul\":3452:3456   */\n      dup2\n        /* \"#utility.yul\":3448:3468   */\n      sub\n        /* \"#utility.yul\":3444:3445   */\n      0x00\n        /* \"#utility.yul\":3433:3442   */\n      dup4\n        /* \"#utility.yul\":3429:3446   */\n      add\n        /* \"#utility.yul\":3422:3469   */\n      mstore\n        /* \"#utility.yul\":3486:3617   */\n      tag_81\n        /* \"#utility.yul\":3612:3616   */\n      dup2\n        /* \"#utility.yul\":3486:3617   */\n      tag_46\n      jump\t// in\n    tag_81:\n        /* \"#utility.yul\":3478:3617   */\n      swap1\n      pop\n        /* \"#utility.yul\":3205:3624   */\n      swap2\n      swap1\n      pop\n      jump\t// out\n        /* \"#utility.yul\":3630:4049   */\n    tag_16:\n        /* \"#utility.yul\":3796:3800   */\n      0x00\n        /* \"#utility.yul\":3834:3836   */\n      0x20\n        /* \"#utility.yul\":3823:3832   */\n      dup3\n        /* \"#utility.yul\":3819:3837   */\n      add\n        /* \"#utility.yul\":3811:3837   */\n      swap1\n      pop\n        /* \"#utility.yul\":3883:3892   */\n      dup2\n        /* \"#utility.yul\":3877:3881   */\n      dup2\n        /* \"#utility.yul\":3873:3893   */\n      sub\n        /* \"#utility.yul\":3869:3870   */\n      0x00\n        /* \"#utility.yul\":3858:3867   */\n      dup4\n        /* \"#utility.yul\":3854:3871   */\n      add\n        /* \"#utility.yul\":3847:3894   */\n      mstore\n        /* \"#utility.yul\":3911:4042   */\n      tag_83\n        /* \"#utility.yul\":4037:4041   */\n      dup2\n        /* \"#utility.yul\":3911:4042   */\n      tag_51\n      jump\t// in\n    tag_83:\n        /* \"#utility.yul\":3903:4042   */\n      swap1\n      pop\n        /* \"#utility.yul\":3630:4049   */\n      swap2\n      swap1\n      pop\n      jump\t// out\n        /* \"#utility.yul\":4055:4474   */\n    tag_19:\n        /* \"#utility.yul\":4221:4225   */\n      0x00\n        /* \"#utility.yul\":4259:4261   */\n      0x20\n        /* \"#utility.yul\":4248:4257   */\n      dup3\n        /* \"#utility.yul\":4244:4262   */\n      add\n        /* \"#utility.yul\":4236:4262   */\n      swap1\n      pop\n        /* \"#utility.yul\":4308:4317   */\n      dup2\n        /* \"#utility.yul\":4302:4306   */\n      dup2\n        /* \"#utility.yul\":4298:4318   */\n      sub\n        /* \"#utility.yul\":4294:4295   */\n      0x00\n        /* \"#utility.yul\":4283:4292   */\n      dup4\n        /* \"#utility.yul\":4279:4296   */\n      add\n        /* \"#utility.yul\":4272:4319   */\n      mstore\n        /* \"#utility.yul\":4336:4467   */\n      tag_85\n        /* \"#utility.yul\":4462:4466   */\n      dup2\n        /* \"#utility.yul\":4336:4467   */\n      tag_62\n      jump\t// in\n    tag_85:\n        /* \"#utility.yul\":4328:4467   */\n      swap1\n      pop\n        /* \"#utility.yul\":4055:4474   */\n      swap2\n      swap1\n      pop\n      jump\t// out\n        /* \"#utility.yul\":4480:4899   */\n    tag_37:\n        /* \"#utility.yul\":4646:4650   */\n      0x00\n        /* \"#utility.yul\":4684:4686   */\n      0x20\n        /* \"#utility.yul\":4673:4682   */\n      dup3\n        /* \"#utility.yul\":4669:4687   */\n      add\n        /* \"#utility.yul\":4661:4687   */\n      swap1\n      pop\n        /* \"#utility.yul\":4733:4742   */\n      dup2\n        /* \"#utility.yul\":4727:4731   */\n      dup2\n        /* \"#utility.yul\":4723:4743   */\n      sub\n        /* \"#utility.yul\":4719:4720   */\n      0x00\n        /* \"#utility.yul\":4708:4717   */\n      dup4\n        /* \"#utility.yul\":4704:4721   */\n      add\n        /* \"#utility.yul\":4697:4744   */\n      mstore\n        /* \"#utility.yul\":4761:4892   */\n      tag_87\n        /* \"#utility.yul\":4887:4891   */\n      dup2\n        /* \"#utility.yul\":4761:4892   */\n      tag_67\n      jump\t// in\n    tag_87:\n        /* \"#utility.yul\":4753:4892   */\n      swap1\n      pop\n        /* \"#utility.yul\":4480:4899   */\n      swap2\n      swap1\n      pop\n      jump\t// out\n        /* \"#utility.yul\":4905:5127   */\n    tag_21:\n        /* \"#utility.yul\":4998:5002   */\n      0x00\n        /* \"#utility.yul\":5036:5038   */\n      0x20\n        /* \"#utility.yul\":5025:5034   */\n      dup3\n        /* \"#utility.yul\":5021:5039   */\n      add\n        /* \"#utility.yul\":5013:5039   */\n      swap1\n      pop\n        /* \"#utility.yul\":5049:5120   */\n      tag_89\n        /* \"#utility.yul\":5117:5118   */\n      0x00\n        /* \"#utility.yul\":5106:5115   */\n      dup4\n        /* \"#utility.yul\":5102:5119   */\n      add\n        /* \"#utility.yul\":5093:5099   */\n      dup5\n        /* \"#utility.yul\":5049:5120   */\n      tag_72\n      jump\t// in\n    tag_89:\n        /* \"#utility.yul\":4905:5127   */\n      swap3\n      swap2\n      pop\n      pop\n      jump\t// out\n        /* \"#utility.yul\":5133:5280   */\n    tag_59:\n        /* \"#utility.yul\":5234:5245   */\n      0x00\n        /* \"#utility.yul\":5271:5274   */\n      dup2\n        /* \"#utility.yul\":5256:5274   */\n      swap1\n      pop\n        /* \"#utility.yul\":5133:5280   */\n      swap3\n      swap2\n      pop\n      pop\n      jump\t// out\n        /* \"#utility.yul\":5286:5455   */\n    tag_43:\n        /* \"#utility.yul\":5370:5381   */\n      0x00\n        /* \"#utility.yul\":5404:5410   */\n      dup3\n        /* \"#utility.yul\":5399:5402   */\n      dup3\n        /* \"#utility.yul\":5392:5411   */\n      mstore\n        /* \"#utility.yul\":5444:5448   */\n      0x20\n        /* \"#utility.yul\":5439:5442   */\n      dup3\n        /* \"#utility.yul\":5435:5449   */\n      add\n        /* \"#utility.yul\":5420:5449   */\n      swap1\n      pop\n        /* \"#utility.yul\":5286:5455   */\n      swap3\n      swap2\n      pop\n      pop\n      jump\t// out\n        /* \"#utility.yul\":5461:5538   */\n    tag_75:\n        /* \"#utility.yul\":5498:5505   */\n      0x00\n        /* \"#utility.yul\":5527:5532   */\n      dup2\n        /* \"#utility.yul\":5516:5532   */\n      swap1\n      pop\n        /* \"#utility.yul\":5461:5538   */\n      swap2\n      swap1\n      pop\n      jump\t// out\n        /* \"#utility.yul\":5544:5709   */\n    tag_45:\n        /* \"#utility.yul\":5684:5701   */\n      0x5061796d656e74206661696c6564210000000000000000000000000000000000\n        /* \"#utility.yul\":5680:5681   */\n      0x00\n        /* \"#utility.yul\":5672:5678   */\n      dup3\n        /* \"#utility.yul\":5668:5682   */\n      add\n        /* \"#utility.yul\":5661:5702   */\n      mstore\n        /* \"#utility.yul\":5544:5709   */\n      pop\n      jump\t// out\n        /* \"#utility.yul\":5715:5886   */\n    tag_50:\n        /* \"#utility.yul\":5855:5878   */\n      0x4f776e65722063616e27742077697468647261772e0000000000000000000000\n        /* \"#utility.yul\":5851:5852   */\n      0x00\n        /* \"#utility.yul\":5843:5849   */\n      dup3\n        /* \"#utility.yul\":5839:5853   */\n      add\n        /* \"#utility.yul\":5832:5879   */\n      mstore\n        /* \"#utility.yul\":5715:5886   */\n      pop\n      jump\t// out\n        /* \"#utility.yul\":5892:6074   */\n    tag_55:\n        /* \"#utility.yul\":6032:6066   */\n      0x4f776e65722063616e27742062696420696e20746869732041756374696f6e2e\n        /* \"#utility.yul\":6028:6029   */\n      0x00\n        /* \"#utility.yul\":6020:6026   */\n      dup3\n        /* \"#utility.yul\":6016:6030   */\n      add\n        /* \"#utility.yul\":6009:6067   */\n      mstore\n        /* \"#utility.yul\":5892:6074   */\n      pop\n      jump\t// out\n        /* \"#utility.yul\":6080:6194   */\n    tag_61:\n      pop\n      jump\t// out\n        /* \"#utility.yul\":6200:6430   */\n    tag_66:\n        /* \"#utility.yul\":6340:6374   */\n      0x596f752063616e277420626964207468697320616d6f756e7420746869732069\n        /* \"#utility.yul\":6336:6337   */\n      0x00\n        /* \"#utility.yul\":6328:6334   */\n      dup3\n        /* \"#utility.yul\":6324:6338   */\n      add\n        /* \"#utility.yul\":6317:6375   */\n      mstore\n        /* \"#utility.yul\":6409:6422   */\n      0x732076657279206c6f772e000000000000000000000000000000000000000000\n        /* \"#utility.yul\":6404:6406   */\n      0x20\n        /* \"#utility.yul\":6396:6402   */\n      dup3\n        /* \"#utility.yul\":6392:6407   */\n      add\n        /* \"#utility.yul\":6385:6423   */\n      mstore\n        /* \"#utility.yul\":6200:6430   */\n      pop\n      jump\t// out\n        /* \"#utility.yul\":6436:6617   */\n    tag_71:\n        /* \"#utility.yul\":6576:6609   */\n      0x4f6e6c79206f776e65722063616e2073746f70207468652061756374696f6e00\n        /* \"#utility.yul\":6572:6573   */\n      0x00\n        /* \"#utility.yul\":6564:6570   */\n      dup3\n        /* \"#utility.yul\":6560:6574   */\n      add\n        /* \"#utility.yul\":6553:6610   */\n      mstore\n        /* \"#utility.yul\":6436:6617   */\n      pop\n      jump\t// out\n\n    auxdata: 0xa26469706673582212208fcf7286e7409a772556f199ee68213fa15a307d740dbe80f30dc4554b053d9664736f6c63430008070033\n}\n",
				"bytecode": {
					"linkReferences": {},
					"object": "608060405234801561001057600080fd5b50336000806101000a81548173ffffffffffffffffffffffffffffffffffffffff021916908373ffffffffffffffffffffffffffffffffffffffff160217905550610848806100606000396000f3fe6080604052600436106100345760003560e01c80631998aeef146100395780633ccfd60b14610043578063430ca46f1461005a575b600080fd5b610041610071565b005b34801561004f57600080fd5b50610058610244565b005b34801561006657600080fd5b5061006f61040c565b005b60008054906101000a900473ffffffffffffffffffffffffffffffffffffffff1673ffffffffffffffffffffffffffffffffffffffff163373ffffffffffffffffffffffffffffffffffffffff161415610100576040517f08c379a00000000000000000000000000000000000000000000000000000000081526004016100f79061067b565b60405180910390fd5b6001543411610144576040517f08c379a000000000000000000000000000000000000000000000000000000000815260040161013b9061069b565b60405180910390fd5b60015460036000600260009054906101000a900473ffffffffffffffffffffffffffffffffffffffff1673ffffffffffffffffffffffffffffffffffffffff1673ffffffffffffffffffffffffffffffffffffffff168152602001908152602001600020819055503460018190555033600260006101000a81548173ffffffffffffffffffffffffffffffffffffffff021916908373ffffffffffffffffffffffffffffffffffffffff1602179055503373ffffffffffffffffffffffffffffffffffffffff167fe684a55f31b79eca403df938249029212a5925ec6be8012e099b45bc1019e5d23460405161023a91906106db565b60405180910390a2565b60008054906101000a900473ffffffffffffffffffffffffffffffffffffffff1673ffffffffffffffffffffffffffffffffffffffff163373ffffffffffffffffffffffffffffffffffffffff1614156102d3576040517f08c379a00000000000000000000000000000000000000000000000000000000081526004016102ca9061065b565b60405180910390fd5b6000600360003373ffffffffffffffffffffffffffffffffffffffff1673ffffffffffffffffffffffffffffffffffffffff1681526020019081526020016000205490506000600360003373ffffffffffffffffffffffffffffffffffffffff1673ffffffffffffffffffffffffffffffffffffffff1681526020019081526020016000208190555060003373ffffffffffffffffffffffffffffffffffffffff168260405161038290610626565b60006040518083038185875af1925050503d80600081146103bf576040519150601f19603f3d011682016040523d82523d6000602084013e6103c4565b606091505b5050905080610408576040517f08c379a00000000000000000000000000000000000000000000000000000000081526004016103ff9061063b565b60405180910390fd5b5050565b60008054906101000a900473ffffffffffffffffffffffffffffffffffffffff1673ffffffffffffffffffffffffffffffffffffffff163373ffffffffffffffffffffffffffffffffffffffff161461049a576040517f08c379a0000000000000000000000000000000000000000000000000000000008152600401610491906106bb565b60405180910390fd5b600260009054906101000a900473ffffffffffffffffffffffffffffffffffffffff1673ffffffffffffffffffffffffffffffffffffffff167f1eee73abf7d625fb02ce8cdbc04500a14d0a0a1ac9d0583c1aaed0677c8b555a60015460405161050491906106db565b60405180910390a260008054906101000a900473ffffffffffffffffffffffffffffffffffffffff1673ffffffffffffffffffffffffffffffffffffffff16ff5b6000610552600f83610701565b915061055d8261071c565b602082019050919050565b6000610575601583610701565b915061058082610745565b602082019050919050565b6000610598602083610701565b91506105a38261076e565b602082019050919050565b60006105bb6000836106f6565b91506105c682610797565b600082019050919050565b60006105de602b83610701565b91506105e98261079a565b604082019050919050565b6000610601601f83610701565b915061060c826107e9565b602082019050919050565b61062081610712565b82525050565b6000610631826105ae565b9150819050919050565b6000602082019050818103600083015261065481610545565b9050919050565b6000602082019050818103600083015261067481610568565b9050919050565b600060208201905081810360008301526106948161058b565b9050919050565b600060208201905081810360008301526106b4816105d1565b9050919050565b600060208201905081810360008301526106d4816105f4565b9050919050565b60006020820190506106f06000830184610617565b92915050565b600081905092915050565b600082825260208201905092915050565b6000819050919050565b7f5061796d656e74206661696c6564210000000000000000000000000000000000600082015250565b7f4f776e65722063616e27742077697468647261772e0000000000000000000000600082015250565b7f4f776e65722063616e27742062696420696e20746869732041756374696f6e2e600082015250565b50565b7f596f752063616e277420626964207468697320616d6f756e742074686973206960008201527f732076657279206c6f772e000000000000000000000000000000000000000000602082015250565b7f4f6e6c79206f776e65722063616e2073746f70207468652061756374696f6e0060008201525056fea26469706673582212208fcf7286e7409a772556f199ee68213fa15a307d740dbe80f30dc4554b053d9664736f6c63430008070033",
					"opcodes": "PUSH1 0x80 PUSH1 0x40 MSTORE CALLVALUE DUP1 ISZERO PUSH2 0x10 JUMPI PUSH1 0x0 DUP1 REVERT JUMPDEST POP CALLER PUSH1 0x0 DUP1 PUSH2 0x100 EXP DUP2 SLOAD DUP2 PUSH20 0xFFFFFFFFFFFFFFFFFFFFFFFFFFFFFFFFFFFFFFFF MUL NOT AND SWAP1 DUP4 PUSH20 0xFFFFFFFFFFFFFFFFFFFFFFFFFFFFFFFFFFFFFFFF AND MUL OR SWAP1 SSTORE POP PUSH2 0x848 DUP1 PUSH2 0x60 PUSH1 0x0 CODECOPY PUSH1 0x0 RETURN INVALID PUSH1 0x80 PUSH1 0x40 MSTORE PUSH1 0x4 CALLDATASIZE LT PUSH2 0x34 JUMPI PUSH1 0x0 CALLDATALOAD PUSH1 0xE0 SHR DUP1 PUSH4 0x1998AEEF EQ PUSH2 0x39 JUMPI DUP1 PUSH4 0x3CCFD60B EQ PUSH2 0x43 JUMPI DUP1 PUSH4 0x430CA46F EQ PUSH2 0x5A JUMPI JUMPDEST PUSH1 0x0 DUP1 REVERT JUMPDEST PUSH2 0x41 PUSH2 0x71 JUMP JUMPDEST STOP JUMPDEST CALLVALUE DUP1 ISZERO PUSH2 0x4F JUMPI PUSH1 0x0 DUP1 REVERT JUMPDEST POP PUSH2 0x58 PUSH2 0x244 JUMP JUMPDEST STOP JUMPDEST CALLVALUE DUP1 ISZERO PUSH2 0x66 JUMPI PUSH1 0x0 DUP1 REVERT JUMPDEST POP PUSH2 0x6F PUSH2 0x40C JUMP JUMPDEST STOP JUMPDEST PUSH1 0x0 DUP1 SLOAD SWAP1 PUSH2 0x100 EXP SWAP1 DIV PUSH20 0xFFFFFFFFFFFFFFFFFFFFFFFFFFFFFFFFFFFFFFFF AND PUSH20 0xFFFFFFFFFFFFFFFFFFFFFFFFFFFFFFFFFFFFFFFF AND CALLER PUSH20 0xFFFFFFFFFFFFFFFFFFFFFFFFFFFFFFFFFFFFFFFF AND EQ ISZERO PUSH2 0x100 JUMPI PUSH1 0x40 MLOAD PUSH32 0x8C379A000000000000000000000000000000000000000000000000000000000 DUP2 MSTORE PUSH1 0x4 ADD PUSH2 0xF7 SWAP1 PUSH2 0x67B JUMP JUMPDEST PUSH1 0x40 MLOAD DUP1 SWAP2 SUB SWAP1 REVERT JUMPDEST PUSH1 0x1 SLOAD CALLVALUE GT PUSH2 0x144 JUMPI PUSH1 0x40 MLOAD PUSH32 0x8C379A000000000000000000000000000000000000000000000000000000000 DUP2 MSTORE PUSH1 0x4 ADD PUSH2 0x13B SWAP1 PUSH2 0x69B JUMP JUMPDEST PUSH1 0x40 MLOAD DUP1 SWAP2 SUB SWAP1 REVERT JUMPDEST PUSH1 0x1 SLOAD PUSH1 0x3 PUSH1 0x0 PUSH1 0x2 PUSH1 0x0 SWAP1 SLOAD SWAP1 PUSH2 0x100 EXP SWAP1 DIV PUSH20 0xFFFFFFFFFFFFFFFFFFFFFFFFFFFFFFFFFFFFFFFF AND PUSH20 0xFFFFFFFFFFFFFFFFFFFFFFFFFFFFFFFFFFFFFFFF AND PUSH20 0xFFFFFFFFFFFFFFFFFFFFFFFFFFFFFFFFFFFFFFFF AND DUP2 MSTORE PUSH1 0x20 ADD SWAP1 DUP2 MSTORE PUSH1 0x20 ADD PUSH1 0x0 KECCAK256 DUP2 SWAP1 SSTORE POP CALLVALUE PUSH1 0x1 DUP2 SWAP1 SSTORE POP CALLER PUSH1 0x2 PUSH1 0x0 PUSH2 0x100 EXP DUP2 SLOAD DUP2 PUSH20 0xFFFFFFFFFFFFFFFFFFFFFFFFFFFFFFFFFFFFFFFF MUL NOT AND SWAP1 DUP4 PUSH20 0xFFFFFFFFFFFFFFFFFFFFFFFFFFFFFFFFFFFFFFFF AND MUL OR SWAP1 SSTORE POP CALLER PUSH20 0xFFFFFFFFFFFFFFFFFFFFFFFFFFFFFFFFFFFFFFFF AND PUSH32 0xE684A55F31B79ECA403DF938249029212A5925EC6BE8012E099B45BC1019E5D2 CALLVALUE PUSH1 0x40 MLOAD PUSH2 0x23A SWAP2 SWAP1 PUSH2 0x6DB JUMP JUMPDEST PUSH1 0x40 MLOAD DUP1 SWAP2 SUB SWAP1 LOG2 JUMP JUMPDEST PUSH1 0x0 DUP1 SLOAD SWAP1 PUSH2 0x100 EXP SWAP1 DIV PUSH20 0xFFFFFFFFFFFFFFFFFFFFFFFFFFFFFFFFFFFFFFFF AND PUSH20 0xFFFFFFFFFFFFFFFFFFFFFFFFFFFFFFFFFFFFFFFF AND CALLER PUSH20 0xFFFFFFFFFFFFFFFFFFFFFFFFFFFFFFFFFFFFFFFF AND EQ ISZERO PUSH2 0x2D3 JUMPI PUSH1 0x40 MLOAD PUSH32 0x8C379A000000000000000000000000000000000000000000000000000000000 DUP2 MSTORE PUSH1 0x4 ADD PUSH2 0x2CA SWAP1 PUSH2 0x65B JUMP JUMPDEST PUSH1 0x40 MLOAD DUP1 SWAP2 SUB SWAP1 REVERT JUMPDEST PUSH1 0x0 PUSH1 0x3 PUSH1 0x0 CALLER PUSH20 0xFFFFFFFFFFFFFFFFFFFFFFFFFFFFFFFFFFFFFFFF AND PUSH20 0xFFFFFFFFFFFFFFFFFFFFFFFFFFFFFFFFFFFFFFFF AND DUP2 MSTORE PUSH1 0x20 ADD SWAP1 DUP2 MSTORE PUSH1 0x20 ADD PUSH1 0x0 KECCAK256 SLOAD SWAP1 POP PUSH1 0x0 PUSH1 0x3 PUSH1 0x0 CALLER PUSH20 0xFFFFFFFFFFFFFFFFFFFFFFFFFFFFFFFFFFFFFFFF AND PUSH20 0xFFFFFFFFFFFFFFFFFFFFFFFFFFFFFFFFFFFFFFFF AND DUP2 MSTORE PUSH1 0x20 ADD SWAP1 DUP2 MSTORE PUSH1 0x20 ADD PUSH1 0x0 KECCAK256 DUP2 SWAP1 SSTORE POP PUSH1 0x0 CALLER PUSH20 0xFFFFFFFFFFFFFFFFFFFFFFFFFFFFFFFFFFFFFFFF AND DUP3 PUSH1 0x40 MLOAD PUSH2 0x382 SWAP1 PUSH2 0x626 JUMP JUMPDEST PUSH1 0x0 PUSH1 0x40 MLOAD DUP1 DUP4 SUB DUP2 DUP6 DUP8 GAS CALL SWAP3 POP POP POP RETURNDATASIZE DUP1 PUSH1 0x0 DUP2 EQ PUSH2 0x3BF JUMPI PUSH1 0x40 MLOAD SWAP2 POP PUSH1 0x1F NOT PUSH1 0x3F RETURNDATASIZE ADD AND DUP3 ADD PUSH1 0x40 MSTORE RETURNDATASIZE DUP3 MSTORE RETURNDATASIZE PUSH1 0x0 PUSH1 0x20 DUP5 ADD RETURNDATACOPY PUSH2 0x3C4 JUMP JUMPDEST PUSH1 0x60 SWAP2 POP JUMPDEST POP POP SWAP1 POP DUP1 PUSH2 0x408 JUMPI PUSH1 0x40 MLOAD PUSH32 0x8C379A000000000000000000000000000000000000000000000000000000000 DUP2 MSTORE PUSH1 0x4 ADD PUSH2 0x3FF SWAP1 PUSH2 0x63B JUMP JUMPDEST PUSH1 0x40 MLOAD DUP1 SWAP2 SUB SWAP1 REVERT JUMPDEST POP POP JUMP JUMPDEST PUSH1 0x0 DUP1 SLOAD SWAP1 PUSH2 0x100 EXP SWAP1 DIV PUSH20 0xFFFFFFFFFFFFFFFFFFFFFFFFFFFFFFFFFFFFFFFF AND PUSH20 0xFFFFFFFFFFFFFFFFFFFFFFFFFFFFFFFFFFFFFFFF AND CALLER PUSH20 0xFFFFFFFFFFFFFFFFFFFFFFFFFFFFFFFFFFFFFFFF AND EQ PUSH2 0x49A JUMPI PUSH1 0x40 MLOAD PUSH32 0x8C379A000000000000000000000000000000000000000000000000000000000 DUP2 MSTORE PUSH1 0x4 ADD PUSH2 0x491 SWAP1 PUSH2 0x6BB JUMP JUMPDEST PUSH1 0x40 MLOAD DUP1 SWAP2 SUB SWAP1 REVERT JUMPDEST PUSH1 0x2 PUSH1 0x0 SWAP1 SLOAD SWAP1 PUSH2 0x100 EXP SWAP1 DIV PUSH20 0xFFFFFFFFFFFFFFFFFFFFFFFFFFFFFFFFFFFFFFFF AND PUSH20 0xFFFFFFFFFFFFFFFFFFFFFFFFFFFFFFFFFFFFFFFF AND PUSH32 0x1EEE73ABF7D625FB02CE8CDBC04500A14D0A0A1AC9D0583C1AAED0677C8B555A PUSH1 0x1 SLOAD PUSH1 0x40 MLOAD PUSH2 0x504 SWAP2 SWAP1 PUSH2 0x6DB JUMP JUMPDEST PUSH1 0x40 MLOAD DUP1 SWAP2 SUB SWAP1 LOG2 PUSH1 0x0 DUP1 SLOAD SWAP1 PUSH2 0x100 EXP SWAP1 DIV PUSH20 0xFFFFFFFFFFFFFFFFFFFFFFFFFFFFFFFFFFFFFFFF AND PUSH20 0xFFFFFFFFFFFFFFFFFFFFFFFFFFFFFFFFFFFFFFFF AND SELFDESTRUCT JUMPDEST PUSH1 0x0 PUSH2 0x552 PUSH1 0xF DUP4 PUSH2 0x701 JUMP JUMPDEST SWAP2 POP PUSH2 0x55D DUP3 PUSH2 0x71C JUMP JUMPDEST PUSH1 0x20 DUP3 ADD SWAP1 POP SWAP2 SWAP1 POP JUMP JUMPDEST PUSH1 0x0 PUSH2 0x575 PUSH1 0x15 DUP4 PUSH2 0x701 JUMP JUMPDEST SWAP2 POP PUSH2 0x580 DUP3 PUSH2 0x745 JUMP JUMPDEST PUSH1 0x20 DUP3 ADD SWAP1 POP SWAP2 SWAP1 POP JUMP JUMPDEST PUSH1 0x0 PUSH2 0x598 PUSH1 0x20 DUP4 PUSH2 0x701 JUMP JUMPDEST SWAP2 POP PUSH2 0x5A3 DUP3 PUSH2 0x76E JUMP JUMPDEST PUSH1 0x20 DUP3 ADD SWAP1 POP SWAP2 SWAP1 POP JUMP JUMPDEST PUSH1 0x0 PUSH2 0x5BB PUSH1 0x0 DUP4 PUSH2 0x6F6 JUMP JUMPDEST SWAP2 POP PUSH2 0x5C6 DUP3 PUSH2 0x797 JUMP JUMPDEST PUSH1 0x0 DUP3 ADD SWAP1 POP SWAP2 SWAP1 POP JUMP JUMPDEST PUSH1 0x0 PUSH2 0x5DE PUSH1 0x2B DUP4 PUSH2 0x701 JUMP JUMPDEST SWAP2 POP PUSH2 0x5E9 DUP3 PUSH2 0x79A JUMP JUMPDEST PUSH1 0x40 DUP3 ADD SWAP1 POP SWAP2 SWAP1 POP JUMP JUMPDEST PUSH1 0x0 PUSH2 0x601 PUSH1 0x1F DUP4 PUSH2 0x701 JUMP JUMPDEST SWAP2 POP PUSH2 0x60C DUP3 PUSH2 0x7E9 JUMP JUMPDEST PUSH1 0x20 DUP3 ADD SWAP1 POP SWAP2 SWAP1 POP JUMP JUMPDEST PUSH2 0x620 DUP2 PUSH2 0x712 JUMP JUMPDEST DUP3 MSTORE POP POP JUMP JUMPDEST PUSH1 0x0 PUSH2 0x631 DUP3 PUSH2 0x5AE JUMP JUMPDEST SWAP2 POP DUP2 SWAP1 POP SWAP2 SWAP1 POP JUMP JUMPDEST PUSH1 0x0 PUSH1 0x20 DUP3 ADD SWAP1 POP DUP2 DUP2 SUB PUSH1 0x0 DUP4 ADD MSTORE PUSH2 0x654 DUP2 PUSH2 0x545 JUMP JUMPDEST SWAP1 POP SWAP2 SWAP1 POP JUMP JUMPDEST PUSH1 0x0 PUSH1 0x20 DUP3 ADD SWAP1 POP DUP2 DUP2 SUB PUSH1 0x0 DUP4 ADD MSTORE PUSH2 0x674 DUP2 PUSH2 0x568 JUMP JUMPDEST SWAP1 POP SWAP2 SWAP1 POP JUMP JUMPDEST PUSH1 0x0 PUSH1 0x20 DUP3 ADD SWAP1 POP DUP2 DUP2 SUB PUSH1 0x0 DUP4 ADD MSTORE PUSH2 0x694 DUP2 PUSH2 0x58B JUMP JUMPDEST SWAP1 POP SWAP2 SWAP1 POP JUMP JUMPDEST PUSH1 0x0 PUSH1 0x20 DUP3 ADD SWAP1 POP DUP2 DUP2 SUB PUSH1 0x0 DUP4 ADD MSTORE PUSH2 0x6B4 DUP2 PUSH2 0x5D1 JUMP JUMPDEST SWAP1 POP SWAP2 SWAP1 POP JUMP JUMPDEST PUSH1 0x0 PUSH1 0x20 DUP3 ADD SWAP1 POP DUP2 DUP2 SUB PUSH1 0x0 DUP4 ADD MSTORE PUSH2 0x6D4 DUP2 PUSH2 0x5F4 JUMP JUMPDEST SWAP1 POP SWAP2 SWAP1 POP JUMP JUMPDEST PUSH1 0x0 PUSH1 0x20 DUP3 ADD SWAP1 POP PUSH2 0x6F0 PUSH1 0x0 DUP4 ADD DUP5 PUSH2 0x617 JUMP JUMPDEST SWAP3 SWAP2 POP POP JUMP JUMPDEST PUSH1 0x0 DUP2 SWAP1 POP SWAP3 SWAP2 POP POP JUMP JUMPDEST PUSH1 0x0 DUP3 DUP3 MSTORE PUSH1 0x20 DUP3 ADD SWAP1 POP SWAP3 SWAP2 POP POP JUMP JUMPDEST PUSH1 0x0 DUP2 SWAP1 POP SWAP2 SWAP1 POP JUMP JUMPDEST PUSH32 0x5061796D656E74206661696C6564210000000000000000000000000000000000 PUSH1 0x0 DUP3 ADD MSTORE POP JUMP JUMPDEST PUSH32 0x4F776E65722063616E27742077697468647261772E0000000000000000000000 PUSH1 0x0 DUP3 ADD MSTORE POP JUMP JUMPDEST PUSH32 0x4F776E65722063616E27742062696420696E20746869732041756374696F6E2E PUSH1 0x0 DUP3 ADD MSTORE POP JUMP JUMPDEST POP JUMP JUMPDEST PUSH32 0x596F752063616E277420626964207468697320616D6F756E7420746869732069 PUSH1 0x0 DUP3 ADD MSTORE PUSH32 0x732076657279206C6F772E000000000000000000000000000000000000000000 PUSH1 0x20 DUP3 ADD MSTORE POP JUMP JUMPDEST PUSH32 0x4F6E6C79206F776E65722063616E2073746F70207468652061756374696F6E00 PUSH1 0x0 DUP3 ADD MSTORE POP JUMP INVALID LOG2 PUSH5 0x6970667358 0x22 SLT KECCAK256 DUP16 0xCF PUSH19 0x86E7409A772556F199EE68213FA15A307D740D 0xBE DUP1 RETURN 0xD 0xC4 SSTORE 0x4B SDIV RETURNDATASIZE SWAP7 PUSH5 0x736F6C6343 STOP ADDMOD SMOD STOP CALLER "
				},
				"gasEstimates": {
					"creation": {
						"codeDepositCost": "424000",
						"executionCost": "24727",
						"totalCost": "448727"
					},
					"external": {
						"bid()": "78782",
						"finishAuction()": "37877",
						"withdraw()": "infinite"
					}
				},
				"methodIdentifiers": {
					"bid()": "1998aeef",
					"finishAuction()": "430ca46f",
					"withdraw()": "3ccfd60b"
				}
			},
			"storageLayout": {
				"storage": [
					{
						"astId": 3,
						"contract": "contracts/EventsExample.sol:EventAuction",
						"label": "owner",
						"offset": 0,
						"slot": "0",
						"type": "t_address"
					},
					{
						"astId": 5,
						"contract": "contracts/EventsExample.sol:EventAuction",
						"label": "highestBidAmount",
						"offset": 0,
						"slot": "1",
						"type": "t_uint256"
					},
					{
						"astId": 7,
						"contract": "contracts/EventsExample.sol:EventAuction",
						"label": "highestBidderAddress",
						"offset": 0,
						"slot": "2",
						"type": "t_address"
					},
					{
						"astId": 11,
						"contract": "contracts/EventsExample.sol:EventAuction",
						"label": "bidders",
						"offset": 0,
						"slot": "3",
						"type": "t_mapping(t_address,t_uint256)"
					}
				],
				"types": {
					"t_address": {
						"encoding": "inplace",
						"label": "address",
						"numberOfBytes": "20"
					},
					"t_mapping(t_address,t_uint256)": {
						"encoding": "mapping",
						"key": "t_address",
						"label": "mapping(address => uint256)",
						"numberOfBytes": "32",
						"value": "t_uint256"
					},
					"t_uint256": {
						"encoding": "inplace",
						"label": "uint256",
						"numberOfBytes": "32"
					}
				}
			},
			"userdoc": {
				"kind": "user",
				"methods": {},
				"version": 1
			}
		}
	}
}