{
	"contracts/SendRecieveSample.sol": {
		"SendOrRecieve": {
			"abi": [
				{
					"stateMutability": "payable",
					"type": "fallback"
				},
				{
					"inputs": [],
					"name": "defaultReceived",
					"outputs": [
						{
							"internalType": "uint256",
							"name": "",
							"type": "uint256"
						}
					],
					"stateMutability": "view",
					"type": "function"
				},
				{
					"inputs": [],
					"name": "pay",
					"outputs": [],
					"stateMutability": "payable",
					"type": "function"
				},
				{
					"inputs": [],
					"name": "payReceived",
					"outputs": [
						{
							"internalType": "uint256",
							"name": "",
							"type": "uint256"
						}
					],
					"stateMutability": "view",
					"type": "function"
				},
				{
					"inputs": [],
					"name": "received",
					"outputs": [
						{
							"internalType": "uint256",
							"name": "",
							"type": "uint256"
						}
					],
					"stateMutability": "view",
					"type": "function"
				},
				{
					"inputs": [],
					"name": "withdraw",
					"outputs": [],
					"stateMutability": "nonpayable",
					"type": "function"
				},
				{
					"stateMutability": "payable",
					"type": "receive"
				}
			],
			"devdoc": {
				"kind": "dev",
				"methods": {},
				"version": 1
			},
			"evm": {
				"assembly": "    /* \"contracts/SendRecieveSample.sol\":35:694  contract SendOrRecieve {\r... */\n  mstore(0x40, 0x80)\n  callvalue\n  dup1\n  iszero\n  tag_1\n  jumpi\n  0x00\n  dup1\n  revert\ntag_1:\n  pop\n  dataSize(sub_0)\n  dup1\n  dataOffset(sub_0)\n  0x00\n  codecopy\n  0x00\n  return\nstop\n\nsub_0: assembly {\n        /* \"contracts/SendRecieveSample.sol\":35:694  contract SendOrRecieve {\r... */\n      mstore(0x40, 0x80)\n      jumpi(tag_1, lt(calldatasize, 0x04))\n      shr(0xe0, calldataload(0x00))\n      dup1\n      0x1b9265b8\n      eq\n      tag_3\n      jumpi\n      dup1\n      0x23b06278\n      eq\n      tag_4\n      jumpi\n      dup1\n      0x3ccfd60b\n      eq\n      tag_5\n      jumpi\n      dup1\n      0x83a6deb5\n      eq\n      tag_6\n      jumpi\n      dup1\n      0xfdb8fe25\n      eq\n      tag_7\n      jumpi\n      jump(tag_2)\n    tag_1:\n      jumpi(tag_2, calldatasize)\n        /* \"contracts/SendRecieveSample.sol\":592:601  msg.value */\n      callvalue\n        /* \"contracts/SendRecieveSample.sol\":580:588  received */\n      0x00\n      dup1\n        /* \"contracts/SendRecieveSample.sol\":580:601  received += msg.value */\n      dup3\n      dup3\n      sload\n      tag_10\n      swap2\n      swap1\n      tag_11\n      jump\t// in\n    tag_10:\n      swap3\n      pop\n      pop\n      dup2\n      swap1\n      sstore\n      pop\n        /* \"contracts/SendRecieveSample.sol\":35:694  contract SendOrRecieve {\r... */\n      stop\n    tag_2:\n        /* \"contracts/SendRecieveSample.sol\":674:683  msg.value */\n      callvalue\n        /* \"contracts/SendRecieveSample.sol\":655:670  defaultReceived */\n      0x01\n      0x00\n        /* \"contracts/SendRecieveSample.sol\":655:683  defaultReceived += msg.value */\n      dup3\n      dup3\n      sload\n      tag_14\n      swap2\n      swap1\n      tag_11\n      jump\t// in\n    tag_14:\n      swap3\n      pop\n      pop\n      dup2\n      swap1\n      sstore\n      pop\n        /* \"contracts/SendRecieveSample.sol\":35:694  contract SendOrRecieve {\r... */\n      stop\n        /* \"contracts/SendRecieveSample.sol\":459:534  function pay() external payable {\r... */\n    tag_3:\n      tag_15\n      tag_16\n      jump\t// in\n    tag_15:\n      stop\n        /* \"contracts/SendRecieveSample.sol\":126:149  uint public payReceived */\n    tag_4:\n      callvalue\n      dup1\n      iszero\n      tag_17\n      jumpi\n      0x00\n      dup1\n      revert\n    tag_17:\n      pop\n      tag_18\n      tag_19\n      jump\t// in\n    tag_18:\n      mload(0x40)\n      tag_20\n      swap2\n      swap1\n      tag_21\n      jump\t// in\n    tag_20:\n      mload(0x40)\n      dup1\n      swap2\n      sub\n      swap1\n      return\n        /* \"contracts/SendRecieveSample.sol\":158:453  function withdraw() public {\r... */\n    tag_5:\n      callvalue\n      dup1\n      iszero\n      tag_22\n      jumpi\n      0x00\n      dup1\n      revert\n    tag_22:\n      pop\n      tag_23\n      tag_24\n      jump\t// in\n    tag_23:\n      stop\n        /* \"contracts/SendRecieveSample.sol\":65:85  uint public received */\n    tag_6:\n      callvalue\n      dup1\n      iszero\n      tag_25\n      jumpi\n      0x00\n      dup1\n      revert\n    tag_25:\n      pop\n      tag_26\n      tag_27\n      jump\t// in\n    tag_26:\n      mload(0x40)\n      tag_28\n      swap2\n      swap1\n      tag_21\n      jump\t// in\n    tag_28:\n      mload(0x40)\n      dup1\n      swap2\n      sub\n      swap1\n      return\n        /* \"contracts/SendRecieveSample.sol\":92:119  uint public defaultReceived */\n    tag_7:\n      callvalue\n      dup1\n      iszero\n      tag_29\n      jumpi\n      0x00\n      dup1\n      revert\n    tag_29:\n      pop\n      tag_30\n      tag_31\n      jump\t// in\n    tag_30:\n      mload(0x40)\n      tag_32\n      swap2\n      swap1\n      tag_21\n      jump\t// in\n    tag_32:\n      mload(0x40)\n      dup1\n      swap2\n      sub\n      swap1\n      return\n        /* \"contracts/SendRecieveSample.sol\":459:534  function pay() external payable {\r... */\n    tag_16:\n        /* \"contracts/SendRecieveSample.sol\":517:526  msg.value */\n      callvalue\n        /* \"contracts/SendRecieveSample.sol\":502:513  payReceived */\n      0x02\n      0x00\n        /* \"contracts/SendRecieveSample.sol\":502:526  payReceived += msg.value */\n      dup3\n      dup3\n      sload\n      tag_34\n      swap2\n      swap1\n      tag_11\n      jump\t// in\n    tag_34:\n      swap3\n      pop\n      pop\n      dup2\n      swap1\n      sstore\n      pop\n        /* \"contracts/SendRecieveSample.sol\":459:534  function pay() external payable {\r... */\n      jump\t// out\n        /* \"contracts/SendRecieveSample.sol\":126:149  uint public payReceived */\n    tag_19:\n      sload(0x02)\n      dup2\n      jump\t// out\n        /* \"contracts/SendRecieveSample.sol\":158:453  function withdraw() public {\r... */\n    tag_24:\n        /* \"contracts/SendRecieveSample.sol\":196:218  address payable sender */\n      0x00\n        /* \"contracts/SendRecieveSample.sol\":229:239  msg.sender */\n      caller\n        /* \"contracts/SendRecieveSample.sol\":196:240  address payable sender = payable(msg.sender) */\n      swap1\n      pop\n        /* \"contracts/SendRecieveSample.sol\":369:378  bool sent */\n      0x00\n        /* \"contracts/SendRecieveSample.sol\":380:397  bytes memory data */\n      dup1\n        /* \"contracts/SendRecieveSample.sol\":401:407  sender */\n      dup3\n        /* \"contracts/SendRecieveSample.sol\":401:412  sender.call */\n      0xffffffffffffffffffffffffffffffffffffffff\n      and\n        /* \"contracts/SendRecieveSample.sol\":419:440  address(this).balance */\n      selfbalance\n        /* \"contracts/SendRecieveSample.sol\":401:445  sender.call{value:address(this).balance}(\"\") */\n      mload(0x40)\n      tag_36\n      swap1\n      tag_37\n      jump\t// in\n    tag_36:\n      0x00\n      mload(0x40)\n      dup1\n      dup4\n      sub\n      dup2\n      dup6\n      dup8\n      gas\n      call\n      swap3\n      pop\n      pop\n      pop\n      returndatasize\n      dup1\n      0x00\n      dup2\n      eq\n      tag_40\n      jumpi\n      mload(0x40)\n      swap2\n      pop\n      and(add(returndatasize, 0x3f), not(0x1f))\n      dup3\n      add\n      0x40\n      mstore\n      returndatasize\n      dup3\n      mstore\n      returndatasize\n      0x00\n      0x20\n      dup5\n      add\n      returndatacopy\n      jump(tag_39)\n    tag_40:\n      0x60\n      swap2\n      pop\n    tag_39:\n      pop\n        /* \"contracts/SendRecieveSample.sol\":368:445  (bool sent, bytes memory data) = sender.call{value:address(this).balance}(\"\") */\n      swap2\n      pop\n      swap2\n      pop\n        /* \"contracts/SendRecieveSample.sol\":185:453  {\r... */\n      pop\n      pop\n      pop\n        /* \"contracts/SendRecieveSample.sol\":158:453  function withdraw() public {\r... */\n      jump\t// out\n        /* \"contracts/SendRecieveSample.sol\":65:85  uint public received */\n    tag_27:\n      sload(0x00)\n      dup2\n      jump\t// out\n        /* \"contracts/SendRecieveSample.sol\":92:119  uint public defaultReceived */\n    tag_31:\n      sload(0x01)\n      dup2\n      jump\t// out\n        /* \"#utility.yul\":7:405   */\n    tag_42:\n        /* \"#utility.yul\":166:169   */\n      0x00\n        /* \"#utility.yul\":187:270   */\n      tag_44\n        /* \"#utility.yul\":268:269   */\n      0x00\n        /* \"#utility.yul\":263:266   */\n      dup4\n        /* \"#utility.yul\":187:270   */\n      tag_45\n      jump\t// in\n    tag_44:\n        /* \"#utility.yul\":180:270   */\n      swap2\n      pop\n        /* \"#utility.yul\":279:372   */\n      tag_46\n        /* \"#utility.yul\":368:371   */\n      dup3\n        /* \"#utility.yul\":279:372   */\n      tag_47\n      jump\t// in\n    tag_46:\n        /* \"#utility.yul\":397:398   */\n      0x00\n        /* \"#utility.yul\":392:395   */\n      dup3\n        /* \"#utility.yul\":388:399   */\n      add\n        /* \"#utility.yul\":381:399   */\n      swap1\n      pop\n        /* \"#utility.yul\":7:405   */\n      swap2\n      swap1\n      pop\n      jump\t// out\n        /* \"#utility.yul\":411:529   */\n    tag_48:\n        /* \"#utility.yul\":498:522   */\n      tag_50\n        /* \"#utility.yul\":516:521   */\n      dup2\n        /* \"#utility.yul\":498:522   */\n      tag_51\n      jump\t// in\n    tag_50:\n        /* \"#utility.yul\":493:496   */\n      dup3\n        /* \"#utility.yul\":486:523   */\n      mstore\n        /* \"#utility.yul\":411:529   */\n      pop\n      pop\n      jump\t// out\n        /* \"#utility.yul\":535:914   */\n    tag_37:\n        /* \"#utility.yul\":719:722   */\n      0x00\n        /* \"#utility.yul\":741:888   */\n      tag_53\n        /* \"#utility.yul\":884:887   */\n      dup3\n        /* \"#utility.yul\":741:888   */\n      tag_42\n      jump\t// in\n    tag_53:\n        /* \"#utility.yul\":734:888   */\n      swap2\n      pop\n        /* \"#utility.yul\":905:908   */\n      dup2\n        /* \"#utility.yul\":898:908   */\n      swap1\n      pop\n        /* \"#utility.yul\":535:914   */\n      swap2\n      swap1\n      pop\n      jump\t// out\n        /* \"#utility.yul\":920:1142   */\n    tag_21:\n        /* \"#utility.yul\":1013:1017   */\n      0x00\n        /* \"#utility.yul\":1051:1053   */\n      0x20\n        /* \"#utility.yul\":1040:1049   */\n      dup3\n        /* \"#utility.yul\":1036:1054   */\n      add\n        /* \"#utility.yul\":1028:1054   */\n      swap1\n      pop\n        /* \"#utility.yul\":1064:1135   */\n      tag_55\n        /* \"#utility.yul\":1132:1133   */\n      0x00\n        /* \"#utility.yul\":1121:1130   */\n      dup4\n        /* \"#utility.yul\":1117:1134   */\n      add\n        /* \"#utility.yul\":1108:1114   */\n      dup5\n        /* \"#utility.yul\":1064:1135   */\n      tag_48\n      jump\t// in\n    tag_55:\n        /* \"#utility.yul\":920:1142   */\n      swap3\n      swap2\n      pop\n      pop\n      jump\t// out\n        /* \"#utility.yul\":1148:1295   */\n    tag_45:\n        /* \"#utility.yul\":1249:1260   */\n      0x00\n        /* \"#utility.yul\":1286:1289   */\n      dup2\n        /* \"#utility.yul\":1271:1289   */\n      swap1\n      pop\n        /* \"#utility.yul\":1148:1295   */\n      swap3\n      swap2\n      pop\n      pop\n      jump\t// out\n        /* \"#utility.yul\":1301:1606   */\n    tag_11:\n        /* \"#utility.yul\":1341:1344   */\n      0x00\n        /* \"#utility.yul\":1360:1380   */\n      tag_58\n        /* \"#utility.yul\":1378:1379   */\n      dup3\n        /* \"#utility.yul\":1360:1380   */\n      tag_51\n      jump\t// in\n    tag_58:\n        /* \"#utility.yul\":1355:1380   */\n      swap2\n      pop\n        /* \"#utility.yul\":1394:1414   */\n      tag_59\n        /* \"#utility.yul\":1412:1413   */\n      dup4\n        /* \"#utility.yul\":1394:1414   */\n      tag_51\n      jump\t// in\n    tag_59:\n        /* \"#utility.yul\":1389:1414   */\n      swap3\n      pop\n        /* \"#utility.yul\":1548:1549   */\n      dup3\n        /* \"#utility.yul\":1480:1546   */\n      0xffffffffffffffffffffffffffffffffffffffffffffffffffffffffffffffff\n        /* \"#utility.yul\":1476:1550   */\n      sub\n        /* \"#utility.yul\":1473:1474   */\n      dup3\n        /* \"#utility.yul\":1470:1551   */\n      gt\n        /* \"#utility.yul\":1467:1574   */\n      iszero\n      tag_60\n      jumpi\n        /* \"#utility.yul\":1554:1572   */\n      tag_61\n      tag_62\n      jump\t// in\n    tag_61:\n        /* \"#utility.yul\":1467:1574   */\n    tag_60:\n        /* \"#utility.yul\":1598:1599   */\n      dup3\n        /* \"#utility.yul\":1595:1596   */\n      dup3\n        /* \"#utility.yul\":1591:1600   */\n      add\n        /* \"#utility.yul\":1584:1600   */\n      swap1\n      pop\n        /* \"#utility.yul\":1301:1606   */\n      swap3\n      swap2\n      pop\n      pop\n      jump\t// out\n        /* \"#utility.yul\":1612:1689   */\n    tag_51:\n        /* \"#utility.yul\":1649:1656   */\n      0x00\n        /* \"#utility.yul\":1678:1683   */\n      dup2\n        /* \"#utility.yul\":1667:1683   */\n      swap1\n      pop\n        /* \"#utility.yul\":1612:1689   */\n      swap2\n      swap1\n      pop\n      jump\t// out\n        /* \"#utility.yul\":1695:1875   */\n    tag_62:\n        /* \"#utility.yul\":1743:1820   */\n      0x4e487b7100000000000000000000000000000000000000000000000000000000\n        /* \"#utility.yul\":1740:1741   */\n      0x00\n        /* \"#utility.yul\":1733:1821   */\n      mstore\n        /* \"#utility.yul\":1840:1844   */\n      0x11\n        /* \"#utility.yul\":1837:1838   */\n      0x04\n        /* \"#utility.yul\":1830:1845   */\n      mstore\n        /* \"#utility.yul\":1864:1868   */\n      0x24\n        /* \"#utility.yul\":1861:1862   */\n      0x00\n        /* \"#utility.yul\":1854:1869   */\n      revert\n        /* \"#utility.yul\":1881:1995   */\n    tag_47:\n      pop\n      jump\t// out\n\n    auxdata: 0xa26469706673582212204294aff9d020be167e0e7f93b8d2251b57e1be233c30e9727bddbf52aa0ca33564736f6c63430008070033\n}\n",
				"bytecode": {
					"linkReferences": {},
					"object": "608060405234801561001057600080fd5b50610304806100206000396000f3fe60806040526004361061004e5760003560e01c80631b9265b81461008857806323b06278146100925780633ccfd60b146100bd57806383a6deb5146100d4578063fdb8fe25146100ff5761006d565b3661006d5734600080828254610064919061023c565b92505081905550005b346001600082825461007f919061023c565b92505081905550005b61009061012a565b005b34801561009e57600080fd5b506100a7610145565b6040516100b49190610216565b60405180910390f35b3480156100c957600080fd5b506100d261014b565b005b3480156100e057600080fd5b506100e96101c3565b6040516100f69190610216565b60405180910390f35b34801561010b57600080fd5b506101146101c9565b6040516101219190610216565b60405180910390f35b346002600082825461013c919061023c565b92505081905550565b60025481565b60003390506000808273ffffffffffffffffffffffffffffffffffffffff164760405161017790610201565b60006040518083038185875af1925050503d80600081146101b4576040519150601f19603f3d011682016040523d82523d6000602084013e6101b9565b606091505b5091509150505050565b60005481565b60015481565b60006101dc600083610231565b91506101e7826102cb565b600082019050919050565b6101fb81610292565b82525050565b600061020c826101cf565b9150819050919050565b600060208201905061022b60008301846101f2565b92915050565b600081905092915050565b600061024782610292565b915061025283610292565b9250827fffffffffffffffffffffffffffffffffffffffffffffffffffffffffffffffff038211156102875761028661029c565b5b828201905092915050565b6000819050919050565b7f4e487b7100000000000000000000000000000000000000000000000000000000600052601160045260246000fd5b5056fea26469706673582212204294aff9d020be167e0e7f93b8d2251b57e1be233c30e9727bddbf52aa0ca33564736f6c63430008070033",
					"opcodes": "PUSH1 0x80 PUSH1 0x40 MSTORE CALLVALUE DUP1 ISZERO PUSH2 0x10 JUMPI PUSH1 0x0 DUP1 REVERT JUMPDEST POP PUSH2 0x304 DUP1 PUSH2 0x20 PUSH1 0x0 CODECOPY PUSH1 0x0 RETURN INVALID PUSH1 0x80 PUSH1 0x40 MSTORE PUSH1 0x4 CALLDATASIZE LT PUSH2 0x4E JUMPI PUSH1 0x0 CALLDATALOAD PUSH1 0xE0 SHR DUP1 PUSH4 0x1B9265B8 EQ PUSH2 0x88 JUMPI DUP1 PUSH4 0x23B06278 EQ PUSH2 0x92 JUMPI DUP1 PUSH4 0x3CCFD60B EQ PUSH2 0xBD JUMPI DUP1 PUSH4 0x83A6DEB5 EQ PUSH2 0xD4 JUMPI DUP1 PUSH4 0xFDB8FE25 EQ PUSH2 0xFF JUMPI PUSH2 0x6D JUMP JUMPDEST CALLDATASIZE PUSH2 0x6D JUMPI CALLVALUE PUSH1 0x0 DUP1 DUP3 DUP3 SLOAD PUSH2 0x64 SWAP2 SWAP1 PUSH2 0x23C JUMP JUMPDEST SWAP3 POP POP DUP2 SWAP1 SSTORE POP STOP JUMPDEST CALLVALUE PUSH1 0x1 PUSH1 0x0 DUP3 DUP3 SLOAD PUSH2 0x7F SWAP2 SWAP1 PUSH2 0x23C JUMP JUMPDEST SWAP3 POP POP DUP2 SWAP1 SSTORE POP STOP JUMPDEST PUSH2 0x90 PUSH2 0x12A JUMP JUMPDEST STOP JUMPDEST CALLVALUE DUP1 ISZERO PUSH2 0x9E JUMPI PUSH1 0x0 DUP1 REVERT JUMPDEST POP PUSH2 0xA7 PUSH2 0x145 JUMP JUMPDEST PUSH1 0x40 MLOAD PUSH2 0xB4 SWAP2 SWAP1 PUSH2 0x216 JUMP JUMPDEST PUSH1 0x40 MLOAD DUP1 SWAP2 SUB SWAP1 RETURN JUMPDEST CALLVALUE DUP1 ISZERO PUSH2 0xC9 JUMPI PUSH1 0x0 DUP1 REVERT JUMPDEST POP PUSH2 0xD2 PUSH2 0x14B JUMP JUMPDEST STOP JUMPDEST CALLVALUE DUP1 ISZERO PUSH2 0xE0 JUMPI PUSH1 0x0 DUP1 REVERT JUMPDEST POP PUSH2 0xE9 PUSH2 0x1C3 JUMP JUMPDEST PUSH1 0x40 MLOAD PUSH2 0xF6 SWAP2 SWAP1 PUSH2 0x216 JUMP JUMPDEST PUSH1 0x40 MLOAD DUP1 SWAP2 SUB SWAP1 RETURN JUMPDEST CALLVALUE DUP1 ISZERO PUSH2 0x10B JUMPI PUSH1 0x0 DUP1 REVERT JUMPDEST POP PUSH2 0x114 PUSH2 0x1C9 JUMP JUMPDEST PUSH1 0x40 MLOAD PUSH2 0x121 SWAP2 SWAP1 PUSH2 0x216 JUMP JUMPDEST PUSH1 0x40 MLOAD DUP1 SWAP2 SUB SWAP1 RETURN JUMPDEST CALLVALUE PUSH1 0x2 PUSH1 0x0 DUP3 DUP3 SLOAD PUSH2 0x13C SWAP2 SWAP1 PUSH2 0x23C JUMP JUMPDEST SWAP3 POP POP DUP2 SWAP1 SSTORE POP JUMP JUMPDEST PUSH1 0x2 SLOAD DUP2 JUMP JUMPDEST PUSH1 0x0 CALLER SWAP1 POP PUSH1 0x0 DUP1 DUP3 PUSH20 0xFFFFFFFFFFFFFFFFFFFFFFFFFFFFFFFFFFFFFFFF AND SELFBALANCE PUSH1 0x40 MLOAD PUSH2 0x177 SWAP1 PUSH2 0x201 JUMP JUMPDEST PUSH1 0x0 PUSH1 0x40 MLOAD DUP1 DUP4 SUB DUP2 DUP6 DUP8 GAS CALL SWAP3 POP POP POP RETURNDATASIZE DUP1 PUSH1 0x0 DUP2 EQ PUSH2 0x1B4 JUMPI PUSH1 0x40 MLOAD SWAP2 POP PUSH1 0x1F NOT PUSH1 0x3F RETURNDATASIZE ADD AND DUP3 ADD PUSH1 0x40 MSTORE RETURNDATASIZE DUP3 MSTORE RETURNDATASIZE PUSH1 0x0 PUSH1 0x20 DUP5 ADD RETURNDATACOPY PUSH2 0x1B9 JUMP JUMPDEST PUSH1 0x60 SWAP2 POP JUMPDEST POP SWAP2 POP SWAP2 POP POP POP POP JUMP JUMPDEST PUSH1 0x0 SLOAD DUP2 JUMP JUMPDEST PUSH1 0x1 SLOAD DUP2 JUMP JUMPDEST PUSH1 0x0 PUSH2 0x1DC PUSH1 0x0 DUP4 PUSH2 0x231 JUMP JUMPDEST SWAP2 POP PUSH2 0x1E7 DUP3 PUSH2 0x2CB JUMP JUMPDEST PUSH1 0x0 DUP3 ADD SWAP1 POP SWAP2 SWAP1 POP JUMP JUMPDEST PUSH2 0x1FB DUP2 PUSH2 0x292 JUMP JUMPDEST DUP3 MSTORE POP POP JUMP JUMPDEST PUSH1 0x0 PUSH2 0x20C DUP3 PUSH2 0x1CF JUMP JUMPDEST SWAP2 POP DUP2 SWAP1 POP SWAP2 SWAP1 POP JUMP JUMPDEST PUSH1 0x0 PUSH1 0x20 DUP3 ADD SWAP1 POP PUSH2 0x22B PUSH1 0x0 DUP4 ADD DUP5 PUSH2 0x1F2 JUMP JUMPDEST SWAP3 SWAP2 POP POP JUMP JUMPDEST PUSH1 0x0 DUP2 SWAP1 POP SWAP3 SWAP2 POP POP JUMP JUMPDEST PUSH1 0x0 PUSH2 0x247 DUP3 PUSH2 0x292 JUMP JUMPDEST SWAP2 POP PUSH2 0x252 DUP4 PUSH2 0x292 JUMP JUMPDEST SWAP3 POP DUP3 PUSH32 0xFFFFFFFFFFFFFFFFFFFFFFFFFFFFFFFFFFFFFFFFFFFFFFFFFFFFFFFFFFFFFFFF SUB DUP3 GT ISZERO PUSH2 0x287 JUMPI PUSH2 0x286 PUSH2 0x29C JUMP JUMPDEST JUMPDEST DUP3 DUP3 ADD SWAP1 POP SWAP3 SWAP2 POP POP JUMP JUMPDEST PUSH1 0x0 DUP2 SWAP1 POP SWAP2 SWAP1 POP JUMP JUMPDEST PUSH32 0x4E487B7100000000000000000000000000000000000000000000000000000000 PUSH1 0x0 MSTORE PUSH1 0x11 PUSH1 0x4 MSTORE PUSH1 0x24 PUSH1 0x0 REVERT JUMPDEST POP JUMP INVALID LOG2 PUSH5 0x6970667358 0x22 SLT KECCAK256 TIMESTAMP SWAP5 0xAF 0xF9 0xD0 KECCAK256 0xBE AND PUSH31 0xE7F93B8D2251B57E1BE233C30E9727BDDBF52AA0CA33564736F6C63430008 SMOD STOP CALLER "
				},
				"gasEstimates": {
					"creation": {
						"codeDepositCost": "154400",
						"executionCost": "202",
						"totalCost": "154602"
					},
					"external": {
						"": "infinite",
						"defaultReceived()": "2495",
						"pay()": "infinite",
						"payReceived()": "2429",
						"received()": "2473",
						"withdraw()": "infinite"
					}
				},
				"methodIdentifiers": {
					"defaultReceived()": "fdb8fe25",
					"pay()": "1b9265b8",
					"payReceived()": "23b06278",
					"received()": "83a6deb5",
					"withdraw()": "3ccfd60b"
				}
			},
			"storageLayout": {
				"storage": [
					{
						"astId": 3,
						"contract": "contracts/SendRecieveSample.sol:SendOrRecieve",
						"label": "received",
						"offset": 0,
						"slot": "0",
						"type": "t_uint256"
					},
					{
						"astId": 5,
						"contract": "contracts/SendRecieveSample.sol:SendOrRecieve",
						"label": "defaultReceived",
						"offset": 0,
						"slot": "1",
						"type": "t_uint256"
					},
					{
						"astId": 7,
						"contract": "contracts/SendRecieveSample.sol:SendOrRecieve",
						"label": "payReceived",
						"offset": 0,
						"slot": "2",
						"type": "t_uint256"
					}
				],
				"types": {
					"t_uint256": {
						"encoding": "inplace",
						"label": "uint256",
						"numberOfBytes": "32"
					}
				}
			},
			"userdoc": {
				"kind": "user",
				"methods": {},
				"version": 1
			}
		}
	}
}