{
	"contracts/practice/problems/LibraryProblem.sol": {
		"Array": {
			"abi": [
				{
					"inputs": [
						{
							"internalType": "int256[]",
							"name": "numbers",
							"type": "int256[]"
						},
						{
							"internalType": "int256",
							"name": "target",
							"type": "int256"
						}
					],
					"name": "count",
					"outputs": [
						{
							"internalType": "uint256",
							"name": "",
							"type": "uint256"
						}
					],
					"stateMutability": "pure",
					"type": "function"
				},
				{
					"inputs": [
						{
							"internalType": "int256[]",
							"name": "numbers",
							"type": "int256[]"
						},
						{
							"internalType": "int256",
							"name": "target",
							"type": "int256"
						}
					],
					"name": "indexOf",
					"outputs": [
						{
							"internalType": "int256",
							"name": "",
							"type": "int256"
						}
					],
					"stateMutability": "pure",
					"type": "function"
				},
				{
					"inputs": [
						{
							"internalType": "int256[]",
							"name": "numbers",
							"type": "int256[]"
						}
					],
					"name": "sum",
					"outputs": [
						{
							"internalType": "int256",
							"name": "",
							"type": "int256"
						}
					],
					"stateMutability": "pure",
					"type": "function"
				}
			],
			"devdoc": {
				"kind": "dev",
				"methods": {},
				"version": 1
			},
			"evm": {
				"assembly": "    /* \"contracts/practice/problems/LibraryProblem.sol\":814:1854  library Array {... */\n  dataSize(sub_0)\n  dataOffset(sub_0)\n  0x0b\n  dup3\n  dup3\n  dup3\n  codecopy\n  dup1\n  mload\n  0x00\n  byte\n  0x73\n  eq\n  tag_1\n  jumpi\n  mstore(0x00, 0x4e487b7100000000000000000000000000000000000000000000000000000000)\n  mstore(0x04, 0x00)\n  revert(0x00, 0x24)\ntag_1:\n  mstore(0x00, address)\n  0x73\n  dup2\n  mstore8\n  dup3\n  dup2\n  return\nstop\n\nsub_0: assembly {\n        /* \"contracts/practice/problems/LibraryProblem.sol\":814:1854  library Array {... */\n      eq(address, deployTimeAddress())\n      mstore(0x40, 0x80)\n      jumpi(tag_1, lt(calldatasize, 0x04))\n      shr(0xe0, calldataload(0x00))\n      dup1\n      0x3410e3f8\n      eq\n      tag_2\n      jumpi\n      dup1\n      0x60cb66d0\n      eq\n      tag_3\n      jumpi\n      dup1\n      0x6f5735fc\n      eq\n      tag_4\n      jumpi\n    tag_1:\n      0x00\n      dup1\n      revert\n        /* \"contracts/practice/problems/LibraryProblem.sol\":924:1225  function indexOf(int[] memory numbers, int target) public pure returns (int){... */\n    tag_2:\n      tag_5\n      0x04\n      dup1\n      calldatasize\n      sub\n      dup2\n      add\n      swap1\n      tag_6\n      swap2\n      swap1\n      tag_7\n      jump\t// in\n    tag_6:\n      tag_8\n      jump\t// in\n    tag_5:\n      mload(0x40)\n      tag_9\n      swap2\n      swap1\n      tag_10\n      jump\t// in\n    tag_9:\n      mload(0x40)\n      dup1\n      swap2\n      sub\n      swap1\n      return\n        /* \"contracts/practice/problems/LibraryProblem.sol\":1636:1851  function sum(int[] memory numbers) public pure returns (int) {... */\n    tag_3:\n      tag_11\n      0x04\n      dup1\n      calldatasize\n      sub\n      dup2\n      add\n      swap1\n      tag_12\n      swap2\n      swap1\n      tag_13\n      jump\t// in\n    tag_12:\n      tag_14\n      jump\t// in\n    tag_11:\n      mload(0x40)\n      tag_15\n      swap2\n      swap1\n      tag_10\n      jump\t// in\n    tag_15:\n      mload(0x40)\n      dup1\n      swap2\n      sub\n      swap1\n      return\n        /* \"contracts/practice/problems/LibraryProblem.sol\":1298:1570  function count (int[] memory numbers, int target) public pure returns (uint){... */\n    tag_4:\n      tag_16\n      0x04\n      dup1\n      calldatasize\n      sub\n      dup2\n      add\n      swap1\n      tag_17\n      swap2\n      swap1\n      tag_7\n      jump\t// in\n    tag_17:\n      tag_18\n      jump\t// in\n    tag_16:\n      mload(0x40)\n      tag_19\n      swap2\n      swap1\n      tag_20\n      jump\t// in\n    tag_19:\n      mload(0x40)\n      dup1\n      swap2\n      sub\n      swap1\n      return\n        /* \"contracts/practice/problems/LibraryProblem.sol\":924:1225  function indexOf(int[] memory numbers, int target) public pure returns (int){... */\n    tag_8:\n        /* \"contracts/practice/problems/LibraryProblem.sol\":996:999  int */\n      0x00\n        /* \"contracts/practice/problems/LibraryProblem.sol\":1011:1020  int found */\n      dup1\n        /* \"contracts/practice/problems/LibraryProblem.sol\":1023:1025  -1 */\n      0xffffffffffffffffffffffffffffffffffffffffffffffffffffffffffffffff\n        /* \"contracts/practice/problems/LibraryProblem.sol\":1011:1025  int found = -1 */\n      swap1\n      pop\n        /* \"contracts/practice/problems/LibraryProblem.sol\":1040:1046  uint i */\n      0x00\n        /* \"contracts/practice/problems/LibraryProblem.sol\":1036:1195  for(uint i; i < numbers.length; i++){... */\n    tag_22:\n        /* \"contracts/practice/problems/LibraryProblem.sol\":1052:1059  numbers */\n      dup5\n        /* \"contracts/practice/problems/LibraryProblem.sol\":1052:1066  numbers.length */\n      mload\n        /* \"contracts/practice/problems/LibraryProblem.sol\":1048:1049  i */\n      dup2\n        /* \"contracts/practice/problems/LibraryProblem.sol\":1048:1066  i < numbers.length */\n      lt\n        /* \"contracts/practice/problems/LibraryProblem.sol\":1036:1195  for(uint i; i < numbers.length; i++){... */\n      iszero\n      tag_23\n      jumpi\n        /* \"contracts/practice/problems/LibraryProblem.sol\":1104:1110  target */\n      dup4\n        /* \"contracts/practice/problems/LibraryProblem.sol\":1090:1097  numbers */\n      dup6\n        /* \"contracts/practice/problems/LibraryProblem.sol\":1098:1099  i */\n      dup3\n        /* \"contracts/practice/problems/LibraryProblem.sol\":1090:1100  numbers[i] */\n      dup2\n      mload\n      dup2\n      lt\n      tag_25\n      jumpi\n      tag_26\n      tag_27\n      jump\t// in\n    tag_26:\n    tag_25:\n      0x20\n      mul\n      0x20\n      add\n      add\n      mload\n        /* \"contracts/practice/problems/LibraryProblem.sol\":1090:1110  numbers[i] == target */\n      sub\n        /* \"contracts/practice/problems/LibraryProblem.sol\":1087:1184  if(numbers[i] == target){... */\n      tag_28\n      jumpi\n        /* \"contracts/practice/problems/LibraryProblem.sol\":1142:1143  i */\n      dup1\n        /* \"contracts/practice/problems/LibraryProblem.sol\":1130:1144  found = int(i) */\n      swap2\n      pop\n        /* \"contracts/practice/problems/LibraryProblem.sol\":1163:1168  break */\n      jump(tag_23)\n        /* \"contracts/practice/problems/LibraryProblem.sol\":1087:1184  if(numbers[i] == target){... */\n    tag_28:\n        /* \"contracts/practice/problems/LibraryProblem.sol\":1068:1071  i++ */\n      dup1\n      dup1\n      tag_29\n      swap1\n      tag_30\n      jump\t// in\n    tag_29:\n      swap2\n      pop\n      pop\n        /* \"contracts/practice/problems/LibraryProblem.sol\":1036:1195  for(uint i; i < numbers.length; i++){... */\n      jump(tag_22)\n    tag_23:\n      pop\n        /* \"contracts/practice/problems/LibraryProblem.sol\":1212:1217  found */\n      dup1\n        /* \"contracts/practice/problems/LibraryProblem.sol\":1205:1217  return found */\n      swap2\n      pop\n      pop\n        /* \"contracts/practice/problems/LibraryProblem.sol\":924:1225  function indexOf(int[] memory numbers, int target) public pure returns (int){... */\n      swap3\n      swap2\n      pop\n      pop\n      jump\t// out\n        /* \"contracts/practice/problems/LibraryProblem.sol\":1636:1851  function sum(int[] memory numbers) public pure returns (int) {... */\n    tag_14:\n        /* \"contracts/practice/problems/LibraryProblem.sol\":1692:1695  int */\n      0x00\n        /* \"contracts/practice/problems/LibraryProblem.sol\":1708:1720  int totalSum */\n      dup1\n        /* \"contracts/practice/problems/LibraryProblem.sol\":1737:1743  uint i */\n      0x00\n        /* \"contracts/practice/problems/LibraryProblem.sol\":1733:1818  for(uint i; i < numbers.length; i++){... */\n    tag_32:\n        /* \"contracts/practice/problems/LibraryProblem.sol\":1749:1756  numbers */\n      dup4\n        /* \"contracts/practice/problems/LibraryProblem.sol\":1749:1763  numbers.length */\n      mload\n        /* \"contracts/practice/problems/LibraryProblem.sol\":1745:1746  i */\n      dup2\n        /* \"contracts/practice/problems/LibraryProblem.sol\":1745:1763  i < numbers.length */\n      lt\n        /* \"contracts/practice/problems/LibraryProblem.sol\":1733:1818  for(uint i; i < numbers.length; i++){... */\n      iszero\n      tag_33\n      jumpi\n        /* \"contracts/practice/problems/LibraryProblem.sol\":1796:1803  numbers */\n      dup4\n        /* \"contracts/practice/problems/LibraryProblem.sol\":1804:1805  i */\n      dup2\n        /* \"contracts/practice/problems/LibraryProblem.sol\":1796:1806  numbers[i] */\n      dup2\n      mload\n      dup2\n      lt\n      tag_35\n      jumpi\n      tag_36\n      tag_27\n      jump\t// in\n    tag_36:\n    tag_35:\n      0x20\n      mul\n      0x20\n      add\n      add\n      mload\n        /* \"contracts/practice/problems/LibraryProblem.sol\":1784:1806  totalSum += numbers[i] */\n      dup3\n      tag_37\n      swap2\n      swap1\n      tag_38\n      jump\t// in\n    tag_37:\n      swap2\n      pop\n        /* \"contracts/practice/problems/LibraryProblem.sol\":1765:1768  i++ */\n      dup1\n      dup1\n      tag_39\n      swap1\n      tag_30\n      jump\t// in\n    tag_39:\n      swap2\n      pop\n      pop\n        /* \"contracts/practice/problems/LibraryProblem.sol\":1733:1818  for(uint i; i < numbers.length; i++){... */\n      jump(tag_32)\n    tag_33:\n      pop\n        /* \"contracts/practice/problems/LibraryProblem.sol\":1835:1843  totalSum */\n      dup1\n        /* \"contracts/practice/problems/LibraryProblem.sol\":1828:1843  return totalSum */\n      swap2\n      pop\n      pop\n        /* \"contracts/practice/problems/LibraryProblem.sol\":1636:1851  function sum(int[] memory numbers) public pure returns (int) {... */\n      swap2\n      swap1\n      pop\n      jump\t// out\n        /* \"contracts/practice/problems/LibraryProblem.sol\":1298:1570  function count (int[] memory numbers, int target) public pure returns (uint){... */\n    tag_18:\n        /* \"contracts/practice/problems/LibraryProblem.sol\":1369:1373  uint */\n      0x00\n        /* \"contracts/practice/problems/LibraryProblem.sol\":1385:1397  uint counter */\n      dup1\n        /* \"contracts/practice/problems/LibraryProblem.sol\":1412:1418  uint i */\n      0x00\n        /* \"contracts/practice/problems/LibraryProblem.sol\":1408:1538  for(uint i; i < numbers.length; i++){... */\n    tag_41:\n        /* \"contracts/practice/problems/LibraryProblem.sol\":1424:1431  numbers */\n      dup5\n        /* \"contracts/practice/problems/LibraryProblem.sol\":1424:1438  numbers.length */\n      mload\n        /* \"contracts/practice/problems/LibraryProblem.sol\":1420:1421  i */\n      dup2\n        /* \"contracts/practice/problems/LibraryProblem.sol\":1420:1438  i < numbers.length */\n      lt\n        /* \"contracts/practice/problems/LibraryProblem.sol\":1408:1538  for(uint i; i < numbers.length; i++){... */\n      iszero\n      tag_42\n      jumpi\n        /* \"contracts/practice/problems/LibraryProblem.sol\":1476:1482  target */\n      dup4\n        /* \"contracts/practice/problems/LibraryProblem.sol\":1462:1469  numbers */\n      dup6\n        /* \"contracts/practice/problems/LibraryProblem.sol\":1470:1471  i */\n      dup3\n        /* \"contracts/practice/problems/LibraryProblem.sol\":1462:1472  numbers[i] */\n      dup2\n      mload\n      dup2\n      lt\n      tag_44\n      jumpi\n      tag_45\n      tag_27\n      jump\t// in\n    tag_45:\n    tag_44:\n      0x20\n      mul\n      0x20\n      add\n      add\n      mload\n        /* \"contracts/practice/problems/LibraryProblem.sol\":1462:1482  numbers[i] == target */\n      sub\n        /* \"contracts/practice/problems/LibraryProblem.sol\":1459:1527  if(numbers[i] == target){... */\n      tag_46\n      jumpi\n        /* \"contracts/practice/problems/LibraryProblem.sol\":1502:1511  counter++ */\n      dup2\n      dup1\n      tag_47\n      swap1\n      tag_30\n      jump\t// in\n    tag_47:\n      swap3\n      pop\n      pop\n        /* \"contracts/practice/problems/LibraryProblem.sol\":1459:1527  if(numbers[i] == target){... */\n    tag_46:\n        /* \"contracts/practice/problems/LibraryProblem.sol\":1440:1443  i++ */\n      dup1\n      dup1\n      tag_48\n      swap1\n      tag_30\n      jump\t// in\n    tag_48:\n      swap2\n      pop\n      pop\n        /* \"contracts/practice/problems/LibraryProblem.sol\":1408:1538  for(uint i; i < numbers.length; i++){... */\n      jump(tag_41)\n    tag_42:\n      pop\n        /* \"contracts/practice/problems/LibraryProblem.sol\":1555:1562  counter */\n      dup1\n        /* \"contracts/practice/problems/LibraryProblem.sol\":1548:1562  return counter */\n      swap2\n      pop\n      pop\n        /* \"contracts/practice/problems/LibraryProblem.sol\":1298:1570  function count (int[] memory numbers, int target) public pure returns (uint){... */\n      swap3\n      swap2\n      pop\n      pop\n      jump\t// out\n        /* \"#utility.yul\":7:82   */\n    tag_49:\n        /* \"#utility.yul\":40:46   */\n      0x00\n        /* \"#utility.yul\":73:75   */\n      0x40\n        /* \"#utility.yul\":67:76   */\n      mload\n        /* \"#utility.yul\":57:76   */\n      swap1\n      pop\n        /* \"#utility.yul\":7:82   */\n      swap1\n      jump\t// out\n        /* \"#utility.yul\":88:205   */\n    tag_50:\n        /* \"#utility.yul\":197:198   */\n      0x00\n        /* \"#utility.yul\":194:195   */\n      dup1\n        /* \"#utility.yul\":187:199   */\n      revert\n        /* \"#utility.yul\":211:328   */\n    tag_51:\n        /* \"#utility.yul\":320:321   */\n      0x00\n        /* \"#utility.yul\":317:318   */\n      dup1\n        /* \"#utility.yul\":310:322   */\n      revert\n        /* \"#utility.yul\":334:451   */\n    tag_52:\n        /* \"#utility.yul\":443:444   */\n      0x00\n        /* \"#utility.yul\":440:441   */\n      dup1\n        /* \"#utility.yul\":433:445   */\n      revert\n        /* \"#utility.yul\":457:559   */\n    tag_53:\n        /* \"#utility.yul\":498:504   */\n      0x00\n        /* \"#utility.yul\":549:551   */\n      0x1f\n        /* \"#utility.yul\":545:552   */\n      not\n        /* \"#utility.yul\":540:542   */\n      0x1f\n        /* \"#utility.yul\":533:538   */\n      dup4\n        /* \"#utility.yul\":529:543   */\n      add\n        /* \"#utility.yul\":525:553   */\n      and\n        /* \"#utility.yul\":515:553   */\n      swap1\n      pop\n        /* \"#utility.yul\":457:559   */\n      swap2\n      swap1\n      pop\n      jump\t// out\n        /* \"#utility.yul\":565:745   */\n    tag_54:\n        /* \"#utility.yul\":613:690   */\n      0x4e487b7100000000000000000000000000000000000000000000000000000000\n        /* \"#utility.yul\":610:611   */\n      0x00\n        /* \"#utility.yul\":603:691   */\n      mstore\n        /* \"#utility.yul\":710:714   */\n      0x41\n        /* \"#utility.yul\":707:708   */\n      0x04\n        /* \"#utility.yul\":700:715   */\n      mstore\n        /* \"#utility.yul\":734:738   */\n      0x24\n        /* \"#utility.yul\":731:732   */\n      0x00\n        /* \"#utility.yul\":724:739   */\n      revert\n        /* \"#utility.yul\":751:1032   */\n    tag_55:\n        /* \"#utility.yul\":834:861   */\n      tag_76\n        /* \"#utility.yul\":856:860   */\n      dup3\n        /* \"#utility.yul\":834:861   */\n      tag_53\n      jump\t// in\n    tag_76:\n        /* \"#utility.yul\":826:832   */\n      dup2\n        /* \"#utility.yul\":822:862   */\n      add\n        /* \"#utility.yul\":964:970   */\n      dup2\n        /* \"#utility.yul\":952:962   */\n      dup2\n        /* \"#utility.yul\":949:971   */\n      lt\n        /* \"#utility.yul\":928:946   */\n      0xffffffffffffffff\n        /* \"#utility.yul\":916:926   */\n      dup3\n        /* \"#utility.yul\":913:947   */\n      gt\n        /* \"#utility.yul\":910:972   */\n      or\n        /* \"#utility.yul\":907:995   */\n      iszero\n      tag_77\n      jumpi\n        /* \"#utility.yul\":975:993   */\n      tag_78\n      tag_54\n      jump\t// in\n    tag_78:\n        /* \"#utility.yul\":907:995   */\n    tag_77:\n        /* \"#utility.yul\":1015:1025   */\n      dup1\n        /* \"#utility.yul\":1011:1013   */\n      0x40\n        /* \"#utility.yul\":1004:1026   */\n      mstore\n        /* \"#utility.yul\":794:1032   */\n      pop\n        /* \"#utility.yul\":751:1032   */\n      pop\n      pop\n      jump\t// out\n        /* \"#utility.yul\":1038:1167   */\n    tag_56:\n        /* \"#utility.yul\":1072:1078   */\n      0x00\n        /* \"#utility.yul\":1099:1119   */\n      tag_80\n      tag_49\n      jump\t// in\n    tag_80:\n        /* \"#utility.yul\":1089:1119   */\n      swap1\n      pop\n        /* \"#utility.yul\":1128:1161   */\n      tag_81\n        /* \"#utility.yul\":1156:1160   */\n      dup3\n        /* \"#utility.yul\":1148:1154   */\n      dup3\n        /* \"#utility.yul\":1128:1161   */\n      tag_55\n      jump\t// in\n    tag_81:\n        /* \"#utility.yul\":1038:1167   */\n      swap2\n      swap1\n      pop\n      jump\t// out\n        /* \"#utility.yul\":1173:1483   */\n    tag_57:\n        /* \"#utility.yul\":1249:1253   */\n      0x00\n        /* \"#utility.yul\":1339:1357   */\n      0xffffffffffffffff\n        /* \"#utility.yul\":1331:1337   */\n      dup3\n        /* \"#utility.yul\":1328:1358   */\n      gt\n        /* \"#utility.yul\":1325:1381   */\n      iszero\n      tag_83\n      jumpi\n        /* \"#utility.yul\":1361:1379   */\n      tag_84\n      tag_54\n      jump\t// in\n    tag_84:\n        /* \"#utility.yul\":1325:1381   */\n    tag_83:\n        /* \"#utility.yul\":1411:1415   */\n      0x20\n        /* \"#utility.yul\":1403:1409   */\n      dup3\n        /* \"#utility.yul\":1399:1416   */\n      mul\n        /* \"#utility.yul\":1391:1416   */\n      swap1\n      pop\n        /* \"#utility.yul\":1471:1475   */\n      0x20\n        /* \"#utility.yul\":1465:1469   */\n      dup2\n        /* \"#utility.yul\":1461:1476   */\n      add\n        /* \"#utility.yul\":1453:1476   */\n      swap1\n      pop\n        /* \"#utility.yul\":1173:1483   */\n      swap2\n      swap1\n      pop\n      jump\t// out\n        /* \"#utility.yul\":1489:1606   */\n    tag_58:\n        /* \"#utility.yul\":1598:1599   */\n      0x00\n        /* \"#utility.yul\":1595:1596   */\n      dup1\n        /* \"#utility.yul\":1588:1600   */\n      revert\n        /* \"#utility.yul\":1612:1688   */\n    tag_59:\n        /* \"#utility.yul\":1648:1655   */\n      0x00\n        /* \"#utility.yul\":1677:1682   */\n      dup2\n        /* \"#utility.yul\":1666:1682   */\n      swap1\n      pop\n        /* \"#utility.yul\":1612:1688   */\n      swap2\n      swap1\n      pop\n      jump\t// out\n        /* \"#utility.yul\":1694:1814   */\n    tag_60:\n        /* \"#utility.yul\":1766:1789   */\n      tag_88\n        /* \"#utility.yul\":1783:1788   */\n      dup2\n        /* \"#utility.yul\":1766:1789   */\n      tag_59\n      jump\t// in\n    tag_88:\n        /* \"#utility.yul\":1759:1764   */\n      dup2\n        /* \"#utility.yul\":1756:1790   */\n      eq\n        /* \"#utility.yul\":1746:1808   */\n      tag_89\n      jumpi\n        /* \"#utility.yul\":1804:1805   */\n      0x00\n        /* \"#utility.yul\":1801:1802   */\n      dup1\n        /* \"#utility.yul\":1794:1806   */\n      revert\n        /* \"#utility.yul\":1746:1808   */\n    tag_89:\n        /* \"#utility.yul\":1694:1814   */\n      pop\n      jump\t// out\n        /* \"#utility.yul\":1820:1957   */\n    tag_61:\n        /* \"#utility.yul\":1865:1870   */\n      0x00\n        /* \"#utility.yul\":1903:1909   */\n      dup2\n        /* \"#utility.yul\":1890:1910   */\n      calldataload\n        /* \"#utility.yul\":1881:1910   */\n      swap1\n      pop\n        /* \"#utility.yul\":1919:1951   */\n      tag_91\n        /* \"#utility.yul\":1945:1950   */\n      dup2\n        /* \"#utility.yul\":1919:1951   */\n      tag_60\n      jump\t// in\n    tag_91:\n        /* \"#utility.yul\":1820:1957   */\n      swap3\n      swap2\n      pop\n      pop\n      jump\t// out\n        /* \"#utility.yul\":1979:2686   */\n    tag_62:\n        /* \"#utility.yul\":2074:2079   */\n      0x00\n        /* \"#utility.yul\":2099:2179   */\n      tag_93\n        /* \"#utility.yul\":2115:2178   */\n      tag_94\n        /* \"#utility.yul\":2171:2177   */\n      dup5\n        /* \"#utility.yul\":2115:2178   */\n      tag_57\n      jump\t// in\n    tag_94:\n        /* \"#utility.yul\":2099:2179   */\n      tag_56\n      jump\t// in\n    tag_93:\n        /* \"#utility.yul\":2090:2179   */\n      swap1\n      pop\n        /* \"#utility.yul\":2199:2204   */\n      dup1\n        /* \"#utility.yul\":2228:2234   */\n      dup4\n        /* \"#utility.yul\":2221:2226   */\n      dup3\n        /* \"#utility.yul\":2214:2235   */\n      mstore\n        /* \"#utility.yul\":2262:2266   */\n      0x20\n        /* \"#utility.yul\":2255:2260   */\n      dup3\n        /* \"#utility.yul\":2251:2267   */\n      add\n        /* \"#utility.yul\":2244:2267   */\n      swap1\n      pop\n        /* \"#utility.yul\":2315:2319   */\n      0x20\n        /* \"#utility.yul\":2307:2313   */\n      dup5\n        /* \"#utility.yul\":2303:2320   */\n      mul\n        /* \"#utility.yul\":2295:2301   */\n      dup4\n        /* \"#utility.yul\":2291:2321   */\n      add\n        /* \"#utility.yul\":2344:2347   */\n      dup6\n        /* \"#utility.yul\":2336:2342   */\n      dup2\n        /* \"#utility.yul\":2333:2348   */\n      gt\n        /* \"#utility.yul\":2330:2452   */\n      iszero\n      tag_95\n      jumpi\n        /* \"#utility.yul\":2363:2442   */\n      tag_96\n      tag_58\n      jump\t// in\n    tag_96:\n        /* \"#utility.yul\":2330:2452   */\n    tag_95:\n        /* \"#utility.yul\":2478:2484   */\n      dup4\n        /* \"#utility.yul\":2461:2680   */\n    tag_97:\n        /* \"#utility.yul\":2495:2501   */\n      dup2\n        /* \"#utility.yul\":2490:2493   */\n      dup2\n        /* \"#utility.yul\":2487:2502   */\n      lt\n        /* \"#utility.yul\":2461:2680   */\n      iszero\n      tag_99\n      jumpi\n        /* \"#utility.yul\":2570:2573   */\n      dup1\n        /* \"#utility.yul\":2599:2635   */\n      tag_100\n        /* \"#utility.yul\":2631:2634   */\n      dup9\n        /* \"#utility.yul\":2619:2629   */\n      dup3\n        /* \"#utility.yul\":2599:2635   */\n      tag_61\n      jump\t// in\n    tag_100:\n        /* \"#utility.yul\":2594:2597   */\n      dup5\n        /* \"#utility.yul\":2587:2636   */\n      mstore\n        /* \"#utility.yul\":2665:2669   */\n      0x20\n        /* \"#utility.yul\":2660:2663   */\n      dup5\n        /* \"#utility.yul\":2656:2670   */\n      add\n        /* \"#utility.yul\":2649:2670   */\n      swap4\n      pop\n        /* \"#utility.yul\":2537:2680   */\n      pop\n        /* \"#utility.yul\":2521:2525   */\n      0x20\n        /* \"#utility.yul\":2516:2519   */\n      dup2\n        /* \"#utility.yul\":2512:2526   */\n      add\n        /* \"#utility.yul\":2505:2526   */\n      swap1\n      pop\n        /* \"#utility.yul\":2461:2680   */\n      jump(tag_97)\n    tag_99:\n        /* \"#utility.yul\":2465:2486   */\n      pop\n        /* \"#utility.yul\":2080:2686   */\n      pop\n      pop\n        /* \"#utility.yul\":1979:2686   */\n      swap4\n      swap3\n      pop\n      pop\n      pop\n      jump\t// out\n        /* \"#utility.yul\":2708:3076   */\n    tag_63:\n        /* \"#utility.yul\":2778:2783   */\n      0x00\n        /* \"#utility.yul\":2827:2830   */\n      dup3\n        /* \"#utility.yul\":2820:2824   */\n      0x1f\n        /* \"#utility.yul\":2812:2818   */\n      dup4\n        /* \"#utility.yul\":2808:2825   */\n      add\n        /* \"#utility.yul\":2804:2831   */\n      slt\n        /* \"#utility.yul\":2794:2916   */\n      tag_102\n      jumpi\n        /* \"#utility.yul\":2835:2914   */\n      tag_103\n      tag_52\n      jump\t// in\n    tag_103:\n        /* \"#utility.yul\":2794:2916   */\n    tag_102:\n        /* \"#utility.yul\":2952:2958   */\n      dup2\n        /* \"#utility.yul\":2939:2959   */\n      calldataload\n        /* \"#utility.yul\":2977:3070   */\n      tag_104\n        /* \"#utility.yul\":3066:3069   */\n      dup5\n        /* \"#utility.yul\":3058:3064   */\n      dup3\n        /* \"#utility.yul\":3051:3055   */\n      0x20\n        /* \"#utility.yul\":3043:3049   */\n      dup7\n        /* \"#utility.yul\":3039:3056   */\n      add\n        /* \"#utility.yul\":2977:3070   */\n      tag_62\n      jump\t// in\n    tag_104:\n        /* \"#utility.yul\":2968:3070   */\n      swap2\n      pop\n        /* \"#utility.yul\":2784:3076   */\n      pop\n        /* \"#utility.yul\":2708:3076   */\n      swap3\n      swap2\n      pop\n      pop\n      jump\t// out\n        /* \"#utility.yul\":3082:3762   */\n    tag_7:\n        /* \"#utility.yul\":3173:3179   */\n      0x00\n        /* \"#utility.yul\":3181:3187   */\n      dup1\n        /* \"#utility.yul\":3230:3232   */\n      0x40\n        /* \"#utility.yul\":3218:3227   */\n      dup4\n        /* \"#utility.yul\":3209:3216   */\n      dup6\n        /* \"#utility.yul\":3205:3228   */\n      sub\n        /* \"#utility.yul\":3201:3233   */\n      slt\n        /* \"#utility.yul\":3198:3317   */\n      iszero\n      tag_106\n      jumpi\n        /* \"#utility.yul\":3236:3315   */\n      tag_107\n      tag_50\n      jump\t// in\n    tag_107:\n        /* \"#utility.yul\":3198:3317   */\n    tag_106:\n        /* \"#utility.yul\":3384:3385   */\n      0x00\n        /* \"#utility.yul\":3373:3382   */\n      dup4\n        /* \"#utility.yul\":3369:3386   */\n      add\n        /* \"#utility.yul\":3356:3387   */\n      calldataload\n        /* \"#utility.yul\":3414:3432   */\n      0xffffffffffffffff\n        /* \"#utility.yul\":3406:3412   */\n      dup2\n        /* \"#utility.yul\":3403:3433   */\n      gt\n        /* \"#utility.yul\":3400:3517   */\n      iszero\n      tag_108\n      jumpi\n        /* \"#utility.yul\":3436:3515   */\n      tag_109\n      tag_51\n      jump\t// in\n    tag_109:\n        /* \"#utility.yul\":3400:3517   */\n    tag_108:\n        /* \"#utility.yul\":3541:3618   */\n      tag_110\n        /* \"#utility.yul\":3610:3617   */\n      dup6\n        /* \"#utility.yul\":3601:3607   */\n      dup3\n        /* \"#utility.yul\":3590:3599   */\n      dup7\n        /* \"#utility.yul\":3586:3608   */\n      add\n        /* \"#utility.yul\":3541:3618   */\n      tag_63\n      jump\t// in\n    tag_110:\n        /* \"#utility.yul\":3531:3618   */\n      swap3\n      pop\n        /* \"#utility.yul\":3327:3628   */\n      pop\n        /* \"#utility.yul\":3667:3669   */\n      0x20\n        /* \"#utility.yul\":3693:3745   */\n      tag_111\n        /* \"#utility.yul\":3737:3744   */\n      dup6\n        /* \"#utility.yul\":3728:3734   */\n      dup3\n        /* \"#utility.yul\":3717:3726   */\n      dup7\n        /* \"#utility.yul\":3713:3735   */\n      add\n        /* \"#utility.yul\":3693:3745   */\n      tag_61\n      jump\t// in\n    tag_111:\n        /* \"#utility.yul\":3683:3745   */\n      swap2\n      pop\n        /* \"#utility.yul\":3638:3755   */\n      pop\n        /* \"#utility.yul\":3082:3762   */\n      swap3\n      pop\n      swap3\n      swap1\n      pop\n      jump\t// out\n        /* \"#utility.yul\":3768:3891   */\n    tag_64:\n        /* \"#utility.yul\":3861:3884   */\n      tag_113\n        /* \"#utility.yul\":3878:3883   */\n      dup2\n        /* \"#utility.yul\":3861:3884   */\n      tag_59\n      jump\t// in\n    tag_113:\n        /* \"#utility.yul\":3856:3859   */\n      dup3\n        /* \"#utility.yul\":3849:3885   */\n      mstore\n        /* \"#utility.yul\":3768:3891   */\n      pop\n      pop\n      jump\t// out\n        /* \"#utility.yul\":3897:4131   */\n    tag_10:\n        /* \"#utility.yul\":3996:4000   */\n      0x00\n        /* \"#utility.yul\":4034:4036   */\n      0x20\n        /* \"#utility.yul\":4023:4032   */\n      dup3\n        /* \"#utility.yul\":4019:4037   */\n      add\n        /* \"#utility.yul\":4011:4037   */\n      swap1\n      pop\n        /* \"#utility.yul\":4047:4124   */\n      tag_115\n        /* \"#utility.yul\":4121:4122   */\n      0x00\n        /* \"#utility.yul\":4110:4119   */\n      dup4\n        /* \"#utility.yul\":4106:4123   */\n      add\n        /* \"#utility.yul\":4097:4103   */\n      dup5\n        /* \"#utility.yul\":4047:4124   */\n      tag_64\n      jump\t// in\n    tag_115:\n        /* \"#utility.yul\":3897:4131   */\n      swap3\n      swap2\n      pop\n      pop\n      jump\t// out\n        /* \"#utility.yul\":4137:4674   */\n    tag_13:\n        /* \"#utility.yul\":4220:4226   */\n      0x00\n        /* \"#utility.yul\":4269:4271   */\n      0x20\n        /* \"#utility.yul\":4257:4266   */\n      dup3\n        /* \"#utility.yul\":4248:4255   */\n      dup5\n        /* \"#utility.yul\":4244:4267   */\n      sub\n        /* \"#utility.yul\":4240:4272   */\n      slt\n        /* \"#utility.yul\":4237:4356   */\n      iszero\n      tag_117\n      jumpi\n        /* \"#utility.yul\":4275:4354   */\n      tag_118\n      tag_50\n      jump\t// in\n    tag_118:\n        /* \"#utility.yul\":4237:4356   */\n    tag_117:\n        /* \"#utility.yul\":4423:4424   */\n      0x00\n        /* \"#utility.yul\":4412:4421   */\n      dup3\n        /* \"#utility.yul\":4408:4425   */\n      add\n        /* \"#utility.yul\":4395:4426   */\n      calldataload\n        /* \"#utility.yul\":4453:4471   */\n      0xffffffffffffffff\n        /* \"#utility.yul\":4445:4451   */\n      dup2\n        /* \"#utility.yul\":4442:4472   */\n      gt\n        /* \"#utility.yul\":4439:4556   */\n      iszero\n      tag_119\n      jumpi\n        /* \"#utility.yul\":4475:4554   */\n      tag_120\n      tag_51\n      jump\t// in\n    tag_120:\n        /* \"#utility.yul\":4439:4556   */\n    tag_119:\n        /* \"#utility.yul\":4580:4657   */\n      tag_121\n        /* \"#utility.yul\":4649:4656   */\n      dup5\n        /* \"#utility.yul\":4640:4646   */\n      dup3\n        /* \"#utility.yul\":4629:4638   */\n      dup6\n        /* \"#utility.yul\":4625:4647   */\n      add\n        /* \"#utility.yul\":4580:4657   */\n      tag_63\n      jump\t// in\n    tag_121:\n        /* \"#utility.yul\":4570:4657   */\n      swap2\n      pop\n        /* \"#utility.yul\":4366:4667   */\n      pop\n        /* \"#utility.yul\":4137:4674   */\n      swap3\n      swap2\n      pop\n      pop\n      jump\t// out\n        /* \"#utility.yul\":4680:4757   */\n    tag_65:\n        /* \"#utility.yul\":4717:4724   */\n      0x00\n        /* \"#utility.yul\":4746:4751   */\n      dup2\n        /* \"#utility.yul\":4735:4751   */\n      swap1\n      pop\n        /* \"#utility.yul\":4680:4757   */\n      swap2\n      swap1\n      pop\n      jump\t// out\n        /* \"#utility.yul\":4763:4889   */\n    tag_66:\n        /* \"#utility.yul\":4858:4882   */\n      tag_124\n        /* \"#utility.yul\":4876:4881   */\n      dup2\n        /* \"#utility.yul\":4858:4882   */\n      tag_65\n      jump\t// in\n    tag_124:\n        /* \"#utility.yul\":4853:4856   */\n      dup3\n        /* \"#utility.yul\":4846:4883   */\n      mstore\n        /* \"#utility.yul\":4763:4889   */\n      pop\n      pop\n      jump\t// out\n        /* \"#utility.yul\":4895:5133   */\n    tag_20:\n        /* \"#utility.yul\":4996:5000   */\n      0x00\n        /* \"#utility.yul\":5034:5036   */\n      0x20\n        /* \"#utility.yul\":5023:5032   */\n      dup3\n        /* \"#utility.yul\":5019:5037   */\n      add\n        /* \"#utility.yul\":5011:5037   */\n      swap1\n      pop\n        /* \"#utility.yul\":5047:5126   */\n      tag_126\n        /* \"#utility.yul\":5123:5124   */\n      0x00\n        /* \"#utility.yul\":5112:5121   */\n      dup4\n        /* \"#utility.yul\":5108:5125   */\n      add\n        /* \"#utility.yul\":5099:5105   */\n      dup5\n        /* \"#utility.yul\":5047:5126   */\n      tag_66\n      jump\t// in\n    tag_126:\n        /* \"#utility.yul\":4895:5133   */\n      swap3\n      swap2\n      pop\n      pop\n      jump\t// out\n        /* \"#utility.yul\":5139:5319   */\n    tag_27:\n        /* \"#utility.yul\":5187:5264   */\n      0x4e487b7100000000000000000000000000000000000000000000000000000000\n        /* \"#utility.yul\":5184:5185   */\n      0x00\n        /* \"#utility.yul\":5177:5265   */\n      mstore\n        /* \"#utility.yul\":5284:5288   */\n      0x32\n        /* \"#utility.yul\":5281:5282   */\n      0x04\n        /* \"#utility.yul\":5274:5289   */\n      mstore\n        /* \"#utility.yul\":5308:5312   */\n      0x24\n        /* \"#utility.yul\":5305:5306   */\n      0x00\n        /* \"#utility.yul\":5298:5313   */\n      revert\n        /* \"#utility.yul\":5325:5505   */\n    tag_67:\n        /* \"#utility.yul\":5373:5450   */\n      0x4e487b7100000000000000000000000000000000000000000000000000000000\n        /* \"#utility.yul\":5370:5371   */\n      0x00\n        /* \"#utility.yul\":5363:5451   */\n      mstore\n        /* \"#utility.yul\":5470:5474   */\n      0x11\n        /* \"#utility.yul\":5467:5468   */\n      0x04\n        /* \"#utility.yul\":5460:5475   */\n      mstore\n        /* \"#utility.yul\":5494:5498   */\n      0x24\n        /* \"#utility.yul\":5491:5492   */\n      0x00\n        /* \"#utility.yul\":5484:5499   */\n      revert\n        /* \"#utility.yul\":5511:5744   */\n    tag_30:\n        /* \"#utility.yul\":5550:5553   */\n      0x00\n        /* \"#utility.yul\":5573:5597   */\n      tag_130\n        /* \"#utility.yul\":5591:5596   */\n      dup3\n        /* \"#utility.yul\":5573:5597   */\n      tag_65\n      jump\t// in\n    tag_130:\n        /* \"#utility.yul\":5564:5597   */\n      swap2\n      pop\n        /* \"#utility.yul\":5619:5685   */\n      0xffffffffffffffffffffffffffffffffffffffffffffffffffffffffffffffff\n        /* \"#utility.yul\":5612:5617   */\n      dup3\n        /* \"#utility.yul\":5609:5686   */\n      sub\n        /* \"#utility.yul\":5606:5709   */\n      tag_131\n      jumpi\n        /* \"#utility.yul\":5689:5707   */\n      tag_132\n      tag_67\n      jump\t// in\n    tag_132:\n        /* \"#utility.yul\":5606:5709   */\n    tag_131:\n        /* \"#utility.yul\":5736:5737   */\n      0x01\n        /* \"#utility.yul\":5729:5734   */\n      dup3\n        /* \"#utility.yul\":5725:5738   */\n      add\n        /* \"#utility.yul\":5718:5738   */\n      swap1\n      pop\n        /* \"#utility.yul\":5511:5744   */\n      swap2\n      swap1\n      pop\n      jump\t// out\n        /* \"#utility.yul\":5750:6125   */\n    tag_38:\n        /* \"#utility.yul\":5789:5792   */\n      0x00\n        /* \"#utility.yul\":5808:5827   */\n      tag_134\n        /* \"#utility.yul\":5825:5826   */\n      dup3\n        /* \"#utility.yul\":5808:5827   */\n      tag_59\n      jump\t// in\n    tag_134:\n        /* \"#utility.yul\":5803:5827   */\n      swap2\n      pop\n        /* \"#utility.yul\":5841:5860   */\n      tag_135\n        /* \"#utility.yul\":5858:5859   */\n      dup4\n        /* \"#utility.yul\":5841:5860   */\n      tag_59\n      jump\t// in\n    tag_135:\n        /* \"#utility.yul\":5836:5860   */\n      swap3\n      pop\n        /* \"#utility.yul\":5883:5884   */\n      dup3\n        /* \"#utility.yul\":5880:5881   */\n      dup3\n        /* \"#utility.yul\":5876:5885   */\n      add\n        /* \"#utility.yul\":5869:5885   */\n      swap1\n      pop\n        /* \"#utility.yul\":6081:6082   */\n      dup3\n        /* \"#utility.yul\":6076:6079   */\n      dup2\n        /* \"#utility.yul\":6072:6083   */\n      slt\n        /* \"#utility.yul\":6065:6084   */\n      iszero\n        /* \"#utility.yul\":6061:6062   */\n      0x00\n        /* \"#utility.yul\":6058:6059   */\n      dup4\n        /* \"#utility.yul\":6054:6063   */\n      slt\n        /* \"#utility.yul\":6050:6085   */\n      and\n        /* \"#utility.yul\":6033:6034   */\n      dup4\n        /* \"#utility.yul\":6028:6031   */\n      dup3\n        /* \"#utility.yul\":6024:6035   */\n      slt\n        /* \"#utility.yul\":6019:6020   */\n      0x00\n        /* \"#utility.yul\":6016:6017   */\n      dup5\n        /* \"#utility.yul\":6012:6021   */\n      slt\n        /* \"#utility.yul\":6005:6022   */\n      iszero\n        /* \"#utility.yul\":6001:6036   */\n      and\n        /* \"#utility.yul\":5985:6095   */\n      or\n        /* \"#utility.yul\":5982:6118   */\n      iszero\n      tag_136\n      jumpi\n        /* \"#utility.yul\":6098:6116   */\n      tag_137\n      tag_67\n      jump\t// in\n    tag_137:\n        /* \"#utility.yul\":5982:6118   */\n    tag_136:\n        /* \"#utility.yul\":5750:6125   */\n      swap3\n      swap2\n      pop\n      pop\n      jump\t// out\n\n    auxdata: 0xa2646970667358221220e8f153854b288cbb71eea057a2fd5501f64bd7792c4a7745fc9e1e763c88c8e964736f6c63430008120033\n}\n",
				"bytecode": {
					"linkReferences": {},
					"object": "6105d0610053600b82828239805160001a607314610046577f4e487b7100000000000000000000000000000000000000000000000000000000600052600060045260246000fd5b30600052607381538281f3fe730000000000000000000000000000000000000000301460806040526004361061004b5760003560e01c80633410e3f81461005057806360cb66d0146100805780636f5735fc146100b0575b600080fd5b61006a600480360381019061006591906103ad565b6100e0565b6040516100779190610418565b60405180910390f35b61009a60048036038101906100959190610433565b610159565b6040516100a79190610418565b60405180910390f35b6100ca60048036038101906100c591906103ad565b6101ad565b6040516100d79190610495565b60405180910390f35b6000807fffffffffffffffffffffffffffffffffffffffffffffffffffffffffffffffff905060005b845181101561014e5783858281518110610126576101256104b0565b5b60200260200101510361013b5780915061014e565b80806101469061050e565b915050610109565b508091505092915050565b60008060005b83518110156101a35783818151811061017b5761017a6104b0565b5b60200260200101518261018e9190610556565b9150808061019b9061050e565b91505061015f565b5080915050919050565b60008060005b84518110156101ff57838582815181106101d0576101cf6104b0565b5b6020026020010151036101ec5781806101e89061050e565b9250505b80806101f79061050e565b9150506101b3565b508091505092915050565b6000604051905090565b600080fd5b600080fd5b600080fd5b6000601f19601f8301169050919050565b7f4e487b7100000000000000000000000000000000000000000000000000000000600052604160045260246000fd5b61026c82610223565b810181811067ffffffffffffffff8211171561028b5761028a610234565b5b80604052505050565b600061029e61020a565b90506102aa8282610263565b919050565b600067ffffffffffffffff8211156102ca576102c9610234565b5b602082029050602081019050919050565b600080fd5b6000819050919050565b6102f3816102e0565b81146102fe57600080fd5b50565b600081359050610310816102ea565b92915050565b6000610329610324846102af565b610294565b9050808382526020820190506020840283018581111561034c5761034b6102db565b5b835b8181101561037557806103618882610301565b84526020840193505060208101905061034e565b5050509392505050565b600082601f8301126103945761039361021e565b5b81356103a4848260208601610316565b91505092915050565b600080604083850312156103c4576103c3610214565b5b600083013567ffffffffffffffff8111156103e2576103e1610219565b5b6103ee8582860161037f565b92505060206103ff85828601610301565b9150509250929050565b610412816102e0565b82525050565b600060208201905061042d6000830184610409565b92915050565b60006020828403121561044957610448610214565b5b600082013567ffffffffffffffff81111561046757610466610219565b5b6104738482850161037f565b91505092915050565b6000819050919050565b61048f8161047c565b82525050565b60006020820190506104aa6000830184610486565b92915050565b7f4e487b7100000000000000000000000000000000000000000000000000000000600052603260045260246000fd5b7f4e487b7100000000000000000000000000000000000000000000000000000000600052601160045260246000fd5b60006105198261047c565b91507fffffffffffffffffffffffffffffffffffffffffffffffffffffffffffffffff820361054b5761054a6104df565b5b600182019050919050565b6000610561826102e0565b915061056c836102e0565b925082820190508281121560008312168382126000841215161715610594576105936104df565b5b9291505056fea2646970667358221220e8f153854b288cbb71eea057a2fd5501f64bd7792c4a7745fc9e1e763c88c8e964736f6c63430008120033",
					"opcodes": "PUSH2 0x5D0 PUSH2 0x53 PUSH1 0xB DUP3 DUP3 DUP3 CODECOPY DUP1 MLOAD PUSH1 0x0 BYTE PUSH1 0x73 EQ PUSH2 0x46 JUMPI PUSH32 0x4E487B7100000000000000000000000000000000000000000000000000000000 PUSH1 0x0 MSTORE PUSH1 0x0 PUSH1 0x4 MSTORE PUSH1 0x24 PUSH1 0x0 REVERT JUMPDEST ADDRESS PUSH1 0x0 MSTORE PUSH1 0x73 DUP2 MSTORE8 DUP3 DUP2 RETURN INVALID PUSH20 0x0 ADDRESS EQ PUSH1 0x80 PUSH1 0x40 MSTORE PUSH1 0x4 CALLDATASIZE LT PUSH2 0x4B JUMPI PUSH1 0x0 CALLDATALOAD PUSH1 0xE0 SHR DUP1 PUSH4 0x3410E3F8 EQ PUSH2 0x50 JUMPI DUP1 PUSH4 0x60CB66D0 EQ PUSH2 0x80 JUMPI DUP1 PUSH4 0x6F5735FC EQ PUSH2 0xB0 JUMPI JUMPDEST PUSH1 0x0 DUP1 REVERT JUMPDEST PUSH2 0x6A PUSH1 0x4 DUP1 CALLDATASIZE SUB DUP2 ADD SWAP1 PUSH2 0x65 SWAP2 SWAP1 PUSH2 0x3AD JUMP JUMPDEST PUSH2 0xE0 JUMP JUMPDEST PUSH1 0x40 MLOAD PUSH2 0x77 SWAP2 SWAP1 PUSH2 0x418 JUMP JUMPDEST PUSH1 0x40 MLOAD DUP1 SWAP2 SUB SWAP1 RETURN JUMPDEST PUSH2 0x9A PUSH1 0x4 DUP1 CALLDATASIZE SUB DUP2 ADD SWAP1 PUSH2 0x95 SWAP2 SWAP1 PUSH2 0x433 JUMP JUMPDEST PUSH2 0x159 JUMP JUMPDEST PUSH1 0x40 MLOAD PUSH2 0xA7 SWAP2 SWAP1 PUSH2 0x418 JUMP JUMPDEST PUSH1 0x40 MLOAD DUP1 SWAP2 SUB SWAP1 RETURN JUMPDEST PUSH2 0xCA PUSH1 0x4 DUP1 CALLDATASIZE SUB DUP2 ADD SWAP1 PUSH2 0xC5 SWAP2 SWAP1 PUSH2 0x3AD JUMP JUMPDEST PUSH2 0x1AD JUMP JUMPDEST PUSH1 0x40 MLOAD PUSH2 0xD7 SWAP2 SWAP1 PUSH2 0x495 JUMP JUMPDEST PUSH1 0x40 MLOAD DUP1 SWAP2 SUB SWAP1 RETURN JUMPDEST PUSH1 0x0 DUP1 PUSH32 0xFFFFFFFFFFFFFFFFFFFFFFFFFFFFFFFFFFFFFFFFFFFFFFFFFFFFFFFFFFFFFFFF SWAP1 POP PUSH1 0x0 JUMPDEST DUP5 MLOAD DUP2 LT ISZERO PUSH2 0x14E JUMPI DUP4 DUP6 DUP3 DUP2 MLOAD DUP2 LT PUSH2 0x126 JUMPI PUSH2 0x125 PUSH2 0x4B0 JUMP JUMPDEST JUMPDEST PUSH1 0x20 MUL PUSH1 0x20 ADD ADD MLOAD SUB PUSH2 0x13B JUMPI DUP1 SWAP2 POP PUSH2 0x14E JUMP JUMPDEST DUP1 DUP1 PUSH2 0x146 SWAP1 PUSH2 0x50E JUMP JUMPDEST SWAP2 POP POP PUSH2 0x109 JUMP JUMPDEST POP DUP1 SWAP2 POP POP SWAP3 SWAP2 POP POP JUMP JUMPDEST PUSH1 0x0 DUP1 PUSH1 0x0 JUMPDEST DUP4 MLOAD DUP2 LT ISZERO PUSH2 0x1A3 JUMPI DUP4 DUP2 DUP2 MLOAD DUP2 LT PUSH2 0x17B JUMPI PUSH2 0x17A PUSH2 0x4B0 JUMP JUMPDEST JUMPDEST PUSH1 0x20 MUL PUSH1 0x20 ADD ADD MLOAD DUP3 PUSH2 0x18E SWAP2 SWAP1 PUSH2 0x556 JUMP JUMPDEST SWAP2 POP DUP1 DUP1 PUSH2 0x19B SWAP1 PUSH2 0x50E JUMP JUMPDEST SWAP2 POP POP PUSH2 0x15F JUMP JUMPDEST POP DUP1 SWAP2 POP POP SWAP2 SWAP1 POP JUMP JUMPDEST PUSH1 0x0 DUP1 PUSH1 0x0 JUMPDEST DUP5 MLOAD DUP2 LT ISZERO PUSH2 0x1FF JUMPI DUP4 DUP6 DUP3 DUP2 MLOAD DUP2 LT PUSH2 0x1D0 JUMPI PUSH2 0x1CF PUSH2 0x4B0 JUMP JUMPDEST JUMPDEST PUSH1 0x20 MUL PUSH1 0x20 ADD ADD MLOAD SUB PUSH2 0x1EC JUMPI DUP2 DUP1 PUSH2 0x1E8 SWAP1 PUSH2 0x50E JUMP JUMPDEST SWAP3 POP POP JUMPDEST DUP1 DUP1 PUSH2 0x1F7 SWAP1 PUSH2 0x50E JUMP JUMPDEST SWAP2 POP POP PUSH2 0x1B3 JUMP JUMPDEST POP DUP1 SWAP2 POP POP SWAP3 SWAP2 POP POP JUMP JUMPDEST PUSH1 0x0 PUSH1 0x40 MLOAD SWAP1 POP SWAP1 JUMP JUMPDEST PUSH1 0x0 DUP1 REVERT JUMPDEST PUSH1 0x0 DUP1 REVERT JUMPDEST PUSH1 0x0 DUP1 REVERT JUMPDEST PUSH1 0x0 PUSH1 0x1F NOT PUSH1 0x1F DUP4 ADD AND SWAP1 POP SWAP2 SWAP1 POP JUMP JUMPDEST PUSH32 0x4E487B7100000000000000000000000000000000000000000000000000000000 PUSH1 0x0 MSTORE PUSH1 0x41 PUSH1 0x4 MSTORE PUSH1 0x24 PUSH1 0x0 REVERT JUMPDEST PUSH2 0x26C DUP3 PUSH2 0x223 JUMP JUMPDEST DUP2 ADD DUP2 DUP2 LT PUSH8 0xFFFFFFFFFFFFFFFF DUP3 GT OR ISZERO PUSH2 0x28B JUMPI PUSH2 0x28A PUSH2 0x234 JUMP JUMPDEST JUMPDEST DUP1 PUSH1 0x40 MSTORE POP POP POP JUMP JUMPDEST PUSH1 0x0 PUSH2 0x29E PUSH2 0x20A JUMP JUMPDEST SWAP1 POP PUSH2 0x2AA DUP3 DUP3 PUSH2 0x263 JUMP JUMPDEST SWAP2 SWAP1 POP JUMP JUMPDEST PUSH1 0x0 PUSH8 0xFFFFFFFFFFFFFFFF DUP3 GT ISZERO PUSH2 0x2CA JUMPI PUSH2 0x2C9 PUSH2 0x234 JUMP JUMPDEST JUMPDEST PUSH1 0x20 DUP3 MUL SWAP1 POP PUSH1 0x20 DUP2 ADD SWAP1 POP SWAP2 SWAP1 POP JUMP JUMPDEST PUSH1 0x0 DUP1 REVERT JUMPDEST PUSH1 0x0 DUP2 SWAP1 POP SWAP2 SWAP1 POP JUMP JUMPDEST PUSH2 0x2F3 DUP2 PUSH2 0x2E0 JUMP JUMPDEST DUP2 EQ PUSH2 0x2FE JUMPI PUSH1 0x0 DUP1 REVERT JUMPDEST POP JUMP JUMPDEST PUSH1 0x0 DUP2 CALLDATALOAD SWAP1 POP PUSH2 0x310 DUP2 PUSH2 0x2EA JUMP JUMPDEST SWAP3 SWAP2 POP POP JUMP JUMPDEST PUSH1 0x0 PUSH2 0x329 PUSH2 0x324 DUP5 PUSH2 0x2AF JUMP JUMPDEST PUSH2 0x294 JUMP JUMPDEST SWAP1 POP DUP1 DUP4 DUP3 MSTORE PUSH1 0x20 DUP3 ADD SWAP1 POP PUSH1 0x20 DUP5 MUL DUP4 ADD DUP6 DUP2 GT ISZERO PUSH2 0x34C JUMPI PUSH2 0x34B PUSH2 0x2DB JUMP JUMPDEST JUMPDEST DUP4 JUMPDEST DUP2 DUP2 LT ISZERO PUSH2 0x375 JUMPI DUP1 PUSH2 0x361 DUP9 DUP3 PUSH2 0x301 JUMP JUMPDEST DUP5 MSTORE PUSH1 0x20 DUP5 ADD SWAP4 POP POP PUSH1 0x20 DUP2 ADD SWAP1 POP PUSH2 0x34E JUMP JUMPDEST POP POP POP SWAP4 SWAP3 POP POP POP JUMP JUMPDEST PUSH1 0x0 DUP3 PUSH1 0x1F DUP4 ADD SLT PUSH2 0x394 JUMPI PUSH2 0x393 PUSH2 0x21E JUMP JUMPDEST JUMPDEST DUP2 CALLDATALOAD PUSH2 0x3A4 DUP5 DUP3 PUSH1 0x20 DUP7 ADD PUSH2 0x316 JUMP JUMPDEST SWAP2 POP POP SWAP3 SWAP2 POP POP JUMP JUMPDEST PUSH1 0x0 DUP1 PUSH1 0x40 DUP4 DUP6 SUB SLT ISZERO PUSH2 0x3C4 JUMPI PUSH2 0x3C3 PUSH2 0x214 JUMP JUMPDEST JUMPDEST PUSH1 0x0 DUP4 ADD CALLDATALOAD PUSH8 0xFFFFFFFFFFFFFFFF DUP2 GT ISZERO PUSH2 0x3E2 JUMPI PUSH2 0x3E1 PUSH2 0x219 JUMP JUMPDEST JUMPDEST PUSH2 0x3EE DUP6 DUP3 DUP7 ADD PUSH2 0x37F JUMP JUMPDEST SWAP3 POP POP PUSH1 0x20 PUSH2 0x3FF DUP6 DUP3 DUP7 ADD PUSH2 0x301 JUMP JUMPDEST SWAP2 POP POP SWAP3 POP SWAP3 SWAP1 POP JUMP JUMPDEST PUSH2 0x412 DUP2 PUSH2 0x2E0 JUMP JUMPDEST DUP3 MSTORE POP POP JUMP JUMPDEST PUSH1 0x0 PUSH1 0x20 DUP3 ADD SWAP1 POP PUSH2 0x42D PUSH1 0x0 DUP4 ADD DUP5 PUSH2 0x409 JUMP JUMPDEST SWAP3 SWAP2 POP POP JUMP JUMPDEST PUSH1 0x0 PUSH1 0x20 DUP3 DUP5 SUB SLT ISZERO PUSH2 0x449 JUMPI PUSH2 0x448 PUSH2 0x214 JUMP JUMPDEST JUMPDEST PUSH1 0x0 DUP3 ADD CALLDATALOAD PUSH8 0xFFFFFFFFFFFFFFFF DUP2 GT ISZERO PUSH2 0x467 JUMPI PUSH2 0x466 PUSH2 0x219 JUMP JUMPDEST JUMPDEST PUSH2 0x473 DUP5 DUP3 DUP6 ADD PUSH2 0x37F JUMP JUMPDEST SWAP2 POP POP SWAP3 SWAP2 POP POP JUMP JUMPDEST PUSH1 0x0 DUP2 SWAP1 POP SWAP2 SWAP1 POP JUMP JUMPDEST PUSH2 0x48F DUP2 PUSH2 0x47C JUMP JUMPDEST DUP3 MSTORE POP POP JUMP JUMPDEST PUSH1 0x0 PUSH1 0x20 DUP3 ADD SWAP1 POP PUSH2 0x4AA PUSH1 0x0 DUP4 ADD DUP5 PUSH2 0x486 JUMP JUMPDEST SWAP3 SWAP2 POP POP JUMP JUMPDEST PUSH32 0x4E487B7100000000000000000000000000000000000000000000000000000000 PUSH1 0x0 MSTORE PUSH1 0x32 PUSH1 0x4 MSTORE PUSH1 0x24 PUSH1 0x0 REVERT JUMPDEST PUSH32 0x4E487B7100000000000000000000000000000000000000000000000000000000 PUSH1 0x0 MSTORE PUSH1 0x11 PUSH1 0x4 MSTORE PUSH1 0x24 PUSH1 0x0 REVERT JUMPDEST PUSH1 0x0 PUSH2 0x519 DUP3 PUSH2 0x47C JUMP JUMPDEST SWAP2 POP PUSH32 0xFFFFFFFFFFFFFFFFFFFFFFFFFFFFFFFFFFFFFFFFFFFFFFFFFFFFFFFFFFFFFFFF DUP3 SUB PUSH2 0x54B JUMPI PUSH2 0x54A PUSH2 0x4DF JUMP JUMPDEST JUMPDEST PUSH1 0x1 DUP3 ADD SWAP1 POP SWAP2 SWAP1 POP JUMP JUMPDEST PUSH1 0x0 PUSH2 0x561 DUP3 PUSH2 0x2E0 JUMP JUMPDEST SWAP2 POP PUSH2 0x56C DUP4 PUSH2 0x2E0 JUMP JUMPDEST SWAP3 POP DUP3 DUP3 ADD SWAP1 POP DUP3 DUP2 SLT ISZERO PUSH1 0x0 DUP4 SLT AND DUP4 DUP3 SLT PUSH1 0x0 DUP5 SLT ISZERO AND OR ISZERO PUSH2 0x594 JUMPI PUSH2 0x593 PUSH2 0x4DF JUMP JUMPDEST JUMPDEST SWAP3 SWAP2 POP POP JUMP INVALID LOG2 PUSH5 0x6970667358 0x22 SLT KECCAK256 0xE8 CALL MSTORE8 DUP6 0x4B 0x28 DUP13 0xBB PUSH18 0xEEA057A2FD5501F64BD7792C4A7745FC9E1E PUSH23 0x3C88C8E964736F6C634300081200330000000000000000 "
				},
				"gasEstimates": {
					"creation": {
						"codeDepositCost": "297600",
						"executionCost": "362",
						"totalCost": "297962"
					},
					"external": {
						"count(int256[],int256)": "infinite",
						"indexOf(int256[],int256)": "infinite",
						"sum(int256[])": "infinite"
					}
				},
				"methodIdentifiers": {
					"count(int256[],int256)": "6f5735fc",
					"indexOf(int256[],int256)": "3410e3f8",
					"sum(int256[])": "60cb66d0"
				}
			},
			"storageLayout": {
				"storage": [],
				"types": null
			},
			"userdoc": {
				"kind": "user",
				"methods": {},
				"version": 1
			}
		}
	}
}