{
	"data": {
		"bytecode": {
			"linkReferences": {},
			"object": "608060405234801561001057600080fd5b5061072b806100206000396000f3fe608060405234801561001057600080fd5b50600436106100365760003560e01c8063dcd0511f1461003b578063fce1c7341461006b575b600080fd5b6100556004803603810190610050919061023e565b61009b565b60405161006291906104cf565b60405180910390f35b610085600480360381019061008091906101fe565b610121565b60405161009291906104ad565b60405180910390f35b60608060005b858110156101155760005b8581101561010157848383815181106100c8576100c7610693565b5b602002602001015182815181106100e2576100e1610693565b5b60200260200101818152505080806100f99061061b565b9150506100ac565b50808061010d9061061b565b9150506100a1565b50809150509392505050565b60608060005b848110156101c95760005b848110156101b5573383838151811061014e5761014d610693565b5b6020026020010151828151811061016857610167610693565b5b602002602001019073ffffffffffffffffffffffffffffffffffffffff16908173ffffffffffffffffffffffffffffffffffffffff168152505080806101ad9061061b565b915050610132565b5080806101c19061061b565b915050610127565b508091505092915050565b6000813590506101e3816106c7565b92915050565b6000813590506101f8816106de565b92915050565b60008060408385031215610215576102146106c2565b5b6000610223858286016101e9565b9250506020610234858286016101e9565b9150509250929050565b600080600060608486031215610257576102566106c2565b5b6000610265868287016101e9565b9350506020610276868287016101e9565b9250506040610287868287016101d4565b9150509250925092565b600061029d83836102e9565b60208301905092915050565b60006102b583836102f8565b905092915050565b60006102c98383610440565b905092915050565b60006102dd838361049e565b60208301905092915050565b6102f2816105d5565b82525050565b600061030382610531565b61030d8185610591565b9350610318836104f1565b8060005b838110156103495781516103308882610291565b975061033b8361055d565b92505060018101905061031c565b5085935050505092915050565b60006103618261053c565b61036b81856105a2565b93508360208202850161037d85610501565b8060005b858110156103b9578484038952815161039a85826102a9565b94506103a58361056a565b925060208a01995050600181019050610381565b50829750879550505050505092915050565b60006103d682610547565b6103e081856105b3565b9350836020820285016103f285610511565b8060005b8581101561042e578484038952815161040f85826102bd565b945061041a83610577565b925060208a019950506001810190506103f6565b50829750879550505050505092915050565b600061044b82610552565b61045581856105c4565b935061046083610521565b8060005b8381101561049157815161047888826102d1565b975061048383610584565b925050600181019050610464565b5085935050505092915050565b6104a7816105e7565b82525050565b600060208201905081810360008301526104c78184610356565b905092915050565b600060208201905081810360008301526104e981846103cb565b905092915050565b6000819050602082019050919050565b6000819050602082019050919050565b6000819050602082019050919050565b6000819050602082019050919050565b600081519050919050565b600081519050919050565b600081519050919050565b600081519050919050565b6000602082019050919050565b6000602082019050919050565b6000602082019050919050565b6000602082019050919050565b600082825260208201905092915050565b600082825260208201905092915050565b600082825260208201905092915050565b600082825260208201905092915050565b60006105e0826105f1565b9050919050565b6000819050919050565b600073ffffffffffffffffffffffffffffffffffffffff82169050919050565b6000819050919050565b600061062682610611565b91507fffffffffffffffffffffffffffffffffffffffffffffffffffffffffffffffff82141561065957610658610664565b5b600182019050919050565b7f4e487b7100000000000000000000000000000000000000000000000000000000600052601160045260246000fd5b7f4e487b7100000000000000000000000000000000000000000000000000000000600052603260045260246000fd5b600080fd5b6106d0816105e7565b81146106db57600080fd5b50565b6106e781610611565b81146106f257600080fd5b5056fea2646970667358221220394d636e63d8968d57d11c29f455b4592faebe2e357f1cc1add10c1b541facb364736f6c63430008070033",
			"opcodes": "PUSH1 0x80 PUSH1 0x40 MSTORE CALLVALUE DUP1 ISZERO PUSH2 0x10 JUMPI PUSH1 0x0 DUP1 REVERT JUMPDEST POP PUSH2 0x72B DUP1 PUSH2 0x20 PUSH1 0x0 CODECOPY PUSH1 0x0 RETURN INVALID PUSH1 0x80 PUSH1 0x40 MSTORE CALLVALUE DUP1 ISZERO PUSH2 0x10 JUMPI PUSH1 0x0 DUP1 REVERT JUMPDEST POP PUSH1 0x4 CALLDATASIZE LT PUSH2 0x36 JUMPI PUSH1 0x0 CALLDATALOAD PUSH1 0xE0 SHR DUP1 PUSH4 0xDCD0511F EQ PUSH2 0x3B JUMPI DUP1 PUSH4 0xFCE1C734 EQ PUSH2 0x6B JUMPI JUMPDEST PUSH1 0x0 DUP1 REVERT JUMPDEST PUSH2 0x55 PUSH1 0x4 DUP1 CALLDATASIZE SUB DUP2 ADD SWAP1 PUSH2 0x50 SWAP2 SWAP1 PUSH2 0x23E JUMP JUMPDEST PUSH2 0x9B JUMP JUMPDEST PUSH1 0x40 MLOAD PUSH2 0x62 SWAP2 SWAP1 PUSH2 0x4CF JUMP JUMPDEST PUSH1 0x40 MLOAD DUP1 SWAP2 SUB SWAP1 RETURN JUMPDEST PUSH2 0x85 PUSH1 0x4 DUP1 CALLDATASIZE SUB DUP2 ADD SWAP1 PUSH2 0x80 SWAP2 SWAP1 PUSH2 0x1FE JUMP JUMPDEST PUSH2 0x121 JUMP JUMPDEST PUSH1 0x40 MLOAD PUSH2 0x92 SWAP2 SWAP1 PUSH2 0x4AD JUMP JUMPDEST PUSH1 0x40 MLOAD DUP1 SWAP2 SUB SWAP1 RETURN JUMPDEST PUSH1 0x60 DUP1 PUSH1 0x0 JUMPDEST DUP6 DUP2 LT ISZERO PUSH2 0x115 JUMPI PUSH1 0x0 JUMPDEST DUP6 DUP2 LT ISZERO PUSH2 0x101 JUMPI DUP5 DUP4 DUP4 DUP2 MLOAD DUP2 LT PUSH2 0xC8 JUMPI PUSH2 0xC7 PUSH2 0x693 JUMP JUMPDEST JUMPDEST PUSH1 0x20 MUL PUSH1 0x20 ADD ADD MLOAD DUP3 DUP2 MLOAD DUP2 LT PUSH2 0xE2 JUMPI PUSH2 0xE1 PUSH2 0x693 JUMP JUMPDEST JUMPDEST PUSH1 0x20 MUL PUSH1 0x20 ADD ADD DUP2 DUP2 MSTORE POP POP DUP1 DUP1 PUSH2 0xF9 SWAP1 PUSH2 0x61B JUMP JUMPDEST SWAP2 POP POP PUSH2 0xAC JUMP JUMPDEST POP DUP1 DUP1 PUSH2 0x10D SWAP1 PUSH2 0x61B JUMP JUMPDEST SWAP2 POP POP PUSH2 0xA1 JUMP JUMPDEST POP DUP1 SWAP2 POP POP SWAP4 SWAP3 POP POP POP JUMP JUMPDEST PUSH1 0x60 DUP1 PUSH1 0x0 JUMPDEST DUP5 DUP2 LT ISZERO PUSH2 0x1C9 JUMPI PUSH1 0x0 JUMPDEST DUP5 DUP2 LT ISZERO PUSH2 0x1B5 JUMPI CALLER DUP4 DUP4 DUP2 MLOAD DUP2 LT PUSH2 0x14E JUMPI PUSH2 0x14D PUSH2 0x693 JUMP JUMPDEST JUMPDEST PUSH1 0x20 MUL PUSH1 0x20 ADD ADD MLOAD DUP3 DUP2 MLOAD DUP2 LT PUSH2 0x168 JUMPI PUSH2 0x167 PUSH2 0x693 JUMP JUMPDEST JUMPDEST PUSH1 0x20 MUL PUSH1 0x20 ADD ADD SWAP1 PUSH20 0xFFFFFFFFFFFFFFFFFFFFFFFFFFFFFFFFFFFFFFFF AND SWAP1 DUP2 PUSH20 0xFFFFFFFFFFFFFFFFFFFFFFFFFFFFFFFFFFFFFFFF AND DUP2 MSTORE POP POP DUP1 DUP1 PUSH2 0x1AD SWAP1 PUSH2 0x61B JUMP JUMPDEST SWAP2 POP POP PUSH2 0x132 JUMP JUMPDEST POP DUP1 DUP1 PUSH2 0x1C1 SWAP1 PUSH2 0x61B JUMP JUMPDEST SWAP2 POP POP PUSH2 0x127 JUMP JUMPDEST POP DUP1 SWAP2 POP POP SWAP3 SWAP2 POP POP JUMP JUMPDEST PUSH1 0x0 DUP2 CALLDATALOAD SWAP1 POP PUSH2 0x1E3 DUP2 PUSH2 0x6C7 JUMP JUMPDEST SWAP3 SWAP2 POP POP JUMP JUMPDEST PUSH1 0x0 DUP2 CALLDATALOAD SWAP1 POP PUSH2 0x1F8 DUP2 PUSH2 0x6DE JUMP JUMPDEST SWAP3 SWAP2 POP POP JUMP JUMPDEST PUSH1 0x0 DUP1 PUSH1 0x40 DUP4 DUP6 SUB SLT ISZERO PUSH2 0x215 JUMPI PUSH2 0x214 PUSH2 0x6C2 JUMP JUMPDEST JUMPDEST PUSH1 0x0 PUSH2 0x223 DUP6 DUP3 DUP7 ADD PUSH2 0x1E9 JUMP JUMPDEST SWAP3 POP POP PUSH1 0x20 PUSH2 0x234 DUP6 DUP3 DUP7 ADD PUSH2 0x1E9 JUMP JUMPDEST SWAP2 POP POP SWAP3 POP SWAP3 SWAP1 POP JUMP JUMPDEST PUSH1 0x0 DUP1 PUSH1 0x0 PUSH1 0x60 DUP5 DUP7 SUB SLT ISZERO PUSH2 0x257 JUMPI PUSH2 0x256 PUSH2 0x6C2 JUMP JUMPDEST JUMPDEST PUSH1 0x0 PUSH2 0x265 DUP7 DUP3 DUP8 ADD PUSH2 0x1E9 JUMP JUMPDEST SWAP4 POP POP PUSH1 0x20 PUSH2 0x276 DUP7 DUP3 DUP8 ADD PUSH2 0x1E9 JUMP JUMPDEST SWAP3 POP POP PUSH1 0x40 PUSH2 0x287 DUP7 DUP3 DUP8 ADD PUSH2 0x1D4 JUMP JUMPDEST SWAP2 POP POP SWAP3 POP SWAP3 POP SWAP3 JUMP JUMPDEST PUSH1 0x0 PUSH2 0x29D DUP4 DUP4 PUSH2 0x2E9 JUMP JUMPDEST PUSH1 0x20 DUP4 ADD SWAP1 POP SWAP3 SWAP2 POP POP JUMP JUMPDEST PUSH1 0x0 PUSH2 0x2B5 DUP4 DUP4 PUSH2 0x2F8 JUMP JUMPDEST SWAP1 POP SWAP3 SWAP2 POP POP JUMP JUMPDEST PUSH1 0x0 PUSH2 0x2C9 DUP4 DUP4 PUSH2 0x440 JUMP JUMPDEST SWAP1 POP SWAP3 SWAP2 POP POP JUMP JUMPDEST PUSH1 0x0 PUSH2 0x2DD DUP4 DUP4 PUSH2 0x49E JUMP JUMPDEST PUSH1 0x20 DUP4 ADD SWAP1 POP SWAP3 SWAP2 POP POP JUMP JUMPDEST PUSH2 0x2F2 DUP2 PUSH2 0x5D5 JUMP JUMPDEST DUP3 MSTORE POP POP JUMP JUMPDEST PUSH1 0x0 PUSH2 0x303 DUP3 PUSH2 0x531 JUMP JUMPDEST PUSH2 0x30D DUP2 DUP6 PUSH2 0x591 JUMP JUMPDEST SWAP4 POP PUSH2 0x318 DUP4 PUSH2 0x4F1 JUMP JUMPDEST DUP1 PUSH1 0x0 JUMPDEST DUP4 DUP2 LT ISZERO PUSH2 0x349 JUMPI DUP2 MLOAD PUSH2 0x330 DUP9 DUP3 PUSH2 0x291 JUMP JUMPDEST SWAP8 POP PUSH2 0x33B DUP4 PUSH2 0x55D JUMP JUMPDEST SWAP3 POP POP PUSH1 0x1 DUP2 ADD SWAP1 POP PUSH2 0x31C JUMP JUMPDEST POP DUP6 SWAP4 POP POP POP POP SWAP3 SWAP2 POP POP JUMP JUMPDEST PUSH1 0x0 PUSH2 0x361 DUP3 PUSH2 0x53C JUMP JUMPDEST PUSH2 0x36B DUP2 DUP6 PUSH2 0x5A2 JUMP JUMPDEST SWAP4 POP DUP4 PUSH1 0x20 DUP3 MUL DUP6 ADD PUSH2 0x37D DUP6 PUSH2 0x501 JUMP JUMPDEST DUP1 PUSH1 0x0 JUMPDEST DUP6 DUP2 LT ISZERO PUSH2 0x3B9 JUMPI DUP5 DUP5 SUB DUP10 MSTORE DUP2 MLOAD PUSH2 0x39A DUP6 DUP3 PUSH2 0x2A9 JUMP JUMPDEST SWAP5 POP PUSH2 0x3A5 DUP4 PUSH2 0x56A JUMP JUMPDEST SWAP3 POP PUSH1 0x20 DUP11 ADD SWAP10 POP POP PUSH1 0x1 DUP2 ADD SWAP1 POP PUSH2 0x381 JUMP JUMPDEST POP DUP3 SWAP8 POP DUP8 SWAP6 POP POP POP POP POP POP SWAP3 SWAP2 POP POP JUMP JUMPDEST PUSH1 0x0 PUSH2 0x3D6 DUP3 PUSH2 0x547 JUMP JUMPDEST PUSH2 0x3E0 DUP2 DUP6 PUSH2 0x5B3 JUMP JUMPDEST SWAP4 POP DUP4 PUSH1 0x20 DUP3 MUL DUP6 ADD PUSH2 0x3F2 DUP6 PUSH2 0x511 JUMP JUMPDEST DUP1 PUSH1 0x0 JUMPDEST DUP6 DUP2 LT ISZERO PUSH2 0x42E JUMPI DUP5 DUP5 SUB DUP10 MSTORE DUP2 MLOAD PUSH2 0x40F DUP6 DUP3 PUSH2 0x2BD JUMP JUMPDEST SWAP5 POP PUSH2 0x41A DUP4 PUSH2 0x577 JUMP JUMPDEST SWAP3 POP PUSH1 0x20 DUP11 ADD SWAP10 POP POP PUSH1 0x1 DUP2 ADD SWAP1 POP PUSH2 0x3F6 JUMP JUMPDEST POP DUP3 SWAP8 POP DUP8 SWAP6 POP POP POP POP POP POP SWAP3 SWAP2 POP POP JUMP JUMPDEST PUSH1 0x0 PUSH2 0x44B DUP3 PUSH2 0x552 JUMP JUMPDEST PUSH2 0x455 DUP2 DUP6 PUSH2 0x5C4 JUMP JUMPDEST SWAP4 POP PUSH2 0x460 DUP4 PUSH2 0x521 JUMP JUMPDEST DUP1 PUSH1 0x0 JUMPDEST DUP4 DUP2 LT ISZERO PUSH2 0x491 JUMPI DUP2 MLOAD PUSH2 0x478 DUP9 DUP3 PUSH2 0x2D1 JUMP JUMPDEST SWAP8 POP PUSH2 0x483 DUP4 PUSH2 0x584 JUMP JUMPDEST SWAP3 POP POP PUSH1 0x1 DUP2 ADD SWAP1 POP PUSH2 0x464 JUMP JUMPDEST POP DUP6 SWAP4 POP POP POP POP SWAP3 SWAP2 POP POP JUMP JUMPDEST PUSH2 0x4A7 DUP2 PUSH2 0x5E7 JUMP JUMPDEST DUP3 MSTORE POP POP JUMP JUMPDEST PUSH1 0x0 PUSH1 0x20 DUP3 ADD SWAP1 POP DUP2 DUP2 SUB PUSH1 0x0 DUP4 ADD MSTORE PUSH2 0x4C7 DUP2 DUP5 PUSH2 0x356 JUMP JUMPDEST SWAP1 POP SWAP3 SWAP2 POP POP JUMP JUMPDEST PUSH1 0x0 PUSH1 0x20 DUP3 ADD SWAP1 POP DUP2 DUP2 SUB PUSH1 0x0 DUP4 ADD MSTORE PUSH2 0x4E9 DUP2 DUP5 PUSH2 0x3CB JUMP JUMPDEST SWAP1 POP SWAP3 SWAP2 POP POP JUMP JUMPDEST PUSH1 0x0 DUP2 SWAP1 POP PUSH1 0x20 DUP3 ADD SWAP1 POP SWAP2 SWAP1 POP JUMP JUMPDEST PUSH1 0x0 DUP2 SWAP1 POP PUSH1 0x20 DUP3 ADD SWAP1 POP SWAP2 SWAP1 POP JUMP JUMPDEST PUSH1 0x0 DUP2 SWAP1 POP PUSH1 0x20 DUP3 ADD SWAP1 POP SWAP2 SWAP1 POP JUMP JUMPDEST PUSH1 0x0 DUP2 SWAP1 POP PUSH1 0x20 DUP3 ADD SWAP1 POP SWAP2 SWAP1 POP JUMP JUMPDEST PUSH1 0x0 DUP2 MLOAD SWAP1 POP SWAP2 SWAP1 POP JUMP JUMPDEST PUSH1 0x0 DUP2 MLOAD SWAP1 POP SWAP2 SWAP1 POP JUMP JUMPDEST PUSH1 0x0 DUP2 MLOAD SWAP1 POP SWAP2 SWAP1 POP JUMP JUMPDEST PUSH1 0x0 DUP2 MLOAD SWAP1 POP SWAP2 SWAP1 POP JUMP JUMPDEST PUSH1 0x0 PUSH1 0x20 DUP3 ADD SWAP1 POP SWAP2 SWAP1 POP JUMP JUMPDEST PUSH1 0x0 PUSH1 0x20 DUP3 ADD SWAP1 POP SWAP2 SWAP1 POP JUMP JUMPDEST PUSH1 0x0 PUSH1 0x20 DUP3 ADD SWAP1 POP SWAP2 SWAP1 POP JUMP JUMPDEST PUSH1 0x0 PUSH1 0x20 DUP3 ADD SWAP1 POP SWAP2 SWAP1 POP JUMP JUMPDEST PUSH1 0x0 DUP3 DUP3 MSTORE PUSH1 0x20 DUP3 ADD SWAP1 POP SWAP3 SWAP2 POP POP JUMP JUMPDEST PUSH1 0x0 DUP3 DUP3 MSTORE PUSH1 0x20 DUP3 ADD SWAP1 POP SWAP3 SWAP2 POP POP JUMP JUMPDEST PUSH1 0x0 DUP3 DUP3 MSTORE PUSH1 0x20 DUP3 ADD SWAP1 POP SWAP3 SWAP2 POP POP JUMP JUMPDEST PUSH1 0x0 DUP3 DUP3 MSTORE PUSH1 0x20 DUP3 ADD SWAP1 POP SWAP3 SWAP2 POP POP JUMP JUMPDEST PUSH1 0x0 PUSH2 0x5E0 DUP3 PUSH2 0x5F1 JUMP JUMPDEST SWAP1 POP SWAP2 SWAP1 POP JUMP JUMPDEST PUSH1 0x0 DUP2 SWAP1 POP SWAP2 SWAP1 POP JUMP JUMPDEST PUSH1 0x0 PUSH20 0xFFFFFFFFFFFFFFFFFFFFFFFFFFFFFFFFFFFFFFFF DUP3 AND SWAP1 POP SWAP2 SWAP1 POP JUMP JUMPDEST PUSH1 0x0 DUP2 SWAP1 POP SWAP2 SWAP1 POP JUMP JUMPDEST PUSH1 0x0 PUSH2 0x626 DUP3 PUSH2 0x611 JUMP JUMPDEST SWAP2 POP PUSH32 0xFFFFFFFFFFFFFFFFFFFFFFFFFFFFFFFFFFFFFFFFFFFFFFFFFFFFFFFFFFFFFFFF DUP3 EQ ISZERO PUSH2 0x659 JUMPI PUSH2 0x658 PUSH2 0x664 JUMP JUMPDEST JUMPDEST PUSH1 0x1 DUP3 ADD SWAP1 POP SWAP2 SWAP1 POP JUMP JUMPDEST PUSH32 0x4E487B7100000000000000000000000000000000000000000000000000000000 PUSH1 0x0 MSTORE PUSH1 0x11 PUSH1 0x4 MSTORE PUSH1 0x24 PUSH1 0x0 REVERT JUMPDEST PUSH32 0x4E487B7100000000000000000000000000000000000000000000000000000000 PUSH1 0x0 MSTORE PUSH1 0x32 PUSH1 0x4 MSTORE PUSH1 0x24 PUSH1 0x0 REVERT JUMPDEST PUSH1 0x0 DUP1 REVERT JUMPDEST PUSH2 0x6D0 DUP2 PUSH2 0x5E7 JUMP JUMPDEST DUP2 EQ PUSH2 0x6DB JUMPI PUSH1 0x0 DUP1 REVERT JUMPDEST POP JUMP JUMPDEST PUSH2 0x6E7 DUP2 PUSH2 0x611 JUMP JUMPDEST DUP2 EQ PUSH2 0x6F2 JUMPI PUSH1 0x0 DUP1 REVERT JUMPDEST POP JUMP INVALID LOG2 PUSH5 0x6970667358 0x22 SLT KECCAK256 CODECOPY 0x4D PUSH4 0x6E63D896 DUP14 JUMPI 0xD1 SHR 0x29 DELEGATECALL SSTORE 0xB4 MSIZE 0x2F 0xAE 0xBE 0x2E CALLDATALOAD PUSH32 0x1CC1ADD10C1B541FACB364736F6C634300080700330000000000000000000000 "
		},
		"gasEstimates": {
			"creation": {
				"codeDepositCost": "367000",
				"executionCost": "405",
				"totalCost": "367405"
			},
			"external": {
				"make2DAddressGrid(uint256,uint256)": "infinite",
				"make2DIntGrid(uint256,uint256,int256)": "infinite"
			}
		},
		"methodIdentifiers": {
			"make2DAddressGrid(uint256,uint256)": "fce1c734",
			"make2DIntGrid(uint256,uint256,int256)": "dcd0511f"
		}
	},
	"abi": [
		{
			"inputs": [
				{
					"internalType": "uint256",
					"name": "rows",
					"type": "uint256"
				},
				{
					"internalType": "uint256",
					"name": "cols",
					"type": "uint256"
				}
			],
			"name": "make2DAddressGrid",
			"outputs": [
				{
					"internalType": "address[][]",
					"name": "",
					"type": "address[][]"
				}
			],
			"stateMutability": "view",
			"type": "function"
		},
		{
			"inputs": [
				{
					"internalType": "uint256",
					"name": "rows",
					"type": "uint256"
				},
				{
					"internalType": "uint256",
					"name": "cols",
					"type": "uint256"
				},
				{
					"internalType": "int256",
					"name": "value",
					"type": "int256"
				}
			],
			"name": "make2DIntGrid",
			"outputs": [
				{
					"internalType": "int256[][]",
					"name": "",
					"type": "int256[][]"
				}
			],
			"stateMutability": "pure",
			"type": "function"
		}
	]
}