{
	"contracts/practice/examples/LibraryExample.sol": {
		"Example": {
			"abi": [
				{
					"inputs": [
						{
							"internalType": "int256[]",
							"name": "numbers",
							"type": "int256[]"
						},
						{
							"internalType": "uint256[]",
							"name": "uNumbers",
							"type": "uint256[]"
						}
					],
					"name": "getMax",
					"outputs": [
						{
							"internalType": "int256",
							"name": "",
							"type": "int256"
						},
						{
							"internalType": "uint256",
							"name": "",
							"type": "uint256"
						}
					],
					"stateMutability": "pure",
					"type": "function"
				}
			],
			"devdoc": {
				"kind": "dev",
				"methods": {},
				"version": 1
			},
			"evm": {
				"assembly": "    /* \"contracts/practice/examples/LibraryExample.sol\":863:1109  contract Example {... */\n  mstore(0x40, 0x80)\n  callvalue\n  dup1\n  iszero\n  tag_1\n  jumpi\n  0x00\n  dup1\n  revert\ntag_1:\n  pop\n  dataSize(sub_0)\n  dup1\n  dataOffset(sub_0)\n  0x00\n  codecopy\n  0x00\n  return\nstop\n\nsub_0: assembly {\n        /* \"contracts/practice/examples/LibraryExample.sol\":863:1109  contract Example {... */\n      mstore(0x40, 0x80)\n      callvalue\n      dup1\n      iszero\n      tag_1\n      jumpi\n      0x00\n      dup1\n      revert\n    tag_1:\n      pop\n      jumpi(tag_2, lt(calldatasize, 0x04))\n      shr(0xe0, calldataload(0x00))\n      dup1\n      0xbad50675\n      eq\n      tag_3\n      jumpi\n    tag_2:\n      0x00\n      dup1\n      revert\n        /* \"contracts/practice/examples/LibraryExample.sol\":946:1106  function getMax(int[] memory numbers, uint[] memory uNumbers) external pure returns (int, uint){... */\n    tag_3:\n      tag_4\n      0x04\n      dup1\n      calldatasize\n      sub\n      dup2\n      add\n      swap1\n      tag_5\n      swap2\n      swap1\n      tag_6\n      jump\t// in\n    tag_5:\n      tag_7\n      jump\t// in\n    tag_4:\n      mload(0x40)\n      tag_8\n      swap3\n      swap2\n      swap1\n      tag_9\n      jump\t// in\n    tag_8:\n      mload(0x40)\n      dup1\n      swap2\n      sub\n      swap1\n      return\n    tag_7:\n        /* \"contracts/practice/examples/LibraryExample.sol\":1031:1034  int */\n      0x00\n        /* \"contracts/practice/examples/LibraryExample.sol\":1036:1040  uint */\n      dup1\n        /* \"contracts/practice/examples/LibraryExample.sol\":1060:1067  numbers */\n      dup4\n        /* \"contracts/practice/examples/LibraryExample.sol\":1060:1075  numbers.findMax */\n      linkerSymbol(\"acc04b8a49d80a8fc001498b7de18b54afa4414e51604af5b2082232ec315c5a\")\n      0xa2995739\n      swap1\n      swap2\n        /* \"contracts/practice/examples/LibraryExample.sol\":1060:1077  numbers.findMax() */\n      mload(0x40)\n      dup3\n      0xffffffff\n      and\n      0xe0\n      shl\n      dup2\n      mstore\n      0x04\n      add\n      tag_11\n      swap2\n      swap1\n      tag_12\n      jump\t// in\n    tag_11:\n      0x20\n      mload(0x40)\n      dup1\n      dup4\n      sub\n      dup2\n      dup7\n      gas\n      delegatecall\n      iszero\n      dup1\n      iszero\n      tag_14\n      jumpi\n      returndatasize\n      0x00\n      dup1\n      returndatacopy\n      revert(0x00, returndatasize)\n    tag_14:\n      pop\n      pop\n      pop\n      pop\n      mload(0x40)\n      returndatasize\n      not(0x1f)\n      0x1f\n      dup3\n      add\n      and\n      dup3\n      add\n      dup1\n      0x40\n      mstore\n      pop\n      dup2\n      add\n      swap1\n      tag_15\n      swap2\n      swap1\n      tag_16\n      jump\t// in\n    tag_15:\n        /* \"contracts/practice/examples/LibraryExample.sol\":1079:1087  uNumbers */\n      dup4\n        /* \"contracts/practice/examples/LibraryExample.sol\":1079:1095  uNumbers.findMax */\n      linkerSymbol(\"acc04b8a49d80a8fc001498b7de18b54afa4414e51604af5b2082232ec315c5a\")\n      0x8bd58682\n      swap1\n      swap2\n        /* \"contracts/practice/examples/LibraryExample.sol\":1079:1097  uNumbers.findMax() */\n      mload(0x40)\n      dup3\n      0xffffffff\n      and\n      0xe0\n      shl\n      dup2\n      mstore\n      0x04\n      add\n      tag_17\n      swap2\n      swap1\n      tag_18\n      jump\t// in\n    tag_17:\n      0x20\n      mload(0x40)\n      dup1\n      dup4\n      sub\n      dup2\n      dup7\n      gas\n      delegatecall\n      iszero\n      dup1\n      iszero\n      tag_20\n      jumpi\n      returndatasize\n      0x00\n      dup1\n      returndatacopy\n      revert(0x00, returndatasize)\n    tag_20:\n      pop\n      pop\n      pop\n      pop\n      mload(0x40)\n      returndatasize\n      not(0x1f)\n      0x1f\n      dup3\n      add\n      and\n      dup3\n      add\n      dup1\n      0x40\n      mstore\n      pop\n      dup2\n      add\n      swap1\n      tag_21\n      swap2\n      swap1\n      tag_22\n      jump\t// in\n    tag_21:\n        /* \"contracts/practice/examples/LibraryExample.sol\":1052:1098  return (numbers.findMax(), uNumbers.findMax()) */\n      swap2\n      pop\n      swap2\n      pop\n        /* \"contracts/practice/examples/LibraryExample.sol\":946:1106  function getMax(int[] memory numbers, uint[] memory uNumbers) external pure returns (int, uint){... */\n      swap3\n      pop\n      swap3\n      swap1\n      pop\n      jump\t// out\n        /* \"#utility.yul\":7:82   */\n    tag_23:\n        /* \"#utility.yul\":40:46   */\n      0x00\n        /* \"#utility.yul\":73:75   */\n      0x40\n        /* \"#utility.yul\":67:76   */\n      mload\n        /* \"#utility.yul\":57:76   */\n      swap1\n      pop\n        /* \"#utility.yul\":7:82   */\n      swap1\n      jump\t// out\n        /* \"#utility.yul\":88:205   */\n    tag_24:\n        /* \"#utility.yul\":197:198   */\n      0x00\n        /* \"#utility.yul\":194:195   */\n      dup1\n        /* \"#utility.yul\":187:199   */\n      revert\n        /* \"#utility.yul\":211:328   */\n    tag_25:\n        /* \"#utility.yul\":320:321   */\n      0x00\n        /* \"#utility.yul\":317:318   */\n      dup1\n        /* \"#utility.yul\":310:322   */\n      revert\n        /* \"#utility.yul\":334:451   */\n    tag_26:\n        /* \"#utility.yul\":443:444   */\n      0x00\n        /* \"#utility.yul\":440:441   */\n      dup1\n        /* \"#utility.yul\":433:445   */\n      revert\n        /* \"#utility.yul\":457:559   */\n    tag_27:\n        /* \"#utility.yul\":498:504   */\n      0x00\n        /* \"#utility.yul\":549:551   */\n      0x1f\n        /* \"#utility.yul\":545:552   */\n      not\n        /* \"#utility.yul\":540:542   */\n      0x1f\n        /* \"#utility.yul\":533:538   */\n      dup4\n        /* \"#utility.yul\":529:543   */\n      add\n        /* \"#utility.yul\":525:553   */\n      and\n        /* \"#utility.yul\":515:553   */\n      swap1\n      pop\n        /* \"#utility.yul\":457:559   */\n      swap2\n      swap1\n      pop\n      jump\t// out\n        /* \"#utility.yul\":565:745   */\n    tag_28:\n        /* \"#utility.yul\":613:690   */\n      0x4e487b7100000000000000000000000000000000000000000000000000000000\n        /* \"#utility.yul\":610:611   */\n      0x00\n        /* \"#utility.yul\":603:691   */\n      mstore\n        /* \"#utility.yul\":710:714   */\n      0x41\n        /* \"#utility.yul\":707:708   */\n      0x04\n        /* \"#utility.yul\":700:715   */\n      mstore\n        /* \"#utility.yul\":734:738   */\n      0x24\n        /* \"#utility.yul\":731:732   */\n      0x00\n        /* \"#utility.yul\":724:739   */\n      revert\n        /* \"#utility.yul\":751:1032   */\n    tag_29:\n        /* \"#utility.yul\":834:861   */\n      tag_70\n        /* \"#utility.yul\":856:860   */\n      dup3\n        /* \"#utility.yul\":834:861   */\n      tag_27\n      jump\t// in\n    tag_70:\n        /* \"#utility.yul\":826:832   */\n      dup2\n        /* \"#utility.yul\":822:862   */\n      add\n        /* \"#utility.yul\":964:970   */\n      dup2\n        /* \"#utility.yul\":952:962   */\n      dup2\n        /* \"#utility.yul\":949:971   */\n      lt\n        /* \"#utility.yul\":928:946   */\n      0xffffffffffffffff\n        /* \"#utility.yul\":916:926   */\n      dup3\n        /* \"#utility.yul\":913:947   */\n      gt\n        /* \"#utility.yul\":910:972   */\n      or\n        /* \"#utility.yul\":907:995   */\n      iszero\n      tag_71\n      jumpi\n        /* \"#utility.yul\":975:993   */\n      tag_72\n      tag_28\n      jump\t// in\n    tag_72:\n        /* \"#utility.yul\":907:995   */\n    tag_71:\n        /* \"#utility.yul\":1015:1025   */\n      dup1\n        /* \"#utility.yul\":1011:1013   */\n      0x40\n        /* \"#utility.yul\":1004:1026   */\n      mstore\n        /* \"#utility.yul\":794:1032   */\n      pop\n        /* \"#utility.yul\":751:1032   */\n      pop\n      pop\n      jump\t// out\n        /* \"#utility.yul\":1038:1167   */\n    tag_30:\n        /* \"#utility.yul\":1072:1078   */\n      0x00\n        /* \"#utility.yul\":1099:1119   */\n      tag_74\n      tag_23\n      jump\t// in\n    tag_74:\n        /* \"#utility.yul\":1089:1119   */\n      swap1\n      pop\n        /* \"#utility.yul\":1128:1161   */\n      tag_75\n        /* \"#utility.yul\":1156:1160   */\n      dup3\n        /* \"#utility.yul\":1148:1154   */\n      dup3\n        /* \"#utility.yul\":1128:1161   */\n      tag_29\n      jump\t// in\n    tag_75:\n        /* \"#utility.yul\":1038:1167   */\n      swap2\n      swap1\n      pop\n      jump\t// out\n        /* \"#utility.yul\":1173:1483   */\n    tag_31:\n        /* \"#utility.yul\":1249:1253   */\n      0x00\n        /* \"#utility.yul\":1339:1357   */\n      0xffffffffffffffff\n        /* \"#utility.yul\":1331:1337   */\n      dup3\n        /* \"#utility.yul\":1328:1358   */\n      gt\n        /* \"#utility.yul\":1325:1381   */\n      iszero\n      tag_77\n      jumpi\n        /* \"#utility.yul\":1361:1379   */\n      tag_78\n      tag_28\n      jump\t// in\n    tag_78:\n        /* \"#utility.yul\":1325:1381   */\n    tag_77:\n        /* \"#utility.yul\":1411:1415   */\n      0x20\n        /* \"#utility.yul\":1403:1409   */\n      dup3\n        /* \"#utility.yul\":1399:1416   */\n      mul\n        /* \"#utility.yul\":1391:1416   */\n      swap1\n      pop\n        /* \"#utility.yul\":1471:1475   */\n      0x20\n        /* \"#utility.yul\":1465:1469   */\n      dup2\n        /* \"#utility.yul\":1461:1476   */\n      add\n        /* \"#utility.yul\":1453:1476   */\n      swap1\n      pop\n        /* \"#utility.yul\":1173:1483   */\n      swap2\n      swap1\n      pop\n      jump\t// out\n        /* \"#utility.yul\":1489:1606   */\n    tag_32:\n        /* \"#utility.yul\":1598:1599   */\n      0x00\n        /* \"#utility.yul\":1595:1596   */\n      dup1\n        /* \"#utility.yul\":1588:1600   */\n      revert\n        /* \"#utility.yul\":1612:1688   */\n    tag_33:\n        /* \"#utility.yul\":1648:1655   */\n      0x00\n        /* \"#utility.yul\":1677:1682   */\n      dup2\n        /* \"#utility.yul\":1666:1682   */\n      swap1\n      pop\n        /* \"#utility.yul\":1612:1688   */\n      swap2\n      swap1\n      pop\n      jump\t// out\n        /* \"#utility.yul\":1694:1814   */\n    tag_34:\n        /* \"#utility.yul\":1766:1789   */\n      tag_82\n        /* \"#utility.yul\":1783:1788   */\n      dup2\n        /* \"#utility.yul\":1766:1789   */\n      tag_33\n      jump\t// in\n    tag_82:\n        /* \"#utility.yul\":1759:1764   */\n      dup2\n        /* \"#utility.yul\":1756:1790   */\n      eq\n        /* \"#utility.yul\":1746:1808   */\n      tag_83\n      jumpi\n        /* \"#utility.yul\":1804:1805   */\n      0x00\n        /* \"#utility.yul\":1801:1802   */\n      dup1\n        /* \"#utility.yul\":1794:1806   */\n      revert\n        /* \"#utility.yul\":1746:1808   */\n    tag_83:\n        /* \"#utility.yul\":1694:1814   */\n      pop\n      jump\t// out\n        /* \"#utility.yul\":1820:1957   */\n    tag_35:\n        /* \"#utility.yul\":1865:1870   */\n      0x00\n        /* \"#utility.yul\":1903:1909   */\n      dup2\n        /* \"#utility.yul\":1890:1910   */\n      calldataload\n        /* \"#utility.yul\":1881:1910   */\n      swap1\n      pop\n        /* \"#utility.yul\":1919:1951   */\n      tag_85\n        /* \"#utility.yul\":1945:1950   */\n      dup2\n        /* \"#utility.yul\":1919:1951   */\n      tag_34\n      jump\t// in\n    tag_85:\n        /* \"#utility.yul\":1820:1957   */\n      swap3\n      swap2\n      pop\n      pop\n      jump\t// out\n        /* \"#utility.yul\":1979:2686   */\n    tag_36:\n        /* \"#utility.yul\":2074:2079   */\n      0x00\n        /* \"#utility.yul\":2099:2179   */\n      tag_87\n        /* \"#utility.yul\":2115:2178   */\n      tag_88\n        /* \"#utility.yul\":2171:2177   */\n      dup5\n        /* \"#utility.yul\":2115:2178   */\n      tag_31\n      jump\t// in\n    tag_88:\n        /* \"#utility.yul\":2099:2179   */\n      tag_30\n      jump\t// in\n    tag_87:\n        /* \"#utility.yul\":2090:2179   */\n      swap1\n      pop\n        /* \"#utility.yul\":2199:2204   */\n      dup1\n        /* \"#utility.yul\":2228:2234   */\n      dup4\n        /* \"#utility.yul\":2221:2226   */\n      dup3\n        /* \"#utility.yul\":2214:2235   */\n      mstore\n        /* \"#utility.yul\":2262:2266   */\n      0x20\n        /* \"#utility.yul\":2255:2260   */\n      dup3\n        /* \"#utility.yul\":2251:2267   */\n      add\n        /* \"#utility.yul\":2244:2267   */\n      swap1\n      pop\n        /* \"#utility.yul\":2315:2319   */\n      0x20\n        /* \"#utility.yul\":2307:2313   */\n      dup5\n        /* \"#utility.yul\":2303:2320   */\n      mul\n        /* \"#utility.yul\":2295:2301   */\n      dup4\n        /* \"#utility.yul\":2291:2321   */\n      add\n        /* \"#utility.yul\":2344:2347   */\n      dup6\n        /* \"#utility.yul\":2336:2342   */\n      dup2\n        /* \"#utility.yul\":2333:2348   */\n      gt\n        /* \"#utility.yul\":2330:2452   */\n      iszero\n      tag_89\n      jumpi\n        /* \"#utility.yul\":2363:2442   */\n      tag_90\n      tag_32\n      jump\t// in\n    tag_90:\n        /* \"#utility.yul\":2330:2452   */\n    tag_89:\n        /* \"#utility.yul\":2478:2484   */\n      dup4\n        /* \"#utility.yul\":2461:2680   */\n    tag_91:\n        /* \"#utility.yul\":2495:2501   */\n      dup2\n        /* \"#utility.yul\":2490:2493   */\n      dup2\n        /* \"#utility.yul\":2487:2502   */\n      lt\n        /* \"#utility.yul\":2461:2680   */\n      iszero\n      tag_93\n      jumpi\n        /* \"#utility.yul\":2570:2573   */\n      dup1\n        /* \"#utility.yul\":2599:2635   */\n      tag_94\n        /* \"#utility.yul\":2631:2634   */\n      dup9\n        /* \"#utility.yul\":2619:2629   */\n      dup3\n        /* \"#utility.yul\":2599:2635   */\n      tag_35\n      jump\t// in\n    tag_94:\n        /* \"#utility.yul\":2594:2597   */\n      dup5\n        /* \"#utility.yul\":2587:2636   */\n      mstore\n        /* \"#utility.yul\":2665:2669   */\n      0x20\n        /* \"#utility.yul\":2660:2663   */\n      dup5\n        /* \"#utility.yul\":2656:2670   */\n      add\n        /* \"#utility.yul\":2649:2670   */\n      swap4\n      pop\n        /* \"#utility.yul\":2537:2680   */\n      pop\n        /* \"#utility.yul\":2521:2525   */\n      0x20\n        /* \"#utility.yul\":2516:2519   */\n      dup2\n        /* \"#utility.yul\":2512:2526   */\n      add\n        /* \"#utility.yul\":2505:2526   */\n      swap1\n      pop\n        /* \"#utility.yul\":2461:2680   */\n      jump(tag_91)\n    tag_93:\n        /* \"#utility.yul\":2465:2486   */\n      pop\n        /* \"#utility.yul\":2080:2686   */\n      pop\n      pop\n        /* \"#utility.yul\":1979:2686   */\n      swap4\n      swap3\n      pop\n      pop\n      pop\n      jump\t// out\n        /* \"#utility.yul\":2708:3076   */\n    tag_37:\n        /* \"#utility.yul\":2778:2783   */\n      0x00\n        /* \"#utility.yul\":2827:2830   */\n      dup3\n        /* \"#utility.yul\":2820:2824   */\n      0x1f\n        /* \"#utility.yul\":2812:2818   */\n      dup4\n        /* \"#utility.yul\":2808:2825   */\n      add\n        /* \"#utility.yul\":2804:2831   */\n      slt\n        /* \"#utility.yul\":2794:2916   */\n      tag_96\n      jumpi\n        /* \"#utility.yul\":2835:2914   */\n      tag_97\n      tag_26\n      jump\t// in\n    tag_97:\n        /* \"#utility.yul\":2794:2916   */\n    tag_96:\n        /* \"#utility.yul\":2952:2958   */\n      dup2\n        /* \"#utility.yul\":2939:2959   */\n      calldataload\n        /* \"#utility.yul\":2977:3070   */\n      tag_98\n        /* \"#utility.yul\":3066:3069   */\n      dup5\n        /* \"#utility.yul\":3058:3064   */\n      dup3\n        /* \"#utility.yul\":3051:3055   */\n      0x20\n        /* \"#utility.yul\":3043:3049   */\n      dup7\n        /* \"#utility.yul\":3039:3056   */\n      add\n        /* \"#utility.yul\":2977:3070   */\n      tag_36\n      jump\t// in\n    tag_98:\n        /* \"#utility.yul\":2968:3070   */\n      swap2\n      pop\n        /* \"#utility.yul\":2784:3076   */\n      pop\n        /* \"#utility.yul\":2708:3076   */\n      swap3\n      swap2\n      pop\n      pop\n      jump\t// out\n        /* \"#utility.yul\":3082:3393   */\n    tag_38:\n        /* \"#utility.yul\":3159:3163   */\n      0x00\n        /* \"#utility.yul\":3249:3267   */\n      0xffffffffffffffff\n        /* \"#utility.yul\":3241:3247   */\n      dup3\n        /* \"#utility.yul\":3238:3268   */\n      gt\n        /* \"#utility.yul\":3235:3291   */\n      iszero\n      tag_100\n      jumpi\n        /* \"#utility.yul\":3271:3289   */\n      tag_101\n      tag_28\n      jump\t// in\n    tag_101:\n        /* \"#utility.yul\":3235:3291   */\n    tag_100:\n        /* \"#utility.yul\":3321:3325   */\n      0x20\n        /* \"#utility.yul\":3313:3319   */\n      dup3\n        /* \"#utility.yul\":3309:3326   */\n      mul\n        /* \"#utility.yul\":3301:3326   */\n      swap1\n      pop\n        /* \"#utility.yul\":3381:3385   */\n      0x20\n        /* \"#utility.yul\":3375:3379   */\n      dup2\n        /* \"#utility.yul\":3371:3386   */\n      add\n        /* \"#utility.yul\":3363:3386   */\n      swap1\n      pop\n        /* \"#utility.yul\":3082:3393   */\n      swap2\n      swap1\n      pop\n      jump\t// out\n        /* \"#utility.yul\":3399:3476   */\n    tag_39:\n        /* \"#utility.yul\":3436:3443   */\n      0x00\n        /* \"#utility.yul\":3465:3470   */\n      dup2\n        /* \"#utility.yul\":3454:3470   */\n      swap1\n      pop\n        /* \"#utility.yul\":3399:3476   */\n      swap2\n      swap1\n      pop\n      jump\t// out\n        /* \"#utility.yul\":3482:3604   */\n    tag_40:\n        /* \"#utility.yul\":3555:3579   */\n      tag_104\n        /* \"#utility.yul\":3573:3578   */\n      dup2\n        /* \"#utility.yul\":3555:3579   */\n      tag_39\n      jump\t// in\n    tag_104:\n        /* \"#utility.yul\":3548:3553   */\n      dup2\n        /* \"#utility.yul\":3545:3580   */\n      eq\n        /* \"#utility.yul\":3535:3598   */\n      tag_105\n      jumpi\n        /* \"#utility.yul\":3594:3595   */\n      0x00\n        /* \"#utility.yul\":3591:3592   */\n      dup1\n        /* \"#utility.yul\":3584:3596   */\n      revert\n        /* \"#utility.yul\":3535:3598   */\n    tag_105:\n        /* \"#utility.yul\":3482:3604   */\n      pop\n      jump\t// out\n        /* \"#utility.yul\":3610:3749   */\n    tag_41:\n        /* \"#utility.yul\":3656:3661   */\n      0x00\n        /* \"#utility.yul\":3694:3700   */\n      dup2\n        /* \"#utility.yul\":3681:3701   */\n      calldataload\n        /* \"#utility.yul\":3672:3701   */\n      swap1\n      pop\n        /* \"#utility.yul\":3710:3743   */\n      tag_107\n        /* \"#utility.yul\":3737:3742   */\n      dup2\n        /* \"#utility.yul\":3710:3743   */\n      tag_40\n      jump\t// in\n    tag_107:\n        /* \"#utility.yul\":3610:3749   */\n      swap3\n      swap2\n      pop\n      pop\n      jump\t// out\n        /* \"#utility.yul\":3772:4482   */\n    tag_42:\n        /* \"#utility.yul\":3868:3873   */\n      0x00\n        /* \"#utility.yul\":3893:3974   */\n      tag_109\n        /* \"#utility.yul\":3909:3973   */\n      tag_110\n        /* \"#utility.yul\":3966:3972   */\n      dup5\n        /* \"#utility.yul\":3909:3973   */\n      tag_38\n      jump\t// in\n    tag_110:\n        /* \"#utility.yul\":3893:3974   */\n      tag_30\n      jump\t// in\n    tag_109:\n        /* \"#utility.yul\":3884:3974   */\n      swap1\n      pop\n        /* \"#utility.yul\":3994:3999   */\n      dup1\n        /* \"#utility.yul\":4023:4029   */\n      dup4\n        /* \"#utility.yul\":4016:4021   */\n      dup3\n        /* \"#utility.yul\":4009:4030   */\n      mstore\n        /* \"#utility.yul\":4057:4061   */\n      0x20\n        /* \"#utility.yul\":4050:4055   */\n      dup3\n        /* \"#utility.yul\":4046:4062   */\n      add\n        /* \"#utility.yul\":4039:4062   */\n      swap1\n      pop\n        /* \"#utility.yul\":4110:4114   */\n      0x20\n        /* \"#utility.yul\":4102:4108   */\n      dup5\n        /* \"#utility.yul\":4098:4115   */\n      mul\n        /* \"#utility.yul\":4090:4096   */\n      dup4\n        /* \"#utility.yul\":4086:4116   */\n      add\n        /* \"#utility.yul\":4139:4142   */\n      dup6\n        /* \"#utility.yul\":4131:4137   */\n      dup2\n        /* \"#utility.yul\":4128:4143   */\n      gt\n        /* \"#utility.yul\":4125:4247   */\n      iszero\n      tag_111\n      jumpi\n        /* \"#utility.yul\":4158:4237   */\n      tag_112\n      tag_32\n      jump\t// in\n    tag_112:\n        /* \"#utility.yul\":4125:4247   */\n    tag_111:\n        /* \"#utility.yul\":4273:4279   */\n      dup4\n        /* \"#utility.yul\":4256:4476   */\n    tag_113:\n        /* \"#utility.yul\":4290:4296   */\n      dup2\n        /* \"#utility.yul\":4285:4288   */\n      dup2\n        /* \"#utility.yul\":4282:4297   */\n      lt\n        /* \"#utility.yul\":4256:4476   */\n      iszero\n      tag_115\n      jumpi\n        /* \"#utility.yul\":4365:4368   */\n      dup1\n        /* \"#utility.yul\":4394:4431   */\n      tag_116\n        /* \"#utility.yul\":4427:4430   */\n      dup9\n        /* \"#utility.yul\":4415:4425   */\n      dup3\n        /* \"#utility.yul\":4394:4431   */\n      tag_41\n      jump\t// in\n    tag_116:\n        /* \"#utility.yul\":4389:4392   */\n      dup5\n        /* \"#utility.yul\":4382:4432   */\n      mstore\n        /* \"#utility.yul\":4461:4465   */\n      0x20\n        /* \"#utility.yul\":4456:4459   */\n      dup5\n        /* \"#utility.yul\":4452:4466   */\n      add\n        /* \"#utility.yul\":4445:4466   */\n      swap4\n      pop\n        /* \"#utility.yul\":4332:4476   */\n      pop\n        /* \"#utility.yul\":4316:4320   */\n      0x20\n        /* \"#utility.yul\":4311:4314   */\n      dup2\n        /* \"#utility.yul\":4307:4321   */\n      add\n        /* \"#utility.yul\":4300:4321   */\n      swap1\n      pop\n        /* \"#utility.yul\":4256:4476   */\n      jump(tag_113)\n    tag_115:\n        /* \"#utility.yul\":4260:4281   */\n      pop\n        /* \"#utility.yul\":3874:4482   */\n      pop\n      pop\n        /* \"#utility.yul\":3772:4482   */\n      swap4\n      swap3\n      pop\n      pop\n      pop\n      jump\t// out\n        /* \"#utility.yul\":4505:4875   */\n    tag_43:\n        /* \"#utility.yul\":4576:4581   */\n      0x00\n        /* \"#utility.yul\":4625:4628   */\n      dup3\n        /* \"#utility.yul\":4618:4622   */\n      0x1f\n        /* \"#utility.yul\":4610:4616   */\n      dup4\n        /* \"#utility.yul\":4606:4623   */\n      add\n        /* \"#utility.yul\":4602:4629   */\n      slt\n        /* \"#utility.yul\":4592:4714   */\n      tag_118\n      jumpi\n        /* \"#utility.yul\":4633:4712   */\n      tag_119\n      tag_26\n      jump\t// in\n    tag_119:\n        /* \"#utility.yul\":4592:4714   */\n    tag_118:\n        /* \"#utility.yul\":4750:4756   */\n      dup2\n        /* \"#utility.yul\":4737:4757   */\n      calldataload\n        /* \"#utility.yul\":4775:4869   */\n      tag_120\n        /* \"#utility.yul\":4865:4868   */\n      dup5\n        /* \"#utility.yul\":4857:4863   */\n      dup3\n        /* \"#utility.yul\":4850:4854   */\n      0x20\n        /* \"#utility.yul\":4842:4848   */\n      dup7\n        /* \"#utility.yul\":4838:4855   */\n      add\n        /* \"#utility.yul\":4775:4869   */\n      tag_42\n      jump\t// in\n    tag_120:\n        /* \"#utility.yul\":4766:4869   */\n      swap2\n      pop\n        /* \"#utility.yul\":4582:4875   */\n      pop\n        /* \"#utility.yul\":4505:4875   */\n      swap3\n      swap2\n      pop\n      pop\n      jump\t// out\n        /* \"#utility.yul\":4881:5773   */\n    tag_6:\n        /* \"#utility.yul\":4998:5004   */\n      0x00\n        /* \"#utility.yul\":5006:5012   */\n      dup1\n        /* \"#utility.yul\":5055:5057   */\n      0x40\n        /* \"#utility.yul\":5043:5052   */\n      dup4\n        /* \"#utility.yul\":5034:5041   */\n      dup6\n        /* \"#utility.yul\":5030:5053   */\n      sub\n        /* \"#utility.yul\":5026:5058   */\n      slt\n        /* \"#utility.yul\":5023:5142   */\n      iszero\n      tag_122\n      jumpi\n        /* \"#utility.yul\":5061:5140   */\n      tag_123\n      tag_24\n      jump\t// in\n    tag_123:\n        /* \"#utility.yul\":5023:5142   */\n    tag_122:\n        /* \"#utility.yul\":5209:5210   */\n      0x00\n        /* \"#utility.yul\":5198:5207   */\n      dup4\n        /* \"#utility.yul\":5194:5211   */\n      add\n        /* \"#utility.yul\":5181:5212   */\n      calldataload\n        /* \"#utility.yul\":5239:5257   */\n      0xffffffffffffffff\n        /* \"#utility.yul\":5231:5237   */\n      dup2\n        /* \"#utility.yul\":5228:5258   */\n      gt\n        /* \"#utility.yul\":5225:5342   */\n      iszero\n      tag_124\n      jumpi\n        /* \"#utility.yul\":5261:5340   */\n      tag_125\n      tag_25\n      jump\t// in\n    tag_125:\n        /* \"#utility.yul\":5225:5342   */\n    tag_124:\n        /* \"#utility.yul\":5366:5443   */\n      tag_126\n        /* \"#utility.yul\":5435:5442   */\n      dup6\n        /* \"#utility.yul\":5426:5432   */\n      dup3\n        /* \"#utility.yul\":5415:5424   */\n      dup7\n        /* \"#utility.yul\":5411:5433   */\n      add\n        /* \"#utility.yul\":5366:5443   */\n      tag_37\n      jump\t// in\n    tag_126:\n        /* \"#utility.yul\":5356:5443   */\n      swap3\n      pop\n        /* \"#utility.yul\":5152:5453   */\n      pop\n        /* \"#utility.yul\":5520:5522   */\n      0x20\n        /* \"#utility.yul\":5509:5518   */\n      dup4\n        /* \"#utility.yul\":5505:5523   */\n      add\n        /* \"#utility.yul\":5492:5524   */\n      calldataload\n        /* \"#utility.yul\":5551:5569   */\n      0xffffffffffffffff\n        /* \"#utility.yul\":5543:5549   */\n      dup2\n        /* \"#utility.yul\":5540:5570   */\n      gt\n        /* \"#utility.yul\":5537:5654   */\n      iszero\n      tag_127\n      jumpi\n        /* \"#utility.yul\":5573:5652   */\n      tag_128\n      tag_25\n      jump\t// in\n    tag_128:\n        /* \"#utility.yul\":5537:5654   */\n    tag_127:\n        /* \"#utility.yul\":5678:5756   */\n      tag_129\n        /* \"#utility.yul\":5748:5755   */\n      dup6\n        /* \"#utility.yul\":5739:5745   */\n      dup3\n        /* \"#utility.yul\":5728:5737   */\n      dup7\n        /* \"#utility.yul\":5724:5746   */\n      add\n        /* \"#utility.yul\":5678:5756   */\n      tag_43\n      jump\t// in\n    tag_129:\n        /* \"#utility.yul\":5668:5756   */\n      swap2\n      pop\n        /* \"#utility.yul\":5463:5766   */\n      pop\n        /* \"#utility.yul\":4881:5773   */\n      swap3\n      pop\n      swap3\n      swap1\n      pop\n      jump\t// out\n        /* \"#utility.yul\":5779:5894   */\n    tag_44:\n        /* \"#utility.yul\":5864:5887   */\n      tag_131\n        /* \"#utility.yul\":5881:5886   */\n      dup2\n        /* \"#utility.yul\":5864:5887   */\n      tag_33\n      jump\t// in\n    tag_131:\n        /* \"#utility.yul\":5859:5862   */\n      dup3\n        /* \"#utility.yul\":5852:5888   */\n      mstore\n        /* \"#utility.yul\":5779:5894   */\n      pop\n      pop\n      jump\t// out\n        /* \"#utility.yul\":5900:6018   */\n    tag_45:\n        /* \"#utility.yul\":5987:6011   */\n      tag_133\n        /* \"#utility.yul\":6005:6010   */\n      dup2\n        /* \"#utility.yul\":5987:6011   */\n      tag_39\n      jump\t// in\n    tag_133:\n        /* \"#utility.yul\":5982:5985   */\n      dup3\n        /* \"#utility.yul\":5975:6012   */\n      mstore\n        /* \"#utility.yul\":5900:6018   */\n      pop\n      pop\n      jump\t// out\n        /* \"#utility.yul\":6024:6352   */\n    tag_9:\n        /* \"#utility.yul\":6143:6147   */\n      0x00\n        /* \"#utility.yul\":6181:6183   */\n      0x40\n        /* \"#utility.yul\":6170:6179   */\n      dup3\n        /* \"#utility.yul\":6166:6184   */\n      add\n        /* \"#utility.yul\":6158:6184   */\n      swap1\n      pop\n        /* \"#utility.yul\":6194:6263   */\n      tag_135\n        /* \"#utility.yul\":6260:6261   */\n      0x00\n        /* \"#utility.yul\":6249:6258   */\n      dup4\n        /* \"#utility.yul\":6245:6262   */\n      add\n        /* \"#utility.yul\":6236:6242   */\n      dup6\n        /* \"#utility.yul\":6194:6263   */\n      tag_44\n      jump\t// in\n    tag_135:\n        /* \"#utility.yul\":6273:6345   */\n      tag_136\n        /* \"#utility.yul\":6341:6343   */\n      0x20\n        /* \"#utility.yul\":6330:6339   */\n      dup4\n        /* \"#utility.yul\":6326:6344   */\n      add\n        /* \"#utility.yul\":6317:6323   */\n      dup5\n        /* \"#utility.yul\":6273:6345   */\n      tag_45\n      jump\t// in\n    tag_136:\n        /* \"#utility.yul\":6024:6352   */\n      swap4\n      swap3\n      pop\n      pop\n      pop\n      jump\t// out\n        /* \"#utility.yul\":6358:6471   */\n    tag_46:\n        /* \"#utility.yul\":6424:6430   */\n      0x00\n        /* \"#utility.yul\":6458:6463   */\n      dup2\n        /* \"#utility.yul\":6452:6464   */\n      mload\n        /* \"#utility.yul\":6442:6464   */\n      swap1\n      pop\n        /* \"#utility.yul\":6358:6471   */\n      swap2\n      swap1\n      pop\n      jump\t// out\n        /* \"#utility.yul\":6477:6668   */\n    tag_47:\n        /* \"#utility.yul\":6583:6594   */\n      0x00\n        /* \"#utility.yul\":6617:6623   */\n      dup3\n        /* \"#utility.yul\":6612:6615   */\n      dup3\n        /* \"#utility.yul\":6605:6624   */\n      mstore\n        /* \"#utility.yul\":6657:6661   */\n      0x20\n        /* \"#utility.yul\":6652:6655   */\n      dup3\n        /* \"#utility.yul\":6648:6662   */\n      add\n        /* \"#utility.yul\":6633:6662   */\n      swap1\n      pop\n        /* \"#utility.yul\":6477:6668   */\n      swap3\n      swap2\n      pop\n      pop\n      jump\t// out\n        /* \"#utility.yul\":6674:6805   */\n    tag_48:\n        /* \"#utility.yul\":6740:6744   */\n      0x00\n        /* \"#utility.yul\":6763:6766   */\n      dup2\n        /* \"#utility.yul\":6755:6766   */\n      swap1\n      pop\n        /* \"#utility.yul\":6793:6797   */\n      0x20\n        /* \"#utility.yul\":6788:6791   */\n      dup3\n        /* \"#utility.yul\":6784:6798   */\n      add\n        /* \"#utility.yul\":6776:6798   */\n      swap1\n      pop\n        /* \"#utility.yul\":6674:6805   */\n      swap2\n      swap1\n      pop\n      jump\t// out\n        /* \"#utility.yul\":6811:6924   */\n    tag_49:\n        /* \"#utility.yul\":6894:6917   */\n      tag_141\n        /* \"#utility.yul\":6911:6916   */\n      dup2\n        /* \"#utility.yul\":6894:6917   */\n      tag_33\n      jump\t// in\n    tag_141:\n        /* \"#utility.yul\":6889:6892   */\n      dup3\n        /* \"#utility.yul\":6882:6918   */\n      mstore\n        /* \"#utility.yul\":6811:6924   */\n      pop\n      pop\n      jump\t// out\n        /* \"#utility.yul\":6930:7121   */\n    tag_50:\n        /* \"#utility.yul\":7005:7015   */\n      0x00\n        /* \"#utility.yul\":7026:7078   */\n      tag_143\n        /* \"#utility.yul\":7074:7077   */\n      dup4\n        /* \"#utility.yul\":7066:7072   */\n      dup4\n        /* \"#utility.yul\":7026:7078   */\n      tag_49\n      jump\t// in\n    tag_143:\n        /* \"#utility.yul\":7110:7114   */\n      0x20\n        /* \"#utility.yul\":7105:7108   */\n      dup4\n        /* \"#utility.yul\":7101:7115   */\n      add\n        /* \"#utility.yul\":7087:7115   */\n      swap1\n      pop\n        /* \"#utility.yul\":6930:7121   */\n      swap3\n      swap2\n      pop\n      pop\n      jump\t// out\n        /* \"#utility.yul\":7127:7239   */\n    tag_51:\n        /* \"#utility.yul\":7196:7200   */\n      0x00\n        /* \"#utility.yul\":7228:7232   */\n      0x20\n        /* \"#utility.yul\":7223:7226   */\n      dup3\n        /* \"#utility.yul\":7219:7233   */\n      add\n        /* \"#utility.yul\":7211:7233   */\n      swap1\n      pop\n        /* \"#utility.yul\":7127:7239   */\n      swap2\n      swap1\n      pop\n      jump\t// out\n        /* \"#utility.yul\":7273:8021   */\n    tag_52:\n        /* \"#utility.yul\":7398:7401   */\n      0x00\n        /* \"#utility.yul\":7427:7480   */\n      tag_146\n        /* \"#utility.yul\":7474:7479   */\n      dup3\n        /* \"#utility.yul\":7427:7480   */\n      tag_46\n      jump\t// in\n    tag_146:\n        /* \"#utility.yul\":7496:7589   */\n      tag_147\n        /* \"#utility.yul\":7582:7588   */\n      dup2\n        /* \"#utility.yul\":7577:7580   */\n      dup6\n        /* \"#utility.yul\":7496:7589   */\n      tag_47\n      jump\t// in\n    tag_147:\n        /* \"#utility.yul\":7489:7589   */\n      swap4\n      pop\n        /* \"#utility.yul\":7613:7668   */\n      tag_148\n        /* \"#utility.yul\":7662:7667   */\n      dup4\n        /* \"#utility.yul\":7613:7668   */\n      tag_48\n      jump\t// in\n    tag_148:\n        /* \"#utility.yul\":7691:7698   */\n      dup1\n        /* \"#utility.yul\":7722:7723   */\n      0x00\n        /* \"#utility.yul\":7707:7996   */\n    tag_149:\n        /* \"#utility.yul\":7732:7738   */\n      dup4\n        /* \"#utility.yul\":7729:7730   */\n      dup2\n        /* \"#utility.yul\":7726:7739   */\n      lt\n        /* \"#utility.yul\":7707:7996   */\n      iszero\n      tag_151\n      jumpi\n        /* \"#utility.yul\":7808:7814   */\n      dup2\n        /* \"#utility.yul\":7802:7815   */\n      mload\n        /* \"#utility.yul\":7835:7904   */\n      tag_152\n        /* \"#utility.yul\":7900:7903   */\n      dup9\n        /* \"#utility.yul\":7885:7898   */\n      dup3\n        /* \"#utility.yul\":7835:7904   */\n      tag_50\n      jump\t// in\n    tag_152:\n        /* \"#utility.yul\":7828:7904   */\n      swap8\n      pop\n        /* \"#utility.yul\":7927:7986   */\n      tag_153\n        /* \"#utility.yul\":7979:7985   */\n      dup4\n        /* \"#utility.yul\":7927:7986   */\n      tag_51\n      jump\t// in\n    tag_153:\n        /* \"#utility.yul\":7917:7986   */\n      swap3\n      pop\n        /* \"#utility.yul\":7767:7996   */\n      pop\n        /* \"#utility.yul\":7754:7755   */\n      0x01\n        /* \"#utility.yul\":7751:7752   */\n      dup2\n        /* \"#utility.yul\":7747:7756   */\n      add\n        /* \"#utility.yul\":7742:7756   */\n      swap1\n      pop\n        /* \"#utility.yul\":7707:7996   */\n      jump(tag_149)\n    tag_151:\n        /* \"#utility.yul\":7711:7725   */\n      pop\n        /* \"#utility.yul\":8012:8015   */\n      dup6\n        /* \"#utility.yul\":8005:8015   */\n      swap4\n      pop\n        /* \"#utility.yul\":7403:8021   */\n      pop\n      pop\n      pop\n        /* \"#utility.yul\":7273:8021   */\n      swap3\n      swap2\n      pop\n      pop\n      jump\t// out\n        /* \"#utility.yul\":8027:8412   */\n    tag_12:\n        /* \"#utility.yul\":8176:8180   */\n      0x00\n        /* \"#utility.yul\":8214:8216   */\n      0x20\n        /* \"#utility.yul\":8203:8212   */\n      dup3\n        /* \"#utility.yul\":8199:8217   */\n      add\n        /* \"#utility.yul\":8191:8217   */\n      swap1\n      pop\n        /* \"#utility.yul\":8263:8272   */\n      dup2\n        /* \"#utility.yul\":8257:8261   */\n      dup2\n        /* \"#utility.yul\":8253:8273   */\n      sub\n        /* \"#utility.yul\":8249:8250   */\n      0x00\n        /* \"#utility.yul\":8238:8247   */\n      dup4\n        /* \"#utility.yul\":8234:8251   */\n      add\n        /* \"#utility.yul\":8227:8274   */\n      mstore\n        /* \"#utility.yul\":8291:8405   */\n      tag_155\n        /* \"#utility.yul\":8400:8404   */\n      dup2\n        /* \"#utility.yul\":8391:8397   */\n      dup5\n        /* \"#utility.yul\":8291:8405   */\n      tag_52\n      jump\t// in\n    tag_155:\n        /* \"#utility.yul\":8283:8405   */\n      swap1\n      pop\n        /* \"#utility.yul\":8027:8412   */\n      swap3\n      swap2\n      pop\n      pop\n      jump\t// out\n        /* \"#utility.yul\":8418:8559   */\n    tag_53:\n        /* \"#utility.yul\":8474:8479   */\n      0x00\n        /* \"#utility.yul\":8505:8511   */\n      dup2\n        /* \"#utility.yul\":8499:8512   */\n      mload\n        /* \"#utility.yul\":8490:8512   */\n      swap1\n      pop\n        /* \"#utility.yul\":8521:8553   */\n      tag_157\n        /* \"#utility.yul\":8547:8552   */\n      dup2\n        /* \"#utility.yul\":8521:8553   */\n      tag_34\n      jump\t// in\n    tag_157:\n        /* \"#utility.yul\":8418:8559   */\n      swap3\n      swap2\n      pop\n      pop\n      jump\t// out\n        /* \"#utility.yul\":8565:8914   */\n    tag_16:\n        /* \"#utility.yul\":8634:8640   */\n      0x00\n        /* \"#utility.yul\":8683:8685   */\n      0x20\n        /* \"#utility.yul\":8671:8680   */\n      dup3\n        /* \"#utility.yul\":8662:8669   */\n      dup5\n        /* \"#utility.yul\":8658:8681   */\n      sub\n        /* \"#utility.yul\":8654:8686   */\n      slt\n        /* \"#utility.yul\":8651:8770   */\n      iszero\n      tag_159\n      jumpi\n        /* \"#utility.yul\":8689:8768   */\n      tag_160\n      tag_24\n      jump\t// in\n    tag_160:\n        /* \"#utility.yul\":8651:8770   */\n    tag_159:\n        /* \"#utility.yul\":8809:8810   */\n      0x00\n        /* \"#utility.yul\":8834:8897   */\n      tag_161\n        /* \"#utility.yul\":8889:8896   */\n      dup5\n        /* \"#utility.yul\":8880:8886   */\n      dup3\n        /* \"#utility.yul\":8869:8878   */\n      dup6\n        /* \"#utility.yul\":8865:8887   */\n      add\n        /* \"#utility.yul\":8834:8897   */\n      tag_53\n      jump\t// in\n    tag_161:\n        /* \"#utility.yul\":8824:8897   */\n      swap2\n      pop\n        /* \"#utility.yul\":8780:8907   */\n      pop\n        /* \"#utility.yul\":8565:8914   */\n      swap3\n      swap2\n      pop\n      pop\n      jump\t// out\n        /* \"#utility.yul\":8920:9034   */\n    tag_54:\n        /* \"#utility.yul\":8987:8993   */\n      0x00\n        /* \"#utility.yul\":9021:9026   */\n      dup2\n        /* \"#utility.yul\":9015:9027   */\n      mload\n        /* \"#utility.yul\":9005:9027   */\n      swap1\n      pop\n        /* \"#utility.yul\":8920:9034   */\n      swap2\n      swap1\n      pop\n      jump\t// out\n        /* \"#utility.yul\":9040:9232   */\n    tag_55:\n        /* \"#utility.yul\":9147:9158   */\n      0x00\n        /* \"#utility.yul\":9181:9187   */\n      dup3\n        /* \"#utility.yul\":9176:9179   */\n      dup3\n        /* \"#utility.yul\":9169:9188   */\n      mstore\n        /* \"#utility.yul\":9221:9225   */\n      0x20\n        /* \"#utility.yul\":9216:9219   */\n      dup3\n        /* \"#utility.yul\":9212:9226   */\n      add\n        /* \"#utility.yul\":9197:9226   */\n      swap1\n      pop\n        /* \"#utility.yul\":9040:9232   */\n      swap3\n      swap2\n      pop\n      pop\n      jump\t// out\n        /* \"#utility.yul\":9238:9370   */\n    tag_56:\n        /* \"#utility.yul\":9305:9309   */\n      0x00\n        /* \"#utility.yul\":9328:9331   */\n      dup2\n        /* \"#utility.yul\":9320:9331   */\n      swap1\n      pop\n        /* \"#utility.yul\":9358:9362   */\n      0x20\n        /* \"#utility.yul\":9353:9356   */\n      dup3\n        /* \"#utility.yul\":9349:9363   */\n      add\n        /* \"#utility.yul\":9341:9363   */\n      swap1\n      pop\n        /* \"#utility.yul\":9238:9370   */\n      swap2\n      swap1\n      pop\n      jump\t// out\n        /* \"#utility.yul\":9376:9492   */\n    tag_57:\n        /* \"#utility.yul\":9461:9485   */\n      tag_166\n        /* \"#utility.yul\":9479:9484   */\n      dup2\n        /* \"#utility.yul\":9461:9485   */\n      tag_39\n      jump\t// in\n    tag_166:\n        /* \"#utility.yul\":9456:9459   */\n      dup3\n        /* \"#utility.yul\":9449:9486   */\n      mstore\n        /* \"#utility.yul\":9376:9492   */\n      pop\n      pop\n      jump\t// out\n        /* \"#utility.yul\":9498:9693   */\n    tag_58:\n        /* \"#utility.yul\":9575:9585   */\n      0x00\n        /* \"#utility.yul\":9596:9650   */\n      tag_168\n        /* \"#utility.yul\":9646:9649   */\n      dup4\n        /* \"#utility.yul\":9638:9644   */\n      dup4\n        /* \"#utility.yul\":9596:9650   */\n      tag_57\n      jump\t// in\n    tag_168:\n        /* \"#utility.yul\":9682:9686   */\n      0x20\n        /* \"#utility.yul\":9677:9680   */\n      dup4\n        /* \"#utility.yul\":9673:9687   */\n      add\n        /* \"#utility.yul\":9659:9687   */\n      swap1\n      pop\n        /* \"#utility.yul\":9498:9693   */\n      swap3\n      swap2\n      pop\n      pop\n      jump\t// out\n        /* \"#utility.yul\":9699:9812   */\n    tag_59:\n        /* \"#utility.yul\":9769:9773   */\n      0x00\n        /* \"#utility.yul\":9801:9805   */\n      0x20\n        /* \"#utility.yul\":9796:9799   */\n      dup3\n        /* \"#utility.yul\":9792:9806   */\n      add\n        /* \"#utility.yul\":9784:9806   */\n      swap1\n      pop\n        /* \"#utility.yul\":9699:9812   */\n      swap2\n      swap1\n      pop\n      jump\t// out\n        /* \"#utility.yul\":9848:10604   */\n    tag_60:\n        /* \"#utility.yul\":9975:9978   */\n      0x00\n        /* \"#utility.yul\":10004:10058   */\n      tag_171\n        /* \"#utility.yul\":10052:10057   */\n      dup3\n        /* \"#utility.yul\":10004:10058   */\n      tag_54\n      jump\t// in\n    tag_171:\n        /* \"#utility.yul\":10074:10168   */\n      tag_172\n        /* \"#utility.yul\":10161:10167   */\n      dup2\n        /* \"#utility.yul\":10156:10159   */\n      dup6\n        /* \"#utility.yul\":10074:10168   */\n      tag_55\n      jump\t// in\n    tag_172:\n        /* \"#utility.yul\":10067:10168   */\n      swap4\n      pop\n        /* \"#utility.yul\":10192:10248   */\n      tag_173\n        /* \"#utility.yul\":10242:10247   */\n      dup4\n        /* \"#utility.yul\":10192:10248   */\n      tag_56\n      jump\t// in\n    tag_173:\n        /* \"#utility.yul\":10271:10278   */\n      dup1\n        /* \"#utility.yul\":10302:10303   */\n      0x00\n        /* \"#utility.yul\":10287:10579   */\n    tag_174:\n        /* \"#utility.yul\":10312:10318   */\n      dup4\n        /* \"#utility.yul\":10309:10310   */\n      dup2\n        /* \"#utility.yul\":10306:10319   */\n      lt\n        /* \"#utility.yul\":10287:10579   */\n      iszero\n      tag_176\n      jumpi\n        /* \"#utility.yul\":10388:10394   */\n      dup2\n        /* \"#utility.yul\":10382:10395   */\n      mload\n        /* \"#utility.yul\":10415:10486   */\n      tag_177\n        /* \"#utility.yul\":10482:10485   */\n      dup9\n        /* \"#utility.yul\":10467:10480   */\n      dup3\n        /* \"#utility.yul\":10415:10486   */\n      tag_58\n      jump\t// in\n    tag_177:\n        /* \"#utility.yul\":10408:10486   */\n      swap8\n      pop\n        /* \"#utility.yul\":10509:10569   */\n      tag_178\n        /* \"#utility.yul\":10562:10568   */\n      dup4\n        /* \"#utility.yul\":10509:10569   */\n      tag_59\n      jump\t// in\n    tag_178:\n        /* \"#utility.yul\":10499:10569   */\n      swap3\n      pop\n        /* \"#utility.yul\":10347:10579   */\n      pop\n        /* \"#utility.yul\":10334:10335   */\n      0x01\n        /* \"#utility.yul\":10331:10332   */\n      dup2\n        /* \"#utility.yul\":10327:10336   */\n      add\n        /* \"#utility.yul\":10322:10336   */\n      swap1\n      pop\n        /* \"#utility.yul\":10287:10579   */\n      jump(tag_174)\n    tag_176:\n        /* \"#utility.yul\":10291:10305   */\n      pop\n        /* \"#utility.yul\":10595:10598   */\n      dup6\n        /* \"#utility.yul\":10588:10598   */\n      swap4\n      pop\n        /* \"#utility.yul\":9980:10604   */\n      pop\n      pop\n      pop\n        /* \"#utility.yul\":9848:10604   */\n      swap3\n      swap2\n      pop\n      pop\n      jump\t// out\n        /* \"#utility.yul\":10610:10999   */\n    tag_18:\n        /* \"#utility.yul\":10761:10765   */\n      0x00\n        /* \"#utility.yul\":10799:10801   */\n      0x20\n        /* \"#utility.yul\":10788:10797   */\n      dup3\n        /* \"#utility.yul\":10784:10802   */\n      add\n        /* \"#utility.yul\":10776:10802   */\n      swap1\n      pop\n        /* \"#utility.yul\":10848:10857   */\n      dup2\n        /* \"#utility.yul\":10842:10846   */\n      dup2\n        /* \"#utility.yul\":10838:10858   */\n      sub\n        /* \"#utility.yul\":10834:10835   */\n      0x00\n        /* \"#utility.yul\":10823:10832   */\n      dup4\n        /* \"#utility.yul\":10819:10836   */\n      add\n        /* \"#utility.yul\":10812:10859   */\n      mstore\n        /* \"#utility.yul\":10876:10992   */\n      tag_180\n        /* \"#utility.yul\":10987:10991   */\n      dup2\n        /* \"#utility.yul\":10978:10984   */\n      dup5\n        /* \"#utility.yul\":10876:10992   */\n      tag_60\n      jump\t// in\n    tag_180:\n        /* \"#utility.yul\":10868:10992   */\n      swap1\n      pop\n        /* \"#utility.yul\":10610:10999   */\n      swap3\n      swap2\n      pop\n      pop\n      jump\t// out\n        /* \"#utility.yul\":11005:11148   */\n    tag_61:\n        /* \"#utility.yul\":11062:11067   */\n      0x00\n        /* \"#utility.yul\":11093:11099   */\n      dup2\n        /* \"#utility.yul\":11087:11100   */\n      mload\n        /* \"#utility.yul\":11078:11100   */\n      swap1\n      pop\n        /* \"#utility.yul\":11109:11142   */\n      tag_182\n        /* \"#utility.yul\":11136:11141   */\n      dup2\n        /* \"#utility.yul\":11109:11142   */\n      tag_40\n      jump\t// in\n    tag_182:\n        /* \"#utility.yul\":11005:11148   */\n      swap3\n      swap2\n      pop\n      pop\n      jump\t// out\n        /* \"#utility.yul\":11154:11505   */\n    tag_22:\n        /* \"#utility.yul\":11224:11230   */\n      0x00\n        /* \"#utility.yul\":11273:11275   */\n      0x20\n        /* \"#utility.yul\":11261:11270   */\n      dup3\n        /* \"#utility.yul\":11252:11259   */\n      dup5\n        /* \"#utility.yul\":11248:11271   */\n      sub\n        /* \"#utility.yul\":11244:11276   */\n      slt\n        /* \"#utility.yul\":11241:11360   */\n      iszero\n      tag_184\n      jumpi\n        /* \"#utility.yul\":11279:11358   */\n      tag_185\n      tag_24\n      jump\t// in\n    tag_185:\n        /* \"#utility.yul\":11241:11360   */\n    tag_184:\n        /* \"#utility.yul\":11399:11400   */\n      0x00\n        /* \"#utility.yul\":11424:11488   */\n      tag_186\n        /* \"#utility.yul\":11480:11487   */\n      dup5\n        /* \"#utility.yul\":11471:11477   */\n      dup3\n        /* \"#utility.yul\":11460:11469   */\n      dup6\n        /* \"#utility.yul\":11456:11478   */\n      add\n        /* \"#utility.yul\":11424:11488   */\n      tag_61\n      jump\t// in\n    tag_186:\n        /* \"#utility.yul\":11414:11488   */\n      swap2\n      pop\n        /* \"#utility.yul\":11370:11498   */\n      pop\n        /* \"#utility.yul\":11154:11505   */\n      swap3\n      swap2\n      pop\n      pop\n      jump\t// out\n\n    auxdata: 0xa2646970667358221220dc5c0a43b15baf02acfd1f1fb74aaab764fa6aec50e3ee44aca379ef0bb681c164736f6c63430008120033\n}\n",
				"bytecode": {
					"linkReferences": {
						"contracts/practice/examples/LibraryExample.sol": {
							"Math": [
								{
									"length": 20,
									"start": 135
								},
								{
									"length": 20,
									"start": 257
								}
							]
						}
					},
					"object": "608060405234801561001057600080fd5b50610738806100206000396000f3fe608060405234801561001057600080fd5b506004361061002b5760003560e01c8063bad5067514610030575b600080fd5b61004a600480360381019061004591906103ff565b610061565b604051610058929190610495565b60405180910390f35b6000808373__$acc04b8a49d80a8fc001498b7de18b54af$__63a299573990916040518263ffffffff1660e01b815260040161009d919061057c565b602060405180830381865af41580156100ba573d6000803e3d6000fd5b505050506040513d601f19601f820116820180604052508101906100de91906105b3565b8373__$acc04b8a49d80a8fc001498b7de18b54af$__638bd5868290916040518263ffffffff1660e01b8152600401610117919061069e565b602060405180830381865af4158015610134573d6000803e3d6000fd5b505050506040513d601f19601f8201168201806040525081019061015891906106d5565b915091509250929050565b6000604051905090565b600080fd5b600080fd5b600080fd5b6000601f19601f8301169050919050565b7f4e487b7100000000000000000000000000000000000000000000000000000000600052604160045260246000fd5b6101c58261017c565b810181811067ffffffffffffffff821117156101e4576101e361018d565b5b80604052505050565b60006101f7610163565b905061020382826101bc565b919050565b600067ffffffffffffffff8211156102235761022261018d565b5b602082029050602081019050919050565b600080fd5b6000819050919050565b61024c81610239565b811461025757600080fd5b50565b60008135905061026981610243565b92915050565b600061028261027d84610208565b6101ed565b905080838252602082019050602084028301858111156102a5576102a4610234565b5b835b818110156102ce57806102ba888261025a565b8452602084019350506020810190506102a7565b5050509392505050565b600082601f8301126102ed576102ec610177565b5b81356102fd84826020860161026f565b91505092915050565b600067ffffffffffffffff8211156103215761032061018d565b5b602082029050602081019050919050565b6000819050919050565b61034581610332565b811461035057600080fd5b50565b6000813590506103628161033c565b92915050565b600061037b61037684610306565b6101ed565b9050808382526020820190506020840283018581111561039e5761039d610234565b5b835b818110156103c757806103b38882610353565b8452602084019350506020810190506103a0565b5050509392505050565b600082601f8301126103e6576103e5610177565b5b81356103f6848260208601610368565b91505092915050565b600080604083850312156104165761041561016d565b5b600083013567ffffffffffffffff81111561043457610433610172565b5b610440858286016102d8565b925050602083013567ffffffffffffffff81111561046157610460610172565b5b61046d858286016103d1565b9150509250929050565b61048081610239565b82525050565b61048f81610332565b82525050565b60006040820190506104aa6000830185610477565b6104b76020830184610486565b9392505050565b600081519050919050565b600082825260208201905092915050565b6000819050602082019050919050565b6104f381610239565b82525050565b600061050583836104ea565b60208301905092915050565b6000602082019050919050565b6000610529826104be565b61053381856104c9565b935061053e836104da565b8060005b8381101561056f57815161055688826104f9565b975061056183610511565b925050600181019050610542565b5085935050505092915050565b60006020820190508181036000830152610596818461051e565b905092915050565b6000815190506105ad81610243565b92915050565b6000602082840312156105c9576105c861016d565b5b60006105d78482850161059e565b91505092915050565b600081519050919050565b600082825260208201905092915050565b6000819050602082019050919050565b61061581610332565b82525050565b6000610627838361060c565b60208301905092915050565b6000602082019050919050565b600061064b826105e0565b61065581856105eb565b9350610660836105fc565b8060005b83811015610691578151610678888261061b565b975061068383610633565b925050600181019050610664565b5085935050505092915050565b600060208201905081810360008301526106b88184610640565b905092915050565b6000815190506106cf8161033c565b92915050565b6000602082840312156106eb576106ea61016d565b5b60006106f9848285016106c0565b9150509291505056fea2646970667358221220dc5c0a43b15baf02acfd1f1fb74aaab764fa6aec50e3ee44aca379ef0bb681c164736f6c63430008120033",
					"opcodes": "PUSH1 0x80 PUSH1 0x40 MSTORE CALLVALUE DUP1 ISZERO PUSH2 0x10 JUMPI PUSH1 0x0 DUP1 REVERT JUMPDEST POP PUSH2 0x738 DUP1 PUSH2 0x20 PUSH1 0x0 CODECOPY PUSH1 0x0 RETURN INVALID PUSH1 0x80 PUSH1 0x40 MSTORE CALLVALUE DUP1 ISZERO PUSH2 0x10 JUMPI PUSH1 0x0 DUP1 REVERT JUMPDEST POP PUSH1 0x4 CALLDATASIZE LT PUSH2 0x2B JUMPI PUSH1 0x0 CALLDATALOAD PUSH1 0xE0 SHR DUP1 PUSH4 0xBAD50675 EQ PUSH2 0x30 JUMPI JUMPDEST PUSH1 0x0 DUP1 REVERT JUMPDEST PUSH2 0x4A PUSH1 0x4 DUP1 CALLDATASIZE SUB DUP2 ADD SWAP1 PUSH2 0x45 SWAP2 SWAP1 PUSH2 0x3FF JUMP JUMPDEST PUSH2 0x61 JUMP JUMPDEST PUSH1 0x40 MLOAD PUSH2 0x58 SWAP3 SWAP2 SWAP1 PUSH2 0x495 JUMP JUMPDEST PUSH1 0x40 MLOAD DUP1 SWAP2 SUB SWAP1 RETURN JUMPDEST PUSH1 0x0 DUP1 DUP4 PUSH20 0x0 PUSH4 0xA2995739 SWAP1 SWAP2 PUSH1 0x40 MLOAD DUP3 PUSH4 0xFFFFFFFF AND PUSH1 0xE0 SHL DUP2 MSTORE PUSH1 0x4 ADD PUSH2 0x9D SWAP2 SWAP1 PUSH2 0x57C JUMP JUMPDEST PUSH1 0x20 PUSH1 0x40 MLOAD DUP1 DUP4 SUB DUP2 DUP7 GAS DELEGATECALL ISZERO DUP1 ISZERO PUSH2 0xBA JUMPI RETURNDATASIZE PUSH1 0x0 DUP1 RETURNDATACOPY RETURNDATASIZE PUSH1 0x0 REVERT JUMPDEST POP POP POP POP PUSH1 0x40 MLOAD RETURNDATASIZE PUSH1 0x1F NOT PUSH1 0x1F DUP3 ADD AND DUP3 ADD DUP1 PUSH1 0x40 MSTORE POP DUP2 ADD SWAP1 PUSH2 0xDE SWAP2 SWAP1 PUSH2 0x5B3 JUMP JUMPDEST DUP4 PUSH20 0x0 PUSH4 0x8BD58682 SWAP1 SWAP2 PUSH1 0x40 MLOAD DUP3 PUSH4 0xFFFFFFFF AND PUSH1 0xE0 SHL DUP2 MSTORE PUSH1 0x4 ADD PUSH2 0x117 SWAP2 SWAP1 PUSH2 0x69E JUMP JUMPDEST PUSH1 0x20 PUSH1 0x40 MLOAD DUP1 DUP4 SUB DUP2 DUP7 GAS DELEGATECALL ISZERO DUP1 ISZERO PUSH2 0x134 JUMPI RETURNDATASIZE PUSH1 0x0 DUP1 RETURNDATACOPY RETURNDATASIZE PUSH1 0x0 REVERT JUMPDEST POP POP POP POP PUSH1 0x40 MLOAD RETURNDATASIZE PUSH1 0x1F NOT PUSH1 0x1F DUP3 ADD AND DUP3 ADD DUP1 PUSH1 0x40 MSTORE POP DUP2 ADD SWAP1 PUSH2 0x158 SWAP2 SWAP1 PUSH2 0x6D5 JUMP JUMPDEST SWAP2 POP SWAP2 POP SWAP3 POP SWAP3 SWAP1 POP JUMP JUMPDEST PUSH1 0x0 PUSH1 0x40 MLOAD SWAP1 POP SWAP1 JUMP JUMPDEST PUSH1 0x0 DUP1 REVERT JUMPDEST PUSH1 0x0 DUP1 REVERT JUMPDEST PUSH1 0x0 DUP1 REVERT JUMPDEST PUSH1 0x0 PUSH1 0x1F NOT PUSH1 0x1F DUP4 ADD AND SWAP1 POP SWAP2 SWAP1 POP JUMP JUMPDEST PUSH32 0x4E487B7100000000000000000000000000000000000000000000000000000000 PUSH1 0x0 MSTORE PUSH1 0x41 PUSH1 0x4 MSTORE PUSH1 0x24 PUSH1 0x0 REVERT JUMPDEST PUSH2 0x1C5 DUP3 PUSH2 0x17C JUMP JUMPDEST DUP2 ADD DUP2 DUP2 LT PUSH8 0xFFFFFFFFFFFFFFFF DUP3 GT OR ISZERO PUSH2 0x1E4 JUMPI PUSH2 0x1E3 PUSH2 0x18D JUMP JUMPDEST JUMPDEST DUP1 PUSH1 0x40 MSTORE POP POP POP JUMP JUMPDEST PUSH1 0x0 PUSH2 0x1F7 PUSH2 0x163 JUMP JUMPDEST SWAP1 POP PUSH2 0x203 DUP3 DUP3 PUSH2 0x1BC JUMP JUMPDEST SWAP2 SWAP1 POP JUMP JUMPDEST PUSH1 0x0 PUSH8 0xFFFFFFFFFFFFFFFF DUP3 GT ISZERO PUSH2 0x223 JUMPI PUSH2 0x222 PUSH2 0x18D JUMP JUMPDEST JUMPDEST PUSH1 0x20 DUP3 MUL SWAP1 POP PUSH1 0x20 DUP2 ADD SWAP1 POP SWAP2 SWAP1 POP JUMP JUMPDEST PUSH1 0x0 DUP1 REVERT JUMPDEST PUSH1 0x0 DUP2 SWAP1 POP SWAP2 SWAP1 POP JUMP JUMPDEST PUSH2 0x24C DUP2 PUSH2 0x239 JUMP JUMPDEST DUP2 EQ PUSH2 0x257 JUMPI PUSH1 0x0 DUP1 REVERT JUMPDEST POP JUMP JUMPDEST PUSH1 0x0 DUP2 CALLDATALOAD SWAP1 POP PUSH2 0x269 DUP2 PUSH2 0x243 JUMP JUMPDEST SWAP3 SWAP2 POP POP JUMP JUMPDEST PUSH1 0x0 PUSH2 0x282 PUSH2 0x27D DUP5 PUSH2 0x208 JUMP JUMPDEST PUSH2 0x1ED JUMP JUMPDEST SWAP1 POP DUP1 DUP4 DUP3 MSTORE PUSH1 0x20 DUP3 ADD SWAP1 POP PUSH1 0x20 DUP5 MUL DUP4 ADD DUP6 DUP2 GT ISZERO PUSH2 0x2A5 JUMPI PUSH2 0x2A4 PUSH2 0x234 JUMP JUMPDEST JUMPDEST DUP4 JUMPDEST DUP2 DUP2 LT ISZERO PUSH2 0x2CE JUMPI DUP1 PUSH2 0x2BA DUP9 DUP3 PUSH2 0x25A JUMP JUMPDEST DUP5 MSTORE PUSH1 0x20 DUP5 ADD SWAP4 POP POP PUSH1 0x20 DUP2 ADD SWAP1 POP PUSH2 0x2A7 JUMP JUMPDEST POP POP POP SWAP4 SWAP3 POP POP POP JUMP JUMPDEST PUSH1 0x0 DUP3 PUSH1 0x1F DUP4 ADD SLT PUSH2 0x2ED JUMPI PUSH2 0x2EC PUSH2 0x177 JUMP JUMPDEST JUMPDEST DUP2 CALLDATALOAD PUSH2 0x2FD DUP5 DUP3 PUSH1 0x20 DUP7 ADD PUSH2 0x26F JUMP JUMPDEST SWAP2 POP POP SWAP3 SWAP2 POP POP JUMP JUMPDEST PUSH1 0x0 PUSH8 0xFFFFFFFFFFFFFFFF DUP3 GT ISZERO PUSH2 0x321 JUMPI PUSH2 0x320 PUSH2 0x18D JUMP JUMPDEST JUMPDEST PUSH1 0x20 DUP3 MUL SWAP1 POP PUSH1 0x20 DUP2 ADD SWAP1 POP SWAP2 SWAP1 POP JUMP JUMPDEST PUSH1 0x0 DUP2 SWAP1 POP SWAP2 SWAP1 POP JUMP JUMPDEST PUSH2 0x345 DUP2 PUSH2 0x332 JUMP JUMPDEST DUP2 EQ PUSH2 0x350 JUMPI PUSH1 0x0 DUP1 REVERT JUMPDEST POP JUMP JUMPDEST PUSH1 0x0 DUP2 CALLDATALOAD SWAP1 POP PUSH2 0x362 DUP2 PUSH2 0x33C JUMP JUMPDEST SWAP3 SWAP2 POP POP JUMP JUMPDEST PUSH1 0x0 PUSH2 0x37B PUSH2 0x376 DUP5 PUSH2 0x306 JUMP JUMPDEST PUSH2 0x1ED JUMP JUMPDEST SWAP1 POP DUP1 DUP4 DUP3 MSTORE PUSH1 0x20 DUP3 ADD SWAP1 POP PUSH1 0x20 DUP5 MUL DUP4 ADD DUP6 DUP2 GT ISZERO PUSH2 0x39E JUMPI PUSH2 0x39D PUSH2 0x234 JUMP JUMPDEST JUMPDEST DUP4 JUMPDEST DUP2 DUP2 LT ISZERO PUSH2 0x3C7 JUMPI DUP1 PUSH2 0x3B3 DUP9 DUP3 PUSH2 0x353 JUMP JUMPDEST DUP5 MSTORE PUSH1 0x20 DUP5 ADD SWAP4 POP POP PUSH1 0x20 DUP2 ADD SWAP1 POP PUSH2 0x3A0 JUMP JUMPDEST POP POP POP SWAP4 SWAP3 POP POP POP JUMP JUMPDEST PUSH1 0x0 DUP3 PUSH1 0x1F DUP4 ADD SLT PUSH2 0x3E6 JUMPI PUSH2 0x3E5 PUSH2 0x177 JUMP JUMPDEST JUMPDEST DUP2 CALLDATALOAD PUSH2 0x3F6 DUP5 DUP3 PUSH1 0x20 DUP7 ADD PUSH2 0x368 JUMP JUMPDEST SWAP2 POP POP SWAP3 SWAP2 POP POP JUMP JUMPDEST PUSH1 0x0 DUP1 PUSH1 0x40 DUP4 DUP6 SUB SLT ISZERO PUSH2 0x416 JUMPI PUSH2 0x415 PUSH2 0x16D JUMP JUMPDEST JUMPDEST PUSH1 0x0 DUP4 ADD CALLDATALOAD PUSH8 0xFFFFFFFFFFFFFFFF DUP2 GT ISZERO PUSH2 0x434 JUMPI PUSH2 0x433 PUSH2 0x172 JUMP JUMPDEST JUMPDEST PUSH2 0x440 DUP6 DUP3 DUP7 ADD PUSH2 0x2D8 JUMP JUMPDEST SWAP3 POP POP PUSH1 0x20 DUP4 ADD CALLDATALOAD PUSH8 0xFFFFFFFFFFFFFFFF DUP2 GT ISZERO PUSH2 0x461 JUMPI PUSH2 0x460 PUSH2 0x172 JUMP JUMPDEST JUMPDEST PUSH2 0x46D DUP6 DUP3 DUP7 ADD PUSH2 0x3D1 JUMP JUMPDEST SWAP2 POP POP SWAP3 POP SWAP3 SWAP1 POP JUMP JUMPDEST PUSH2 0x480 DUP2 PUSH2 0x239 JUMP JUMPDEST DUP3 MSTORE POP POP JUMP JUMPDEST PUSH2 0x48F DUP2 PUSH2 0x332 JUMP JUMPDEST DUP3 MSTORE POP POP JUMP JUMPDEST PUSH1 0x0 PUSH1 0x40 DUP3 ADD SWAP1 POP PUSH2 0x4AA PUSH1 0x0 DUP4 ADD DUP6 PUSH2 0x477 JUMP JUMPDEST PUSH2 0x4B7 PUSH1 0x20 DUP4 ADD DUP5 PUSH2 0x486 JUMP JUMPDEST SWAP4 SWAP3 POP POP POP JUMP JUMPDEST PUSH1 0x0 DUP2 MLOAD SWAP1 POP SWAP2 SWAP1 POP JUMP JUMPDEST PUSH1 0x0 DUP3 DUP3 MSTORE PUSH1 0x20 DUP3 ADD SWAP1 POP SWAP3 SWAP2 POP POP JUMP JUMPDEST PUSH1 0x0 DUP2 SWAP1 POP PUSH1 0x20 DUP3 ADD SWAP1 POP SWAP2 SWAP1 POP JUMP JUMPDEST PUSH2 0x4F3 DUP2 PUSH2 0x239 JUMP JUMPDEST DUP3 MSTORE POP POP JUMP JUMPDEST PUSH1 0x0 PUSH2 0x505 DUP4 DUP4 PUSH2 0x4EA JUMP JUMPDEST PUSH1 0x20 DUP4 ADD SWAP1 POP SWAP3 SWAP2 POP POP JUMP JUMPDEST PUSH1 0x0 PUSH1 0x20 DUP3 ADD SWAP1 POP SWAP2 SWAP1 POP JUMP JUMPDEST PUSH1 0x0 PUSH2 0x529 DUP3 PUSH2 0x4BE JUMP JUMPDEST PUSH2 0x533 DUP2 DUP6 PUSH2 0x4C9 JUMP JUMPDEST SWAP4 POP PUSH2 0x53E DUP4 PUSH2 0x4DA JUMP JUMPDEST DUP1 PUSH1 0x0 JUMPDEST DUP4 DUP2 LT ISZERO PUSH2 0x56F JUMPI DUP2 MLOAD PUSH2 0x556 DUP9 DUP3 PUSH2 0x4F9 JUMP JUMPDEST SWAP8 POP PUSH2 0x561 DUP4 PUSH2 0x511 JUMP JUMPDEST SWAP3 POP POP PUSH1 0x1 DUP2 ADD SWAP1 POP PUSH2 0x542 JUMP JUMPDEST POP DUP6 SWAP4 POP POP POP POP SWAP3 SWAP2 POP POP JUMP JUMPDEST PUSH1 0x0 PUSH1 0x20 DUP3 ADD SWAP1 POP DUP2 DUP2 SUB PUSH1 0x0 DUP4 ADD MSTORE PUSH2 0x596 DUP2 DUP5 PUSH2 0x51E JUMP JUMPDEST SWAP1 POP SWAP3 SWAP2 POP POP JUMP JUMPDEST PUSH1 0x0 DUP2 MLOAD SWAP1 POP PUSH2 0x5AD DUP2 PUSH2 0x243 JUMP JUMPDEST SWAP3 SWAP2 POP POP JUMP JUMPDEST PUSH1 0x0 PUSH1 0x20 DUP3 DUP5 SUB SLT ISZERO PUSH2 0x5C9 JUMPI PUSH2 0x5C8 PUSH2 0x16D JUMP JUMPDEST JUMPDEST PUSH1 0x0 PUSH2 0x5D7 DUP5 DUP3 DUP6 ADD PUSH2 0x59E JUMP JUMPDEST SWAP2 POP POP SWAP3 SWAP2 POP POP JUMP JUMPDEST PUSH1 0x0 DUP2 MLOAD SWAP1 POP SWAP2 SWAP1 POP JUMP JUMPDEST PUSH1 0x0 DUP3 DUP3 MSTORE PUSH1 0x20 DUP3 ADD SWAP1 POP SWAP3 SWAP2 POP POP JUMP JUMPDEST PUSH1 0x0 DUP2 SWAP1 POP PUSH1 0x20 DUP3 ADD SWAP1 POP SWAP2 SWAP1 POP JUMP JUMPDEST PUSH2 0x615 DUP2 PUSH2 0x332 JUMP JUMPDEST DUP3 MSTORE POP POP JUMP JUMPDEST PUSH1 0x0 PUSH2 0x627 DUP4 DUP4 PUSH2 0x60C JUMP JUMPDEST PUSH1 0x20 DUP4 ADD SWAP1 POP SWAP3 SWAP2 POP POP JUMP JUMPDEST PUSH1 0x0 PUSH1 0x20 DUP3 ADD SWAP1 POP SWAP2 SWAP1 POP JUMP JUMPDEST PUSH1 0x0 PUSH2 0x64B DUP3 PUSH2 0x5E0 JUMP JUMPDEST PUSH2 0x655 DUP2 DUP6 PUSH2 0x5EB JUMP JUMPDEST SWAP4 POP PUSH2 0x660 DUP4 PUSH2 0x5FC JUMP JUMPDEST DUP1 PUSH1 0x0 JUMPDEST DUP4 DUP2 LT ISZERO PUSH2 0x691 JUMPI DUP2 MLOAD PUSH2 0x678 DUP9 DUP3 PUSH2 0x61B JUMP JUMPDEST SWAP8 POP PUSH2 0x683 DUP4 PUSH2 0x633 JUMP JUMPDEST SWAP3 POP POP PUSH1 0x1 DUP2 ADD SWAP1 POP PUSH2 0x664 JUMP JUMPDEST POP DUP6 SWAP4 POP POP POP POP SWAP3 SWAP2 POP POP JUMP JUMPDEST PUSH1 0x0 PUSH1 0x20 DUP3 ADD SWAP1 POP DUP2 DUP2 SUB PUSH1 0x0 DUP4 ADD MSTORE PUSH2 0x6B8 DUP2 DUP5 PUSH2 0x640 JUMP JUMPDEST SWAP1 POP SWAP3 SWAP2 POP POP JUMP JUMPDEST PUSH1 0x0 DUP2 MLOAD SWAP1 POP PUSH2 0x6CF DUP2 PUSH2 0x33C JUMP JUMPDEST SWAP3 SWAP2 POP POP JUMP JUMPDEST PUSH1 0x0 PUSH1 0x20 DUP3 DUP5 SUB SLT ISZERO PUSH2 0x6EB JUMPI PUSH2 0x6EA PUSH2 0x16D JUMP JUMPDEST JUMPDEST PUSH1 0x0 PUSH2 0x6F9 DUP5 DUP3 DUP6 ADD PUSH2 0x6C0 JUMP JUMPDEST SWAP2 POP POP SWAP3 SWAP2 POP POP JUMP INVALID LOG2 PUSH5 0x6970667358 0x22 SLT KECCAK256 0xDC 0x5C EXP NUMBER 0xB1 JUMPDEST 0xAF MUL 0xAC REVERT 0x1F 0x1F 0xB7 0x4A 0xAA 0xB7 PUSH5 0xFA6AEC50E3 0xEE PREVRANDAO 0xAC LOG3 PUSH26 0xEF0BB681C164736F6C6343000812003300000000000000000000 "
				},
				"gasEstimates": {
					"creation": {
						"codeDepositCost": "369600",
						"executionCost": "405",
						"totalCost": "370005"
					},
					"external": {
						"getMax(int256[],uint256[])": "infinite"
					}
				},
				"methodIdentifiers": {
					"getMax(int256[],uint256[])": "bad50675"
				}
			},
			"storageLayout": {
				"storage": [],
				"types": null
			},
			"userdoc": {
				"kind": "user",
				"methods": {},
				"version": 1
			}
		}
	}
}